{
  "address": "0x97d3169b051A86Ca5D926cF07257CB347E4F2ed2",
  "abi": [
    {
      "anonymous": false,
      "inputs": [
        {
          "indexed": true,
          "internalType": "address",
          "name": "previousOwner",
          "type": "address"
        },
        {
          "indexed": true,
          "internalType": "address",
          "name": "newOwner",
          "type": "address"
        }
      ],
      "name": "OwnershipTransferred",
      "type": "event"
    },
    {
      "inputs": [
        {
          "internalType": "contract ILendingPool",
          "name": "lendingPool",
          "type": "address"
        },
        {
          "internalType": "contract IDataProvider",
          "name": "dataProvider",
          "type": "address"
        },
        {
          "internalType": "address",
          "name": "user",
          "type": "address"
        }
      ],
      "name": "getReservesWithUserData",
      "outputs": [
        {
          "components": [
            {
              "internalType": "address",
              "name": "token",
              "type": "address"
            },
            {
              "internalType": "address",
              "name": "aToken",
              "type": "address"
            },
            {
              "internalType": "uint256",
              "name": "totalDeposited",
              "type": "uint256"
            },
            {
              "internalType": "uint256",
              "name": "liquidityRate",
              "type": "uint256"
            },
            {
              "internalType": "bool",
              "name": "usageAsCollateralEnabled",
              "type": "bool"
            },
            {
              "internalType": "bool",
              "name": "borrowingEnabled",
              "type": "bool"
            },
            {
              "internalType": "bool",
              "name": "isUsingAsCollateral",
              "type": "bool"
            },
            {
              "internalType": "bool",
              "name": "isBorrowing",
              "type": "bool"
            },
            {
              "internalType": "uint256",
              "name": "stableDebt",
              "type": "uint256"
            },
            {
              "internalType": "address",
              "name": "stableDebtToken",
              "type": "address"
            },
            {
              "internalType": "uint128",
              "name": "stableBorrowRate",
              "type": "uint128"
            },
            {
              "internalType": "uint256",
              "name": "userStableBorrowRate",
              "type": "uint256"
            },
            {
              "internalType": "uint256",
              "name": "variableDebt",
              "type": "uint256"
            },
            {
              "internalType": "address",
              "name": "variableDebtToken",
              "type": "address"
            },
            {
              "internalType": "uint128",
              "name": "variableBorrowRate",
              "type": "uint128"
            },
            {
              "internalType": "uint256",
              "name": "totalDeposits",
              "type": "uint256"
            },
            {
              "internalType": "uint256",
              "name": "availableLiquidity",
              "type": "uint256"
            },
            {
              "internalType": "uint256",
              "name": "totalStableDebt",
              "type": "uint256"
            },
            {
              "internalType": "uint256",
              "name": "totalVariableDebt",
              "type": "uint256"
            }
          ],
          "internalType": "struct AaveV2Multicall.AaveReserve[]",
          "name": "reserves",
          "type": "tuple[]"
        }
      ],
      "stateMutability": "view",
      "type": "function"
    },
    {
      "inputs": [],
      "name": "owner",
      "outputs": [
        {
          "internalType": "address",
          "name": "",
          "type": "address"
        }
      ],
      "stateMutability": "view",
      "type": "function"
    },
    {
      "inputs": [],
      "name": "renounceOwnership",
      "outputs": [],
      "stateMutability": "nonpayable",
      "type": "function"
    },
    {
      "inputs": [
        {
          "internalType": "address",
          "name": "newOwner",
          "type": "address"
        }
      ],
      "name": "transferOwnership",
      "outputs": [],
      "stateMutability": "nonpayable",
      "type": "function"
    }
  ],
  "transactionHash": "0x0b011f04c2f0f0250c093e207b5a5082dde672b4c7cd7394701cfd8b0d05f5ed",
  "args": [],
  "numDeployments": 5,
  "solcInputHash": "d92dfed7b5e8eaa5d8d0eea3046db9e9",
  "bytecode": "0x6080806040523461005b5760008054336001600160a01b0319821681178355916001600160a01b03909116907f8be0079c531659141344cd1fd0a4f28419497f9722a3daafe3b4186f6b6457e09084a36114b690816100618239f35b600080fdfe61012080604052600436101561001457600080fd5b60003560e01c90816348f59e591461006d57508063715018a6146100645780638da5cb5b1461005b5763f2fde38b1461004e575b38600080fd5b610056610b08565b610048565b50610056610ab5565b50610056610a0d565b3461085c5760607ffffffffffffffffffffffffffffffffffffffffffffffffffffffffffffffffc36011261085c57600435906100a982610861565b602435906100b682610861565b6100c1604435610861565b7fd1946dbc00000000000000000000000000000000000000000000000000000000815273ffffffffffffffffffffffffffffffffffffffff6000826004818488165afa91821561084f575b60009261082a575b5061011f8251610e57565b6040517f4417a58300000000000000000000000000000000000000000000000000000000815260443573ffffffffffffffffffffffffffffffffffffffff166004820152909390926020846024818987165afa93841561081d575b6000946107ec575b5060005b81518110156107da5761031285856101806102148b6101c26101a8888a611010565b5173ffffffffffffffffffffffffffffffffffffffff1690565b6040519485809481937f35ea6a750000000000000000000000000000000000000000000000000000000083526004830191909173ffffffffffffffffffffffffffffffffffffffff6020820193169052565b0392165afa9081156107cd575b60009161079c575b50868661028e61014061023f6101a8898b611010565b6040517f3e15014100000000000000000000000000000000000000000000000000000000815273ffffffffffffffffffffffffffffffffffffffff909116600482015291829081906024820190565b03818686165afa801561078f575b600091600091610751575b506101206102b86101a88a8c611010565b6040517f28dd2d0100000000000000000000000000000000000000000000000000000000815273ffffffffffffffffffffffffffffffffffffffff9182166004820152604480359092166024820152988991829190820190565b03818787165afa908115610744575b600092896000928c6000986000986000976106f5575b60049d5061039b61039b60e08e60209561014061035e6103b4976101c26101a88e8d611010565b0392165afa80156106e8575b600061010052600060a052600060c0526106a6575b50015173ffffffffffffffffffffffffffffffffffffffff1690565b73ffffffffffffffffffffffffffffffffffffffff1690565b6040519d8e80927f18160ddd0000000000000000000000000000000000000000000000000000000082525afa9b8c15610699575b60009c610662575b50826103fb91611010565b5173ffffffffffffffffffffffffffffffffffffffff169960e08a01516104359073ffffffffffffffffffffffffffffffffffffffff1690565b60e05261044283826113ea565b9261044c9161138b565b926101008a01516104709073ffffffffffffffffffffffffffffffffffffffff1690565b9560a08b015161048f906fffffffffffffffffffffffffffffffff1690565b976101208c01516104b39073ffffffffffffffffffffffffffffffffffffffff1690565b6080909c01516fffffffffffffffffffffffffffffffff169c6104d4610d50565b90816080526104f8919073ffffffffffffffffffffffffffffffffffffffff169052565b60e05160805160200190610521919073ffffffffffffffffffffffffffffffffffffffff169052565b608051604001526080516060015260805160800190610541919015159052565b60805190151560a09091015260805190151560c09091015260805190151560e09091015260805161010001526080516101200190610594919073ffffffffffffffffffffffffffffffffffffffff169052565b60805161014001906105b791906fffffffffffffffffffffffffffffffff169052565b608051610160015260805161018001526080516101a001906105ee919073ffffffffffffffffffffffffffffffffffffffff169052565b6080516101c0019061061191906fffffffffffffffffffffffffffffffff169052565b6080516101e0015261010051608051610200015260a051608051610220015260c05160805161024001526080516106488288611010565b526106538187611010565b5061065d90610fd6565b610186565b6103fb919c5061068a849160203d602011610692575b6106828183610d02565b810190611279565b9c91506103f0565b503d610678565b6106a1610e4a565b6103e8565b6106c9906101403d610140116106e1575b6106c18183610d02565b81019061122c565b50505050505050916101005260a05260c0523861037f565b503d6106b7565b6106f0610e4a565b61036a565b965094509750955087945080996101203d6101201161073d575b6107198183610d02565b8101610724916111e7565b50949d919c969b50999498909490935091506103379050565b503d61070f565b61074c610e4a565b610321565b905061077791506101403d61014011610788575b61076f8183610d02565b81019061117e565b50505095509350505050908e6102a7565b503d610765565b610797610e4a565b61029c565b6107c091506101803d610180116107c6575b6107b88183610d02565b810190611090565b8a610229565b503d6107ae565b6107d5610e4a565b610221565b604051806107e8888261087f565b0390f35b61080f91945060203d602011610816575b6108078183610d02565b810190610f8f565b9286610182565b503d6107fd565b610825610e4a565b61017a565b6108489192503d806000833e6108408183610d02565b810190610dc6565b9084610114565b610857610e4a565b61010c565b600080fd5b73ffffffffffffffffffffffffffffffffffffffff81160361085c57565b60208082019080835283518092528060408094019401926000905b8382106108a957505050505090565b90919293948361026060019288516108d782825173ffffffffffffffffffffffffffffffffffffffff169052565b8084015173ffffffffffffffffffffffffffffffffffffffff168285015280860151828701526060808201519083015260808082015115159083015260a08181015115159083015260c08181015115159083015260e08181015115159083015261010081810151908301526101208082015173ffffffffffffffffffffffffffffffffffffffff1690830152610140818101516fffffffffffffffffffffffffffffffff1690830152610160818101519083015261018080820151908301526101a08082015173ffffffffffffffffffffffffffffffffffffffff16908301526101c0818101516fffffffffffffffffffffffffffffffff16908301526101e08181015190830152610200808201519083015261022080820151908301526102409081015190820152019601949392019061089a565b503461085c576000807ffffffffffffffffffffffffffffffffffffffffffffffffffffffffffffffffc360112610ab25780547fffffffffffffffffffffffff000000000000000000000000000000000000000073ffffffffffffffffffffffffffffffffffffffff821691610a84338414610bfe565b16825581604051917f8be0079c531659141344cd1fd0a4f28419497f9722a3daafe3b4186f6b6457e08284a3f35b80fd5b503461085c5760007ffffffffffffffffffffffffffffffffffffffffffffffffffffffffffffffffc36011261085c57602073ffffffffffffffffffffffffffffffffffffffff60005416604051908152f35b503461085c5760207ffffffffffffffffffffffffffffffffffffffffffffffffffffffffffffffffc36011261085c57600435610b4481610861565b73ffffffffffffffffffffffffffffffffffffffff610b6881600054163314610bfe565b811615610b7a57610b7890610c63565b005b60846040517f08c379a000000000000000000000000000000000000000000000000000000000815260206004820152602660248201527f4f776e61626c653a206e6577206f776e657220697320746865207a65726f206160448201527f64647265737300000000000000000000000000000000000000000000000000006064820152fd5b15610c0557565b60646040517f08c379a000000000000000000000000000000000000000000000000000000000815260206004820152602060248201527f4f776e61626c653a2063616c6c6572206973206e6f7420746865206f776e65726044820152fd5b6000549073ffffffffffffffffffffffffffffffffffffffff80911691827fffffffffffffffffffffffff0000000000000000000000000000000000000000821617600055167f8be0079c531659141344cd1fd0a4f28419497f9722a3daafe3b4186f6b6457e06000604051a3565b507f4e487b7100000000000000000000000000000000000000000000000000000000600052604160045260246000fd5b90601f7fffffffffffffffffffffffffffffffffffffffffffffffffffffffffffffffe0910116810190811067ffffffffffffffff821117610d4357604052565b610d4b610cd2565b604052565b60405190610260820182811067ffffffffffffffff821117610d4357604052565b60405190610180820182811067ffffffffffffffff821117610d4357604052565b60209067ffffffffffffffff8111610dac575b60051b0190565b610db4610cd2565b610da5565b5190610dc482610861565b565b602090818184031261085c5780519067ffffffffffffffff821161085c57019180601f8401121561085c578251610dfc81610d92565b93610e0a6040519586610d02565b818552838086019260051b82010192831161085c578301905b828210610e31575050505090565b8380918351610e3f81610861565b815201910190610e23565b506040513d6000823e3d90fd5b90610e6182610d92565b604090610e7082519182610d02565b8381527fffffffffffffffffffffffffffffffffffffffffffffffffffffffffffffffe0610e9e8295610d92565b019160005b838110610eb05750505050565b602090610ebb610d50565b60008152826000818301526000858301526000606083015260006080830152600060a0830152600060c0830152600060e08301526000610100830152600061012083015260006101408301526000610160830152600061018083015260006101a083015260006101c083015260006101e0830152600061020083015260006102208301526000610240830152828601015201610ea3565b919082602091031261085c576040516020810181811067ffffffffffffffff821117610f82575b60405291518252565b610f8a610cd2565b610f79565b9060208282031261085c57610fa391610f52565b90565b507f4e487b7100000000000000000000000000000000000000000000000000000000600052601160045260246000fd5b6001907fffffffffffffffffffffffffffffffffffffffffffffffffffffffffffffffff8114611004570190565b61100c610fa6565b0190565b80518210156110245760209160051b010190565b7f4e487b7100000000000000000000000000000000000000000000000000000000600052603260045260246000fd5b51906fffffffffffffffffffffffffffffffff8216820361085c57565b519064ffffffffff8216820361085c57565b519060ff8216820361085c57565b6101808183031261085c576110ad6110a6610d71565b9282610f52565b82526110bb60208201611053565b60208301526110cc60408201611053565b60408301526110dd60608201611053565b60608301526110ee60808201611053565b60808301526110ff60a08201611053565b60a083015261111060c08201611070565b60c083015261112160e08201610db9565b60e0830152610100611134818301610db9565b90830152610120611146818301610db9565b90830152610140611158818301610db9565b9083015261116a610160809201611082565b9082015290565b5190811515820361085c57565b91908261014091031261085c578151916020810151916040820151916060810151916080820151916111b260a08201611171565b916111bf60c08301611171565b916111cc60e08201611171565b91610fa36101206111e06101008501611171565b9301611171565b908161012091031261085c5780519160208201519160408101519160608201519160808101519160a08201519160c081015191610fa36101006111e060e08501611070565b91908261014091031261085c5781519160208101519160408201519160608101519160808201519160a08101519160c08201519160e081015191610fa36101206101008401519301611070565b9081602091031261085c575190565b604051906040820182811067ffffffffffffffff8211176112d3575b604052600282527f37370000000000000000000000000000000000000000000000000000000000006020830152565b6112db610cd2565b6112a4565b156112e85750565b604051907f08c379a00000000000000000000000000000000000000000000000000000000082528160208060048301528251928360248401526000915b848310611372575050601f836044947fffffffffffffffffffffffffffffffffffffffffffffffffffffffffffffffe09311611365575b01168101030190fd5b600085828601015261135c565b8183018101518684016044015285935091820191611325565b906001916113a361139a611288565b608084106112e0565b5190807fffffffffffffffffffffffffffffffffffffffffffffffffffffffffffffffff04600211811515166113dd575b821b1c16151590565b6113e5610fa6565b6113d4565b90600180926114036113fa611288565b608085106112e0565b5191807fffffffffffffffffffffffffffffffffffffffffffffffffffffffffffffffff0460021181151516611473575b811b7ffffffffffffffffffffffffffffffffffffffffffffffffffffffffffffffffe8111611466575b011c16151590565b61146e610fa6565b61145e565b61147b610fa6565b61143456fea2646970667358221220520e76d7e36fd1a3a6a9aa7b107caa22edc648d62d3d02182f946b47e9d2cc5c64736f6c634300080d0033",
  "devdoc": {
    "kind": "dev",
    "methods": {
      "owner()": {
        "details": "Returns the address of the current owner."
      },
      "renounceOwnership()": {
        "details": "Leaves the contract without owner. It will not be possible to call `onlyOwner` functions anymore. Can only be called by the current owner. NOTE: Renouncing ownership will leave the contract without an owner, thereby removing any functionality that is only available to the owner."
      },
      "transferOwnership(address)": {
        "details": "Transfers ownership of the contract to a new account (`newOwner`). Can only be called by the current owner."
      }
    },
    "version": 1
  },
  "userdoc": {
    "kind": "user",
    "methods": {},
    "version": 1
  },
  "storageLayout": {
    "storage": [
      {
        "astId": 400,
        "contract": "contracts/multicall/AaveV2Multicall.sol:AaveV2Multicall",
        "label": "_owner",
        "offset": 0,
        "slot": "0",
        "type": "t_address"
      }
    ],
    "types": {
      "t_address": {
        "encoding": "inplace",
        "label": "address",
        "numberOfBytes": "20"
      }
    }
  }
}