{
  "address": "0x93aBda97Ff6473F09BfC8423F01444ac9333C0cB",
  "abi": [
    {
      "anonymous": false,
      "inputs": [
        {
          "indexed": true,
          "internalType": "address",
          "name": "previousOwner",
          "type": "address"
        },
        {
          "indexed": true,
          "internalType": "address",
          "name": "newOwner",
          "type": "address"
        }
      ],
      "name": "OwnershipTransferred",
      "type": "event"
    },
    {
      "inputs": [
        {
          "internalType": "contract CryptoRegistry",
          "name": "registry",
          "type": "address"
        },
        {
          "internalType": "uint16",
          "name": "from",
          "type": "uint16"
        },
        {
          "internalType": "uint16",
          "name": "pageSize",
          "type": "uint16"
        }
      ],
      "name": "getCryptoPools",
      "outputs": [
        {
          "components": [
            {
              "internalType": "address",
              "name": "poolAddress",
              "type": "address"
            },
            {
              "internalType": "address[8]",
              "name": "tokens",
              "type": "address[8]"
            },
            {
              "internalType": "uint256[8]",
              "name": "balances",
              "type": "uint256[8]"
            },
            {
              "internalType": "uint256",
              "name": "fee",
              "type": "uint256"
            },
            {
              "internalType": "address",
              "name": "lpToken",
              "type": "address"
            },
            {
              "internalType": "string",
              "name": "name",
              "type": "string"
            },
            {
              "internalType": "address[10]",
              "name": "gauges",
              "type": "address[10]"
            },
            {
              "internalType": "int128[10]",
              "name": "gaugeTypes",
              "type": "int128[10]"
            },
            {
              "internalType": "address",
              "name": "zap",
              "type": "address"
            }
          ],
          "internalType": "struct CurveMulticall.CurveCryptoPool[]",
          "name": "pools",
          "type": "tuple[]"
        }
      ],
      "stateMutability": "view",
      "type": "function"
    },
    {
      "inputs": [
        {
          "internalType": "contract CryptoFactory",
          "name": "factory",
          "type": "address"
        },
        {
          "internalType": "uint16",
          "name": "from",
          "type": "uint16"
        },
        {
          "internalType": "uint16",
          "name": "pageSize",
          "type": "uint16"
        }
      ],
      "name": "getFactoryCryptoPools",
      "outputs": [
        {
          "components": [
            {
              "internalType": "address",
              "name": "poolAddress",
              "type": "address"
            },
            {
              "internalType": "address",
              "name": "lpToken",
              "type": "address"
            },
            {
              "internalType": "address[2]",
              "name": "tokens",
              "type": "address[2]"
            },
            {
              "internalType": "uint256[2]",
              "name": "balances",
              "type": "uint256[2]"
            },
            {
              "internalType": "uint256",
              "name": "fee",
              "type": "uint256"
            },
            {
              "internalType": "address",
              "name": "gauge",
              "type": "address"
            }
          ],
          "internalType": "struct CurveMulticall.CurveCryptoFactoryPool[]",
          "name": "pools",
          "type": "tuple[]"
        }
      ],
      "stateMutability": "view",
      "type": "function"
    },
    {
      "inputs": [
        {
          "internalType": "contract MetapoolFactory",
          "name": "factory",
          "type": "address"
        },
        {
          "internalType": "uint16",
          "name": "from",
          "type": "uint16"
        },
        {
          "internalType": "uint16",
          "name": "pageSize",
          "type": "uint16"
        }
      ],
      "name": "getMetaPools",
      "outputs": [
        {
          "components": [
            {
              "internalType": "address",
              "name": "poolAddress",
              "type": "address"
            },
            {
              "internalType": "string",
              "name": "name",
              "type": "string"
            },
            {
              "internalType": "address",
              "name": "basePool",
              "type": "address"
            },
            {
              "internalType": "address[4]",
              "name": "tokens",
              "type": "address[4]"
            },
            {
              "internalType": "address[8]",
              "name": "underlyingTokens",
              "type": "address[8]"
            },
            {
              "internalType": "uint256[4]",
              "name": "balances",
              "type": "uint256[4]"
            },
            {
              "internalType": "uint256[8]",
              "name": "underlyingBalances",
              "type": "uint256[8]"
            },
            {
              "internalType": "uint256",
              "name": "fee",
              "type": "uint256"
            },
            {
              "internalType": "bool",
              "name": "isMeta",
              "type": "bool"
            },
            {
              "internalType": "uint256",
              "name": "assetType",
              "type": "uint256"
            },
            {
              "internalType": "address",
              "name": "gauge",
              "type": "address"
            }
          ],
          "internalType": "struct CurveMulticall.CurveMetapool[]",
          "name": "pools",
          "type": "tuple[]"
        }
      ],
      "stateMutability": "view",
      "type": "function"
    },
    {
      "inputs": [
        {
          "internalType": "address",
          "name": "pool",
          "type": "address"
        }
      ],
      "name": "getPoolFee",
      "outputs": [
        {
          "internalType": "uint256",
          "name": "",
          "type": "uint256"
        }
      ],
      "stateMutability": "view",
      "type": "function"
    },
    {
      "inputs": [
        {
          "internalType": "contract Registry",
          "name": "registry",
          "type": "address"
        },
        {
          "internalType": "uint16",
          "name": "from",
          "type": "uint16"
        },
        {
          "internalType": "uint16",
          "name": "pageSize",
          "type": "uint16"
        }
      ],
      "name": "getPools",
      "outputs": [
        {
          "components": [
            {
              "internalType": "address",
              "name": "poolAddress",
              "type": "address"
            },
            {
              "internalType": "address[8]",
              "name": "tokens",
              "type": "address[8]"
            },
            {
              "internalType": "address[8]",
              "name": "underlyingTokens",
              "type": "address[8]"
            },
            {
              "internalType": "uint256[8]",
              "name": "balances",
              "type": "uint256[8]"
            },
            {
              "internalType": "uint256[8]",
              "name": "underlyingBalances",
              "type": "uint256[8]"
            },
            {
              "internalType": "uint256",
              "name": "fee",
              "type": "uint256"
            },
            {
              "internalType": "uint256[8]",
              "name": "rates",
              "type": "uint256[8]"
            },
            {
              "internalType": "address",
              "name": "lpToken",
              "type": "address"
            },
            {
              "internalType": "bool",
              "name": "isMeta",
              "type": "bool"
            },
            {
              "internalType": "string",
              "name": "name",
              "type": "string"
            },
            {
              "internalType": "uint256",
              "name": "assetType",
              "type": "uint256"
            },
            {
              "internalType": "address[10]",
              "name": "gauges",
              "type": "address[10]"
            },
            {
              "internalType": "int128[10]",
              "name": "gaugeTypes",
              "type": "int128[10]"
            }
          ],
          "internalType": "struct CurveMulticall.CurvePoolInfo[]",
          "name": "pools",
          "type": "tuple[]"
        }
      ],
      "stateMutability": "view",
      "type": "function"
    },
    {
      "inputs": [],
      "name": "owner",
      "outputs": [
        {
          "internalType": "address",
          "name": "",
          "type": "address"
        }
      ],
      "stateMutability": "view",
      "type": "function"
    },
    {
      "inputs": [
        {
          "internalType": "address",
          "name": "to",
          "type": "address"
        },
        {
          "internalType": "address",
          "name": "token",
          "type": "address"
        }
      ],
      "name": "recoverFunds",
      "outputs": [],
      "stateMutability": "nonpayable",
      "type": "function"
    },
    {
      "inputs": [],
      "name": "renounceOwnership",
      "outputs": [],
      "stateMutability": "nonpayable",
      "type": "function"
    },
    {
      "inputs": [
        {
          "internalType": "address",
          "name": "newOwner",
          "type": "address"
        }
      ],
      "name": "transferOwnership",
      "outputs": [],
      "stateMutability": "nonpayable",
      "type": "function"
    }
  ],
  "transactionHash": "0x7518f716b763c896762b73dfa98c53cb96c52de233ccdc764618536c7de5d903",
  "args": [],
  "numDeployments": 14,
  "solcInputHash": "ebcd4bbe8810a2bc8c0fee20600ebd11",
  "bytecode": "0x6080806040523461005b5760008054336001600160a01b0319821681178355916001600160a01b03909116907f8be0079c531659141344cd1fd0a4f28419497f9722a3daafe3b4186f6b6457e09084a361312090816100618239f35b600080fdfe60806040526004361015610013575b600080fd5b60003560e01c8063030e3b08146100c75780631d8b12fe146100be57806322471113146100b557806324ae6a27146100ac57806342fcc6fb146100a3578063715018a61461009a5780638da5cb5b14610091578063bea72365146100885763f2fde38b1461008057600080fd5b61000e612498565b5061000e61204f565b5061000e611ef6565b5061000e611e4e565b5061000e611e00565b5061000e611c70565b5061000e6116f6565b5061000e610d64565b3461000e5760607ffffffffffffffffffffffffffffffffffffffffffffffffffffffffffffffffc36011261000e5760043561010281610891565b61010a6108af565b6101126108c0565b9161012061ffff8416612c57565b91805b610137610130868461299a565b61ffff1690565b61ffff8216101561087f576040517f3a1d5d8e00000000000000000000000000000000000000000000000000000000815261ffff8216600482015260208160248173ffffffffffffffffffffffffffffffffffffffff88165afa908115610872575b600091610853575b506040517f6f20d6dd00000000000000000000000000000000000000000000000000000000815273ffffffffffffffffffffffffffffffffffffffff821660048201526020818060248101038173ffffffffffffffffffffffffffffffffffffffff89165afa908115610846575b600091610827575b506040517f9ac90d3d00000000000000000000000000000000000000000000000000000000815273ffffffffffffffffffffffffffffffffffffffff83811660048301529081906080816024818b86165afa90811561081a575b6000916107eb575b506040517fe4d332a900000000000000000000000000000000000000000000000000000000815273ffffffffffffffffffffffffffffffffffffffff86166004820152906020826024818c87165afa9182156107de575b6000926107ad575b50828280926102e5612817565b91610703575b6040517f92e3cc2d00000000000000000000000000000000000000000000000000000000815273ffffffffffffffffffffffffffffffffffffffff8a1660048201529260809084908e90829081602481010392165afa9283156106f6575b6000936106c5575b5061035a612817565b9361061b575b6040517f66d3966c00000000000000000000000000000000000000000000000000000000815273ffffffffffffffffffffffffffffffffffffffff8a1660048201529560209087908e90829081602481010392165afa95861561060e575b6000966105dd575b506040517fdaf297b900000000000000000000000000000000000000000000000000000000815273ffffffffffffffffffffffffffffffffffffffff8a1660048201529660209088908e90829081602481010392165afa9687156105d0575b600097610587575b5073ffffffffffffffffffffffffffffffffffffffff9495969760008a6004604051809981937f06fdde03000000000000000000000000000000000000000000000000000000008352165afa95861561057a575b600096610555575b506104938a61300a565b9561049c6127a6565b73ffffffffffffffffffffffffffffffffffffffff909b168b5260208b015273ffffffffffffffffffffffffffffffffffffffff1660408a01526060890152608088015260a087015260c086015260e0850152151561010084015261012083015273ffffffffffffffffffffffffffffffffffffffff166101408201526105238383612bf5565b61ffff16906105328287612c14565b5261053d9085612c14565b5061013061054d6101379261297a565b915050610123565b6105739196503d806000833e61056b8183612765565b810190612adb565b948f610489565b6105826129c9565b610481565b73ffffffffffffffffffffffffffffffffffffffff959697506105c19060203d6020116105c9575b6105b98183612765565b8101906129b1565b96959461042d565b503d6105af565b6105d86129c9565b610425565b61060091965060203d602011610607575b6105f88183612765565b810190612b70565b948e6103c6565b503d6105ee565b6106166129c9565b6103be565b6040517f59f4f35100000000000000000000000000000000000000000000000000000000815273ffffffffffffffffffffffffffffffffffffffff8a1660048201529093506101009081818e818a81602481010392165afa9182156106b8575b60009261068b575b505092610360565b6106aa9250803d106106b1575b6106a28183612765565b810190612a74565b8e80610683565b503d610698565b6106c06129c9565b61067b565b6106e891935060803d6080116106ef575b6106e08183612765565b810190612d8f565b918e610351565b503d6106d6565b6106fe6129c9565b610349565b6040517fa77576ef00000000000000000000000000000000000000000000000000000000815273ffffffffffffffffffffffffffffffffffffffff8a1660048201529091506101009081818e818781602481010392165afa9182156107a0575b600092610773575b5050906102eb565b6107929250803d10610799575b61078a8183612765565b810190612a1b565b8e8061076b565b503d610780565b6107a86129c9565b610763565b8392506107d19060203d6020116107d7575b6107c98183612765565b810190612ac3565b916102d8565b503d6107bf565b6107e66129c9565b6102d0565b61080d915060803d608011610813575b6108058183612765565b810190612d36565b8a610279565b503d6107fb565b6108226129c9565b610271565b610840915060203d6020116105c9576105b98183612765565b87610217565b61084e6129c9565b61020f565b61086c915060203d6020116105c9576105b98183612765565b866101a1565b61087a6129c9565b610199565b6040518061088d8682610a15565b0390f35b73ffffffffffffffffffffffffffffffffffffffff81160361000e57565b6024359061ffff8216820361000e57565b6044359061ffff8216820361000e57565b918091926000905b8282106108f15750116108ea575050565b6000910152565b915080602091830151818601520182916108d9565b907fffffffffffffffffffffffffffffffffffffffffffffffffffffffffffffffe0601f602093610942815180928187528780880191016108d1565b0116010190565b6000915b6004831061095a57505050565b60019073ffffffffffffffffffffffffffffffffffffffff8351168152602080910192019201919061094d565b6000915b6008831061099857505050565b60019073ffffffffffffffffffffffffffffffffffffffff8351168152602080910192019201919061098b565b6000915b600483106109d657505050565b6001908251815260208091019201920191906109c9565b6000915b600883106109fe57505050565b6001908251815260208091019201920191906109f1565b602080820190808352835180925260409283810182858560051b8401019601946000925b858410610a4a575050505050505090565b909192939495968580827fffffffffffffffffffffffffffffffffffffffffffffffffffffffffffffffc08560019503018752610b6b8b5191610aa381845173ffffffffffffffffffffffffffffffffffffffff169052565b6103c0610140610ac0868601516103e08089870152850190610906565b8a86015173ffffffffffffffffffffffffffffffffffffffff16848c015294610af160608083015190860190610949565b6080810151610b0560e09182870190610987565b610b1860a08301516101e08701906109c5565b610b2b60c08301516102608701906109ed565b81015161036085015261010081015115156103808501526101208101516103a0850152015173ffffffffffffffffffffffffffffffffffffffff16910152565b990194019401929594939190610a39565b6000915b600a8310610b8d57505050565b60019073ffffffffffffffffffffffffffffffffffffffff83511681526020809101920192019190610b80565b6000915b600a8310610bcb57505050565b6001908251600f0b81526020809101920192019190610bbe565b602080820190808352835180925260409283810182858560051b8401019601946000925b858410610c1a575050505050505090565b909192939495968580827fffffffffffffffffffffffffffffffffffffffffffffffffffffffffffffffc08560019503018752610d538b5191610c7381845173ffffffffffffffffffffffffffffffffffffffff169052565b610c838484015185830190610987565b610700610180610d288a860151610ca06101209182870190610987565b610cb360608801516102208701906109ed565b610cc660808801516103208701906109ed565b60a0870151610420860152610ce460c08801516104408701906109ed565b60e087015173ffffffffffffffffffffffffffffffffffffffff16610540860152610100870151151561056086015286015161084080610580870152850190610906565b946101408101516105a0850152610d496101608201516105c0860190610b7c565b0151910190610bba565b990194019401929594939190610c09565b503461000e5760607ffffffffffffffffffffffffffffffffffffffffffffffffffffffffffffffffc36011261000e57600435610da081610891565b610da86108af565b610db06108c0565b9161ffff91610dc0838516612855565b92815b610dd0610130878561299a565b8282161015611597576040517f3a1d5d8e00000000000000000000000000000000000000000000000000000000815261ffff8216600482015260208160248173ffffffffffffffffffffffffffffffffffffffff89165afa90811561158a575b60009161156b575b506040517f9ac90d3d00000000000000000000000000000000000000000000000000000000815273ffffffffffffffffffffffffffffffffffffffff82166004820152610100818060248101038173ffffffffffffffffffffffffffffffffffffffff8a165afa90811561155e575b60009161153d575b506040517fa77576ef00000000000000000000000000000000000000000000000000000000815273ffffffffffffffffffffffffffffffffffffffff831660048201529086610100838060248101038173ffffffffffffffffffffffffffffffffffffffff85165afa928315611530575b6000936114d9575b506040517f92e3cc2d00000000000000000000000000000000000000000000000000000000815273ffffffffffffffffffffffffffffffffffffffff8581166004830152926112079261119e92611135926110cc9261106392610ff9916101008280602481015b03818d85165afa9182156114cc575b6000926114a9575b506040517f59f4f35100000000000000000000000000000000000000000000000000000000815273ffffffffffffffffffffffffffffffffffffffff8d1660048201529261010090849081906024820190565b03818d85165afa92831561149c575b600093611479575b506040517fce99e45a00000000000000000000000000000000000000000000000000000000815273ffffffffffffffffffffffffffffffffffffffff8d1660048201529461010090869081906024820190565b03818d85165afa94851561146c575b600095611449575b506040517f3795104900000000000000000000000000000000000000000000000000000000815273ffffffffffffffffffffffffffffffffffffffff8d16600482015295602090879081906024820190565b03818d85165afa95861561143c575b60009661141b575b506040517fe4d332a900000000000000000000000000000000000000000000000000000000815273ffffffffffffffffffffffffffffffffffffffff8d16600482015296602090889081906024820190565b03818d85165afa96871561140e575b6000976113ed575b506040517f5c91174100000000000000000000000000000000000000000000000000000000815273ffffffffffffffffffffffffffffffffffffffff8d16600482015297600090899081906024820190565b03818d85165afa9788156113e0575b6000986113c5575b506040517f66d3966c00000000000000000000000000000000000000000000000000000000815273ffffffffffffffffffffffffffffffffffffffff8d166004820152986020908a9081906024820190565b03818d85165afa9889156113b8575b60009961138f575b506040517f56059ffb00000000000000000000000000000000000000000000000000000000815273ffffffffffffffffffffffffffffffffffffffff8d16600482015299610280918b91829081602481015b0392165afa998a15611382575b6000998a9b611349575b506112918c61300a565b9361129a6127b5565b73ffffffffffffffffffffffffffffffffffffffff909d168d5260208d015260408c015260608b015260808a015260a089015260c088015273ffffffffffffffffffffffffffffffffffffffff1660e087015215156101008601526101208501526101408401526101608301526101808201526113178483612bf5565b61ffff16906113268288612c14565b526113319086612c14565b50610130611341610dd09261297a565b915050610dc3565b909a506113719199506102803d6102801161137b575b6113698183612765565b810190612b7f565b9890989938611287565b503d61135f565b61138a6129c9565b61127d565b6102809199506113b06112709160203d602011610607576105f88183612765565b99915061121e565b6113c06129c9565b611216565b6113d991983d8091833e61056b8183612765565b96386111b5565b6113e86129c9565b6111ad565b61140791975060203d6020116107d7576107c98183612765565b953861114c565b6114166129c9565b611144565b61143591965060203d6020116105c9576105b98183612765565b94386110e3565b6114446129c9565b6110db565b6114659195506101003d610100116106b1576106a28183612765565b933861107a565b6114746129c9565b611072565b6114959193506101003d610100116106b1576106a28183612765565b9138611010565b6114a46129c9565b611008565b6114c59192506101003d610100116106b1576106a28183612765565b9038610fa6565b6114d46129c9565b610f9e565b6112079193506111356110cc61106373ffffffffffffffffffffffffffffffffffffffff95610ff9610f8f61152161119e976101003d610100116107995761078a8183612765565b99975050509550505050610f28565b6115386129c9565b610f20565b61155891506101003d610100116107995761078a8183612765565b38610eaf565b6115666129c9565b610ea7565b611584915060203d6020116105c9576105b98183612765565b38610e38565b6115926129c9565b610e30565b6040518061088d8782610be5565b602080820190808352835180925260409283810182858560051b8401019601946000925b8584106115da575050505050505090565b909192939495968580827fffffffffffffffffffffffffffffffffffffffffffffffffffffffffffffffc085600195030187526116e58b519161163381845173ffffffffffffffffffffffffffffffffffffffff169052565b6116438484015185830190610987565b611655888401516101208301906109ed565b6060830151610220820152608083015173ffffffffffffffffffffffffffffffffffffffff166102408201526105006101006116a160a086015161052080610260870152850190610906565b946116b560c0820151610280860190610b7c565b6116c860e08201516103c0860190610bba565b015173ffffffffffffffffffffffffffffffffffffffff16910152565b9901940194019295949391906115c9565b503461000e576060807ffffffffffffffffffffffffffffffffffffffffffffffffffffffffffffffffc36011261000e57600490813561173581610891565b61173d6108af565b6117456108c0565b9361ffff93611755858716612dde565b9473ffffffffffffffffffffffffffffffffffffffff849516945b61177d610130898761299a565b8282161015611c6257604080517f3a1d5d8e000000000000000000000000000000000000000000000000000000008152602088878284806117cb8985830191909161ffff6020820193169052565b0381855afa938415611c55575b600094611c34575b5084611a53949551907f9ac90d3d0000000000000000000000000000000000000000000000000000000082526101009485838061183c8b88830191909173ffffffffffffffffffffffffffffffffffffffff6020820193169052565b0381885afa928315611c27575b600093611c08575b508151917f5c911741000000000000000000000000000000000000000000000000000000008352600083806118a58c89830191909173ffffffffffffffffffffffffffffffffffffffff6020820193169052565b0381895afa928315611bfb575b600093611bd8575b508061197a9394888b6119149451809581927f92e3cc2d0000000000000000000000000000000000000000000000000000000083528b830191909173ffffffffffffffffffffffffffffffffffffffff6020820193169052565b03818b5afa928315611bcb575b600093611bac575b50838b8351809781927f379510490000000000000000000000000000000000000000000000000000000083528b830191909173ffffffffffffffffffffffffffffffffffffffff6020820193169052565b03818b5afa948515611b9f575b600095611b80575b508a8251987f56059ffb000000000000000000000000000000000000000000000000000000008a5261028098898b806119e78685830191909173ffffffffffffffffffffffffffffffffffffffff6020820193169052565b0381855afa9a8b15611b73575b60009a8b9c611b4c575b5050908692918551809e819482937f55335d7b000000000000000000000000000000000000000000000000000000008452830191909173ffffffffffffffffffffffffffffffffffffffff6020820193169052565b03915afa998a15611b3f575b60009a611b20575b50611a718b61300a565b93611a7a6127d6565b73ffffffffffffffffffffffffffffffffffffffff909c168c528b01528901528a88015273ffffffffffffffffffffffffffffffffffffffff16608087015260a086015260c085015260e084015273ffffffffffffffffffffffffffffffffffffffff90911690820152611aee8683612bf5565b61ffff1690611afd828a612c14565b52611b089088612c14565b50610130611b1861177d9261297a565b915050611770565b611b38919a50843d86116105c9576105b98183612765565b9838611a67565b611b476129c9565b611a5f565b611b68929c508894939b50803d1061137b576113698183612765565b9a90999192386119fe565b611b7b6129c9565b6119f4565b611b98919550843d86116105c9576105b98183612765565b933861198f565b611ba76129c9565b611987565b611bc4919350893d8b116106b1576106a28183612765565b9138611929565b611bd36129c9565b611921565b90611bf36119149261197a953d8091833e61056b8183612765565b9350906118ba565b611c036129c9565b6118b2565b611c20919350863d88116107995761078a8183612765565b9138611851565b611c2f6129c9565b611849565b611a539450611c4f90843d86116105c9576105b98183612765565b936117e0565b611c5d6129c9565b6117d8565b6040518061088d89826115a5565b503461000e5760407ffffffffffffffffffffffffffffffffffffffffffffffffffffffffffffffffc36011261000e57611da8600435611caf81610891565b611d8d602435611cbe81610891565b73ffffffffffffffffffffffffffffffffffffffff90611ce38260005416331461258c565b6040517f70a0823100000000000000000000000000000000000000000000000000000000815230600482015260209485939192909116908383602481855afa928315611df3575b600093611dd4575b5060006040518096819582947fa9059cbb000000000000000000000000000000000000000000000000000000008452600484016020909392919373ffffffffffffffffffffffffffffffffffffffff60408201951681520152565b03925af1918215611dc7575b600092611daa575b5050613085565b005b611dc09250803d106107d7576107c98183612765565b3880611da1565b611dcf6129c9565b611d99565b611dec919350843d8611610607576105f88183612765565b9138611d32565b611dfb6129c9565b611d2a565b503461000e5760207ffffffffffffffffffffffffffffffffffffffffffffffffffffffffffffffffc36011261000e576020611e46600435611e4181610891565b61300a565b604051908152f35b503461000e576000807ffffffffffffffffffffffffffffffffffffffffffffffffffffffffffffffffc360112611ef35780547fffffffffffffffffffffffff000000000000000000000000000000000000000073ffffffffffffffffffffffffffffffffffffffff821691611ec533841461258c565b16825581604051917f8be0079c531659141344cd1fd0a4f28419497f9722a3daafe3b4186f6b6457e08284a3f35b80fd5b503461000e5760007ffffffffffffffffffffffffffffffffffffffffffffffffffffffffffffffffc36011261000e57602073ffffffffffffffffffffffffffffffffffffffff60005416604051908152f35b6000915b60028310611f5a57505050565b600190825181526020809101920192019190611f4d565b6020808201908083528351809252806040809401940192600080915b848310611f9d5750505050505090565b90919293949584875173ffffffffffffffffffffffffffffffffffffffff808251168452808383015116838501528482015185850187905b60028210612036575050505060019261202860a083606061010095015161200160809182870190611f49565b81015160c0850152015173ffffffffffffffffffffffffffffffffffffffff1660e0830152565b019701959493019190611f8d565b8251841681528a95928301926001929092019101611fd5565b503461000e576060807ffffffffffffffffffffffffffffffffffffffffffffffffffffffffffffffffc36011261000e57600480359061208e82610891565b6120966108af565b9261209f6108c0565b9361ffff916120af838716612eb0565b9473ffffffffffffffffffffffffffffffffffffffff90811693835b6120d86101308a8761299a565b828216101561248a5761013061236e6120d8926123688b60408c898d8351937f3a1d5d8e0000000000000000000000000000000000000000000000000000000085526020938486806121378c85830191909161ffff6020820193169052565b0381865afa95861561247d575b60009661244e575b509181859361234a96886122ba979551947f9ac90d3d0000000000000000000000000000000000000000000000000000000086528486806121ac8588830191909173ffffffffffffffffffffffffffffffffffffffff6020820193169052565b0381845afa958615612441575b600096612412575b508451967f92e3cc2d0000000000000000000000000000000000000000000000000000000088528588806122148689830191909173ffffffffffffffffffffffffffffffffffffffff6020820193169052565b0381855afa978815612405575b6000986123d2575b508385918751968780927ffc0c546a00000000000000000000000000000000000000000000000000000000825287165afa9485156123c5575b6000956123a6575b508551809a819482937fdaf297b9000000000000000000000000000000000000000000000000000000008452830191909173ffffffffffffffffffffffffffffffffffffffff6020820193169052565b03915afa958615612399575b600096612376575b50612321906122dc8961300a565b956123046122e86127e3565b73ffffffffffffffffffffffffffffffffffffffff909b168b52565b89019073ffffffffffffffffffffffffffffffffffffffff169052565b8601528d850152608084015273ffffffffffffffffffffffffffffffffffffffff1660a0830152565b61236161235a6101308d87612bf5565b8093612c14565b528c612c14565b5061297a565b9150506120cb565b61232191965061239290863d88116105c9576105b98183612765565b95906122ce565b6123a16129c9565b6122c6565b6123be919550843d86116105c9576105b98183612765565b933861226a565b6123cd6129c9565b612262565b859198506123f68591883d8a116123fe575b6123ee8183612765565b810190612fbb565b989150612229565b503d6123e4565b61240d6129c9565b612221565b612433919650853d871161243a575b61242b8183612765565b810190612f62565b94386121c1565b503d612421565b6124496129c9565b6121b9565b8593919650916124716122ba959361234a973d87116105c9576105b98183612765565b9691939550919361214c565b6124856129c9565b612144565b6040518061088d8a82611f71565b503461000e5760207ffffffffffffffffffffffffffffffffffffffffffffffffffffffffffffffffc36011261000e576004356124d481610891565b73ffffffffffffffffffffffffffffffffffffffff6124f88160005416331461258c565b81161561250857611da8906125f1565b60846040517f08c379a000000000000000000000000000000000000000000000000000000000815260206004820152602660248201527f4f776e61626c653a206e6577206f776e657220697320746865207a65726f206160448201527f64647265737300000000000000000000000000000000000000000000000000006064820152fd5b1561259357565b60646040517f08c379a000000000000000000000000000000000000000000000000000000000815260206004820152602060248201527f4f776e61626c653a2063616c6c6572206973206e6f7420746865206f776e65726044820152fd5b6000549073ffffffffffffffffffffffffffffffffffffffff80911691827fffffffffffffffffffffffff0000000000000000000000000000000000000000821617600055167f8be0079c531659141344cd1fd0a4f28419497f9722a3daafe3b4186f6b6457e06000604051a3565b507f4e487b7100000000000000000000000000000000000000000000000000000000600052604160045260246000fd5b610160810190811067ffffffffffffffff8211176126ad57604052565b6126b5612660565b604052565b610120810190811067ffffffffffffffff8211176126ad57604052565b60c0810190811067ffffffffffffffff8211176126ad57604052565b610100810190811067ffffffffffffffff8211176126ad57604052565b610140810190811067ffffffffffffffff8211176126ad57604052565b6080810190811067ffffffffffffffff8211176126ad57604052565b6040810190811067ffffffffffffffff8211176126ad57604052565b90601f7fffffffffffffffffffffffffffffffffffffffffffffffffffffffffffffffe0910116810190811067ffffffffffffffff8211176126ad57604052565b604051906127b382612690565b565b604051906101a0820182811067ffffffffffffffff8211176126ad57604052565b604051906127b3826126ba565b604051906127b3826126d7565b60209067ffffffffffffffff811161280a575b60051b0190565b612812612660565b612803565b60405190612824826126f3565b610100368337565b6040519061283982612710565b610140368337565b6040519061284e8261272d565b6080368337565b9061285f826127f0565b60409061286e82519182612765565b8381527fffffffffffffffffffffffffffffffffffffffffffffffffffffffffffffffe061289c82956127f0565b019160005b8381106128ae5750505050565b6020906128b96127b5565b600081526128c5612817565b81840152826128d2612817565b858301526128de612817565b606090818401526128ed612817565b6080840152600060a0840152612901612817565b60c0840152600060e08401526000610100840152610120830152600061014083015261292b61282c565b61016083015261293961282c565b6101808301528286010152016128a1565b507f4e487b7100000000000000000000000000000000000000000000000000000000600052601160045260246000fd5b60019061ffff80911690811461298e570190565b61299661294a565b0190565b9061ffff808093169116809203811161298e570190565b9081602091031261000e57516129c681610891565b90565b506040513d6000823e3d90fd5b9190604051926129e584612710565b8390610140810192831161000e57905b828210612a0157505050565b602080918351612a1081610891565b8152019101906129f5565b90610100808383031261000e5781601f8401121561000e5760405192612a40846126f3565b8391810192831161000e57905b828210612a5a5750505090565b602080918351612a6981610891565b815201910190612a4d565b90610100808383031261000e5781601f8401121561000e5760405192612a99846126f3565b8391810192831161000e57905b828210612ab35750505090565b8151815260209182019101612aa6565b9081602091031261000e5751801515810361000e5790565b60208183031261000e57805167ffffffffffffffff9182821161000e57019082601f8301121561000e578151908111612b63575b60405192612b4560207fffffffffffffffffffffffffffffffffffffffffffffffffffffffffffffffe0601f8501160185612765565b8184526020828401011161000e576129c691602080850191016108d1565b612b6b612660565b612b0f565b9081602091031261000e575190565b919091610280808285031261000e5783601f8301121561000e57612ba384836129d6565b938061015f8401121561000e5760405192612bbd84612710565b8392810191821161000e5761014001915b818310612bdb5750505090565b825180600f0b810361000e57815260209283019201612bce565b61ffff9182169116818110612c08570390565b612c1061294a565b0390565b8051821015612c285760209160051b010190565b7f4e487b7100000000000000000000000000000000000000000000000000000000600052603260045260246000fd5b90612c61826127f0565b604090612c7082519182612765565b8381527fffffffffffffffffffffffffffffffffffffffffffffffffffffffffffffffe0612c9e82956127f0565b019160005b838110612cb05750505050565b6020908251612cbe81612690565b600081526060839080828401526000868401528551612cdc8161272d565b60809182368337840152612cee612817565b90830152612cfa612841565b60a0830152612d07612817565b60c0830152600060e0830152600061010083015260006101208301526000610140830152828601015201612ca3565b9060808282031261000e5780601f8301121561000e5760405191612d598361272d565b82906080810192831161000e57905b828210612d755750505090565b602080918351612d8481610891565b815201910190612d68565b9060808282031261000e5780601f8301121561000e5760405191612db28361272d565b82906080810192831161000e57905b828210612dce5750505090565b8151815260209182019101612dc1565b90612de8826127f0565b604090612df782519182612765565b8381527fffffffffffffffffffffffffffffffffffffffffffffffffffffffffffffffe0612e2582956127f0565b019160005b838110612e375750505050565b6020908251612e45816126ba565b600081528351612e54816126f3565b6000610100803684378592838501528651612e6e816126f3565b81368237878501526060828186015282608086015260a0850152612e9061282c565b60c0850152612e9d61282c565b60e0850152830152828601015201612e2a565b90612eba826127f0565b604090612ec982519182612765565b8381527fffffffffffffffffffffffffffffffffffffffffffffffffffffffffffffffe0612ef782956127f0565b019160005b838110612f095750505050565b6020908251612f17816126d7565b60008152826000818301528451612f2d81612749565b85368237858301528451612f4081612749565b85368237606083015260006080830152600060a0830152828601015201612efc565b9060408282031261000e5780601f8301121561000e5760405191612f8583612749565b82906040810192831161000e57905b828210612fa15750505090565b602080918351612fb081610891565b815201910190612f94565b9060408282031261000e5780601f8301121561000e5760405191612fde83612749565b82906040810192831161000e57905b828210612ffa5750505090565b8151815260209182019101612fed565b602073ffffffffffffffffffffffffffffffffffffffff916004604051809481937fddca3f43000000000000000000000000000000000000000000000000000000008352165afa60009181613065575b506129c65750600090565b61307e91925060203d8111610607576105f88183612765565b903861305a565b1561308c57565b60646040517f08c379a000000000000000000000000000000000000000000000000000000000815260206004820152601560248201527f546f6b656e207265636f76657279206661696c656400000000000000000000006044820152fdfea2646970667358221220f84f0ad929f9eee5cdb2ed9cd5a31e7c51fa62f91231e557b42a9d1594376baa64736f6c634300080d0033",
  "devdoc": {
    "kind": "dev",
    "methods": {
      "owner()": {
        "details": "Returns the address of the current owner."
      },
      "renounceOwnership()": {
        "details": "Leaves the contract without owner. It will not be possible to call `onlyOwner` functions anymore. Can only be called by the current owner. NOTE: Renouncing ownership will leave the contract without an owner, thereby removing any functionality that is only available to the owner."
      },
      "transferOwnership(address)": {
        "details": "Transfers ownership of the contract to a new account (`newOwner`). Can only be called by the current owner."
      }
    },
    "version": 1
  },
  "userdoc": {
    "kind": "user",
    "methods": {},
    "version": 1
  },
  "storageLayout": {
    "storage": [
      {
        "astId": 400,
        "contract": "contracts/multicall/CurveMulticall.sol:CurveMulticall",
        "label": "_owner",
        "offset": 0,
        "slot": "0",
        "type": "t_address"
      }
    ],
    "types": {
      "t_address": {
        "encoding": "inplace",
        "label": "address",
        "numberOfBytes": "20"
      }
    }
  }
}