{
  "address": "0x425c9eA5aad6e8ceA1A4A9aD53731D5e124bF3A2",
  "abi": [
    {
      "anonymous": false,
      "inputs": [
        {
          "indexed": true,
          "internalType": "address",
          "name": "previousOwner",
          "type": "address"
        },
        {
          "indexed": true,
          "internalType": "address",
          "name": "newOwner",
          "type": "address"
        }
      ],
      "name": "OwnershipTransferred",
      "type": "event"
    },
    {
      "inputs": [
        {
          "internalType": "contract CryptoRegistry",
          "name": "registry",
          "type": "address"
        },
        {
          "internalType": "uint16",
          "name": "from",
          "type": "uint16"
        },
        {
          "internalType": "uint16",
          "name": "pageSize",
          "type": "uint16"
        }
      ],
      "name": "getCryptoPools",
      "outputs": [
        {
          "components": [
            {
              "internalType": "address",
              "name": "poolAddress",
              "type": "address"
            },
            {
              "internalType": "address[8]",
              "name": "tokens",
              "type": "address[8]"
            },
            {
              "internalType": "uint256[8]",
              "name": "balances",
              "type": "uint256[8]"
            },
            {
              "internalType": "address",
              "name": "lpToken",
              "type": "address"
            },
            {
              "internalType": "string",
              "name": "name",
              "type": "string"
            },
            {
              "internalType": "address[10]",
              "name": "gauges",
              "type": "address[10]"
            },
            {
              "internalType": "int128[10]",
              "name": "gaugeTypes",
              "type": "int128[10]"
            },
            {
              "internalType": "address",
              "name": "zap",
              "type": "address"
            }
          ],
          "internalType": "struct CurveMulticall.CurveCryptoPool[]",
          "name": "pools",
          "type": "tuple[]"
        }
      ],
      "stateMutability": "view",
      "type": "function"
    },
    {
      "inputs": [
        {
          "internalType": "contract CryptoFactory",
          "name": "factory",
          "type": "address"
        },
        {
          "internalType": "uint16",
          "name": "from",
          "type": "uint16"
        },
        {
          "internalType": "uint16",
          "name": "pageSize",
          "type": "uint16"
        }
      ],
      "name": "getFactoryCryptoPools",
      "outputs": [
        {
          "components": [
            {
              "internalType": "address",
              "name": "poolAddress",
              "type": "address"
            },
            {
              "internalType": "address",
              "name": "lpToken",
              "type": "address"
            },
            {
              "internalType": "address[2]",
              "name": "tokens",
              "type": "address[2]"
            },
            {
              "internalType": "uint256[2]",
              "name": "balances",
              "type": "uint256[2]"
            },
            {
              "internalType": "address",
              "name": "gauge",
              "type": "address"
            }
          ],
          "internalType": "struct CurveMulticall.CurveCryptoFactoryPool[]",
          "name": "pools",
          "type": "tuple[]"
        }
      ],
      "stateMutability": "view",
      "type": "function"
    },
    {
      "inputs": [
        {
          "internalType": "contract MetapoolFactory",
          "name": "factory",
          "type": "address"
        },
        {
          "internalType": "uint16",
          "name": "from",
          "type": "uint16"
        },
        {
          "internalType": "uint16",
          "name": "pageSize",
          "type": "uint16"
        }
      ],
      "name": "getMetaPools",
      "outputs": [
        {
          "components": [
            {
              "internalType": "address",
              "name": "poolAddress",
              "type": "address"
            },
            {
              "internalType": "string",
              "name": "name",
              "type": "string"
            },
            {
              "internalType": "address",
              "name": "basePool",
              "type": "address"
            },
            {
              "internalType": "address[4]",
              "name": "tokens",
              "type": "address[4]"
            },
            {
              "internalType": "address[8]",
              "name": "underlyingTokens",
              "type": "address[8]"
            },
            {
              "internalType": "uint256[4]",
              "name": "balances",
              "type": "uint256[4]"
            },
            {
              "internalType": "uint256[8]",
              "name": "underlyingBalances",
              "type": "uint256[8]"
            },
            {
              "internalType": "bool",
              "name": "isMeta",
              "type": "bool"
            },
            {
              "internalType": "uint256",
              "name": "assetType",
              "type": "uint256"
            },
            {
              "internalType": "address",
              "name": "gauge",
              "type": "address"
            }
          ],
          "internalType": "struct CurveMulticall.CurveMetapool[]",
          "name": "pools",
          "type": "tuple[]"
        }
      ],
      "stateMutability": "view",
      "type": "function"
    },
    {
      "inputs": [
        {
          "internalType": "contract Registry",
          "name": "registry",
          "type": "address"
        },
        {
          "internalType": "uint16",
          "name": "from",
          "type": "uint16"
        },
        {
          "internalType": "uint16",
          "name": "pageSize",
          "type": "uint16"
        }
      ],
      "name": "getPools",
      "outputs": [
        {
          "components": [
            {
              "internalType": "address",
              "name": "poolAddress",
              "type": "address"
            },
            {
              "internalType": "address[8]",
              "name": "tokens",
              "type": "address[8]"
            },
            {
              "internalType": "address[8]",
              "name": "underlyingTokens",
              "type": "address[8]"
            },
            {
              "internalType": "uint256[8]",
              "name": "balances",
              "type": "uint256[8]"
            },
            {
              "internalType": "uint256[8]",
              "name": "underlyingBalances",
              "type": "uint256[8]"
            },
            {
              "internalType": "uint256[8]",
              "name": "rates",
              "type": "uint256[8]"
            },
            {
              "internalType": "address",
              "name": "lpToken",
              "type": "address"
            },
            {
              "internalType": "bool",
              "name": "isMeta",
              "type": "bool"
            },
            {
              "internalType": "string",
              "name": "name",
              "type": "string"
            },
            {
              "internalType": "uint256",
              "name": "assetType",
              "type": "uint256"
            },
            {
              "internalType": "address[10]",
              "name": "gauges",
              "type": "address[10]"
            },
            {
              "internalType": "int128[10]",
              "name": "gaugeTypes",
              "type": "int128[10]"
            }
          ],
          "internalType": "struct CurveMulticall.CurvePool[]",
          "name": "pools",
          "type": "tuple[]"
        }
      ],
      "stateMutability": "view",
      "type": "function"
    },
    {
      "inputs": [],
      "name": "owner",
      "outputs": [
        {
          "internalType": "address",
          "name": "",
          "type": "address"
        }
      ],
      "stateMutability": "view",
      "type": "function"
    },
    {
      "inputs": [
        {
          "internalType": "address",
          "name": "to",
          "type": "address"
        },
        {
          "internalType": "address",
          "name": "token",
          "type": "address"
        }
      ],
      "name": "recoverFunds",
      "outputs": [],
      "stateMutability": "nonpayable",
      "type": "function"
    },
    {
      "inputs": [],
      "name": "renounceOwnership",
      "outputs": [],
      "stateMutability": "nonpayable",
      "type": "function"
    },
    {
      "inputs": [
        {
          "internalType": "address",
          "name": "newOwner",
          "type": "address"
        }
      ],
      "name": "transferOwnership",
      "outputs": [],
      "stateMutability": "nonpayable",
      "type": "function"
    }
  ],
  "transactionHash": "0x7af283f3f32118c9e96d255cedbbc635d729eaa7f173693135f01930ca9cb41d",
  "args": [],
  "numDeployments": 12,
  "solcInputHash": "5d650b94aba909da86f57c83ec9bdcee",
  "bytecode": "0x6080806040523461005b5760008054336001600160a01b0319821681178355916001600160a01b03909116907f8be0079c531659141344cd1fd0a4f28419497f9722a3daafe3b4186f6b6457e09084a361306590816100618239f35b600080fdfe61012060405260048036101561001457600080fd5b6000908160c052813560e01c918263030e3b08146100c457505080631d8b12fe146100bb57806322471113146100b257806324ae6a27146100a9578063715018a6146100a05780638da5cb5b14610097578063bea723651461008e5763f2fde38b14610081575b38600080fd5b61008961248b565b61007b565b5061008961203d565b50610089611eee565b50610089611e49565b50610089611cb9565b5061008961172d565b50610089610da3565b346108da57606090817ffffffffffffffffffffffffffffffffffffffffffffffffffffffffffffffffc3601126108da5750813591610102836108dd565b61010a610900565b60a052610115610911565b61ffff9073ffffffffffffffffffffffffffffffffffffffff610139838316612c0b565b9560a05160805216610100525b61015c6101558260a05161294e565b61ffff1690565b826080511610156108c85761015561015c916040517f3a1d5d8e000000000000000000000000000000000000000000000000000000008152602081806101b16080518a830191909161ffff6020820193169052565b0381610100515afa80156108bb575b60c05160e05261089a575b506105946020610571876040517f6f20d6dd00000000000000000000000000000000000000000000000000000000815283818061022960e05186830191909173ffffffffffffffffffffffffffffffffffffffff6020820193169052565b0381610100515afa90811561088d575b60c05191610870575b508a6040517f9ac90d3d0000000000000000000000000000000000000000000000000000000081526080818061029960e05188830191909173ffffffffffffffffffffffffffffffffffffffff6020820193169052565b0381610100515afa908115610863575b60c05191610834575b506040517fe4d332a900000000000000000000000000000000000000000000000000000000815260e05173ffffffffffffffffffffffffffffffffffffffff168582019081528790829081906020010381610100515afa908115610827575b60c051916107fa575b50908190816103276127d0565b9061074e575b604051917f92e3cc2d0000000000000000000000000000000000000000000000000000000083526080838061038360e0518c830191909173ffffffffffffffffffffffffffffffffffffffff6020820193169052565b0381610100515afa928315610741575b60c05193610710575b506103a56127d0565b9361065c575b604051957f66d3966c0000000000000000000000000000000000000000000000000000000087528a878061040060e0518d830191909173ffffffffffffffffffffffffffffffffffffffff6020820193169052565b0381610100515afa96871561064f575b60c05197610620575b50604051977fdaf297b90000000000000000000000000000000000000000000000000000000089528b89806104708d60e05190830191909173ffffffffffffffffffffffffffffffffffffffff6020820193169052565b0381610100515afa988915610613575b60c051996105d9575b506105329061054d98999a604051907f06fdde030000000000000000000000000000000000000000000000000000000082528160c051918173ffffffffffffffffffffffffffffffffffffffff60e051165afa9081156105cc575b60c051916105ab575b506104f6612760565b60e05173ffffffffffffffffffffffffffffffffffffffff1681529d8e015273ffffffffffffffffffffffffffffffffffffffff1660408d0152565b8a0152608089015260a088015260c0870152151560e0860152565b61010084015273ffffffffffffffffffffffffffffffffffffffff16610120830152565b61058261015560a051608051612ba9565b9061058d828b612bc8565b5288612bc8565b506105a060805161292e565b608052915050610146565b6105c6913d8091833e6105be818361271f565b810190612a8f565b386104ed565b6105d461297d565b6104e4565b61054d98995090610603610532928e3d60201161060c575b6105fb818361271f565b810190612965565b99985090610489565b503d6105f1565b61061b61297d565b610480565b6106419197508b3d8d11610648575b610639818361271f565b810190612b24565b9538610419565b503d61062f565b61065761297d565b610410565b92506040517f59f4f35100000000000000000000000000000000000000000000000000000000815261010081806106b460e0518c830191909173ffffffffffffffffffffffffffffffffffffffff6020820193169052565b038183515afa908115610703575b60c051916106d2575b50926103ab565b6106f691506101003d610100116106fc575b6106ee818361271f565b810190612a28565b386106cb565b503d6106e4565b61070b61297d565b6106c2565b61073391935060803d60801161073a575b61072b818361271f565b810190612d3b565b913861039c565b503d610721565b61074961297d565b610393565b506040517fa77576ef00000000000000000000000000000000000000000000000000000000815260e05173ffffffffffffffffffffffffffffffffffffffff168782019081526101009082908190602001038183515afa9081156107ed575b60c051916107bc575b5061032d565b6107e091506101003d610100116107e6575b6107d8818361271f565b8101906129cf565b386107b6565b503d6107ce565b6107f561297d565b6107ad565b61081a9150873d8911610820575b610812818361271f565b810190612a77565b8f61031a565b503d610808565b61082f61297d565b610311565b610856915060803d60801161085c575b61084e818361271f565b810190612ce2565b8e6102b2565b503d610844565b61086b61297d565b6102a9565b6108879150843d861161060c576105fb818361271f565b8c610242565b61089561297d565b610239565b6108b29060203d60201161060c576105fb818361271f565b60e052876101cb565b6108c361297d565b6101c0565b604051806108d68782610a66565b0390f35b80fd5b73ffffffffffffffffffffffffffffffffffffffff8116036108fb57565b600080fd5b6024359061ffff821682036108fb57565b6044359061ffff821682036108fb57565b918091926000905b82821061094257501161093b575050565b6000910152565b9150806020918301518186015201829161092a565b907fffffffffffffffffffffffffffffffffffffffffffffffffffffffffffffffe0601f60209361099381518092818752878088019101610922565b0116010190565b6000915b600483106109ab57505050565b60019073ffffffffffffffffffffffffffffffffffffffff8351168152602080910192019201919061099e565b6000915b600883106109e957505050565b60019073ffffffffffffffffffffffffffffffffffffffff835116815260208091019201920191906109dc565b6000915b60048310610a2757505050565b600190825181526020809101920192019190610a1a565b6000915b60088310610a4f57505050565b600190825181526020809101920192019190610a42565b602080820190808352835180925260409283810182858560051b8401019601946000925b858410610a9b575050505050505090565b909192939495968580827fffffffffffffffffffffffffffffffffffffffffffffffffffffffffffffffc08560019503018752610bb58b5191610af481845173ffffffffffffffffffffffffffffffffffffffff169052565b6103a0610120610b11868601516103c08089870152850190610957565b8a86015173ffffffffffffffffffffffffffffffffffffffff16848c015294610b426060808301519086019061099a565b610b8c6080820151610b5960e091828801906109d8565b610b6c60a08401516101e0880190610a16565b610b7f60c0840151610260880190610a3e565b8201511515610360860152565b610100810151610380850152015173ffffffffffffffffffffffffffffffffffffffff16910152565b990194019401929594939190610a8a565b6000915b600a8310610bd757505050565b60019073ffffffffffffffffffffffffffffffffffffffff83511681526020809101920192019190610bca565b6000915b600a8310610c1557505050565b6001908251600f0b81526020809101920192019190610c08565b602080820190808352835180925260409283810182858560051b8401019601946000925b858410610c64575050505050505090565b909192939495968580827fffffffffffffffffffffffffffffffffffffffffffffffffffffffffffffffc08560019503018752610d928b5191610cbd81845173ffffffffffffffffffffffffffffffffffffffff169052565b610ccd84840151858301906109d8565b6106e06101608985015194610ce861012096878601906109d8565b610cfb6060820151610220860190610a3e565b610d0e6080820151610320860190610a3e565b610d2160a0820151610420860190610a3e565b60c081015173ffffffffffffffffffffffffffffffffffffffff1661052085015260e08101511515610540850152610d6a61010082015161082080610560880152860190610957565b95810151610580850152610d886101408201516105a0860190610bc6565b0151910190610c04565b990194019401929594939190610c53565b50346108fb576060807ffffffffffffffffffffffffffffffffffffffffffffffffffffffffffffffffc3601126108fb5760043590610de1826108dd565b610de9610900565b91610df2610911565b9261ffff92610e0284861661280e565b93825b610e12610155888661294e565b82821610156115da576040517f3a1d5d8e00000000000000000000000000000000000000000000000000000000815261ffff8216600482015260208160248173ffffffffffffffffffffffffffffffffffffffff8a165afa9081156115cd575b6000916115ae575b506040517f9ac90d3d00000000000000000000000000000000000000000000000000000000815273ffffffffffffffffffffffffffffffffffffffff8216600482015286610100828060248101038173ffffffffffffffffffffffffffffffffffffffff85165afa9182156115a1575b600092611548575b506112576111ee61118561111c6110b3611049610fdf610f7573ffffffffffffffffffffffffffffffffffffffff986101008c604051809481927fa77576ef0000000000000000000000000000000000000000000000000000000083526004830191909173ffffffffffffffffffffffffffffffffffffffff6020820193169052565b03818d85165afa91821561153b575b600092611518575b506040517f92e3cc2d00000000000000000000000000000000000000000000000000000000815273ffffffffffffffffffffffffffffffffffffffff8d1660048201529261010090849081906024820190565b03818d85165afa92831561150b575b6000936114e8575b506040517f59f4f35100000000000000000000000000000000000000000000000000000000815273ffffffffffffffffffffffffffffffffffffffff8d1660048201529361010090859081906024820190565b03818d85165afa9384156114db575b6000946114b8575b506040517fce99e45a00000000000000000000000000000000000000000000000000000000815273ffffffffffffffffffffffffffffffffffffffff8d1660048201529461010090869081906024820190565b03818d85165afa9485156114ab575b600095611488575b506040517f3795104900000000000000000000000000000000000000000000000000000000815273ffffffffffffffffffffffffffffffffffffffff8d16600482015295602090879081906024820190565b03818d85165afa95861561147b575b60009661145a575b506040517fe4d332a900000000000000000000000000000000000000000000000000000000815273ffffffffffffffffffffffffffffffffffffffff8d16600482015296602090889081906024820190565b03818d85165afa96871561144d575b60009761142c575b506040517f5c91174100000000000000000000000000000000000000000000000000000000815273ffffffffffffffffffffffffffffffffffffffff8d16600482015297600090899081906024820190565b03818d85165afa97881561141f575b600098611404575b506040517f66d3966c00000000000000000000000000000000000000000000000000000000815273ffffffffffffffffffffffffffffffffffffffff8d166004820152986020908a9081906024820190565b03818d85165afa9889156113f7575b6000996113ce575b506040517f56059ffb00000000000000000000000000000000000000000000000000000000815273ffffffffffffffffffffffffffffffffffffffff8d16600482015299610280918b91829081602481015b0392165afa998a156113c1575b6000998a9b611388575b506112e061276f565b73ffffffffffffffffffffffffffffffffffffffff909c168c5260208c015260408b01528c8a0152608089015260a088015273ffffffffffffffffffffffffffffffffffffffff1660c0870152151560e08601526101008501526101208401526101408301526101608201526113568583612ba9565b61ffff16906113658289612bc8565b526113709087612bc8565b50610155611380610e129261292e565b915050610e05565b909a506113b09199506102803d610280116113ba575b6113a8818361271f565b810190612b33565b98909899386112d7565b503d61139e565b6113c961297d565b6112cd565b6102809199506113ef6112c09160203d60201161064857610639818361271f565b99915061126e565b6113ff61297d565b611266565b61141891983d8091833e6105be818361271f565b9638611205565b61142761297d565b6111fd565b61144691975060203d60201161082057610812818361271f565b953861119c565b61145561297d565b611194565b61147491965060203d60201161060c576105fb818361271f565b9438611133565b61148361297d565b61112b565b6114a49195506101003d610100116106fc576106ee818361271f565b93386110ca565b6114b361297d565b6110c2565b6114d49194506101003d610100116106fc576106ee818361271f565b9238611060565b6114e361297d565b611058565b6115049193506101003d610100116106fc576106ee818361271f565b9138610ff6565b61151361297d565b610fee565b6115349192506101003d610100116107e6576107d8818361271f565b9038610f8c565b61154361297d565b610f84565b73ffffffffffffffffffffffffffffffffffffffff9192506111ee61118561111c6110b3611049610fdf610f75611592611257986101003d610100116107e6576107d8818361271f565b99985050505050505050610ef2565b6115a961297d565b610eea565b6115c7915060203d60201161060c576105fb818361271f565b38610e7a565b6115d561297d565b610e72565b604051806108d68882610c2f565b602080820190808352835180925260409283810182858560051b8401019601946000925b85841061161d575050505050505090565b909192939495968580827fffffffffffffffffffffffffffffffffffffffffffffffffffffffffffffffc0856001950301875261171c8b519161167681845173ffffffffffffffffffffffffffffffffffffffff169052565b61168684840151858301906109d8565b61169888840151610120830190610a3e565b606083015173ffffffffffffffffffffffffffffffffffffffff166102208201526104e060e06116d8608086015161050080610240870152850190610957565b946116ec60a0820151610260860190610bc6565b6116ff60c08201516103a0860190610c04565b015173ffffffffffffffffffffffffffffffffffffffff16910152565b99019401940192959493919061160c565b50346108fb576060807ffffffffffffffffffffffffffffffffffffffffffffffffffffffffffffffffc3601126108fb57600480359061176c826108dd565b611774610900565b9261177d610911565b9361ffff9361178d858716612d8a565b9473ffffffffffffffffffffffffffffffffffffffff839216915b6117b5610155898661294e565b8282161015611cab57610155611b536117b592611b4d8a898b60408a8151927f3a1d5d8e0000000000000000000000000000000000000000000000000000000084526020928385806118148c86830191909161ffff6020820193169052565b0381865afa948515611c9e575b600095611c73575b509081611b2f9596611a9c949351907f9ac90d3d00000000000000000000000000000000000000000000000000000000825261010080838061188a8d89830191909173ffffffffffffffffffffffffffffffffffffffff6020820193169052565b0381895afa928315611c66575b600093611c45575b5083517f5c91174100000000000000000000000000000000000000000000000000000000815273ffffffffffffffffffffffffffffffffffffffff8b1686820190815293949093600090859081906020015b03818a5afa938415611c38575b600094611c1b575b506119c6939461195f838d8451809381927f92e3cc2d0000000000000000000000000000000000000000000000000000000083528c830191909173ffffffffffffffffffffffffffffffffffffffff6020820193169052565b03818c5afa938415611c0e575b600094611bef575b5050898c8351809781927f379510490000000000000000000000000000000000000000000000000000000083528b830191909173ffffffffffffffffffffffffffffffffffffffff6020820193169052565b03818b5afa948515611be2575b600095611bc3575b50898c8351997f56059ffb000000000000000000000000000000000000000000000000000000008b52610280998a8c80611a348685830191909173ffffffffffffffffffffffffffffffffffffffff6020820193169052565b0381855afa9b8c15611bb6575b60009b8c9d611b8f575b50508551809d819482937f55335d7b000000000000000000000000000000000000000000000000000000008452830191909173ffffffffffffffffffffffffffffffffffffffff6020820193169052565b03915afa988915611b82575b600099611b5b575b50611b039596979899611ae0611ac461277c565b73ffffffffffffffffffffffffffffffffffffffff909e168e52565b8c01528a015288019073ffffffffffffffffffffffffffffffffffffffff169052565b608086015260a085015260c084015273ffffffffffffffffffffffffffffffffffffffff1660e0830152565b611b46611b3f6101558c87612ba9565b8093612bc8565b528b612bc8565b5061292e565b9150506117a8565b611b039697989950611b79908b3d8d1161060c576105fb818361271f565b98979695611ab0565b611b8a61297d565b611aa8565b8091929d50611bab939c50903d106113ba576113a8818361271f565b9990999a3880611a4b565b611bbe61297d565b611a41565b611bdb9195508a3d8c1161060c576105fb818361271f565b93386119db565b611bea61297d565b6119d3565b611c06929450803d106106fc576106ee818361271f565b913880611974565b611c1661297d565b61196c565b611c32906119c6953d8091833e6105be818361271f565b93611906565b611c4061297d565b6118fe565b6118f19350611c6090823d84116107e6576107d8818361271f565b9261189f565b611c6e61297d565b611897565b611b2f955090611c94611a9c949392863d881161060c576105fb818361271f565b9550909192611829565b611ca661297d565b611821565b604051806108d689826115e8565b50346108fb5760407ffffffffffffffffffffffffffffffffffffffffffffffffffffffffffffffffc3601126108fb57611df1600435611cf8816108dd565b611dd6602435611d07816108dd565b73ffffffffffffffffffffffffffffffffffffffff90611d2c8260005416331461257f565b6040517f70a0823100000000000000000000000000000000000000000000000000000000815230600482015260209485939192909116908383602481855afa928315611e3c575b600093611e1d575b5060006040518096819582947fa9059cbb000000000000000000000000000000000000000000000000000000008452600484016020909392919373ffffffffffffffffffffffffffffffffffffffff60408201951681520152565b03925af1918215611e10575b600092611df3575b5050612fca565b005b611e099250803d1061082057610812818361271f565b3880611dea565b611e1861297d565b611de2565b611e35919350843d861161064857610639818361271f565b9138611d7b565b611e4461297d565b611d73565b50346108fb576000807ffffffffffffffffffffffffffffffffffffffffffffffffffffffffffffffffc3601126108da5780547fffffffffffffffffffffffff000000000000000000000000000000000000000073ffffffffffffffffffffffffffffffffffffffff821691611ec033841461257f565b16825581604051917f8be0079c531659141344cd1fd0a4f28419497f9722a3daafe3b4186f6b6457e08284a3f35b50346108fb5760007ffffffffffffffffffffffffffffffffffffffffffffffffffffffffffffffffc3601126108fb57602073ffffffffffffffffffffffffffffffffffffffff60005416604051908152f35b6000915b60028310611f5257505050565b600190825181526020809101920192019190611f45565b6020808201908083528351809252806040809401940192600080915b848310611f955750505050505090565b90919293949584875173ffffffffffffffffffffffffffffffffffffffff808251168452808383015116838501528482015185850187905b60028210612024575050505060019261201682606060e094015190611ff760809283860190611f41565b015173ffffffffffffffffffffffffffffffffffffffff1660c0830152565b019701959493019190611f85565b8251841681528a95928301926001929092019101611fcd565b50346108fb576060807ffffffffffffffffffffffffffffffffffffffffffffffffffffffffffffffffc3601126108fb57600480359061207c826108dd565b612084610900565b61208c610911565b9261ffff9461209c868616612e59565b9573ffffffffffffffffffffffffffffffffffffffff92831690845b6120c5610155898861294e565b828216101561247d576101556123486120c592611b4d8c8b8b8b8b8b60408051957f3a1d5d8e0000000000000000000000000000000000000000000000000000000087526121278a8880602093849386830191909161ffff6020820193169052565b0381875afa978815612470575b600098612430575b5094610155946123419794846122ba94611b3f998c61233b9851947f9ac90d3d0000000000000000000000000000000000000000000000000000000086528486806121a68588830191909173ffffffffffffffffffffffffffffffffffffffff6020820193169052565b0381845afa958615612423575b6000966123f4575b508451977f92e3cc2d00000000000000000000000000000000000000000000000000000000895285898061220e8689830191909173ffffffffffffffffffffffffffffffffffffffff6020820193169052565b0381855afa9889156123e7575b6000996123ae575b509083859493928751958680927ffc0c546a00000000000000000000000000000000000000000000000000000000825286165afa9384156123a1575b600094612382575b508293948651809b819482937fdaf297b9000000000000000000000000000000000000000000000000000000008452830191909173ffffffffffffffffffffffffffffffffffffffff6020820193169052565b03915afa968715612375575b600097612350575b5090612318916122fb6122df612789565b73ffffffffffffffffffffffffffffffffffffffff909f168f52565b8d019073ffffffffffffffffffffffffffffffffffffffff169052565b8a015288015273ffffffffffffffffffffffffffffffffffffffff166080870152565b87612ba9565b528d612bc8565b9150506120b8565b81975061236d9061231893923d8a1161060c576105fb818361271f565b9690916122ce565b61237d61297d565b6122c6565b83945061239b90843d861161060c576105fb818361271f565b93612267565b6123a961297d565b61225f565b849392919950936123d58695883d8a116123e0575b6123cd818361271f565b810190612f7b565b999192939450612223565b503d6123c3565b6123ef61297d565b61221b565b612415919650853d871161241c575b61240d818361271f565b810190612f22565b94386121bb565b503d612403565b61242b61297d565b6121b3565b81985094612341979461233b946122ba9461245f6101559986611b3f9c97903d1061060c576105fb818361271f565b9b949950945094509497509461213c565b61247861297d565b612134565b604051806108d68b82611f69565b50346108fb5760207ffffffffffffffffffffffffffffffffffffffffffffffffffffffffffffffffc3601126108fb576004356124c7816108dd565b73ffffffffffffffffffffffffffffffffffffffff6124eb8160005416331461257f565b8116156124fb57611df1906125e4565b60846040517f08c379a000000000000000000000000000000000000000000000000000000000815260206004820152602660248201527f4f776e61626c653a206e6577206f776e657220697320746865207a65726f206160448201527f64647265737300000000000000000000000000000000000000000000000000006064820152fd5b1561258657565b60646040517f08c379a000000000000000000000000000000000000000000000000000000000815260206004820152602060248201527f4f776e61626c653a2063616c6c6572206973206e6f7420746865206f776e65726044820152fd5b6000549073ffffffffffffffffffffffffffffffffffffffff80911691827fffffffffffffffffffffffff0000000000000000000000000000000000000000821617600055167f8be0079c531659141344cd1fd0a4f28419497f9722a3daafe3b4186f6b6457e06000604051a3565b507f4e487b7100000000000000000000000000000000000000000000000000000000600052604160045260246000fd5b610180810190811067ffffffffffffffff8211176126a057604052565b6126a8612653565b604052565b610140810190811067ffffffffffffffff8211176126a057604052565b610100810190811067ffffffffffffffff8211176126a057604052565b6080810190811067ffffffffffffffff8211176126a057604052565b6040810190811067ffffffffffffffff8211176126a057604052565b90601f7fffffffffffffffffffffffffffffffffffffffffffffffffffffffffffffffe0910116810190811067ffffffffffffffff8211176126a057604052565b6040519061276d826126ad565b565b6040519061276d82612683565b6040519061276d826126ca565b6040519060a0820182811067ffffffffffffffff8211176126a057604052565b60209067ffffffffffffffff81116127c3575b60051b0190565b6127cb612653565b6127bc565b604051906127dd826126ca565b610100368337565b604051906127f2826126ad565b610140368337565b60405190612807826126e7565b6080368337565b90612818826127a9565b6040906128278251918261271f565b8381527fffffffffffffffffffffffffffffffffffffffffffffffffffffffffffffffe061285582956127a9565b019160005b8381106128675750505050565b602090825161287581612683565b600081526128816127d0565b818401528261288e6127d0565b8583015261289a6127d0565b606090818401526128a96127d0565b60808401526128b66127d0565b60a0840152600060c0840152600060e084015261010083015260006101208301526128df6127e5565b6101408301526128ed6127e5565b61016083015282860101520161285a565b507f4e487b7100000000000000000000000000000000000000000000000000000000600052601160045260246000fd5b60019061ffff809116908114612942570190565b61294a6128fe565b0190565b9061ffff8080931691168092038111612942570190565b908160209103126108fb575161297a816108dd565b90565b506040513d6000823e3d90fd5b919060405192612999846126ad565b839061014081019283116108fb57905b8282106129b557505050565b6020809183516129c4816108dd565b8152019101906129a9565b9061010080838303126108fb5781601f840112156108fb57604051926129f4846126ca565b839181019283116108fb57905b828210612a0e5750505090565b602080918351612a1d816108dd565b815201910190612a01565b9061010080838303126108fb5781601f840112156108fb5760405192612a4d846126ca565b839181019283116108fb57905b828210612a675750505090565b8151815260209182019101612a5a565b908160209103126108fb575180151581036108fb5790565b6020818303126108fb57805167ffffffffffffffff918282116108fb57019082601f830112156108fb578151908111612b17575b60405192612af960207fffffffffffffffffffffffffffffffffffffffffffffffffffffffffffffffe0601f850116018561271f565b818452602082840101116108fb5761297a9160208085019101610922565b612b1f612653565b612ac3565b908160209103126108fb575190565b91909161028080828503126108fb5783601f830112156108fb57612b57848361298a565b938061015f840112156108fb5760405192612b71846126ad565b839281019182116108fb5761014001915b818310612b8f5750505090565b825180600f0b81036108fb57815260209283019201612b82565b61ffff9182169116818110612bbc570390565b612bc46128fe565b0390565b8051821015612bdc5760209160051b010190565b7f4e487b7100000000000000000000000000000000000000000000000000000000600052603260045260246000fd5b90612c15826127a9565b604090612c248251918261271f565b8381527fffffffffffffffffffffffffffffffffffffffffffffffffffffffffffffffe0612c5282956127a9565b019160005b838110612c645750505050565b6020908251612c72816126ad565b600081526060839080828401526000868401528551612c90816126e7565b60809182368337840152612ca26127d0565b90830152612cae6127fa565b60a0830152612cbb6127d0565b60c0830152600060e083015260006101008301526000610120830152828601015201612c57565b906080828203126108fb5780601f830112156108fb5760405191612d05836126e7565b8290608081019283116108fb57905b828210612d215750505090565b602080918351612d30816108dd565b815201910190612d14565b906080828203126108fb5780601f830112156108fb5760405191612d5e836126e7565b8290608081019283116108fb57905b828210612d7a5750505090565b8151815260209182019101612d6d565b90612d94826127a9565b604090612da38251918261271f565b8381527fffffffffffffffffffffffffffffffffffffffffffffffffffffffffffffffe0612dd182956127a9565b0191600091825b848110612de6575050505050565b6020908351612df4816126ca565b8581528451612e02816126ca565b61010080368337849182840152865190612e1b826126ca565b36823786830152606087818401526080830152612e366127e5565b60a0830152612e436127e5565b60c08301528660e0830152828501015201612dd8565b90612e63826127a9565b604090612e728251918261271f565b8381527fffffffffffffffffffffffffffffffffffffffffffffffffffffffffffffffe0612ea082956127a9565b0191600091825b848110612eb5575050505050565b602090835160a0810181811067ffffffffffffffff821117612f15575b85528581528286818301528551612ee881612703565b86368237868301528551612efb81612703565b863682376060830152866080830152828501015201612ea7565b612f1d612653565b612ed2565b906040828203126108fb5780601f830112156108fb5760405191612f4583612703565b8290604081019283116108fb57905b828210612f615750505090565b602080918351612f70816108dd565b815201910190612f54565b906040828203126108fb5780601f830112156108fb5760405191612f9e83612703565b8290604081019283116108fb57905b828210612fba5750505090565b8151815260209182019101612fad565b15612fd157565b60646040517f08c379a000000000000000000000000000000000000000000000000000000000815260206004820152601560248201527f546f6b656e207265636f76657279206661696c656400000000000000000000006044820152fdfea2646970667358221220f68c902843a907ed9915b323391562b1a616ba3b7b6aa44007d4f061563dcdeb64736f6c634300080d0033",
  "devdoc": {
    "kind": "dev",
    "methods": {
      "owner()": {
        "details": "Returns the address of the current owner."
      },
      "renounceOwnership()": {
        "details": "Leaves the contract without owner. It will not be possible to call `onlyOwner` functions anymore. Can only be called by the current owner. NOTE: Renouncing ownership will leave the contract without an owner, thereby removing any functionality that is only available to the owner."
      },
      "transferOwnership(address)": {
        "details": "Transfers ownership of the contract to a new account (`newOwner`). Can only be called by the current owner."
      }
    },
    "version": 1
  },
  "userdoc": {
    "kind": "user",
    "methods": {},
    "version": 1
  },
  "storageLayout": {
    "storage": [
      {
        "astId": 400,
        "contract": "contracts/multicall/CurveMulticall.sol:CurveMulticall",
        "label": "_owner",
        "offset": 0,
        "slot": "0",
        "type": "t_address"
      }
    ],
    "types": {
      "t_address": {
        "encoding": "inplace",
        "label": "address",
        "numberOfBytes": "20"
      }
    }
  }
}