{
  "address": "0xeea6c6834a4d39764D4aBDbcbfE7a7E81B7d531D",
  "abi": [
    {
      "anonymous": false,
      "inputs": [
        {
          "indexed": true,
          "internalType": "address",
          "name": "previousOwner",
          "type": "address"
        },
        {
          "indexed": true,
          "internalType": "address",
          "name": "newOwner",
          "type": "address"
        }
      ],
      "name": "OwnershipTransferred",
      "type": "event"
    },
    {
      "inputs": [
        {
          "internalType": "contract GaugeFactory",
          "name": "factory",
          "type": "address"
        }
      ],
      "name": "getGaugesInfo",
      "outputs": [
        {
          "components": [
            {
              "internalType": "address",
              "name": "gauge",
              "type": "address"
            }
          ],
          "internalType": "struct CurveGaugesMulticall.GaugeInfo[]",
          "name": "gauges",
          "type": "tuple[]"
        }
      ],
      "stateMutability": "view",
      "type": "function"
    },
    {
      "inputs": [
        {
          "internalType": "contract GaugeFactory",
          "name": "factory",
          "type": "address"
        },
        {
          "internalType": "address[]",
          "name": "gauges",
          "type": "address[]"
        },
        {
          "internalType": "address",
          "name": "userAddress",
          "type": "address"
        }
      ],
      "name": "getUserGauges",
      "outputs": [
        {
          "components": [
            {
              "internalType": "address",
              "name": "gauge",
              "type": "address"
            },
            {
              "internalType": "address",
              "name": "lpToken",
              "type": "address"
            },
            {
              "internalType": "uint256",
              "name": "poolShare",
              "type": "uint256"
            },
            {
              "internalType": "uint256",
              "name": "claimableCrv",
              "type": "uint256"
            },
            {
              "internalType": "address[2]",
              "name": "extraRewardTokens",
              "type": "address[2]"
            },
            {
              "internalType": "uint256[2]",
              "name": "extraRewardAmounts",
              "type": "uint256[2]"
            }
          ],
          "internalType": "struct CurveGaugesMulticall.UserGauge[]",
          "name": "userGauges",
          "type": "tuple[]"
        }
      ],
      "stateMutability": "view",
      "type": "function"
    },
    {
      "inputs": [
        {
          "internalType": "uint256",
          "name": "a",
          "type": "uint256"
        },
        {
          "internalType": "uint256",
          "name": "b",
          "type": "uint256"
        }
      ],
      "name": "min",
      "outputs": [
        {
          "internalType": "uint256",
          "name": "",
          "type": "uint256"
        }
      ],
      "stateMutability": "pure",
      "type": "function"
    },
    {
      "inputs": [],
      "name": "owner",
      "outputs": [
        {
          "internalType": "address",
          "name": "",
          "type": "address"
        }
      ],
      "stateMutability": "view",
      "type": "function"
    },
    {
      "inputs": [
        {
          "internalType": "address",
          "name": "to",
          "type": "address"
        },
        {
          "internalType": "address",
          "name": "token",
          "type": "address"
        }
      ],
      "name": "recoverFunds",
      "outputs": [],
      "stateMutability": "nonpayable",
      "type": "function"
    },
    {
      "inputs": [],
      "name": "renounceOwnership",
      "outputs": [],
      "stateMutability": "nonpayable",
      "type": "function"
    },
    {
      "inputs": [
        {
          "internalType": "address",
          "name": "newOwner",
          "type": "address"
        }
      ],
      "name": "transferOwnership",
      "outputs": [],
      "stateMutability": "nonpayable",
      "type": "function"
    }
  ],
  "transactionHash": "0xd7e4e17c812b00e1532a0d6bf5f959e1dc07ff80b103f6823ce10797c50d3f21",
  "args": [],
  "numDeployments": 3,
  "solcInputHash": "4c7c4c9b199bf6544911e86ad5b9fd53",
  "bytecode": "0x6080806040523461005b5760008054336001600160a01b0319821681178355916001600160a01b03909116907f8be0079c531659141344cd1fd0a4f28419497f9722a3daafe3b4186f6b6457e09084a361151090816100618239f35b600080fdfe6080604081815260048036101561001557600080fd5b600091823560e01c93846313284bd7146100b15750505050806324ae6a27146100a8578063362a64a31461009f578063715018a6146100965780637ae2b5c71461008d5780638da5cb5b146100845763f2fde38b14610077575b388080600080fd5b61007f6108b8565b61006f565b5061007f610865565b5061007f610814565b5061007f61076c565b5061007f610696565b5061007f610301565b34610279576020807ffffffffffffffffffffffffffffffffffffffffffffffffffffffffffffffffc360112610275578335906100ed8261027d565b73ffffffffffffffffffffffffffffffffffffffff8092167ff111569c00000000000000000000000000000000000000000000000000000000845281848781845afa938415610268575b8794610239575b5061014884610a9c565b95875b8581106101635786518061015f8a826102a0565b0390f35b6101fa9087517f285218480000000000000000000000000000000000000000000000000000000081528581806101a0858883019190602083019252565b0381885afa90811561022c575b8b916101ff575b506101df876101c1610557565b9216829073ffffffffffffffffffffffffffffffffffffffff169052565b6101e9828b610be4565b526101f4818a610be4565b50610b62565b61014b565b61021f9150863d8811610225575b6102178183610516565b810190610b9c565b8b6101b4565b503d61020d565b610234610a8f565b6101ad565b61025a919450823d8411610261575b6102528183610516565b810190610a80565b928761013e565b503d610248565b610270610a8f565b610137565b8480fd5b8380fd5b73ffffffffffffffffffffffffffffffffffffffff81160361029b57565b600080fd5b6020908160408183019282815285518094520193019160005b8281106102c7575050505090565b83515173ffffffffffffffffffffffffffffffffffffffff16855293810193928101926001016102b9565b604435906102ff8261027d565b565b503461029b5760407ffffffffffffffffffffffffffffffffffffffffffffffffffffffffffffffffc36011261029b576104396004356103408161027d565b61041e60243561034f8161027d565b73ffffffffffffffffffffffffffffffffffffffff90610374826000541633146109ac565b6040517f70a0823100000000000000000000000000000000000000000000000000000000815230600482015260209485939192909116908383602481855afa928315610494575b600093610475575b5060006040518096819582947fa9059cbb000000000000000000000000000000000000000000000000000000008452600484016020909392919373ffffffffffffffffffffffffffffffffffffffff60408201951681520152565b03925af1918215610468575b60009261043b575b5050611463565b005b61045a9250803d10610461575b6104528183610516565b81019061144b565b3880610432565b503d610448565b610470610a8f565b61042a565b61048d919350843d8611610261576102528183610516565b91386103c3565b61049c610a8f565b6103bb565b507f4e487b7100000000000000000000000000000000000000000000000000000000600052604160045260246000fd5b60c0810190811067ffffffffffffffff8211176104ed57604052565b6104f56104a1565b604052565b6040810190811067ffffffffffffffff8211176104ed57604052565b90601f7fffffffffffffffffffffffffffffffffffffffffffffffffffffffffffffffe0910116810190811067ffffffffffffffff8211176104ed57604052565b604051906020820182811067ffffffffffffffff8211176104ed57604052565b604051906102ff826104d1565b60209067ffffffffffffffff811161059e575b60051b0190565b6105a66104a1565b610597565b6000915b600283106105bc57505050565b6001908251815260208091019201920191906105af565b6020808201908083528351809252806040809401940192600080915b8483106105ff5750505050505090565b90919293949584875173ffffffffffffffffffffffffffffffffffffffff8082511684528083830151168385015284820151858501526060808301519085015260808083015190850187905b6002821061067d575050505060019261066f60a061010093015160c08301906105ab565b0197019594930191906105ef565b8251841681528a9592830192600192909201910161064b565b503461029b5760607ffffffffffffffffffffffffffffffffffffffffffffffffffffffffffffffffc36011261029b576004356106d28161027d565b60243567ffffffffffffffff811161029b573660238201121561029b5780600401356106fd81610584565b9161070b6040519384610516565b81835260209160248385019160051b8301019136831161029b57602401905b8282106107535761015f61074787876107416102f2565b91610dad565b604051918291826105d3565b83809183356107618161027d565b81520191019061072a565b503461029b576000807ffffffffffffffffffffffffffffffffffffffffffffffffffffffffffffffffc3601126108115780547fffffffffffffffffffffffff000000000000000000000000000000000000000073ffffffffffffffffffffffffffffffffffffffff8216916107e33384146109ac565b16825581604051917f8be0079c531659141344cd1fd0a4f28419497f9722a3daafe3b4186f6b6457e08284a3f35b80fd5b503461029b5760407ffffffffffffffffffffffffffffffffffffffffffffffffffffffffffffffffc36011261029b5760206004356024358082101561085e57505b604051908152f35b9050610856565b503461029b5760007ffffffffffffffffffffffffffffffffffffffffffffffffffffffffffffffffc36011261029b57602073ffffffffffffffffffffffffffffffffffffffff60005416604051908152f35b503461029b5760207ffffffffffffffffffffffffffffffffffffffffffffffffffffffffffffffffc36011261029b576004356108f48161027d565b73ffffffffffffffffffffffffffffffffffffffff610918816000541633146109ac565b8116156109285761043990610a11565b60846040517f08c379a000000000000000000000000000000000000000000000000000000000815260206004820152602660248201527f4f776e61626c653a206e6577206f776e657220697320746865207a65726f206160448201527f64647265737300000000000000000000000000000000000000000000000000006064820152fd5b156109b357565b60646040517f08c379a000000000000000000000000000000000000000000000000000000000815260206004820152602060248201527f4f776e61626c653a2063616c6c6572206973206e6f7420746865206f776e65726044820152fd5b6000549073ffffffffffffffffffffffffffffffffffffffff80911691827fffffffffffffffffffffffff0000000000000000000000000000000000000000821617600055167f8be0079c531659141344cd1fd0a4f28419497f9722a3daafe3b4186f6b6457e06000604051a3565b9081602091031261029b575190565b506040513d6000823e3d90fd5b90610aa682610584565b604090610ab582519182610516565b8381527fffffffffffffffffffffffffffffffffffffffffffffffffffffffffffffffe0610ae38295610584565b0191600091825b848110610af8575050505050565b60209083518280820182811067ffffffffffffffff821117610b25575b8652868252828501015201610aea565b610b2d6104a1565b610b15565b507f4e487b7100000000000000000000000000000000000000000000000000000000600052601160045260246000fd5b6001907fffffffffffffffffffffffffffffffffffffffffffffffffffffffffffffffff8114610b90570190565b610b98610b32565b0190565b9081602091031261029b5751610bb18161027d565b90565b507f4e487b7100000000000000000000000000000000000000000000000000000000600052603260045260246000fd5b6020918151811015610bf9575b60051b010190565b610c01610bb4565b610bf1565b60405190610c13826104fa565b6040368337565b90610c2482610584565b604090610c3382519182610516565b8381527fffffffffffffffffffffffffffffffffffffffffffffffffffffffffffffffe0610c618295610584565b019160005b838110610c735750505050565b6020908251610c81816104d1565b6000815282600081830152600085830152600060608301528451610ca4816104fa565b8536823760808301528451610cb8816104fa565b8536823760a0830152828601015201610c66565b818110610cd7570390565b610cdf610b32565b0390565b906002811015610cf45760051b0190565b6105a6610bb4565b670de0b6b3a764000090807fffffffffffffffffffffffffffffffffffffffffffffffffffffffffffffffff04821181151516610d37570290565b610d3f610b32565b0290565b807fffffffffffffffffffffffffffffffffffffffffffffffffffffffffffffffff04821181151516610d37570290565b8115610d7e570490565b7f4e487b7100000000000000000000000000000000000000000000000000000000600052601260045260246000fd5b9291610db98251610c1a565b9160005b815181101561144457610e0c610df3610df3610dd98486610be4565b5173ffffffffffffffffffffffffffffffffffffffff1690565b73ffffffffffffffffffffffffffffffffffffffff1690565b604080517f70a082310000000000000000000000000000000000000000000000000000000080825273ffffffffffffffffffffffffffffffffffffffff871660048084019190915290926020908184602481895afa938415611437575b600094611418575b5083156114095780517f8b752bb000000000000000000000000000000000000000000000000000000000815273ffffffffffffffffffffffffffffffffffffffff808b1685830190815290881660208201528d91610f6591859082908190604001038173ffffffffffffffffffffffffffffffffffffffff8097165afa9081156113fc575b6000916113df575b5083517f0940070700000000000000000000000000000000000000000000000000000000815273ffffffffffffffffffffffffffffffffffffffff8d1687820190815286908290819060200103818d5afa9081156113d2575b6000916113b5575b50610ccc565b93610fae83517f963c94b9000000000000000000000000000000000000000000000000000000008152858184818d5afa9081156113a8575b60009161138b575b509998996114c8565b96610fb7610c06565b96610fc0610c06565b9860008e5b828210611216575050506110f285946110ec6111459589989561116c9f9d9c9b9a6110cb8f826110b091610ffb6111009b610cfc565b956110438d517f18160ddd000000000000000000000000000000000000000000000000000000009889825285828c81885afa918215611209575b6000926111f1575b50610d74565b998d517f82c6306600000000000000000000000000000000000000000000000000000000815284818b81875afa9081156111e4575b6000916111c7575b50169c519384928392835289830191909173ffffffffffffffffffffffffffffffffffffffff6020820193169052565b03818d5afa9081156111ba575b60009161119d575b50610cfc565b918a519384918252818a5afa918215611190575b6000926111715750610d74565b90610d43565b670de0b6b3a7640000900490565b9361112861110c610577565b73ffffffffffffffffffffffffffffffffffffffff909a168a52565b88019073ffffffffffffffffffffffffffffffffffffffff169052565b8501526060840152608083015260a08201526111618287610be4565b526101f48186610be4565b610dbd565b6111899192508a3d8c11610261576102528183610516565b903861103d565b611198610a8f565b6110df565b6111b49150833d8511610261576102528183610516565b386110c5565b6111c2610a8f565b6110bd565b6111de9150853d8711610225576102178183610516565b38611080565b6111ec610a8f565b611078565b611189919250863d8811610261576102528183610516565b611211610a8f565b611035565b908b6113058f9e9f8b8b8f9261132a978c6112ac610dd98a80986112a788517f54c49fe90000000000000000000000000000000000000000000000000000000081528a818061126c878b83019190602083019252565b03818c5afa90811561137e575b600091611361575b5061128c8484610ce3565b9073ffffffffffffffffffffffffffffffffffffffff169052565b610ce3565b93517f33fd6f7400000000000000000000000000000000000000000000000000000000815273ffffffffffffffffffffffffffffffffffffffff9283169181019182529190931660208401529485928391829160400190565b03915afa918215611354575b600092611333575b506113249192610ce3565b52610b62565b8e9c9b9c610fc5565b611324925061134e908d803d10610261576102528183610516565b91611319565b61135c610a8f565b611311565b61137891508b3d8d11610225576102178183610516565b38611281565b611386610a8f565b611279565b6113a29150863d8811610261576102528183610516565b38610fa5565b6113b0610a8f565b610f9d565b6113cc9150863d8811610261576102528183610516565b38610f5f565b6113da610a8f565b610f57565b6113f69150853d8711610261576102528183610516565b38610efe565b611404610a8f565b610ef6565b50505050505061116c90610b62565b611430919450823d8411610261576102528183610516565b9238610e71565b61143f610a8f565b610e69565b5050509150565b9081602091031261029b5751801515810361029b5790565b1561146a57565b60646040517f08c379a000000000000000000000000000000000000000000000000000000000815260206004820152601560248201527f546f6b656e207265636f76657279206661696c656400000000000000000000006044820152fd5b60028110156114d45790565b5060029056fea2646970667358221220b9e0ff41992c21decb718916b0ef80480e84f40befd0cadc0d3cd258bbd5664f64736f6c634300080d0033",
  "devdoc": {
    "kind": "dev",
    "methods": {
      "owner()": {
        "details": "Returns the address of the current owner."
      },
      "renounceOwnership()": {
        "details": "Leaves the contract without owner. It will not be possible to call `onlyOwner` functions anymore. Can only be called by the current owner. NOTE: Renouncing ownership will leave the contract without an owner, thereby removing any functionality that is only available to the owner."
      },
      "transferOwnership(address)": {
        "details": "Transfers ownership of the contract to a new account (`newOwner`). Can only be called by the current owner."
      }
    },
    "version": 1
  },
  "userdoc": {
    "kind": "user",
    "methods": {},
    "version": 1
  },
  "storageLayout": {
    "storage": [
      {
        "astId": 400,
        "contract": "contracts/multicall/CurveGaugesMulticall.sol:CurveGaugesMulticall",
        "label": "_owner",
        "offset": 0,
        "slot": "0",
        "type": "t_address"
      }
    ],
    "types": {
      "t_address": {
        "encoding": "inplace",
        "label": "address",
        "numberOfBytes": "20"
      }
    }
  }
}