{
  "address": "0xCBeAAF40D351Ee8284c86593353b47C056C99C51",
  "abi": [
    {
      "anonymous": false,
      "inputs": [
        {
          "indexed": true,
          "internalType": "address",
          "name": "previousOwner",
          "type": "address"
        },
        {
          "indexed": true,
          "internalType": "address",
          "name": "newOwner",
          "type": "address"
        }
      ],
      "name": "OwnershipTransferred",
      "type": "event"
    },
    {
      "inputs": [
        {
          "internalType": "contract CryptoRegistry",
          "name": "registry",
          "type": "address"
        },
        {
          "internalType": "uint16",
          "name": "from",
          "type": "uint16"
        },
        {
          "internalType": "uint16",
          "name": "pageSize",
          "type": "uint16"
        }
      ],
      "name": "getCryptoPools",
      "outputs": [
        {
          "components": [
            {
              "internalType": "address",
              "name": "poolAddress",
              "type": "address"
            },
            {
              "internalType": "address[8]",
              "name": "tokens",
              "type": "address[8]"
            },
            {
              "internalType": "uint256[8]",
              "name": "balances",
              "type": "uint256[8]"
            },
            {
              "internalType": "address",
              "name": "lpToken",
              "type": "address"
            },
            {
              "internalType": "string",
              "name": "name",
              "type": "string"
            },
            {
              "internalType": "address[10]",
              "name": "gauges",
              "type": "address[10]"
            },
            {
              "internalType": "int128[10]",
              "name": "gaugeTypes",
              "type": "int128[10]"
            },
            {
              "internalType": "address",
              "name": "zap",
              "type": "address"
            }
          ],
          "internalType": "struct CurveMulticall.CurveCryptoPool[]",
          "name": "pools",
          "type": "tuple[]"
        }
      ],
      "stateMutability": "view",
      "type": "function"
    },
    {
      "inputs": [
        {
          "internalType": "contract CryptoFactory",
          "name": "factory",
          "type": "address"
        },
        {
          "internalType": "uint16",
          "name": "from",
          "type": "uint16"
        },
        {
          "internalType": "uint16",
          "name": "pageSize",
          "type": "uint16"
        }
      ],
      "name": "getFactoryCryptoPools",
      "outputs": [
        {
          "components": [
            {
              "internalType": "address",
              "name": "poolAddress",
              "type": "address"
            },
            {
              "internalType": "address[2]",
              "name": "tokens",
              "type": "address[2]"
            },
            {
              "internalType": "uint256[2]",
              "name": "balances",
              "type": "uint256[2]"
            },
            {
              "internalType": "address",
              "name": "gauge",
              "type": "address"
            }
          ],
          "internalType": "struct CurveMulticall.CurveCryptoFactoryPool[]",
          "name": "pools",
          "type": "tuple[]"
        }
      ],
      "stateMutability": "view",
      "type": "function"
    },
    {
      "inputs": [
        {
          "internalType": "contract MetapoolFactory",
          "name": "factory",
          "type": "address"
        },
        {
          "internalType": "uint16",
          "name": "from",
          "type": "uint16"
        },
        {
          "internalType": "uint16",
          "name": "pageSize",
          "type": "uint16"
        }
      ],
      "name": "getMetaPools",
      "outputs": [
        {
          "components": [
            {
              "internalType": "address",
              "name": "poolAddress",
              "type": "address"
            },
            {
              "internalType": "string",
              "name": "name",
              "type": "string"
            },
            {
              "internalType": "address",
              "name": "basePool",
              "type": "address"
            },
            {
              "internalType": "address[4]",
              "name": "tokens",
              "type": "address[4]"
            },
            {
              "internalType": "address[8]",
              "name": "underlyingTokens",
              "type": "address[8]"
            },
            {
              "internalType": "uint256[4]",
              "name": "balances",
              "type": "uint256[4]"
            },
            {
              "internalType": "uint256[8]",
              "name": "underlyingBalances",
              "type": "uint256[8]"
            },
            {
              "internalType": "bool",
              "name": "isMeta",
              "type": "bool"
            },
            {
              "internalType": "uint256",
              "name": "assetType",
              "type": "uint256"
            },
            {
              "internalType": "address",
              "name": "gauge",
              "type": "address"
            }
          ],
          "internalType": "struct CurveMulticall.CurveMetapool[]",
          "name": "pools",
          "type": "tuple[]"
        }
      ],
      "stateMutability": "view",
      "type": "function"
    },
    {
      "inputs": [
        {
          "internalType": "contract Registry",
          "name": "registry",
          "type": "address"
        },
        {
          "internalType": "uint16",
          "name": "from",
          "type": "uint16"
        },
        {
          "internalType": "uint16",
          "name": "pageSize",
          "type": "uint16"
        }
      ],
      "name": "getPools",
      "outputs": [
        {
          "components": [
            {
              "internalType": "address",
              "name": "poolAddress",
              "type": "address"
            },
            {
              "internalType": "address[8]",
              "name": "tokens",
              "type": "address[8]"
            },
            {
              "internalType": "address[8]",
              "name": "underlyingTokens",
              "type": "address[8]"
            },
            {
              "internalType": "uint256[8]",
              "name": "balances",
              "type": "uint256[8]"
            },
            {
              "internalType": "uint256[8]",
              "name": "underlyingBalances",
              "type": "uint256[8]"
            },
            {
              "internalType": "uint256[8]",
              "name": "rates",
              "type": "uint256[8]"
            },
            {
              "internalType": "address",
              "name": "lpToken",
              "type": "address"
            },
            {
              "internalType": "bool",
              "name": "isMeta",
              "type": "bool"
            },
            {
              "internalType": "string",
              "name": "name",
              "type": "string"
            },
            {
              "internalType": "uint256",
              "name": "assetType",
              "type": "uint256"
            },
            {
              "internalType": "address[10]",
              "name": "gauges",
              "type": "address[10]"
            },
            {
              "internalType": "int128[10]",
              "name": "gaugeTypes",
              "type": "int128[10]"
            }
          ],
          "internalType": "struct CurveMulticall.CurvePool[]",
          "name": "pools",
          "type": "tuple[]"
        }
      ],
      "stateMutability": "view",
      "type": "function"
    },
    {
      "inputs": [],
      "name": "owner",
      "outputs": [
        {
          "internalType": "address",
          "name": "",
          "type": "address"
        }
      ],
      "stateMutability": "view",
      "type": "function"
    },
    {
      "inputs": [
        {
          "internalType": "address",
          "name": "to",
          "type": "address"
        },
        {
          "internalType": "address",
          "name": "token",
          "type": "address"
        }
      ],
      "name": "recoverFunds",
      "outputs": [],
      "stateMutability": "nonpayable",
      "type": "function"
    },
    {
      "inputs": [],
      "name": "renounceOwnership",
      "outputs": [],
      "stateMutability": "nonpayable",
      "type": "function"
    },
    {
      "inputs": [
        {
          "internalType": "address",
          "name": "newOwner",
          "type": "address"
        }
      ],
      "name": "transferOwnership",
      "outputs": [],
      "stateMutability": "nonpayable",
      "type": "function"
    }
  ],
  "transactionHash": "0x255eba7bf154eefd5456825d91a1b6885a62764c03dd019d211ccbe94e62f887",
  "args": [],
  "numDeployments": 11,
  "solcInputHash": "d12e8b8badbbd223dcd96726eb592fa8",
  "bytecode": "0x6080806040523461005b5760008054336001600160a01b0319821681178355916001600160a01b03909116907f8be0079c531659141344cd1fd0a4f28419497f9722a3daafe3b4186f6b6457e09084a3612f4290816100618239f35b600080fdfe6101206040526004361015610014575b600080fd5b60008060a052803560e01c908163030e3b08146100bb575080631d8b12fe146100b257806322471113146100a957806324ae6a27146100a0578063715018a6146100975780638da5cb5b1461008e578063bea72365146100855763f2fde38b1461007d57600080fd5b61000f612380565b5061000f611fe9565b5061000f611eba565b5061000f611e15565b5061000f611c85565b5061000f6116f9565b5061000f610d6f565b346108ab57606090817ffffffffffffffffffffffffffffffffffffffffffffffffffffffffffffffffc3601126108ab5750600435906100fa826108ae565b6101026108cc565b608090815261010f6108dd565b61ffff9073ffffffffffffffffffffffffffffffffffffffff610133838316612aed565b95845160c05216610100525b61015461014d828551612830565b61ffff1690565b8260c051161015610899576040517f3a1d5d8e00000000000000000000000000000000000000000000000000000000815260c05161ffff1660048201526101549161014d9160208180602481010381610100515afa801561088c575b60a05160e05261086b575b506040517f6f20d6dd00000000000000000000000000000000000000000000000000000000815260e05173ffffffffffffffffffffffffffffffffffffffff16600482015261055c9060208180602481010381610100515afa90811561085e575b60a0519161083f575b506040517f9ac90d3d00000000000000000000000000000000000000000000000000000000815260e05173ffffffffffffffffffffffffffffffffffffffff1660048201528890888180602481010381610100515afa908115610832575b60a05191610805575b506040517fe4d332a900000000000000000000000000000000000000000000000000000000815260e05173ffffffffffffffffffffffffffffffffffffffff16600482015260208180602481010381610100515afa9081156107f8575b60a051916107c9575b50806102fc6126b2565b9161071d575b6040517f92e3cc2d00000000000000000000000000000000000000000000000000000000815260e05173ffffffffffffffffffffffffffffffffffffffff16600482015281908c8180602481010381610100515afa908115610710575b60a051916106e3575b506103716126b2565b91610637575b6040517f66d3966c00000000000000000000000000000000000000000000000000000000815260e05173ffffffffffffffffffffffffffffffffffffffff1660048201529360208580602481010381610100515afa94851561062a575b60a051956105f9575b506040517fdaf297b900000000000000000000000000000000000000000000000000000000815260e05173ffffffffffffffffffffffffffffffffffffffff166004820152958e9060208880602481010381610100515afa9788156105ec575b60a051986105bb575b50604051987f06fdde03000000000000000000000000000000000000000000000000000000008a5260a0518a60048173ffffffffffffffffffffffffffffffffffffffff60e051165afa998a156105ae575b60a0519a610573575b50906105169695949392916104fd61053a9b9c60406104be612655565b60e05173ffffffffffffffffffffffffffffffffffffffff1681529e8f906020820152019073ffffffffffffffffffffffffffffffffffffffff169052565b8b015289015260a088015260c0870152151560e0860152565b61010084015273ffffffffffffffffffffffffffffffffffffffff16610120830152565b61054a61014d885160c051612a8b565b90610555828b612aaa565b5288612aaa565b5061056860c051612810565b60c05291505061013f565b906104fd61059f6105169998979695949361053a9d3d8091833e6105978183612614565b810190612971565b9b5050909192939495966104a1565b6105b661285f565b610498565b6105de91985060203d6020116105e5575b6105d68183612614565b810190612847565b9638610446565b503d6105cc565b6105f461285f565b61043d565b61061c91955060203d602011610623575b6106148183612614565b810190612a06565b93386103dd565b503d61060a565b61063261285f565b6103d4565b6040517f59f4f35100000000000000000000000000000000000000000000000000000000815260e05173ffffffffffffffffffffffffffffffffffffffff166004820152909150610100818060248101038183515afa9081156106d6575b60a051916106a5575b5090610377565b6106c991506101003d610100116106cf575b6106c18183612614565b81019061290a565b8f61069e565b503d6106b7565b6106de61285f565b610695565b61070391508d803d10610709575b6106fb8183612614565b810190612c1d565b8f610368565b503d6106f1565b61071861285f565b61035f565b6040517fa77576ef00000000000000000000000000000000000000000000000000000000815260e05173ffffffffffffffffffffffffffffffffffffffff166004820152909150610100818060248101038183515afa9081156107bc575b60a0519161078b575b5090610302565b6107af91506101003d610100116107b5575b6107a78183612614565b8101906128b1565b8d610784565b503d61079d565b6107c461285f565b61077b565b6107eb915060203d6020116107f1575b6107e38183612614565b810190612959565b8c6102f2565b503d6107d9565b61080061285f565b6102e9565b6108259150893d8b1161082b575b61081d8183612614565b810190612bc4565b8b61028c565b503d610813565b61083a61285f565b610283565b610858915060203d6020116105e5576105d68183612614565b89610225565b61086661285f565b61021c565b6108839060203d6020116105e5576105d68183612614565b60e052876101bb565b61089461285f565b6101b0565b604051806108a78782610a32565b0390f35b80fd5b73ffffffffffffffffffffffffffffffffffffffff81160361000f57565b6024359061ffff8216820361000f57565b6044359061ffff8216820361000f57565b918091926000905b82821061090e575011610907575050565b6000910152565b915080602091830151818601520182916108f6565b907fffffffffffffffffffffffffffffffffffffffffffffffffffffffffffffffe0601f60209361095f815180928187528780880191016108ee565b0116010190565b6000915b6004831061097757505050565b60019073ffffffffffffffffffffffffffffffffffffffff8351168152602080910192019201919061096a565b6000915b600883106109b557505050565b60019073ffffffffffffffffffffffffffffffffffffffff835116815260208091019201920191906109a8565b6000915b600483106109f357505050565b6001908251815260208091019201920191906109e6565b6000915b60088310610a1b57505050565b600190825181526020809101920192019190610a0e565b602080820190808352835180925260409283810182858560051b8401019601946000925b858410610a67575050505050505090565b909192939495968580827fffffffffffffffffffffffffffffffffffffffffffffffffffffffffffffffc08560019503018752610b818b5191610ac081845173ffffffffffffffffffffffffffffffffffffffff169052565b6103a0610120610add868601516103c08089870152850190610923565b8a86015173ffffffffffffffffffffffffffffffffffffffff16848c015294610b0e60608083015190860190610966565b610b586080820151610b2560e091828801906109a4565b610b3860a08401516101e08801906109e2565b610b4b60c0840151610260880190610a0a565b8201511515610360860152565b610100810151610380850152015173ffffffffffffffffffffffffffffffffffffffff16910152565b990194019401929594939190610a56565b6000915b600a8310610ba357505050565b60019073ffffffffffffffffffffffffffffffffffffffff83511681526020809101920192019190610b96565b6000915b600a8310610be157505050565b6001908251600f0b81526020809101920192019190610bd4565b602080820190808352835180925260409283810182858560051b8401019601946000925b858410610c30575050505050505090565b909192939495968580827fffffffffffffffffffffffffffffffffffffffffffffffffffffffffffffffc08560019503018752610d5e8b5191610c8981845173ffffffffffffffffffffffffffffffffffffffff169052565b610c9984840151858301906109a4565b6106e06101608985015194610cb461012096878601906109a4565b610cc76060820151610220860190610a0a565b610cda6080820151610320860190610a0a565b610ced60a0820151610420860190610a0a565b60c081015173ffffffffffffffffffffffffffffffffffffffff1661052085015260e08101511515610540850152610d3661010082015161082080610560880152860190610923565b95810151610580850152610d546101408201516105a0860190610b92565b0151910190610bd0565b990194019401929594939190610c1f565b503461000f576060807ffffffffffffffffffffffffffffffffffffffffffffffffffffffffffffffffc36011261000f5760043590610dad826108ae565b610db56108cc565b91610dbe6108dd565b9261ffff92610dce8486166126f0565b93825b610dde61014d8886612830565b82821610156115a6576040517f3a1d5d8e00000000000000000000000000000000000000000000000000000000815261ffff8216600482015260208160248173ffffffffffffffffffffffffffffffffffffffff8a165afa908115611599575b60009161157a575b506040517f9ac90d3d00000000000000000000000000000000000000000000000000000000815273ffffffffffffffffffffffffffffffffffffffff8216600482015286610100828060248101038173ffffffffffffffffffffffffffffffffffffffff85165afa91821561156d575b600092611514575b506112236111ba6111516110e861107f611015610fab610f4173ffffffffffffffffffffffffffffffffffffffff986101008c604051809481927fa77576ef0000000000000000000000000000000000000000000000000000000083526004830191909173ffffffffffffffffffffffffffffffffffffffff6020820193169052565b03818d85165afa918215611507575b6000926114e4575b506040517f92e3cc2d00000000000000000000000000000000000000000000000000000000815273ffffffffffffffffffffffffffffffffffffffff8d1660048201529261010090849081906024820190565b03818d85165afa9283156114d7575b6000936114b4575b506040517f59f4f35100000000000000000000000000000000000000000000000000000000815273ffffffffffffffffffffffffffffffffffffffff8d1660048201529361010090859081906024820190565b03818d85165afa9384156114a7575b600094611484575b506040517fce99e45a00000000000000000000000000000000000000000000000000000000815273ffffffffffffffffffffffffffffffffffffffff8d1660048201529461010090869081906024820190565b03818d85165afa948515611477575b600095611454575b506040517f3795104900000000000000000000000000000000000000000000000000000000815273ffffffffffffffffffffffffffffffffffffffff8d16600482015295602090879081906024820190565b03818d85165afa958615611447575b600096611426575b506040517fe4d332a900000000000000000000000000000000000000000000000000000000815273ffffffffffffffffffffffffffffffffffffffff8d16600482015296602090889081906024820190565b03818d85165afa968715611419575b6000976113f8575b506040517f5c91174100000000000000000000000000000000000000000000000000000000815273ffffffffffffffffffffffffffffffffffffffff8d16600482015297600090899081906024820190565b03818d85165afa9788156113eb575b6000986113d0575b506040517f66d3966c00000000000000000000000000000000000000000000000000000000815273ffffffffffffffffffffffffffffffffffffffff8d166004820152986020908a9081906024820190565b03818d85165afa9889156113c3575b60009961139a575b506040517f56059ffb00000000000000000000000000000000000000000000000000000000815273ffffffffffffffffffffffffffffffffffffffff8d16600482015299610280918b91829081602481015b0392165afa998a1561138d575b6000998a9b611354575b506112ac612664565b73ffffffffffffffffffffffffffffffffffffffff909c168c5260208c015260408b01528c8a0152608089015260a088015273ffffffffffffffffffffffffffffffffffffffff1660c0870152151560e08601526101008501526101208401526101408301526101608201526113228583612a8b565b61ffff16906113318289612aaa565b5261133c9087612aaa565b5061014d61134c610dde92612810565b915050610dd1565b909a5061137c9199506102803d61028011611386575b6113748183612614565b810190612a15565b98909899386112a3565b503d61136a565b61139561285f565b611299565b6102809199506113bb61128c9160203d602011610623576106148183612614565b99915061123a565b6113cb61285f565b611232565b6113e491983d8091833e6105978183612614565b96386111d1565b6113f361285f565b6111c9565b61141291975060203d6020116107f1576107e38183612614565b9538611168565b61142161285f565b611160565b61144091965060203d6020116105e5576105d68183612614565b94386110ff565b61144f61285f565b6110f7565b6114709195506101003d610100116106cf576106c18183612614565b9338611096565b61147f61285f565b61108e565b6114a09194506101003d610100116106cf576106c18183612614565b923861102c565b6114af61285f565b611024565b6114d09193506101003d610100116106cf576106c18183612614565b9138610fc2565b6114df61285f565b610fba565b6115009192506101003d610100116107b5576107a78183612614565b9038610f58565b61150f61285f565b610f50565b73ffffffffffffffffffffffffffffffffffffffff9192506111ba6111516110e861107f611015610fab610f4161155e611223986101003d610100116107b5576107a78183612614565b99985050505050505050610ebe565b61157561285f565b610eb6565b611593915060203d6020116105e5576105d68183612614565b38610e46565b6115a161285f565b610e3e565b604051806108a78882610bfb565b602080820190808352835180925260409283810182858560051b8401019601946000925b8584106115e9575050505050505090565b909192939495968580827fffffffffffffffffffffffffffffffffffffffffffffffffffffffffffffffc085600195030187526116e88b519161164281845173ffffffffffffffffffffffffffffffffffffffff169052565b61165284840151858301906109a4565b61166488840151610120830190610a0a565b606083015173ffffffffffffffffffffffffffffffffffffffff166102208201526104e060e06116a4608086015161050080610240870152850190610923565b946116b860a0820151610260860190610b92565b6116cb60c08201516103a0860190610bd0565b015173ffffffffffffffffffffffffffffffffffffffff16910152565b9901940194019295949391906115d8565b503461000f576060807ffffffffffffffffffffffffffffffffffffffffffffffffffffffffffffffffc36011261000f576004803590611738826108ae565b6117406108cc565b926117496108dd565b9361ffff93611759858716612c6c565b9473ffffffffffffffffffffffffffffffffffffffff839216915b61178161014d8986612830565b8282161015611c775761014d611b1f61178192611b198a898b60408a8151927f3a1d5d8e0000000000000000000000000000000000000000000000000000000084526020928385806117e08c86830191909161ffff6020820193169052565b0381865afa948515611c6a575b600095611c3f575b509081611afb9596611a68949351907f9ac90d3d0000000000000000000000000000000000000000000000000000000082526101008083806118568d89830191909173ffffffffffffffffffffffffffffffffffffffff6020820193169052565b0381895afa928315611c32575b600093611c11575b5083517f5c91174100000000000000000000000000000000000000000000000000000000815273ffffffffffffffffffffffffffffffffffffffff8b1686820190815293949093600090859081906020015b03818a5afa938415611c04575b600094611be7575b50611992939461192b838d8451809381927f92e3cc2d0000000000000000000000000000000000000000000000000000000083528c830191909173ffffffffffffffffffffffffffffffffffffffff6020820193169052565b03818c5afa938415611bda575b600094611bbb575b5050898c8351809781927f379510490000000000000000000000000000000000000000000000000000000083528b830191909173ffffffffffffffffffffffffffffffffffffffff6020820193169052565b03818b5afa948515611bae575b600095611b8f575b50898c8351997f56059ffb000000000000000000000000000000000000000000000000000000008b52610280998a8c80611a008685830191909173ffffffffffffffffffffffffffffffffffffffff6020820193169052565b0381855afa9b8c15611b82575b60009b8c9d611b5b575b50508551809d819482937f55335d7b000000000000000000000000000000000000000000000000000000008452830191909173ffffffffffffffffffffffffffffffffffffffff6020820193169052565b03915afa988915611b4e575b600099611b27575b50611acf9596979899611aac611a90612671565b73ffffffffffffffffffffffffffffffffffffffff909e168e52565b8c01528a015288019073ffffffffffffffffffffffffffffffffffffffff169052565b608086015260a085015260c084015273ffffffffffffffffffffffffffffffffffffffff1660e0830152565b611b12611b0b61014d8c87612a8b565b8093612aaa565b528b612aaa565b50612810565b915050611774565b611acf9697989950611b45908b3d8d116105e5576105d68183612614565b98979695611a7c565b611b5661285f565b611a74565b8091929d50611b77939c50903d10611386576113748183612614565b9990999a3880611a17565b611b8a61285f565b611a0d565b611ba79195508a3d8c116105e5576105d68183612614565b93386119a7565b611bb661285f565b61199f565b611bd2929450803d106106cf576106c18183612614565b913880611940565b611be261285f565b611938565b611bfe90611992953d8091833e6105978183612614565b936118d2565b611c0c61285f565b6118ca565b6118bd9350611c2c90823d84116107b5576107a78183612614565b9261186b565b611c3a61285f565b611863565b611afb955090611c60611a68949392863d88116105e5576105d68183612614565b95509091926117f5565b611c7261285f565b6117ed565b604051806108a789826115b4565b503461000f5760407ffffffffffffffffffffffffffffffffffffffffffffffffffffffffffffffffc36011261000f57611dbd600435611cc4816108ae565b611da2602435611cd3816108ae565b73ffffffffffffffffffffffffffffffffffffffff90611cf882600054163314612474565b6040517f70a0823100000000000000000000000000000000000000000000000000000000815230600482015260209485939192909116908383602481855afa928315611e08575b600093611de9575b5060006040518096819582947fa9059cbb000000000000000000000000000000000000000000000000000000008452600484016020909392919373ffffffffffffffffffffffffffffffffffffffff60408201951681520152565b03925af1918215611ddc575b600092611dbf575b5050612ea7565b005b611dd59250803d106107f1576107e38183612614565b3880611db6565b611de461285f565b611dae565b611e01919350843d8611610623576106148183612614565b9138611d47565b611e1061285f565b611d3f565b503461000f576000807ffffffffffffffffffffffffffffffffffffffffffffffffffffffffffffffffc3601126108ab5780547fffffffffffffffffffffffff000000000000000000000000000000000000000073ffffffffffffffffffffffffffffffffffffffff821691611e8c338414612474565b16825581604051917f8be0079c531659141344cd1fd0a4f28419497f9722a3daafe3b4186f6b6457e08284a3f35b503461000f5760007ffffffffffffffffffffffffffffffffffffffffffffffffffffffffffffffffc36011261000f57602073ffffffffffffffffffffffffffffffffffffffff60005416604051908152f35b60208082019080835283518092528060408094019401926000905b838210611f3757505050505090565b909192939483865173ffffffffffffffffffffffffffffffffffffffff808251168452828201518385016000905b60028210611fd0575050505080840151606091906000908584015b60028310611fba57505050015173ffffffffffffffffffffffffffffffffffffffff1660a083015260019160c00196019493920190611f28565b8151815289956001909301929182019101611f80565b8251841681528995928301926001929092019101611f65565b503461000f576060807ffffffffffffffffffffffffffffffffffffffffffffffffffffffffffffffffc36011261000f576004908135612028816108ae565b6120306108cc565b6120386108dd565b9261ffff94612048868616612d3b565b9573ffffffffffffffffffffffffffffffffffffffff849516945b61207061014d8887612830565b82821610156123725761014d61228661207092611b198b6040888151917f3a1d5d8e0000000000000000000000000000000000000000000000000000000083528d60208085806120cd8b88830191909161ffff6020820193169052565b0381855afa948515612365575b600095612338575b509161226f939161221193868351927f9ac90d3d000000000000000000000000000000000000000000000000000000008452848480612140858a830191909173ffffffffffffffffffffffffffffffffffffffff6020820193169052565b0381845afa93841561232b575b6000946122fc575b508451957f92e3cc2d0000000000000000000000000000000000000000000000000000000087528587806121a88685830191909173ffffffffffffffffffffffffffffffffffffffff6020820193169052565b0381855afa9687156122ef575b6000976122ba575b509083929186518099819482937fdaf297b9000000000000000000000000000000000000000000000000000000008452830191909173ffffffffffffffffffffffffffffffffffffffff6020820193169052565b03915afa9485156122ad575b60009561228e575b5061224d61223161267e565b73ffffffffffffffffffffffffffffffffffffffff9098168852565b86015284015273ffffffffffffffffffffffffffffffffffffffff168b830152565b61227f611b0b61014d8d87612a8b565b528c612aaa565b915050612063565b816122a69296503d87116105e5576105d68183612614565b9338612225565b6122b561285f565b61221d565b8493929197506122df90873d89116122e8575b6122d78183612614565b810190612e58565b969091926121bd565b503d6122cd565b6122f761285f565b6121b5565b61231d919450853d8711612324575b6123158183612614565b810190612dff565b9238612155565b503d61230b565b61233361285f565b61214d565b8195509161235a61226f959361221195933d89116105e5576105d68183612614565b9591935091936120e2565b61236d61285f565b6120da565b604051806108a78a82611f0d565b503461000f5760207ffffffffffffffffffffffffffffffffffffffffffffffffffffffffffffffffc36011261000f576004356123bc816108ae565b73ffffffffffffffffffffffffffffffffffffffff6123e081600054163314612474565b8116156123f057611dbd906124d9565b60846040517f08c379a000000000000000000000000000000000000000000000000000000000815260206004820152602660248201527f4f776e61626c653a206e6577206f776e657220697320746865207a65726f206160448201527f64647265737300000000000000000000000000000000000000000000000000006064820152fd5b1561247b57565b60646040517f08c379a000000000000000000000000000000000000000000000000000000000815260206004820152602060248201527f4f776e61626c653a2063616c6c6572206973206e6f7420746865206f776e65726044820152fd5b6000549073ffffffffffffffffffffffffffffffffffffffff80911691827fffffffffffffffffffffffff0000000000000000000000000000000000000000821617600055167f8be0079c531659141344cd1fd0a4f28419497f9722a3daafe3b4186f6b6457e06000604051a3565b507f4e487b7100000000000000000000000000000000000000000000000000000000600052604160045260246000fd5b610180810190811067ffffffffffffffff82111761259557604052565b61259d612548565b604052565b610140810190811067ffffffffffffffff82111761259557604052565b610100810190811067ffffffffffffffff82111761259557604052565b6080810190811067ffffffffffffffff82111761259557604052565b6040810190811067ffffffffffffffff82111761259557604052565b90601f7fffffffffffffffffffffffffffffffffffffffffffffffffffffffffffffffe0910116810190811067ffffffffffffffff82111761259557604052565b60405190612662826125a2565b565b6040519061266282612578565b60405190612662826125bf565b60405190612662826125dc565b60209067ffffffffffffffff81116126a5575b60051b0190565b6126ad612548565b61269e565b604051906126bf826125bf565b610100368337565b604051906126d4826125a2565b610140368337565b604051906126e9826125dc565b6080368337565b906126fa8261268b565b60409061270982519182612614565b8381527fffffffffffffffffffffffffffffffffffffffffffffffffffffffffffffffe0612737829561268b565b019160005b8381106127495750505050565b602090825161275781612578565b600081526127636126b2565b81840152826127706126b2565b8583015261277c6126b2565b6060908184015261278b6126b2565b60808401526127986126b2565b60a0840152600060c0840152600060e084015261010083015260006101208301526127c16126c7565b6101408301526127cf6126c7565b61016083015282860101520161273c565b507f4e487b7100000000000000000000000000000000000000000000000000000000600052601160045260246000fd5b60019061ffff809116908114612824570190565b61282c6127e0565b0190565b9061ffff8080931691168092038111612824570190565b9081602091031261000f575161285c816108ae565b90565b506040513d6000823e3d90fd5b91906040519261287b846125a2565b8390610140810192831161000f57905b82821061289757505050565b6020809183516128a6816108ae565b81520191019061288b565b90610100808383031261000f5781601f8401121561000f57604051926128d6846125bf565b8391810192831161000f57905b8282106128f05750505090565b6020809183516128ff816108ae565b8152019101906128e3565b90610100808383031261000f5781601f8401121561000f576040519261292f846125bf565b8391810192831161000f57905b8282106129495750505090565b815181526020918201910161293c565b9081602091031261000f5751801515810361000f5790565b60208183031261000f57805167ffffffffffffffff9182821161000f57019082601f8301121561000f5781519081116129f9575b604051926129db60207fffffffffffffffffffffffffffffffffffffffffffffffffffffffffffffffe0601f8501160185612614565b8184526020828401011161000f5761285c91602080850191016108ee565b612a01612548565b6129a5565b9081602091031261000f575190565b919091610280808285031261000f5783601f8301121561000f57612a39848361286c565b938061015f8401121561000f5760405192612a53846125a2565b8392810191821161000f5761014001915b818310612a715750505090565b825180600f0b810361000f57815260209283019201612a64565b61ffff9182169116818110612a9e570390565b612aa66127e0565b0390565b8051821015612abe5760209160051b010190565b7f4e487b7100000000000000000000000000000000000000000000000000000000600052603260045260246000fd5b90612af78261268b565b604090612b0682519182612614565b8381527fffffffffffffffffffffffffffffffffffffffffffffffffffffffffffffffe0612b34829561268b565b019160005b838110612b465750505050565b6020908251612b54816125a2565b600081526060839080828401526000868401528551612b72816125dc565b60809182368337840152612b846126b2565b90830152612b906126dc565b60a0830152612b9d6126b2565b60c0830152600060e083015260006101008301526000610120830152828601015201612b39565b9060808282031261000f5780601f8301121561000f5760405191612be7836125dc565b82906080810192831161000f57905b828210612c035750505090565b602080918351612c12816108ae565b815201910190612bf6565b9060808282031261000f5780601f8301121561000f5760405191612c40836125dc565b82906080810192831161000f57905b828210612c5c5750505090565b8151815260209182019101612c4f565b90612c768261268b565b604090612c8582519182612614565b8381527fffffffffffffffffffffffffffffffffffffffffffffffffffffffffffffffe0612cb3829561268b565b0191600091825b848110612cc8575050505050565b6020908351612cd6816125bf565b8581528451612ce4816125bf565b61010080368337849182840152865190612cfd826125bf565b36823786830152606087818401526080830152612d186126c7565b60a0830152612d256126c7565b60c08301528660e0830152828501015201612cba565b90612d458261268b565b604090612d5482519182612614565b8381527fffffffffffffffffffffffffffffffffffffffffffffffffffffffffffffffe0612d82829561268b565b0191600091825b848110612d97575050505050565b60209083516080810181811067ffffffffffffffff821117612df2575b85528581528451612dc4816125f8565b853682378390818301528551612dd9816125f8565b8636823786830152866060830152828501015201612d89565b612dfa612548565b612db4565b9060408282031261000f5780601f8301121561000f5760405191612e22836125f8565b82906040810192831161000f57905b828210612e3e5750505090565b602080918351612e4d816108ae565b815201910190612e31565b9060408282031261000f5780601f8301121561000f5760405191612e7b836125f8565b82906040810192831161000f57905b828210612e975750505090565b8151815260209182019101612e8a565b15612eae57565b60646040517f08c379a000000000000000000000000000000000000000000000000000000000815260206004820152601560248201527f546f6b656e207265636f76657279206661696c656400000000000000000000006044820152fdfea26469706673582212206c73613c0970d191246c8eeaa44a2366a8ee935a869ad35f528264c43179b84264736f6c634300080d0033",
  "devdoc": {
    "kind": "dev",
    "methods": {
      "owner()": {
        "details": "Returns the address of the current owner."
      },
      "renounceOwnership()": {
        "details": "Leaves the contract without owner. It will not be possible to call `onlyOwner` functions anymore. Can only be called by the current owner. NOTE: Renouncing ownership will leave the contract without an owner, thereby removing any functionality that is only available to the owner."
      },
      "transferOwnership(address)": {
        "details": "Transfers ownership of the contract to a new account (`newOwner`). Can only be called by the current owner."
      }
    },
    "version": 1
  },
  "userdoc": {
    "kind": "user",
    "methods": {},
    "version": 1
  },
  "storageLayout": {
    "storage": [
      {
        "astId": 400,
        "contract": "contracts/multicall/CurveMulticall.sol:CurveMulticall",
        "label": "_owner",
        "offset": 0,
        "slot": "0",
        "type": "t_address"
      }
    ],
    "types": {
      "t_address": {
        "encoding": "inplace",
        "label": "address",
        "numberOfBytes": "20"
      }
    }
  }
}