{
  "address": "0xDbb5fE606db4240ce75D280c18d74536369543DB",
  "abi": [
    {
      "inputs": [
        {
          "internalType": "address",
          "name": "user",
          "type": "address"
        },
        {
          "internalType": "address",
          "name": "token0",
          "type": "address"
        },
        {
          "internalType": "address",
          "name": "token1",
          "type": "address"
        },
        {
          "internalType": "uint256",
          "name": "token0Amount",
          "type": "uint256"
        },
        {
          "internalType": "uint256",
          "name": "token1Amount",
          "type": "uint256"
        },
        {
          "internalType": "uint256",
          "name": "percentMin",
          "type": "uint256"
        }
      ],
      "name": "onReward",
      "outputs": [],
      "stateMutability": "nonpayable",
      "type": "function"
    }
  ],
  "transactionHash": "0x02253ef9f0bda57a25f738d4503c4398416c26746c6f2885a1a1735a674b9c92",
  "args": [],
  "numDeployments": 1,
  "solcInputHash": "48b735005414ad105911279df2f3e452",
  "bytecode": "0x608080604052346100155760ed908161001b8239f35b600080fdfe6080806040526004361015601257600080fd5b600090813560e01c63aa906c0b1460295750600080fd5b3460885760c07ffffffffffffffffffffffffffffffffffffffffffffffffffffffffffffffffc36011260885773ffffffffffffffffffffffffffffffffffffffff60043581811603608c576024359081160360885760856090565b50f35b5080fd5b8280fd5b6044359073ffffffffffffffffffffffffffffffffffffffff8216820360b257565b600080fdfea264697066735822122016211c58ab4f7397029ae9e140ba8a4c7f90544720a315fd07b734b660a6007764736f6c634300080d0033",
  "devdoc": {
    "kind": "dev",
    "methods": {},
    "version": 1
  },
  "userdoc": {
    "kind": "user",
    "methods": {},
    "version": 1
  },
  "storageLayout": {
    "storage": [],
    "types": null
  }
}