{
  "address": "0x9FD0DB7b64b69D120E57BdC96e1547830F1aF813",
  "abi": [
    {
      "inputs": [
        {
          "internalType": "contract IWormhole",
          "name": "_wormhole",
          "type": "address"
        },
        {
          "internalType": "uint256",
          "name": "_paymentAmount",
          "type": "uint256"
        }
      ],
      "stateMutability": "nonpayable",
      "type": "constructor"
    },
    {
      "anonymous": false,
      "inputs": [
        {
          "indexed": true,
          "internalType": "address",
          "name": "recipient",
          "type": "address"
        },
        {
          "indexed": false,
          "internalType": "uint256",
          "name": "paymentAmount",
          "type": "uint256"
        },
        {
          "indexed": false,
          "internalType": "bytes32",
          "name": "hash",
          "type": "bytes32"
        },
        {
          "indexed": false,
          "internalType": "uint32",
          "name": "nonce",
          "type": "uint32"
        }
      ],
      "name": "GasSent",
      "type": "event"
    },
    {
      "anonymous": false,
      "inputs": [
        {
          "indexed": true,
          "internalType": "address",
          "name": "previousOwner",
          "type": "address"
        },
        {
          "indexed": true,
          "internalType": "address",
          "name": "newOwner",
          "type": "address"
        }
      ],
      "name": "OwnershipTransferred",
      "type": "event"
    },
    {
      "anonymous": false,
      "inputs": [
        {
          "indexed": true,
          "internalType": "uint16",
          "name": "chainId",
          "type": "uint16"
        },
        {
          "indexed": false,
          "internalType": "bytes32",
          "name": "cashier",
          "type": "bytes32"
        }
      ],
      "name": "SetCashier",
      "type": "event"
    },
    {
      "anonymous": false,
      "inputs": [
        {
          "indexed": false,
          "internalType": "uint256",
          "name": "paymentAmount",
          "type": "uint256"
        }
      ],
      "name": "SetPaymentAmount",
      "type": "event"
    },
    {
      "inputs": [
        {
          "internalType": "bytes32",
          "name": "original",
          "type": "bytes32"
        }
      ],
      "name": "addressFromBytes32",
      "outputs": [
        {
          "internalType": "address",
          "name": "",
          "type": "address"
        }
      ],
      "stateMutability": "pure",
      "type": "function"
    },
    {
      "inputs": [
        {
          "internalType": "uint16",
          "name": "",
          "type": "uint16"
        }
      ],
      "name": "cashiersByChainId",
      "outputs": [
        {
          "internalType": "bytes32",
          "name": "",
          "type": "bytes32"
        }
      ],
      "stateMutability": "view",
      "type": "function"
    },
    {
      "inputs": [
        {
          "internalType": "bytes",
          "name": "payload",
          "type": "bytes"
        }
      ],
      "name": "decodePayload",
      "outputs": [
        {
          "internalType": "address",
          "name": "recipient",
          "type": "address"
        },
        {
          "internalType": "uint16",
          "name": "destinationChain",
          "type": "uint16"
        }
      ],
      "stateMutability": "pure",
      "type": "function"
    },
    {
      "inputs": [],
      "name": "owner",
      "outputs": [
        {
          "internalType": "address",
          "name": "",
          "type": "address"
        }
      ],
      "stateMutability": "view",
      "type": "function"
    },
    {
      "inputs": [],
      "name": "paymentAmount",
      "outputs": [
        {
          "internalType": "uint256",
          "name": "",
          "type": "uint256"
        }
      ],
      "stateMutability": "view",
      "type": "function"
    },
    {
      "inputs": [
        {
          "internalType": "address",
          "name": "to",
          "type": "address"
        },
        {
          "internalType": "address",
          "name": "token",
          "type": "address"
        }
      ],
      "name": "recoverFunds",
      "outputs": [],
      "stateMutability": "nonpayable",
      "type": "function"
    },
    {
      "inputs": [],
      "name": "renounceOwnership",
      "outputs": [],
      "stateMutability": "nonpayable",
      "type": "function"
    },
    {
      "inputs": [
        {
          "internalType": "bytes",
          "name": "encodedVm",
          "type": "bytes"
        }
      ],
      "name": "sendGas",
      "outputs": [],
      "stateMutability": "payable",
      "type": "function"
    },
    {
      "inputs": [
        {
          "internalType": "uint16",
          "name": "chainId",
          "type": "uint16"
        },
        {
          "internalType": "bytes32",
          "name": "cashier",
          "type": "bytes32"
        }
      ],
      "name": "setChainIdCashier",
      "outputs": [],
      "stateMutability": "nonpayable",
      "type": "function"
    },
    {
      "inputs": [
        {
          "internalType": "uint256",
          "name": "_paymentAmount",
          "type": "uint256"
        }
      ],
      "name": "setPaymentAmount",
      "outputs": [],
      "stateMutability": "nonpayable",
      "type": "function"
    },
    {
      "inputs": [
        {
          "internalType": "bytes32",
          "name": "",
          "type": "bytes32"
        },
        {
          "internalType": "uint32",
          "name": "",
          "type": "uint32"
        }
      ],
      "name": "transactionMade",
      "outputs": [
        {
          "internalType": "bool",
          "name": "",
          "type": "bool"
        }
      ],
      "stateMutability": "view",
      "type": "function"
    },
    {
      "inputs": [
        {
          "internalType": "address",
          "name": "newOwner",
          "type": "address"
        }
      ],
      "name": "transferOwnership",
      "outputs": [],
      "stateMutability": "nonpayable",
      "type": "function"
    },
    {
      "stateMutability": "payable",
      "type": "receive"
    }
  ],
  "transactionHash": "0xdc3114b3f305ac2708994a97bc39ec0e9aa1a57322c91b0604874207a18be02f",
  "args": [
    "0x7A4B5a56256163F07b2C80A7cA55aBE66c4ec4d7",
    "100000000000000000"
  ],
  "numDeployments": 3,
  "solcInputHash": "8a3c795a2526ad6f5eb20faf39c0d7d3",
  "bytecode": "0x60803461006c57601f61143738819003918201601f19168301916001600160401b0383118484101761007157808492604094855283398101031261006c5780516001600160a01b038116810361006c57602061005d92015190610087565b60405161135990816100de8239f35b600080fd5b634e487b7160e01b600052604160045260246000fd5b60005460018060a01b031991338383161760005560018060a01b0391823391167f8be0079c531659141344cd1fd0a4f28419497f9722a3daafe3b4186f6b6457e06000604051a31690600354161760035560045556fe6080604052600436101561001b575b361561001957600080fd5b005b60003560e01c806218c4711461010a57806305f6c1a814610101578063197c6e77146100f857806324ae6a27146100ef578063715018a6146100e65780638ccceb4b146100dd5780638da5cb5b146100d4578063b087a1d4146100cb578063c35905c6146100c2578063c5268d3d146100b9578063f0749dba146100b05763f2fde38b0361000e576100ab610b7b565b61000e565b506100ab610ad8565b506100ab610a86565b506100ab610a49565b506100ab610737565b506100ab6106e4565b506100ab61068c565b506100ab6105d8565b506100ab610432565b506100ab6103aa565b506100ab610199565b506100ab610126565b63ffffffff81160361012157565b600080fd5b50346101215760407ffffffffffffffffffffffffffffffffffffffffffffffffffffffffffffffffc36011261012157602060ff61018d60243561016981610113565b6004356000526002845260406000209063ffffffff16600052602052604060002090565b54166040519015158152f35b50346101215760207ffffffffffffffffffffffffffffffffffffffffffffffffffffffffffffffffc360112610121577fcb616ae3461b7df928f3b1a884bc2086a9438d8fae9335905b4b033be98167ae602060043561021273ffffffffffffffffffffffffffffffffffffffff600054163314610c6b565b80600455604051908152a1005b507f4e487b7100000000000000000000000000000000000000000000000000000000600052604160045260246000fd5b6080810190811067ffffffffffffffff82111761026b57604052565b61027361021f565b604052565b90601f7fffffffffffffffffffffffffffffffffffffffffffffffffffffffffffffffe0910116810190811067ffffffffffffffff82111761026b57604052565b60405190610160820182811067ffffffffffffffff82111761026b57604052565b7fffffffffffffffffffffffffffffffffffffffffffffffffffffffffffffffe0601f60209267ffffffffffffffff8111610316575b01160190565b61031e61021f565b610310565b60207ffffffffffffffffffffffffffffffffffffffffffffffffffffffffffffffffc8201126101215760043567ffffffffffffffff8111610121578160238201121561012157806004013590610379826102da565b926103876040519485610278565b828452602483830101116101215781600092602460209301838601378301015290565b503461012157604061ffff6103c66103c136610323565b61125f565b73ffffffffffffffffffffffffffffffffffffffff849392935193168352166020820152f35b6004359073ffffffffffffffffffffffffffffffffffffffff8216820361012157565b6024359073ffffffffffffffffffffffffffffffffffffffff8216820361012157565b50346101215760407ffffffffffffffffffffffffffffffffffffffffffffffffffffffffffffffffc3601126101215761001961046d6103ec565b61054761047861040f565b73ffffffffffffffffffffffffffffffffffffffff9061049d82600054163314610c6b565b6040517f70a0823100000000000000000000000000000000000000000000000000000000815230600482015260209485939192909116908383602481855afa9283156105cb575b60009361059c575b5060006040518096819582947fa9059cbb000000000000000000000000000000000000000000000000000000008452600484016020909392919373ffffffffffffffffffffffffffffffffffffffff60408201951681520152565b03925af191821561058f575b600092610562575b50506112be565b6105819250803d10610588575b6105798183610278565b8101906112aa565b388061055b565b503d61056f565b61059761102f565b610553565b6105bd919350843d86116105c4575b6105b58183610278565b81019061129b565b91386104ec565b503d6105ab565b6105d361102f565b6104e4565b5034610121576000807ffffffffffffffffffffffffffffffffffffffffffffffffffffffffffffffffc36011261067d5780547fffffffffffffffffffffffff000000000000000000000000000000000000000073ffffffffffffffffffffffffffffffffffffffff82169161064f338414610c6b565b16825581604051917f8be0079c531659141344cd1fd0a4f28419497f9722a3daafe3b4186f6b6457e08284a3f35b80fd5b61ffff81160361012157565b50346101215760207ffffffffffffffffffffffffffffffffffffffffffffffffffffffffffffffffc3601126101215761ffff6004356106cb81610680565b1660005260016020526020604060002054604051908152f35b50346101215760007ffffffffffffffffffffffffffffffffffffffffffffffffffffffffffffffffc36011261012157602073ffffffffffffffffffffffffffffffffffffffff60005416604051908152f35b506107b961074436610323565b61077f61076660035473ffffffffffffffffffffffffffffffffffffffff1690565b73ffffffffffffffffffffffffffffffffffffffff1690565b604091825180927fc0fd8bde000000000000000000000000000000000000000000000000000000008252818060009788956004830161101e565b03915afa8015610a3c575b8390848591610a10575b6107d992935061103c565b7f98336b511578c6eb94a33220a5edf6997e50982af72c99c807ba0805c566caf573ffffffffffffffffffffffffffffffffffffffff6109766109cf846108f76108cc6108bf896108ae6108a96108a561089e61085261083e60608b015161ffff1690565b61ffff166000526001602052604060002090565b549461086460808b0196875114611086565b61087986516000526002602052604060002090565b99019861088a8a5163ffffffff1690565b63ffffffff16600052602052604060002090565b5460ff1690565b1590565b6110eb565b516000526002602052604060002090565b835163ffffffff1661088a565b60017fffffffffffffffffffffffffffffffffffffffffffffffffffffffffffffff00825416179055565b61090460e087015161125f565b6004602061092d61076660039895985473ffffffffffffffffffffffffffffffffffffffff1690565b8b51928380927f9a8a05920000000000000000000000000000000000000000000000000000000082525afa908115610a03575b8b916109d5575b5061ffff809116911614611165565b6109938880806004548b5190885af161098d6111ca565b506111fa565b6109aa610140600454970151915163ffffffff1690565b8751968752602087019190915263ffffffff1660408601529116929081906060820190565b0390a251f35b6109f6915060203d81116109fc575b6109ee8183610278565b810190611150565b38610967565b503d6109e4565b610a0b61102f565b610960565b505050610a316107d9913d8086833e610a298183610278565b810190610ebf565b9192508291906107ce565b610a4461102f565b6107c4565b50346101215760007ffffffffffffffffffffffffffffffffffffffffffffffffffffffffffffffffc360112610121576020600454604051908152f35b50346101215760207ffffffffffffffffffffffffffffffffffffffffffffffffffffffffffffffffc36011261012157602060405173ffffffffffffffffffffffffffffffffffffffff600435168152f35b50346101215760407ffffffffffffffffffffffffffffffffffffffffffffffffffffffffffffffffc36011261012157600435610b1481610680565b7f977771b80a3c4d277af69f597123bbe6cff96cc42c4f64abcd40d30ded04c690602061ffff60243593610b6173ffffffffffffffffffffffffffffffffffffffff600054163314610c6b565b1692836000526001825280604060002055604051908152a2005b50346101215760207ffffffffffffffffffffffffffffffffffffffffffffffffffffffffffffffffc36011261012157610bb36103ec565b73ffffffffffffffffffffffffffffffffffffffff610bd781600054163314610c6b565b811615610be75761001990610cd0565b60846040517f08c379a000000000000000000000000000000000000000000000000000000000815260206004820152602660248201527f4f776e61626c653a206e6577206f776e657220697320746865207a65726f206160448201527f64647265737300000000000000000000000000000000000000000000000000006064820152fd5b15610c7257565b60646040517f08c379a000000000000000000000000000000000000000000000000000000000815260206004820152602060248201527f4f776e61626c653a2063616c6c6572206973206e6f7420746865206f776e65726044820152fd5b6000549073ffffffffffffffffffffffffffffffffffffffff80911691827fffffffffffffffffffffffff0000000000000000000000000000000000000000821617600055167f8be0079c531659141344cd1fd0a4f28419497f9722a3daafe3b4186f6b6457e06000604051a3565b519060ff8216820361012157565b5190610d5882610113565b565b5190610d5882610680565b519067ffffffffffffffff8216820361012157565b918091926000905b828210610d9a575011610d93575050565b6000910152565b91508060209183015181860152018291610d82565b81601f82011215610121578051610dc5816102da565b92610dd36040519485610278565b8184526020828401011161012157610df19160208085019101610d7a565b90565b9080601f830112156101215781519167ffffffffffffffff8311610ea5575b604091825193602091610e2b838360051b0187610278565b818652828087019260071b85010193818511610121578301915b848310610e555750505050505090565b60808383031261012157836080918751610e6e8161024f565b855181528286015183820152610e85898701610d3f565b898201526060610e96818801610d3f565b90820152815201920191610e45565b610ead61021f565b610e13565b5190811515820361012157565b90916060828403126101215781519167ffffffffffffffff928381116101215781016101608186031261012157610ef46102b9565b90610efe81610d3f565b8252610f0c60208201610d4d565b6020830152610f1d60408201610d4d565b6040830152610f2e60608201610d5a565b606083015260808101516080830152610f4960a08201610d65565b60a0830152610f5a60c08201610d3f565b60c083015260e08101518581116101215786610f77918301610daf565b60e0830152610100610f8a818301610d4d565b90830152610120808201518681116101215787610fa8918401610df4565b90830152610140809101519082015293610fc460208301610eb2565b93604083015190811161012157610df19201610daf565b907fffffffffffffffffffffffffffffffffffffffffffffffffffffffffffffffe0601f60209361101781518092818752878088019101610d7a565b0116010190565b906020610df1928181520190610fdb565b506040513d6000823e3d90fd5b156110445750565b611082906040519182917f08c379a0000000000000000000000000000000000000000000000000000000008352602060048401526024830190610fdb565b0390fd5b1561108d57565b60646040517f08c379a000000000000000000000000000000000000000000000000000000000815260206004820152600f60248201527f496e76616c696420656d697474657200000000000000000000000000000000006044820152fd5b156110f257565b60646040517f08c379a000000000000000000000000000000000000000000000000000000000815260206004820152601060248201527f47617320616c72656164792073656e74000000000000000000000000000000006044820152fd5b908160209103126101215751610df181610680565b1561116c57565b60646040517f08c379a000000000000000000000000000000000000000000000000000000000815260206004820152601960248201527f496e76616c69642064657374696e6174696f6e20636861696e000000000000006044820152fd5b3d156111f5573d906111db826102da565b916111e96040519384610278565b82523d6000602084013e565b606090565b1561120157565b60646040517f08c379a000000000000000000000000000000000000000000000000000000000815260206004820152601460248201527f496e73756666696369656e742062616c616e63650000000000000000000000006044820152fd5b906040828051810103126101215773ffffffffffffffffffffffffffffffffffffffff604060208401519301519261129684610680565b169190565b90816020910312610121575190565b9081602091031261012157610df190610eb2565b156112c557565b60646040517f08c379a000000000000000000000000000000000000000000000000000000000815260206004820152601560248201527f546f6b656e207265636f76657279206661696c656400000000000000000000006044820152fdfea2646970667358221220f558346b28924109af0e3b48f0852b98efd59d44eb69bc64fe05a043d51bac8264736f6c634300080d0033",
  "devdoc": {
    "kind": "dev",
    "methods": {
      "owner()": {
        "details": "Returns the address of the current owner."
      },
      "renounceOwnership()": {
        "details": "Leaves the contract without owner. It will not be possible to call `onlyOwner` functions anymore. Can only be called by the current owner. NOTE: Renouncing ownership will leave the contract without an owner, thereby removing any functionality that is only available to the owner."
      },
      "transferOwnership(address)": {
        "details": "Transfers ownership of the contract to a new account (`newOwner`). Can only be called by the current owner."
      }
    },
    "version": 1
  },
  "userdoc": {
    "kind": "user",
    "methods": {
      "transactionMade(bytes32,uint32)": {
        "notice": "For each (emitter, nonce), was the transaction already processed?"
      }
    },
    "version": 1
  },
  "storageLayout": {
    "storage": [
      {
        "astId": 400,
        "contract": "contracts/bridge/GasBridgePayer.sol:GasBridgePayer",
        "label": "_owner",
        "offset": 0,
        "slot": "0",
        "type": "t_address"
      },
      {
        "astId": 3132,
        "contract": "contracts/bridge/GasBridgePayer.sol:GasBridgePayer",
        "label": "cashiersByChainId",
        "offset": 0,
        "slot": "1",
        "type": "t_mapping(t_uint16,t_bytes32)"
      },
      {
        "astId": 3139,
        "contract": "contracts/bridge/GasBridgePayer.sol:GasBridgePayer",
        "label": "transactionMade",
        "offset": 0,
        "slot": "2",
        "type": "t_mapping(t_bytes32,t_mapping(t_uint32,t_bool))"
      },
      {
        "astId": 3142,
        "contract": "contracts/bridge/GasBridgePayer.sol:GasBridgePayer",
        "label": "wormhole",
        "offset": 0,
        "slot": "3",
        "type": "t_contract(IWormhole)6880"
      },
      {
        "astId": 3144,
        "contract": "contracts/bridge/GasBridgePayer.sol:GasBridgePayer",
        "label": "paymentAmount",
        "offset": 0,
        "slot": "4",
        "type": "t_uint256"
      }
    ],
    "types": {
      "t_address": {
        "encoding": "inplace",
        "label": "address",
        "numberOfBytes": "20"
      },
      "t_bool": {
        "encoding": "inplace",
        "label": "bool",
        "numberOfBytes": "1"
      },
      "t_bytes32": {
        "encoding": "inplace",
        "label": "bytes32",
        "numberOfBytes": "32"
      },
      "t_contract(IWormhole)6880": {
        "encoding": "inplace",
        "label": "contract IWormhole",
        "numberOfBytes": "20"
      },
      "t_mapping(t_bytes32,t_mapping(t_uint32,t_bool))": {
        "encoding": "mapping",
        "key": "t_bytes32",
        "label": "mapping(bytes32 => mapping(uint32 => bool))",
        "numberOfBytes": "32",
        "value": "t_mapping(t_uint32,t_bool)"
      },
      "t_mapping(t_uint16,t_bytes32)": {
        "encoding": "mapping",
        "key": "t_uint16",
        "label": "mapping(uint16 => bytes32)",
        "numberOfBytes": "32",
        "value": "t_bytes32"
      },
      "t_mapping(t_uint32,t_bool)": {
        "encoding": "mapping",
        "key": "t_uint32",
        "label": "mapping(uint32 => bool)",
        "numberOfBytes": "32",
        "value": "t_bool"
      },
      "t_uint16": {
        "encoding": "inplace",
        "label": "uint16",
        "numberOfBytes": "2"
      },
      "t_uint256": {
        "encoding": "inplace",
        "label": "uint256",
        "numberOfBytes": "32"
      },
      "t_uint32": {
        "encoding": "inplace",
        "label": "uint32",
        "numberOfBytes": "4"
      }
    }
  }
}