{
  "address": "0x4024929629182E2C115E2e6408d3eEE01AB97076",
  "abi": [
    {
      "inputs": [
        {
          "internalType": "contract IWormhole",
          "name": "_wormhole",
          "type": "address"
        },
        {
          "internalType": "address",
          "name": "_treasury",
          "type": "address"
        }
      ],
      "stateMutability": "nonpayable",
      "type": "constructor"
    },
    {
      "anonymous": false,
      "inputs": [
        {
          "indexed": true,
          "internalType": "address",
          "name": "previousOwner",
          "type": "address"
        },
        {
          "indexed": true,
          "internalType": "address",
          "name": "newOwner",
          "type": "address"
        }
      ],
      "name": "OwnershipTransferred",
      "type": "event"
    },
    {
      "anonymous": false,
      "inputs": [
        {
          "indexed": true,
          "internalType": "uint16",
          "name": "chainId",
          "type": "uint16"
        },
        {
          "indexed": false,
          "internalType": "bool",
          "name": "enabled",
          "type": "bool"
        }
      ],
      "name": "SetChainId",
      "type": "event"
    },
    {
      "anonymous": false,
      "inputs": [
        {
          "indexed": true,
          "internalType": "address",
          "name": "token",
          "type": "address"
        },
        {
          "indexed": false,
          "internalType": "uint256",
          "name": "price",
          "type": "uint256"
        }
      ],
      "name": "SetGasTokenPrice",
      "type": "event"
    },
    {
      "anonymous": false,
      "inputs": [
        {
          "indexed": true,
          "internalType": "address",
          "name": "treasury",
          "type": "address"
        }
      ],
      "name": "SetTreasuryAddress",
      "type": "event"
    },
    {
      "inputs": [
        {
          "internalType": "uint16",
          "name": "",
          "type": "uint16"
        }
      ],
      "name": "chainIds",
      "outputs": [
        {
          "internalType": "bool",
          "name": "",
          "type": "bool"
        }
      ],
      "stateMutability": "view",
      "type": "function"
    },
    {
      "inputs": [
        {
          "internalType": "address",
          "name": "",
          "type": "address"
        }
      ],
      "name": "gasTokenPrices",
      "outputs": [
        {
          "internalType": "uint256",
          "name": "",
          "type": "uint256"
        }
      ],
      "stateMutability": "view",
      "type": "function"
    },
    {
      "inputs": [],
      "name": "owner",
      "outputs": [
        {
          "internalType": "address",
          "name": "",
          "type": "address"
        }
      ],
      "stateMutability": "view",
      "type": "function"
    },
    {
      "inputs": [
        {
          "internalType": "address",
          "name": "to",
          "type": "address"
        },
        {
          "internalType": "address",
          "name": "token",
          "type": "address"
        }
      ],
      "name": "recoverFunds",
      "outputs": [],
      "stateMutability": "nonpayable",
      "type": "function"
    },
    {
      "inputs": [],
      "name": "renounceOwnership",
      "outputs": [],
      "stateMutability": "nonpayable",
      "type": "function"
    },
    {
      "inputs": [
        {
          "internalType": "bytes32",
          "name": "recipient",
          "type": "bytes32"
        },
        {
          "internalType": "uint16",
          "name": "destinationChain",
          "type": "uint16"
        },
        {
          "internalType": "address",
          "name": "paymentToken",
          "type": "address"
        },
        {
          "internalType": "uint32",
          "name": "nonce",
          "type": "uint32"
        }
      ],
      "name": "sendGas",
      "outputs": [
        {
          "internalType": "uint64",
          "name": "sequence",
          "type": "uint64"
        }
      ],
      "stateMutability": "payable",
      "type": "function"
    },
    {
      "inputs": [
        {
          "internalType": "uint16",
          "name": "chainId",
          "type": "uint16"
        },
        {
          "internalType": "bool",
          "name": "enabled",
          "type": "bool"
        }
      ],
      "name": "setChainIdEnabled",
      "outputs": [],
      "stateMutability": "nonpayable",
      "type": "function"
    },
    {
      "inputs": [
        {
          "internalType": "address",
          "name": "token",
          "type": "address"
        },
        {
          "internalType": "uint256",
          "name": "value",
          "type": "uint256"
        }
      ],
      "name": "setGasTokenPrice",
      "outputs": [],
      "stateMutability": "nonpayable",
      "type": "function"
    },
    {
      "inputs": [
        {
          "internalType": "address",
          "name": "_treasury",
          "type": "address"
        }
      ],
      "name": "setTreasury",
      "outputs": [],
      "stateMutability": "nonpayable",
      "type": "function"
    },
    {
      "inputs": [
        {
          "internalType": "address",
          "name": "newOwner",
          "type": "address"
        }
      ],
      "name": "transferOwnership",
      "outputs": [],
      "stateMutability": "nonpayable",
      "type": "function"
    },
    {
      "inputs": [],
      "name": "treasury",
      "outputs": [
        {
          "internalType": "address",
          "name": "",
          "type": "address"
        }
      ],
      "stateMutability": "view",
      "type": "function"
    },
    {
      "inputs": [],
      "name": "wormhole",
      "outputs": [
        {
          "internalType": "contract IWormhole",
          "name": "",
          "type": "address"
        }
      ],
      "stateMutability": "view",
      "type": "function"
    }
  ],
  "transactionHash": "0x8f1f86f462504e3c1b685abf51a72dc858b88435df5b3d56511a081f33159fd9",
  "args": [
    "0x7A4B5a56256163F07b2C80A7cA55aBE66c4ec4d7",
    "0x2f16d42AE636946eb98F0C7a20A82f8E3BB4B243"
  ],
  "numDeployments": 9,
  "solcInputHash": "51791d7034f573d832a9f17170c48dcc",
  "bytecode": "0x60803461006f57601f61107f38819003918201601f19168301916001600160401b0383118484101761007457808492604094855283398101031261006f5780602061006092519161004f8361008a565b01519061005b8261008a565b61009b565b604051610f7b90816101048239f35b600080fd5b634e487b7160e01b600052604160045260246000fd5b6001600160a01b0381160361006f57565b600080546001600160a01b031980821633908117845560405191956001600160a01b0395909486949193918516917f8be0079c531659141344cd1fd0a4f28419497f9722a3daafe3b4186f6b6457e09190a3168360035416176003551690600454161760045556fe60806040526004361015610013575b600080fd5b60003560e01c8062c7514d1461010257806314f9f575146100f957806324ae6a27146100f05780633126c458146100e757806361d027b3146100de578063715018a6146100d557806384acd1bb146100cc57806385c27857146100c35780638da5cb5b146100ba578063f0f44260146100b1578063f2fde38b146100a85763f5d79f1e146100a057600080fd5b61000e610abc565b5061000e6109c2565b5061000e61090f565b5061000e6108bc565b5061000e610856565b5061000e610803565b5061000e61075b565b5061000e610708565b5061000e610435565b5061000e61028d565b5061000e610234565b5061000e610174565b6004359073ffffffffffffffffffffffffffffffffffffffff8216820361000e57565b6024359073ffffffffffffffffffffffffffffffffffffffff8216820361000e57565b6044359073ffffffffffffffffffffffffffffffffffffffff8216820361000e57565b503461000e5760407ffffffffffffffffffffffffffffffffffffffffffffffffffffffffffffffffc36011261000e576101ac61010b565b7f93a7e331365c1ab8f122074d7bae0664c16da9bfbcda540f87c22308a651c0dd60206024359273ffffffffffffffffffffffffffffffffffffffff906101f882600054163314610b91565b1692836000526001825280604060002055604051908152a2005b6004359061ffff8216820361000e57565b6024359061ffff8216820361000e57565b503461000e5760207ffffffffffffffffffffffffffffffffffffffffffffffffffffffffffffffffc36011261000e5761ffff61026f610212565b166000526002602052602060ff604060002054166040519015158152f35b503461000e5760407ffffffffffffffffffffffffffffffffffffffffffffffffffffffffffffffffc36011261000e576103bd6102c861010b565b6103a26102d361012e565b73ffffffffffffffffffffffffffffffffffffffff906102f882600054163314610b91565b6040517f70a0823100000000000000000000000000000000000000000000000000000000815230600482015260209485939192909116908383602481855afa928315610428575b6000936103f9575b5060006040518096819582947fa9059cbb000000000000000000000000000000000000000000000000000000008452600484016020909392919373ffffffffffffffffffffffffffffffffffffffff60408201951681520152565b03925af19182156103ec575b6000926103bf575b5050610ee0565b005b6103de9250803d106103e5575b6103d68183610d2f565b810190610d9f565b38806103b6565b503d6103cc565b6103f4610db7565b6103ae565b61041a919350843d8611610421575b6104128183610d2f565b810190610ed1565b9138610347565b503d610408565b610430610db7565b61033f565b5060807ffffffffffffffffffffffffffffffffffffffffffffffffffffffffffffffffc36011261000e57610468610223565b610470610151565b60643563ffffffff8116810361000e576104988361ffff166000526002602052604060002090565b5460ff166104a590610c65565b6104cf8273ffffffffffffffffffffffffffffffffffffffff166000526001602052604060002090565b5415156104db90610cca565b60045473ffffffffffffffffffffffffffffffffffffffff1661051e8373ffffffffffffffffffffffffffffffffffffffff166000526001602052604060002090565b546040517f23b872dd00000000000000000000000000000000000000000000000000000000815233600482015273ffffffffffffffffffffffffffffffffffffffff928316602482015260448101919091526020938492839183916064918391165a90600091f19283156106a0966105ae61066f966105d0956105fc946106fb575b6000916106de575b50610dc4565b60405193849160043587840190929161ffff6020916040840195845216910152565b037fffffffffffffffffffffffffffffffffffffffffffffffffffffffffffffffe08101845283610d2f565b61063761061e60035473ffffffffffffffffffffffffffffffffffffffff1690565b73ffffffffffffffffffffffffffffffffffffffff1690565b9060006040518096819582947fb19a437e00000000000000000000000000000000000000000000000000000000845260048401610e49565b03925af19182156106d1575b6000926106a4575b505060405167ffffffffffffffff90911681529081906020820190565b0390f35b6106c39250803d106106ca575b6106bb8183610d2f565b810190610e29565b3880610683565b503d6106b1565b6106d9610db7565b61067b565b6106f59150873d89116103e5576103d68183610d2f565b386105a8565b610703610db7565b6105a0565b503461000e5760007ffffffffffffffffffffffffffffffffffffffffffffffffffffffffffffffffc36011261000e57602073ffffffffffffffffffffffffffffffffffffffff60045416604051908152f35b503461000e576000807ffffffffffffffffffffffffffffffffffffffffffffffffffffffffffffffffc3601126108005780547fffffffffffffffffffffffff000000000000000000000000000000000000000073ffffffffffffffffffffffffffffffffffffffff8216916107d2338414610b91565b16825581604051917f8be0079c531659141344cd1fd0a4f28419497f9722a3daafe3b4186f6b6457e08284a3f35b80fd5b503461000e5760007ffffffffffffffffffffffffffffffffffffffffffffffffffffffffffffffffc36011261000e57602073ffffffffffffffffffffffffffffffffffffffff60035416604051908152f35b503461000e5760207ffffffffffffffffffffffffffffffffffffffffffffffffffffffffffffffffc36011261000e5773ffffffffffffffffffffffffffffffffffffffff6108a361010b565b1660005260016020526020604060002054604051908152f35b503461000e5760007ffffffffffffffffffffffffffffffffffffffffffffffffffffffffffffffffc36011261000e57602073ffffffffffffffffffffffffffffffffffffffff60005416604051908152f35b503461000e5760207ffffffffffffffffffffffffffffffffffffffffffffffffffffffffffffffffc36011261000e57600061094961010b565b73ffffffffffffffffffffffffffffffffffffffff9061096d828454163314610b91565b16807fffffffffffffffffffffffff00000000000000000000000000000000000000006004541617600455604051907feee016301a2725a577c64816adf35ccf644d07439731069a31748ec3b9102c608383a2f35b503461000e5760207ffffffffffffffffffffffffffffffffffffffffffffffffffffffffffffffffc36011261000e576109fa61010b565b73ffffffffffffffffffffffffffffffffffffffff610a1e81600054163314610b91565b811615610a2e576103bd90610bf6565b60846040517f08c379a000000000000000000000000000000000000000000000000000000000815260206004820152602660248201527f4f776e61626c653a206e6577206f776e657220697320746865207a65726f206160448201527f64647265737300000000000000000000000000000000000000000000000000006064820152fd5b8015150361000e57565b503461000e5760407ffffffffffffffffffffffffffffffffffffffffffffffffffffffffffffffffc36011261000e57610af4610212565b7f5e32c2fe8a7859a4486621f9da07f4492e3788837b81fbf11078f7f5a3de79f7602061ffff60243593610b2785610ab2565b610b4a73ffffffffffffffffffffffffffffffffffffffff600054163314610b91565b169283600052600282526040600020901515907fffffffffffffffffffffffffffffffffffffffffffffffffffffffffffffff0081541660ff8316179055604051908152a2005b15610b9857565b60646040517f08c379a000000000000000000000000000000000000000000000000000000000815260206004820152602060248201527f4f776e61626c653a2063616c6c6572206973206e6f7420746865206f776e65726044820152fd5b6000549073ffffffffffffffffffffffffffffffffffffffff80911691827fffffffffffffffffffffffff0000000000000000000000000000000000000000821617600055167f8be0079c531659141344cd1fd0a4f28419497f9722a3daafe3b4186f6b6457e06000604051a3565b15610c6c57565b60646040517f08c379a000000000000000000000000000000000000000000000000000000000815260206004820152601b60248201527f43616e27742073656e6420746f207468617420636861696e20696400000000006044820152fd5b15610cd157565b60646040517f08c379a000000000000000000000000000000000000000000000000000000000815260206004820152601160248201527f546f6b656e206e6f7420656e61626c65640000000000000000000000000000006044820152fd5b90601f7fffffffffffffffffffffffffffffffffffffffffffffffffffffffffffffffe0910116810190811067ffffffffffffffff821117610d7057604052565b7f4e487b7100000000000000000000000000000000000000000000000000000000600052604160045260246000fd5b9081602091031261000e5751610db481610ab2565b90565b506040513d6000823e3d90fd5b15610dcb57565b60646040517f08c379a000000000000000000000000000000000000000000000000000000000815260206004820152601460248201527f496e73756666696369656e742062616c616e63650000000000000000000000006044820152fd5b9081602091031261000e575167ffffffffffffffff8116810361000e5790565b92919063ffffffff16835260206060818501528151918260608601526000915b838310610ebb57505060807fffffffffffffffffffffffffffffffffffffffffffffffffffffffffffffffe0601f8460019560409511610eae575b0116850101930152565b600084828a010152610ea4565b8183018101518684016080015291820191610e69565b9081602091031261000e575190565b15610ee757565b60646040517f08c379a000000000000000000000000000000000000000000000000000000000815260206004820152601560248201527f546f6b656e207265636f76657279206661696c656400000000000000000000006044820152fdfea26469706673582212204430142e54170ba24645fe91a4d941e6fee5eb330e8055e8a1f479a7f10563c564736f6c634300080d0033",
  "devdoc": {
    "kind": "dev",
    "methods": {
      "owner()": {
        "details": "Returns the address of the current owner."
      },
      "renounceOwnership()": {
        "details": "Leaves the contract without owner. It will not be possible to call `onlyOwner` functions anymore. Can only be called by the current owner. NOTE: Renouncing ownership will leave the contract without an owner, thereby removing any functionality that is only available to the owner."
      },
      "transferOwnership(address)": {
        "details": "Transfers ownership of the contract to a new account (`newOwner`). Can only be called by the current owner."
      }
    },
    "version": 1
  },
  "userdoc": {
    "kind": "user",
    "methods": {
      "gasTokenPrices(address)": {
        "notice": "How many units of the gas token are required to bridge."
      }
    },
    "notice": "Responsible of charging users and emitting a message so that gas is sent to them in the destination chain.",
    "version": 1
  },
  "storageLayout": {
    "storage": [
      {
        "astId": 400,
        "contract": "contracts/bridge/GasBridgeCashier.sol:GasBridgeCashier",
        "label": "_owner",
        "offset": 0,
        "slot": "0",
        "type": "t_address"
      },
      {
        "astId": 2919,
        "contract": "contracts/bridge/GasBridgeCashier.sol:GasBridgeCashier",
        "label": "gasTokenPrices",
        "offset": 0,
        "slot": "1",
        "type": "t_mapping(t_address,t_uint256)"
      },
      {
        "astId": 2923,
        "contract": "contracts/bridge/GasBridgeCashier.sol:GasBridgeCashier",
        "label": "chainIds",
        "offset": 0,
        "slot": "2",
        "type": "t_mapping(t_uint16,t_bool)"
      },
      {
        "astId": 2926,
        "contract": "contracts/bridge/GasBridgeCashier.sol:GasBridgeCashier",
        "label": "wormhole",
        "offset": 0,
        "slot": "3",
        "type": "t_contract(IWormhole)6880"
      },
      {
        "astId": 2928,
        "contract": "contracts/bridge/GasBridgeCashier.sol:GasBridgeCashier",
        "label": "treasury",
        "offset": 0,
        "slot": "4",
        "type": "t_address"
      }
    ],
    "types": {
      "t_address": {
        "encoding": "inplace",
        "label": "address",
        "numberOfBytes": "20"
      },
      "t_bool": {
        "encoding": "inplace",
        "label": "bool",
        "numberOfBytes": "1"
      },
      "t_contract(IWormhole)6880": {
        "encoding": "inplace",
        "label": "contract IWormhole",
        "numberOfBytes": "20"
      },
      "t_mapping(t_address,t_uint256)": {
        "encoding": "mapping",
        "key": "t_address",
        "label": "mapping(address => uint256)",
        "numberOfBytes": "32",
        "value": "t_uint256"
      },
      "t_mapping(t_uint16,t_bool)": {
        "encoding": "mapping",
        "key": "t_uint16",
        "label": "mapping(uint16 => bool)",
        "numberOfBytes": "32",
        "value": "t_bool"
      },
      "t_uint16": {
        "encoding": "inplace",
        "label": "uint16",
        "numberOfBytes": "2"
      },
      "t_uint256": {
        "encoding": "inplace",
        "label": "uint256",
        "numberOfBytes": "32"
      }
    }
  }
}