{
  "address": "0x553573Af12973Fa86d200Ed32726154fA80274BD",
  "abi": [
    {
      "anonymous": false,
      "inputs": [
        {
          "indexed": true,
          "internalType": "address",
          "name": "previousOwner",
          "type": "address"
        },
        {
          "indexed": true,
          "internalType": "address",
          "name": "newOwner",
          "type": "address"
        }
      ],
      "name": "OwnershipTransferred",
      "type": "event"
    },
    {
      "inputs": [
        {
          "internalType": "address[]",
          "name": "poolAddresses",
          "type": "address[]"
        },
        {
          "internalType": "address",
          "name": "user",
          "type": "address"
        }
      ],
      "name": "getPoolsInfo",
      "outputs": [
        {
          "components": [
            {
              "internalType": "address",
              "name": "pool",
              "type": "address"
            },
            {
              "internalType": "uint256",
              "name": "balance",
              "type": "uint256"
            },
            {
              "internalType": "uint256",
              "name": "poolShare",
              "type": "uint256"
            }
          ],
          "internalType": "struct PoolsMulticall.UserPool[]",
          "name": "pools",
          "type": "tuple[]"
        }
      ],
      "stateMutability": "view",
      "type": "function"
    },
    {
      "inputs": [
        {
          "internalType": "uint256",
          "name": "a",
          "type": "uint256"
        },
        {
          "internalType": "uint256",
          "name": "b",
          "type": "uint256"
        }
      ],
      "name": "min",
      "outputs": [
        {
          "internalType": "uint256",
          "name": "",
          "type": "uint256"
        }
      ],
      "stateMutability": "pure",
      "type": "function"
    },
    {
      "inputs": [],
      "name": "owner",
      "outputs": [
        {
          "internalType": "address",
          "name": "",
          "type": "address"
        }
      ],
      "stateMutability": "view",
      "type": "function"
    },
    {
      "inputs": [
        {
          "internalType": "address",
          "name": "to",
          "type": "address"
        },
        {
          "internalType": "address",
          "name": "token",
          "type": "address"
        }
      ],
      "name": "recoverFunds",
      "outputs": [],
      "stateMutability": "nonpayable",
      "type": "function"
    },
    {
      "inputs": [],
      "name": "renounceOwnership",
      "outputs": [],
      "stateMutability": "nonpayable",
      "type": "function"
    },
    {
      "inputs": [
        {
          "internalType": "address",
          "name": "newOwner",
          "type": "address"
        }
      ],
      "name": "transferOwnership",
      "outputs": [],
      "stateMutability": "nonpayable",
      "type": "function"
    }
  ],
  "transactionHash": "0x0f4fa01be12fe063947e758b328ad0e59228c956a15b49bdc9a0b1844e363fc1",
  "args": [],
  "numDeployments": 1,
  "solcInputHash": "4434eacd0c5190bdcbd33cfcda01e0a9",
  "bytecode": "0x6080806040523461005b5760008054336001600160a01b0319821681178355916001600160a01b03909116907f8be0079c531659141344cd1fd0a4f28419497f9722a3daafe3b4186f6b6457e09084a3610c3590816100618239f35b600080fdfe60806040526004361015610013575b600080fd5b6000803560e01c90816324ae6a271461008e57508063715018a6146100855780637ae2b5c71461007c5780638da5cb5b14610073578063920c93db1461006a5763f2fde38b1461006257600080fd5b61000e6105e2565b5061000e610516565b5061000e610394565b5061000e610343565b5061000e61029e565b346102345760407ffffffffffffffffffffffffffffffffffffffffffffffffffffffffffffffffc360112610234576101b96100c8610237565b61019f6100d361025a565b73ffffffffffffffffffffffffffffffffffffffff906100f78287541633146106d4565b6040517f70a0823100000000000000000000000000000000000000000000000000000000815230600482015260209485939192909116908383602481855afa928315610227575b88936101f8575b50876040518096819582947fa9059cbb000000000000000000000000000000000000000000000000000000008452600484016020909392919373ffffffffffffffffffffffffffffffffffffffff60408201951681520152565b03925af19182156101eb575b84926101be575b5050610b9a565b604051f35b6101dd9250803d106101e4575b6101d58183610417565b810190610b82565b83806101b2565b503d6101cb565b6101f3610905565b6101ab565b610219919350843d8611610220575b6102118183610417565b8101906108f6565b9188610145565b503d610207565b61022f610905565b61013e565b80fd5b6004359073ffffffffffffffffffffffffffffffffffffffff8216820361000e57565b6024359073ffffffffffffffffffffffffffffffffffffffff8216820361000e57565b359073ffffffffffffffffffffffffffffffffffffffff8216820361000e57565b503461000e576000807ffffffffffffffffffffffffffffffffffffffffffffffffffffffffffffffffc3601126102345780547fffffffffffffffffffffffff000000000000000000000000000000000000000073ffffffffffffffffffffffffffffffffffffffff8216916103153384146106d4565b16825581604051917f8be0079c531659141344cd1fd0a4f28419497f9722a3daafe3b4186f6b6457e08284a3f35b503461000e5760407ffffffffffffffffffffffffffffffffffffffffffffffffffffffffffffffffc36011261000e5760206004356024358082101561038d57505b604051908152f35b9050610385565b503461000e5760007ffffffffffffffffffffffffffffffffffffffffffffffffffffffffffffffffc36011261000e57602073ffffffffffffffffffffffffffffffffffffffff60005416604051908152f35b507f4e487b7100000000000000000000000000000000000000000000000000000000600052604160045260246000fd5b90601f7fffffffffffffffffffffffffffffffffffffffffffffffffffffffffffffffe0910116810190811067ffffffffffffffff82111761045857604052565b6104606103e7565b604052565b604051906060820182811067ffffffffffffffff82111761045857604052565b60209067ffffffffffffffff811161049f575b60051b0190565b6104a76103e7565b610498565b60208082019080835283518092528060408094019401926000905b8382106104d657505050505090565b8451805173ffffffffffffffffffffffffffffffffffffffff168752808401518785015281015186820152606090950194938201936001909101906104c7565b503461000e5760407ffffffffffffffffffffffffffffffffffffffffffffffffffffffffffffffffc36011261000e5760043567ffffffffffffffff811161000e573660238201121561000e5780600401359061057282610485565b906105806040519283610417565b82825260209260248484019160051b8301019136831161000e57602401905b8282106105cb576105c76105bb856105b561025a565b90610992565b604051918291826104ac565b0390f35b8480916105d78461027d565b81520191019061059f565b503461000e5760207ffffffffffffffffffffffffffffffffffffffffffffffffffffffffffffffffc36011261000e5761061a610237565b73ffffffffffffffffffffffffffffffffffffffff61063e816000541633146106d4565b8116156106505761064e90610739565b005b60846040517f08c379a000000000000000000000000000000000000000000000000000000000815260206004820152602660248201527f4f776e61626c653a206e6577206f776e657220697320746865207a65726f206160448201527f64647265737300000000000000000000000000000000000000000000000000006064820152fd5b156106db57565b60646040517f08c379a000000000000000000000000000000000000000000000000000000000815260206004820152602060248201527f4f776e61626c653a2063616c6c6572206973206e6f7420746865206f776e65726044820152fd5b6000549073ffffffffffffffffffffffffffffffffffffffff80911691827fffffffffffffffffffffffff0000000000000000000000000000000000000000821617600055167f8be0079c531659141344cd1fd0a4f28419497f9722a3daafe3b4186f6b6457e06000604051a3565b906107b282610485565b6040906107c182519182610417565b8381527fffffffffffffffffffffffffffffffffffffffffffffffffffffffffffffffe06107ef8295610485565b0191600091825b848110610804575050505050565b60209083516060810181811067ffffffffffffffff82111761083c575b855285815282868183015286868301528285010152016107f6565b6108446103e7565b610821565b507f4e487b7100000000000000000000000000000000000000000000000000000000600052601160045260246000fd5b6001907fffffffffffffffffffffffffffffffffffffffffffffffffffffffffffffffff81146108a7570190565b6108af610849565b0190565b80518210156108c75760209160051b010190565b7f4e487b7100000000000000000000000000000000000000000000000000000000600052603260045260246000fd5b9081602091031261000e575190565b506040513d6000823e3d90fd5b670de0b6b3a764000090807fffffffffffffffffffffffffffffffffffffffffffffffffffffffffffffffff0482118115151661094d570290565b610955610849565b0290565b8115610963570490565b7f4e487b7100000000000000000000000000000000000000000000000000000000600052601260045260246000fd5b919061099e83516107a8565b9260005b8151811015610b7d57806109f56109dc6109dc6109c2610b1e95876108b3565b5173ffffffffffffffffffffffffffffffffffffffff1690565b73ffffffffffffffffffffffffffffffffffffffff1690565b60408051907f70a0823100000000000000000000000000000000000000000000000000000000825260209283836004928180610a508d87830191909173ffffffffffffffffffffffffffffffffffffffff6020820193169052565b03915afa928315610b70575b600093610b4d575b50610ac79084610a7d6109dc6109dc6109c28a8d6108b3565b8451928380927f18160ddd0000000000000000000000000000000000000000000000000000000082525afa908115610b40575b600091610b23575b50610ac284610912565b610959565b91610ad56109c286896108b3565b93610afd610ae1610465565b73ffffffffffffffffffffffffffffffffffffffff9096168652565b840152820152610b0d82886108b3565b52610b1881876108b3565b50610879565b6109a2565b610b3a9150853d8711610220576102118183610417565b38610ab8565b610b48610905565b610ab0565b610ac7919350610b6990853d8711610220576102118183610417565b9290610a64565b610b78610905565b610a5c565b505050565b9081602091031261000e5751801515810361000e5790565b15610ba157565b60646040517f08c379a000000000000000000000000000000000000000000000000000000000815260206004820152601560248201527f546f6b656e207265636f76657279206661696c656400000000000000000000006044820152fdfea2646970667358221220827be90a8809cf83a909fc588594bd9e24f3e6361ea7e3a588b30cdb6def086064736f6c634300080d0033",
  "devdoc": {
    "kind": "dev",
    "methods": {
      "owner()": {
        "details": "Returns the address of the current owner."
      },
      "renounceOwnership()": {
        "details": "Leaves the contract without owner. It will not be possible to call `onlyOwner` functions anymore. Can only be called by the current owner. NOTE: Renouncing ownership will leave the contract without an owner, thereby removing any functionality that is only available to the owner."
      },
      "transferOwnership(address)": {
        "details": "Transfers ownership of the contract to a new account (`newOwner`). Can only be called by the current owner."
      }
    },
    "version": 1
  },
  "userdoc": {
    "kind": "user",
    "methods": {},
    "version": 1
  },
  "storageLayout": {
    "storage": [
      {
        "astId": 400,
        "contract": "contracts/multicall/PoolsMulticall.sol:PoolsMulticall",
        "label": "_owner",
        "offset": 0,
        "slot": "0",
        "type": "t_address"
      }
    ],
    "types": {
      "t_address": {
        "encoding": "inplace",
        "label": "address",
        "numberOfBytes": "20"
      }
    }
  }
}