{
  "address": "0x64A24d408fDBe762C48eD5c8309D07d1181A1B0b",
  "abi": [
    {
      "inputs": [
        {
          "internalType": "address[]",
          "name": "vaultNFTs",
          "type": "address[]"
        },
        {
          "internalType": "address[]",
          "name": "vaultsInfo",
          "type": "address[]"
        },
        {
          "internalType": "address",
          "name": "user",
          "type": "address"
        }
      ],
      "name": "getUserVaults",
      "outputs": [
        {
          "components": [
            {
              "internalType": "address",
              "name": "vaultInfo",
              "type": "address"
            },
            {
              "internalType": "address",
              "name": "vaultNft",
              "type": "address"
            },
            {
              "internalType": "uint256",
              "name": "vaultId",
              "type": "uint256"
            },
            {
              "internalType": "uint256",
              "name": "collateral",
              "type": "uint256"
            },
            {
              "internalType": "uint256",
              "name": "debt",
              "type": "uint256"
            },
            {
              "internalType": "uint256",
              "name": "collateralPercentage",
              "type": "uint256"
            }
          ],
          "internalType": "struct QiDaoUserVaults.UserVault[]",
          "name": "userVaults",
          "type": "tuple[]"
        }
      ],
      "stateMutability": "view",
      "type": "function"
    },
    {
      "inputs": [
        {
          "internalType": "address[]",
          "name": "vaultsInfo",
          "type": "address[]"
        }
      ],
      "name": "getVaults",
      "outputs": [
        {
          "components": [
            {
              "internalType": "address",
              "name": "vaultInfo",
              "type": "address"
            },
            {
              "internalType": "address",
              "name": "collateralToken",
              "type": "address"
            },
            {
              "internalType": "string",
              "name": "name",
              "type": "string"
            },
            {
              "internalType": "uint256",
              "name": "openingFee",
              "type": "uint256"
            },
            {
              "internalType": "uint256",
              "name": "closingFee",
              "type": "uint256"
            },
            {
              "internalType": "uint256",
              "name": "minimumCollateralPercentage",
              "type": "uint256"
            }
          ],
          "internalType": "struct QiDaoUserVaults.Vault[]",
          "name": "vaults",
          "type": "tuple[]"
        }
      ],
      "stateMutability": "view",
      "type": "function"
    }
  ],
  "transactionHash": "0x021830cbdec034d5ccb94a22e0a0207940ecb78d66208019f085d0421fa8a42e",
  "args": [],
  "numDeployments": 6,
  "solcInputHash": "838bc2e3fa29f5dfcd16fa337d3707d9",
  "bytecode": "0x6080806040523461001657610f26908161001c8239f35b600080fdfe60806040526004361015610013575b600080fd5b6000803560e01c9081634b37d42a1461003e575063cfa75c0c1461003657600080fd5b61000e6108d3565b346105ae5760607ffffffffffffffffffffffffffffffffffffffffffffffffffffffffffffffffc3601126105ae5767ffffffffffffffff906004358281116105aa5761008f90369060040161069f565b916024359081116105aa576100a890369060040161069f565b916044356100b581610681565b8291825b81518410156101be5761017661017c9161010f6100f66100f66100dc8988610c6b565b5173ffffffffffffffffffffffffffffffffffffffff1690565b73ffffffffffffffffffffffffffffffffffffffff1690565b6040517f70a0823100000000000000000000000000000000000000000000000000000000815273ffffffffffffffffffffffffffffffffffffffff87166004820152602092918390829060249082905afa9283156101b1575b8993610182575b5050610d77565b93610c31565b926100b9565b6101a2929350803d106101aa575b61019a818361060a565b810190610d68565b90898061016f565b503d610190565b6101b9610cc6565b610168565b6101ca91929350610d83565b8391845b8151811015610598576101ea6100f66100f66100dc8486610c6b565b6040517f70a0823100000000000000000000000000000000000000000000000000000000815273ffffffffffffffffffffffffffffffffffffffff871660048201526020918290829060249082905afa90811561058b575b889161056e575b508015610563576102606100f66100dc858c610c6b565b73ffffffffffffffffffffffffffffffffffffffff16885b828110610291575050505061028c90610c31565b6101ce565b84999497846102af6100f66100f6979e969c95976100dc8d8c610c6b565b6040517f2f745c5900000000000000000000000000000000000000000000000000000000815273ffffffffffffffffffffffffffffffffffffffff8616600482015260248101859052908290829060449082905afa908115610556575b8891610539575b506040517fd4a9b2c50000000000000000000000000000000000000000000000000000000081526004810182905282816024818b5afa90811561052c575b899161050f575b506040517fd310f49b000000000000000000000000000000000000000000000000000000008152600481018390529183836024818c5afa928315610502575b8a936104e3575b506040517fdf98784600000000000000000000000000000000000000000000000000000000815260048101829052938d81866024818e5afa9586156104d6575b8c966104b3575b506103f0908a610c6b565b5173ffffffffffffffffffffffffffffffffffffffff169d610412908d610c6b565b5173ffffffffffffffffffffffffffffffffffffffff169061043261064b565b73ffffffffffffffffffffffffffffffffffffffff909f168f528e73ffffffffffffffffffffffffffffffffffffffff90921691015260408d015260608c015260808b015260a08a015261048581610c31565b98610490828a610c6b565b5261049b9088610c6b565b506104a590610c31565b999290979199989398610278565b6103f09196506104cf90833d85116101aa5761019a818361060a565b95906103e5565b6104de610cc6565b6103de565b6104fb919350843d86116101aa5761019a818361060a565b913861039e565b61050a610cc6565b610397565b6105269150833d85116101aa5761019a818361060a565b8f610358565b610534610cc6565b610351565b6105509150823d84116101aa5761019a818361060a565b8e610313565b61055e610cc6565b61030c565b505061028c90610c31565b6105859150823d84116101aa5761019a818361060a565b89610249565b610593610cc6565b610242565b604051806105a68582610707565b0390f35b5080fd5b80fd5b507f4e487b7100000000000000000000000000000000000000000000000000000000600052604160045260246000fd5b60c0810190811067ffffffffffffffff8211176105fd57604052565b6106056105b1565b604052565b90601f7fffffffffffffffffffffffffffffffffffffffffffffffffffffffffffffffe0910116810190811067ffffffffffffffff8211176105fd57604052565b60405190610658826105e1565b565b60209067ffffffffffffffff8111610674575b60051b0190565b61067c6105b1565b61066d565b73ffffffffffffffffffffffffffffffffffffffff81160361000e57565b81601f8201121561000e578035916106b68361065a565b926106c4604051948561060a565b808452602092838086019260051b82010192831161000e578301905b8282106106ee575050505090565b83809183356106fc81610681565b8152019101906106e0565b60208082019080835283518092528060408094019401926000905b83821061073157505050505090565b8451805173ffffffffffffffffffffffffffffffffffffffff90811688528185015116878501528082015187830152606080820151908801526080808201519088015260a0908101519087015260c09095019493820193600190910190610722565b918091926000905b8282106107b35750116107ac575050565b6000910152565b9150806020918301518186015201829161079b565b602080820190808352835180925260409283810182858560051b8401019601946000925b8584106107fd575050505050505090565b909192939495968580827fffffffffffffffffffffffffffffffffffffffffffffffffffffffffffffffc085600195030187528a519073ffffffffffffffffffffffffffffffffffffffff8083511682528383015116838201527fffffffffffffffffffffffffffffffffffffffffffffffffffffffffffffffe0601f888401519360c090818b860152855180928601526108a08260e097898989019101610793565b606080820151908601526080808201519086015260a08091015190850152011601019901940194019295949391906107ec565b503461000e576020807ffffffffffffffffffffffffffffffffffffffffffffffffffffffffffffffffc36011261000e57600490813567ffffffffffffffff811161000e57610925903690840161069f565b906109308251610b6a565b9260005b8351811015610b5c57806109516100f66100dc610abb9488610c6b565b838673ffffffffffffffffffffffffffffffffffffffff83169260408051907fd8dfeb4500000000000000000000000000000000000000000000000000000000825289828681895afa918215610b4f575b600092610b20575b508051917f06fdde0300000000000000000000000000000000000000000000000000000000835260008387818a5afa928315610b13575b600093610af0575b508a610a0a6100dc8a610a046109fe89610e1b565b98610e96565b98610c6b565b978351978880927fe5f4dc920000000000000000000000000000000000000000000000000000000082525afa958615610ae3575b600096610ac0575b50610a8e90610a72610a5661064b565b73ffffffffffffffffffffffffffffffffffffffff9099168952565b73ffffffffffffffffffffffffffffffffffffffff16878c0152565b8501526060840152608083015260a0820152610aaa8288610c6b565b52610ab58187610c6b565b50610c31565b610934565b610a8e919650610adc908c8d3d106101aa5761019a818361060a565b9590610a46565b610aeb610cc6565b610a3e565b610b0c91933d8091833e610b04818361060a565b810190610cd3565b91386109e9565b610b1b610cc6565b6109e1565b610b419192508a3d8c11610b48575b610b39818361060a565b810190610cae565b90386109aa565b503d610b2f565b610b57610cc6565b6109a2565b604051806105a687826107c8565b90610b748261065a565b604090610b838251918261060a565b8381527fffffffffffffffffffffffffffffffffffffffffffffffffffffffffffffffe0610bb1829561065a565b019160005b838110610bc35750505050565b6020908251610bd1816105e1565b600081528260008183015260006060808785015283015260006080830152600060a0830152828601015201610bb6565b507f4e487b7100000000000000000000000000000000000000000000000000000000600052601160045260246000fd5b6001907fffffffffffffffffffffffffffffffffffffffffffffffffffffffffffffffff8114610c5f570190565b610c67610c01565b0190565b8051821015610c7f5760209160051b010190565b7f4e487b7100000000000000000000000000000000000000000000000000000000600052603260045260246000fd5b9081602091031261000e5751610cc381610681565b90565b506040513d6000823e3d90fd5b60208183031261000e57805167ffffffffffffffff9182821161000e57019082601f8301121561000e578151908111610d5b575b60405192610d3d60207fffffffffffffffffffffffffffffffffffffffffffffffffffffffffffffffe0601f850116018561060a565b8184526020828401011161000e57610cc39160208085019101610793565b610d636105b1565b610d07565b9081602091031261000e575190565b81198111610c5f570190565b90610d8d8261065a565b604090610d9c8251918261060a565b8381527fffffffffffffffffffffffffffffffffffffffffffffffffffffffffffffffe0610dca829561065a565b019160005b838110610ddc5750505050565b6020908251610dea816105e1565b60008152826000818301526000858301526000606083015260006080830152600060a0830152828601015201610dcf565b602073ffffffffffffffffffffffffffffffffffffffff916004604051809481937f728bbbb5000000000000000000000000000000000000000000000000000000008352165afa60009181610e76575b50610cc35750600090565b610e8f91925060203d81116101aa5761019a818361060a565b9038610e6b565b602073ffffffffffffffffffffffffffffffffffffffff916004604051809481937f1c883e7b000000000000000000000000000000000000000000000000000000008352165afa60009181610e765750610cc3575060009056fea2646970667358221220deaf7782c59f42ff0094ed9e520f8906e068cc0e2a3f58158608e1c19dc6ab1264736f6c634300080d0033",
  "devdoc": {
    "kind": "dev",
    "methods": {},
    "version": 1
  },
  "userdoc": {
    "kind": "user",
    "methods": {},
    "version": 1
  },
  "storageLayout": {
    "storage": [],
    "types": null
  }
}