{
  "address": "0xd52295AacD812177d67303CA0e8F97603e071ddb",
  "abi": [
    {
      "anonymous": false,
      "inputs": [
        {
          "indexed": true,
          "internalType": "address",
          "name": "previousOwner",
          "type": "address"
        },
        {
          "indexed": true,
          "internalType": "address",
          "name": "newOwner",
          "type": "address"
        }
      ],
      "name": "OwnershipTransferred",
      "type": "event"
    },
    {
      "anonymous": false,
      "inputs": [
        {
          "indexed": false,
          "internalType": "uint256",
          "name": "vaultId",
          "type": "uint256"
        },
        {
          "indexed": false,
          "internalType": "address",
          "name": "vaultAddress",
          "type": "address"
        },
        {
          "indexed": false,
          "internalType": "address",
          "name": "collateralToken",
          "type": "address"
        },
        {
          "indexed": false,
          "internalType": "uint256",
          "name": "collateralAmount",
          "type": "uint256"
        },
        {
          "indexed": false,
          "internalType": "uint256",
          "name": "debtAmount",
          "type": "uint256"
        }
      ],
      "name": "VaultCreated",
      "type": "event"
    },
    {
      "inputs": [
        {
          "internalType": "address",
          "name": "target",
          "type": "address"
        },
        {
          "internalType": "uint256",
          "name": "value",
          "type": "uint256"
        },
        {
          "internalType": "bytes",
          "name": "data",
          "type": "bytes"
        }
      ],
      "name": "exec",
      "outputs": [],
      "stateMutability": "nonpayable",
      "type": "function"
    },
    {
      "inputs": [
        {
          "internalType": "address",
          "name": "vaultAddress",
          "type": "address"
        },
        {
          "internalType": "address",
          "name": "collateralToken",
          "type": "address"
        },
        {
          "internalType": "uint256",
          "name": "collateralAmount",
          "type": "uint256"
        },
        {
          "internalType": "uint256",
          "name": "debtAmount",
          "type": "uint256"
        }
      ],
      "name": "initiateVault",
      "outputs": [
        {
          "internalType": "uint256",
          "name": "vaultId",
          "type": "uint256"
        }
      ],
      "stateMutability": "nonpayable",
      "type": "function"
    },
    {
      "inputs": [],
      "name": "owner",
      "outputs": [
        {
          "internalType": "address",
          "name": "",
          "type": "address"
        }
      ],
      "stateMutability": "view",
      "type": "function"
    },
    {
      "inputs": [],
      "name": "renounceOwnership",
      "outputs": [],
      "stateMutability": "nonpayable",
      "type": "function"
    },
    {
      "inputs": [
        {
          "internalType": "address",
          "name": "newOwner",
          "type": "address"
        }
      ],
      "name": "transferOwnership",
      "outputs": [],
      "stateMutability": "nonpayable",
      "type": "function"
    }
  ],
  "transactionHash": "0x2294c148ba0cc6b75c8d5ae6dcda62bbc791201aa6eefa99e59ea262fd95bec8",
  "args": [],
  "numDeployments": 2,
  "solcInputHash": "f0cd54e2a842bfcfab1d6972a610c493",
  "bytecode": "0x6080806040523461005b5760008054336001600160a01b0319821681178355916001600160a01b03909116907f8be0079c531659141344cd1fd0a4f28419497f9722a3daafe3b4186f6b6457e09084a3610ca990816100618239f35b600080fdfe60806040526004361015610013575b600080fd5b6000803560e01c9081630565bb671461007a57508063715018a6146100715780638da5cb5b14610068578063c62c8cab1461005f5763f2fde38b1461005757600080fd5b61000e6107aa565b5061000e61022b565b5061000e6101d8565b5061000e610133565b346101075760607ffffffffffffffffffffffffffffffffffffffffffffffffffffffffffffffffc360112610107576004356100b58161010a565b6044359067ffffffffffffffff9081831161010357366023840112156101035782600401359182116101035736602483850101116101035760246100fe93019060243590610b1c565b604051f35b8380fd5b80fd5b73ffffffffffffffffffffffffffffffffffffffff81160361000e57565b600091031261000e57565b503461000e576000807ffffffffffffffffffffffffffffffffffffffffffffffffffffffffffffffffc3601126101075780547fffffffffffffffffffffffff000000000000000000000000000000000000000073ffffffffffffffffffffffffffffffffffffffff8216916101aa3384146108a0565b16825581604051917f8be0079c531659141344cd1fd0a4f28419497f9722a3daafe3b4186f6b6457e08284a3f35b503461000e5760007ffffffffffffffffffffffffffffffffffffffffffffffffffffffffffffffffc36011261000e57602073ffffffffffffffffffffffffffffffffffffffff60005416604051908152f35b503461000e5760807ffffffffffffffffffffffffffffffffffffffffffffffffffffffffffffffffc36011261000e57600480356102688161010a565b602435906102758261010a565b604435916064359173ffffffffffffffffffffffffffffffffffffffff92838316946040948551977f23b872dd0000000000000000000000000000000000000000000000000000000089528760208a81818030893391898401926103039360409194939294606082019573ffffffffffffffffffffffffffffffffffffffff80921683521660208201520152565b0360009e8f80975af161032491811561079d575b8491610780575b50610a2b565b8387169389519a7f5d12928b000000000000000000000000000000000000000000000000000000008c52828c8681878a5af19b8c15610773575b849c61073a575b5082876103c4928b878f518096819582947f095ea7b30000000000000000000000000000000000000000000000000000000084528d84016020909392919373ffffffffffffffffffffffffffffffffffffffff60408201951681520152565b03925af1801561072d575b610710575b50843b156106ec5789517fece137320000000000000000000000000000000000000000000000000000000081528481018c8152602081018890528490829081906040010381838a5af18015610703575b6106f0575b50843b156106ec578161052c8489818f8f9082848d610487936105479d8f8751968795869485937f08ec5927000000000000000000000000000000000000000000000000000000008552840160209093929193604081019481520152565b03925af180156106df575b6106cc575b50858b8b8351809781937f570b2b840000000000000000000000000000000000000000000000000000000083525af19384156106bf575b8294610690575b50519586809581947fa9059cbb000000000000000000000000000000000000000000000000000000008352338d84016020909392919373ffffffffffffffffffffffffffffffffffffffff60408201951681520152565b0393165af1918215610683575b8c92610656575b5050610ab7565b813b156106525786517f42842e0e0000000000000000000000000000000000000000000000000000000081523091810191825233602083015260408201899052610628997f44af6ec22ccd3d0e77902015a78c08beef5480d0afff29d20c929b271ba2dd6e979695610617959094909383919082908490829060600103925af18015610645575b61062c575b508651948594898691608093969594919660a0840197845273ffffffffffffffffffffffffffffffffffffffff809216602085015216604083015260608201520152565b0390a1519081529081906020820190565b0390f35b8061063961063f926109a4565b80610128565b386105d3565b61064d610a1e565b6105ce565b8880fd5b6106759250803d1061067c575b61066d81836109c5565b810190610a06565b3880610540565b503d610663565b61068b610a1e565b610539565b6106b1919450863d88116106b8575b6106a981836109c5565b810190610a9f565b92386104d5565b503d61069f565b6106c7610a1e565b6104ce565b806106396106d9926109a4565b38610497565b6106e7610a1e565b610492565b8280fd5b806106396106fd926109a4565b38610429565b61070b610a1e565b610424565b61072690833d851161067c5761066d81836109c5565b50386103d4565b610735610a1e565b6103cf565b849c50878c928b8693843d861161076c575b61075681836109c5565b810161076191610a90565b9f5050925050610365565b503d61074c565b61077b610a1e565b61035e565b6107979150833d851161067c5761066d81836109c5565b3861031e565b6107a5610a1e565b610317565b503461000e5760207ffffffffffffffffffffffffffffffffffffffffffffffffffffffffffffffffc36011261000e576004356107e68161010a565b73ffffffffffffffffffffffffffffffffffffffff61080a816000541633146108a0565b81161561081c5761081a90610905565b005b60846040517f08c379a000000000000000000000000000000000000000000000000000000000815260206004820152602660248201527f4f776e61626c653a206e6577206f776e657220697320746865207a65726f206160448201527f64647265737300000000000000000000000000000000000000000000000000006064820152fd5b156108a757565b60646040517f08c379a000000000000000000000000000000000000000000000000000000000815260206004820152602060248201527f4f776e61626c653a2063616c6c6572206973206e6f7420746865206f776e65726044820152fd5b6000549073ffffffffffffffffffffffffffffffffffffffff80911691827fffffffffffffffffffffffff0000000000000000000000000000000000000000821617600055167f8be0079c531659141344cd1fd0a4f28419497f9722a3daafe3b4186f6b6457e06000604051a3565b507f4e487b7100000000000000000000000000000000000000000000000000000000600052604160045260246000fd5b67ffffffffffffffff81116109b857604052565b6109c0610974565b604052565b90601f7fffffffffffffffffffffffffffffffffffffffffffffffffffffffffffffffe0910116810190811067ffffffffffffffff8211176109b857604052565b9081602091031261000e5751801515810361000e5790565b506040513d6000823e3d90fd5b15610a3257565b60646040517f08c379a000000000000000000000000000000000000000000000000000000000815260206004820152601f60248201527f5156433a20436f6c6c61746572616c207472616e73666572206661696c6564006044820152fd5b9081602091031261000e575190565b9081602091031261000e5751610ab48161010a565b90565b15610abe57565b60646040517f08c379a000000000000000000000000000000000000000000000000000000000815260206004820152601860248201527f5156433a204d4149207472616e73666572206661696c656400000000000000006044820152fd5b91909160009384938493610b4873ffffffffffffffffffffffffffffffffffffffff86541633146108a0565b826040519384928337810185815203925af13d15610c6b573d9067ffffffffffffffff8211610c5e575b60405191610ba860207fffffffffffffffffffffffffffffffffffffffffffffffffffffffffffffffe0601f84011601846109c5565b82523d83602084013e5b15610bbb575050565b60405180927f08c379a0000000000000000000000000000000000000000000000000000000008252602080600484015283519384602485015282915b858310610c45575050837fffffffffffffffffffffffffffffffffffffffffffffffffffffffffffffffe092604495601f9311610c39575b5001168101030190fd5b85828601015286610c2f565b8183018101518784016044015286945091820191610bf7565b610c66610974565b610b72565b606090610bb256fea264697066735822122080fb531121a4af140fae91eb73934bc981661b10737ff2d42c676b871835fcce64736f6c634300080d0033",
  "devdoc": {
    "kind": "dev",
    "methods": {
      "owner()": {
        "details": "Returns the address of the current owner."
      },
      "renounceOwnership()": {
        "details": "Leaves the contract without owner. It will not be possible to call `onlyOwner` functions anymore. Can only be called by the current owner. NOTE: Renouncing ownership will leave the contract without an owner, thereby removing any functionality that is only available to the owner."
      },
      "transferOwnership(address)": {
        "details": "Transfers ownership of the contract to a new account (`newOwner`). Can only be called by the current owner."
      }
    },
    "version": 1
  },
  "userdoc": {
    "kind": "user",
    "methods": {
      "exec(address,uint256,bytes)": {
        "notice": "Shouldn't be necessary, this contract doesn't hold funds. Here just in case of emergency."
      }
    },
    "version": 1
  },
  "storageLayout": {
    "storage": [
      {
        "astId": 400,
        "contract": "contracts/defi/QiVaultCreator.sol:QiVaultCreator",
        "label": "_owner",
        "offset": 0,
        "slot": "0",
        "type": "t_address"
      }
    ],
    "types": {
      "t_address": {
        "encoding": "inplace",
        "label": "address",
        "numberOfBytes": "20"
      }
    }
  }
}