{
  "address": "0xDEce47C36d4d5914DA572D2785979404bCF3D954",
  "abi": [
    {
      "anonymous": false,
      "inputs": [
        {
          "indexed": true,
          "internalType": "address",
          "name": "previousOwner",
          "type": "address"
        },
        {
          "indexed": true,
          "internalType": "address",
          "name": "newOwner",
          "type": "address"
        }
      ],
      "name": "OwnershipTransferred",
      "type": "event"
    },
    {
      "inputs": [
        {
          "internalType": "address[]",
          "name": "stakingRewardAddresses",
          "type": "address[]"
        },
        {
          "internalType": "address",
          "name": "owner",
          "type": "address"
        }
      ],
      "name": "getDualRewardPositions",
      "outputs": [
        {
          "components": [
            {
              "internalType": "address",
              "name": "poolAddress",
              "type": "address"
            },
            {
              "internalType": "uint256",
              "name": "share",
              "type": "uint256"
            },
            {
              "internalType": "address",
              "name": "rewardsTokenA",
              "type": "address"
            },
            {
              "internalType": "uint256",
              "name": "rewardAmountA",
              "type": "uint256"
            },
            {
              "internalType": "address",
              "name": "rewardsTokenB",
              "type": "address"
            },
            {
              "internalType": "uint256",
              "name": "rewardAmountB",
              "type": "uint256"
            }
          ],
          "internalType": "struct QuickswapUserPositionsMulticall.QuickswapDualRewardPosition[]",
          "name": "positions",
          "type": "tuple[]"
        }
      ],
      "stateMutability": "view",
      "type": "function"
    },
    {
      "inputs": [
        {
          "internalType": "address[]",
          "name": "stakingRewardAddresses",
          "type": "address[]"
        },
        {
          "internalType": "address",
          "name": "owner",
          "type": "address"
        }
      ],
      "name": "getSingleRewardPositions",
      "outputs": [
        {
          "components": [
            {
              "internalType": "address",
              "name": "poolAddress",
              "type": "address"
            },
            {
              "internalType": "uint256",
              "name": "share",
              "type": "uint256"
            },
            {
              "internalType": "address",
              "name": "rewardsToken",
              "type": "address"
            },
            {
              "internalType": "uint256",
              "name": "rewardAmount",
              "type": "uint256"
            }
          ],
          "internalType": "struct QuickswapUserPositionsMulticall.QuickswapSingleRewardPosition[]",
          "name": "positions",
          "type": "tuple[]"
        }
      ],
      "stateMutability": "view",
      "type": "function"
    },
    {
      "inputs": [],
      "name": "owner",
      "outputs": [
        {
          "internalType": "address",
          "name": "",
          "type": "address"
        }
      ],
      "stateMutability": "view",
      "type": "function"
    },
    {
      "inputs": [],
      "name": "renounceOwnership",
      "outputs": [],
      "stateMutability": "nonpayable",
      "type": "function"
    },
    {
      "inputs": [
        {
          "internalType": "address",
          "name": "newOwner",
          "type": "address"
        }
      ],
      "name": "transferOwnership",
      "outputs": [],
      "stateMutability": "nonpayable",
      "type": "function"
    }
  ],
  "transactionHash": "0xd8d3596a63696d996dd115344b65bc14122102ca8c723577bb23c929c53001db",
  "args": [],
  "numDeployments": 2,
  "solcInputHash": "21af772303266a2e2ac3b5e7d57ac740",
  "bytecode": "0x6080806040523461005b5760008054336001600160a01b0319821681178355916001600160a01b03909116907f8be0079c531659141344cd1fd0a4f28419497f9722a3daafe3b4186f6b6457e09084a361131f90816100618239f35b600080fdfe60806040526004361015610013575b600080fd5b6000803560e01c908163715018a61461007a575080638da5cb5b14610071578063977b8c32146100685780639ccef8861461005f5763f2fde38b1461005757600080fd5b61000e610de5565b5061000e6109c1565b5061000e610381565b5061000e6100da565b346100d757807ffffffffffffffffffffffffffffffffffffffffffffffffffffffffffffffffc3601126100d7576100ca73ffffffffffffffffffffffffffffffffffffffff8254163314610edb565b6100d2610f40565b604051f35b80fd5b503461000e5760007ffffffffffffffffffffffffffffffffffffffffffffffffffffffffffffffffc36011261000e57602073ffffffffffffffffffffffffffffffffffffffff60005416604051908152f35b507f4e487b7100000000000000000000000000000000000000000000000000000000600052604160045260246000fd5b90601f7fffffffffffffffffffffffffffffffffffffffffffffffffffffffffffffffe0910116810190811067ffffffffffffffff82111761019e57604052565b6101a661012d565b604052565b6040519060c0820182811067ffffffffffffffff82111761019e57604052565b604051906080820182811067ffffffffffffffff82111761019e57604052565b60209067ffffffffffffffff8111610205575b60051b0190565b61020d61012d565b6101fe565b73ffffffffffffffffffffffffffffffffffffffff81160361000e57565b6024359061023d82610212565b565b60407ffffffffffffffffffffffffffffffffffffffffffffffffffffffffffffffffc82011261000e5760043567ffffffffffffffff811161000e578160238201121561000e57806004013591610295836101eb565b926102a3604051948561015d565b80845260209260248486019260051b82010192831161000e57602401905b8282106102d85750505050906102d5610230565b90565b83809183356102e681610212565b8152019101906102c1565b60208082019080835283518092528060408094019401926000905b83821061031b57505050505090565b8451805173ffffffffffffffffffffffffffffffffffffffff9081168852818501518886015281830151811688840152606080830151908901526080808301519091169088015260a0908101519087015260c0909501949382019360019091019061030c565b503461000e576103903661023f565b9080519161039d83611233565b9260005b61ffff8116828110156109375790816103f96103e06103e06103c661076b968a61110e565b5173ffffffffffffffffffffffffffffffffffffffff1690565b73ffffffffffffffffffffffffffffffffffffffff1690565b604080517f70a082310000000000000000000000000000000000000000000000000000000080825273ffffffffffffffffffffffffffffffffffffffff8916600480840191909152929493602092908382602481845afa91821561092a575b60009261090b575b508a82156108fe5787610592876105706105566106c6988a886107659f869b6104cf91519084827f18160ddd000000000000000000000000000000000000000000000000000000009a8b825281875afa9182156108f1575b6000926108ce575b506104ca9061116d565b6111e5565b9273ffffffffffffffffffffffffffffffffffffffff8c848b5180927f72f702f300000000000000000000000000000000000000000000000000000000825281875afa9081156108c1575b6000916108a4575b50169e8f918a51968794859384938452830191909173ffffffffffffffffffffffffffffffffffffffff6020820193169052565b03915afa918215610897575b600092610878575b506111b4565b8351918252888288818d5afa91821561086b575b60009261084c575b506111e5565b868251937f5fd1020c00000000000000000000000000000000000000000000000000000000855281858881895afa94851561083f575b600095610820575b508351957f1820d739000000000000000000000000000000000000000000000000000000008752828780610623858c830191909173ffffffffffffffffffffffffffffffffffffffff6020820193169052565b0381845afa968715610813575b6000976107f4575b508451977f88c4c66600000000000000000000000000000000000000000000000000000000895283898281855afa9889156107e7575b6000996107b8575b508551809a819482937f60fb3626000000000000000000000000000000000000000000000000000000008452830191909173ffffffffffffffffffffffffffffffffffffffff6020820193169052565b03915afa9586156107ab575b600096610770575b509061072d929161074f969761070d6106f16101ab565b73ffffffffffffffffffffffffffffffffffffffff909b168b52565b89015287019073ffffffffffffffffffffffffffffffffffffffff169052565b606085015273ffffffffffffffffffffffffffffffffffffffff166080840152565b60a082015261075e828a61110e565b528761110e565b506110ee565b6103a1565b61074f96509061079a61072d949392893d8b116107a4575b610792818361015d565b810190611151565b96509091926106da565b503d610788565b6107b3611160565b6106d2565b6107d9919950843d86116107e0575b6107d1818361015d565b81019061121e565b9738610676565b503d6107c7565b6107ef611160565b61066e565b61080c919750833d85116107a457610792818361015d565b9538610638565b61081b611160565b610630565b610838919550823d84116107e0576107d1818361015d565b93386105d0565b610847611160565b6105c8565b610864919250893d8b116107a457610792818361015d565b903861058c565b610873611160565b610584565b6108909192508b3d8d116107a457610792818361015d565b903861056a565b61089f611160565b610562565b6108bb9150853d87116107e0576107d1818361015d565b38610522565b6108c9611160565b61051a565b6104ca9192506108ea90863d88116107a457610792818361015d565b91906104c0565b6108f9611160565b6104b8565b50505050505050506110ee565b610923919250843d86116107a457610792818361015d565b9038610460565b610932611160565b610458565b6040518061094588826102f1565b0390f35b60208082019080835283518092528060408094019401926000905b83821061097357505050505090565b8451805173ffffffffffffffffffffffffffffffffffffffff908116885281850151888601528183015116878301526060908101519087015260809095019493820193600190910190610964565b503461000e576109d03661023f565b908051916109dd83611016565b9260005b61ffff81169082821015610dd757610a026103e06103e06103c6858961110e565b6040928351917f70a082310000000000000000000000000000000000000000000000000000000090818452602095600490878680610a5f8d86830191909173ffffffffffffffffffffffffffffffffffffffff6020820193169052565b0381865afa958615610dca575b600096610dab575b508515610d9b579081610ac9899493517f18160ddd000000000000000000000000000000000000000000000000000000009889825286828681895afa918215610d8e575b600092610d7257506104ca9061116d565b92848c73ffffffffffffffffffffffffffffffffffffffff84517f72f702f300000000000000000000000000000000000000000000000000000000815283818881885afa908115610d65575b600091610d48575b501697845190815288838280878a820190610b52909173ffffffffffffffffffffffffffffffffffffffff6020820193169052565b0381845afa9b8c159e610c9f9f6107659e610c2f9b610ba296610b8193610d3b575b600092610d2357506111b4565b918989518095819382525afa918215610d16575b600092610cfe57506111e5565b928451957fd1af0c7d00000000000000000000000000000000000000000000000000000000875283878281855afa968715610cf1575b600097610cd2575b5085518098819482937e8cc262000000000000000000000000000000000000000000000000000000008452830191909173ffffffffffffffffffffffffffffffffffffffff6020820193169052565b03915afa938415610cc5575b600094610ca4575b50610c909394610c70610c546101cb565b73ffffffffffffffffffffffffffffffffffffffff9098168852565b86015284019073ffffffffffffffffffffffffffffffffffffffff169052565b606082015261075e828a61110e565b6109e1565b610c909450610cbf90863d88116107a457610792818361015d565b93610c43565b610ccd611160565b610c3b565b610cea919750843d86116107e0576107d1818361015d565b9538610be0565b610cf9611160565b610bd8565b610864919250853d87116107a457610792818361015d565b610d1e611160565b610b95565b610890919250843d86116107a457610792818361015d565b610d43611160565b610b74565b610d5f9150843d86116107e0576107d1818361015d565b38610b1d565b610d6d611160565b610b15565b6104ca9192506108ea90883d8a116107a457610792818361015d565b610d96611160565b610ab8565b505050505050610c9f91506110ee565b610dc3919650883d8a116107a457610792818361015d565b9438610a74565b610dd2611160565b610a6c565b604051806109458882610949565b503461000e5760207ffffffffffffffffffffffffffffffffffffffffffffffffffffffffffffffffc36011261000e57600435610e2181610212565b73ffffffffffffffffffffffffffffffffffffffff610e4581600054163314610edb565b811615610e5757610e5590610fa7565b005b60846040517f08c379a000000000000000000000000000000000000000000000000000000000815260206004820152602660248201527f4f776e61626c653a206e6577206f776e657220697320746865207a65726f206160448201527f64647265737300000000000000000000000000000000000000000000000000006064820152fd5b15610ee257565b60646040517f08c379a000000000000000000000000000000000000000000000000000000000815260206004820152602060248201527f4f776e61626c653a2063616c6c6572206973206e6f7420746865206f776e65726044820152fd5b600073ffffffffffffffffffffffffffffffffffffffff81547fffffffffffffffffffffffff000000000000000000000000000000000000000081168355167f8be0079c531659141344cd1fd0a4f28419497f9722a3daafe3b4186f6b6457e082604051a3565b6000549073ffffffffffffffffffffffffffffffffffffffff80911691827fffffffffffffffffffffffff0000000000000000000000000000000000000000821617600055167f8be0079c531659141344cd1fd0a4f28419497f9722a3daafe3b4186f6b6457e06000604051a3565b90611020826101eb565b60409061102f8251918261015d565b8381527fffffffffffffffffffffffffffffffffffffffffffffffffffffffffffffffe061105d82956101eb565b019160005b83811061106f5750505050565b60209082516080810181811067ffffffffffffffff8211176110b1575b8452600081528260008183015260008583015260006060830152828601015201611062565b6110b961012d565b61108c565b507f4e487b7100000000000000000000000000000000000000000000000000000000600052601160045260246000fd5b60019061ffff809116908114611102570190565b61110a6110be565b0190565b80518210156111225760209160051b010190565b7f4e487b7100000000000000000000000000000000000000000000000000000000600052603260045260246000fd5b9081602091031261000e575190565b506040513d6000823e3d90fd5b670de0b6b3a764000090807fffffffffffffffffffffffffffffffffffffffffffffffffffffffffffffffff048211811515166111a8570290565b6111b06110be565b0290565b807fffffffffffffffffffffffffffffffffffffffffffffffffffffffffffffffff048211811515166111a8570290565b81156111ef570490565b7f4e487b7100000000000000000000000000000000000000000000000000000000600052601260045260246000fd5b9081602091031261000e57516102d581610212565b9061123d826101eb565b60409061124c8251918261015d565b8381527fffffffffffffffffffffffffffffffffffffffffffffffffffffffffffffffe061127a82956101eb565b019160005b83811061128c5750505050565b602090825160c0810181811067ffffffffffffffff8211176112dc575b845260008152826000818301526000858301526000606083015260006080830152600060a083015282860101520161127f565b6112e461012d565b6112a956fea2646970667358221220fcbb29fd22b0107aa88532e1d9c1df87893d2a3000044b50733179ff847b6b5364736f6c634300080d0033",
  "devdoc": {
    "kind": "dev",
    "methods": {
      "owner()": {
        "details": "Returns the address of the current owner."
      },
      "renounceOwnership()": {
        "details": "Leaves the contract without owner. It will not be possible to call `onlyOwner` functions anymore. Can only be called by the current owner. NOTE: Renouncing ownership will leave the contract without an owner, thereby removing any functionality that is only available to the owner."
      },
      "transferOwnership(address)": {
        "details": "Transfers ownership of the contract to a new account (`newOwner`). Can only be called by the current owner."
      }
    },
    "version": 1
  },
  "userdoc": {
    "kind": "user",
    "methods": {},
    "version": 1
  },
  "storageLayout": {
    "storage": [
      {
        "astId": 400,
        "contract": "contracts/multicall/QuickswapUserPositionsMulticall.sol:QuickswapUserPositionsMulticall",
        "label": "_owner",
        "offset": 0,
        "slot": "0",
        "type": "t_address"
      }
    ],
    "types": {
      "t_address": {
        "encoding": "inplace",
        "label": "address",
        "numberOfBytes": "20"
      }
    }
  }
}