{
  "address": "0x32D0f038067D0Eb1116Bb7113590258548Cd4307",
  "abi": [
    {
      "anonymous": false,
      "inputs": [
        {
          "indexed": true,
          "internalType": "address",
          "name": "previousOwner",
          "type": "address"
        },
        {
          "indexed": true,
          "internalType": "address",
          "name": "newOwner",
          "type": "address"
        }
      ],
      "name": "OwnershipTransferred",
      "type": "event"
    },
    {
      "inputs": [
        {
          "internalType": "address[]",
          "name": "stakingRewardAddresses",
          "type": "address[]"
        },
        {
          "internalType": "address",
          "name": "owner",
          "type": "address"
        }
      ],
      "name": "getDualRewardPositions",
      "outputs": [
        {
          "components": [
            {
              "internalType": "address",
              "name": "poolAddress",
              "type": "address"
            },
            {
              "internalType": "uint256",
              "name": "share",
              "type": "uint256"
            },
            {
              "internalType": "address",
              "name": "rewardsTokenA",
              "type": "address"
            },
            {
              "internalType": "uint256",
              "name": "rewardAmountA",
              "type": "uint256"
            },
            {
              "internalType": "address",
              "name": "rewardsTokenB",
              "type": "address"
            },
            {
              "internalType": "uint256",
              "name": "rewardAmountB",
              "type": "uint256"
            }
          ],
          "internalType": "struct QuickswapUserPositionsMulticall.QuickswapDualRewardPosition[]",
          "name": "positions",
          "type": "tuple[]"
        }
      ],
      "stateMutability": "view",
      "type": "function"
    },
    {
      "inputs": [
        {
          "internalType": "address[]",
          "name": "stakingRewardAddresses",
          "type": "address[]"
        },
        {
          "internalType": "address",
          "name": "owner",
          "type": "address"
        }
      ],
      "name": "getSingleRewardPositions",
      "outputs": [
        {
          "components": [
            {
              "internalType": "address",
              "name": "poolAddress",
              "type": "address"
            },
            {
              "internalType": "uint256",
              "name": "share",
              "type": "uint256"
            },
            {
              "internalType": "address",
              "name": "rewardsToken",
              "type": "address"
            },
            {
              "internalType": "uint256",
              "name": "rewardAmount",
              "type": "uint256"
            }
          ],
          "internalType": "struct QuickswapUserPositionsMulticall.QuickswapSingleRewardPosition[]",
          "name": "positions",
          "type": "tuple[]"
        }
      ],
      "stateMutability": "view",
      "type": "function"
    },
    {
      "inputs": [],
      "name": "owner",
      "outputs": [
        {
          "internalType": "address",
          "name": "",
          "type": "address"
        }
      ],
      "stateMutability": "view",
      "type": "function"
    },
    {
      "inputs": [],
      "name": "renounceOwnership",
      "outputs": [],
      "stateMutability": "nonpayable",
      "type": "function"
    },
    {
      "inputs": [
        {
          "internalType": "address",
          "name": "newOwner",
          "type": "address"
        }
      ],
      "name": "transferOwnership",
      "outputs": [],
      "stateMutability": "nonpayable",
      "type": "function"
    }
  ],
  "transactionHash": "0x6e4d5fcdf6b8927f6b5b07aa6387d3f8f7727fdb9796fd76fbb62c9f25d531a3",
  "args": [],
  "numDeployments": 1,
  "solcInputHash": "d70b398898011f75b8055095e0063ef2",
  "bytecode": "0x6080806040523461005b5760008054336001600160a01b0319821681178355916001600160a01b03909116907f8be0079c531659141344cd1fd0a4f28419497f9722a3daafe3b4186f6b6457e09084a36110fa90816100618239f35b600080fdfe60806040526004361015610013575b600080fd5b6000803560e01c908163715018a61461007a575080638da5cb5b14610071578063977b8c32146100685780639ccef8861461005f5763f2fde38b1461005757600080fd5b61000e610c64565b5061000e610926565b5061000e6103c2565b5061000e61011b565b3461011857807ffffffffffffffffffffffffffffffffffffffffffffffffffffffffffffffffc360112610118576100b0610da3565b80547fffffffffffffffffffffffff0000000000000000000000000000000000000000811682558173ffffffffffffffffffffffffffffffffffffffff60405192167f8be0079c531659141344cd1fd0a4f28419497f9722a3daafe3b4186f6b6457e08284a3f35b80fd5b503461000e5760007ffffffffffffffffffffffffffffffffffffffffffffffffffffffffffffffffc36011261000e57602073ffffffffffffffffffffffffffffffffffffffff60005416604051908152f35b507f4e487b7100000000000000000000000000000000000000000000000000000000600052604160045260246000fd5b90601f7fffffffffffffffffffffffffffffffffffffffffffffffffffffffffffffffe0910116810190811067ffffffffffffffff8211176101df57604052565b6101e761016e565b604052565b6040519060c0820182811067ffffffffffffffff8211176101df57604052565b604051906080820182811067ffffffffffffffff8211176101df57604052565b60209067ffffffffffffffff8111610246575b60051b0190565b61024e61016e565b61023f565b73ffffffffffffffffffffffffffffffffffffffff81160361000e57565b6024359061027e82610253565b565b60407ffffffffffffffffffffffffffffffffffffffffffffffffffffffffffffffffc82011261000e5760043567ffffffffffffffff811161000e578160238201121561000e578060040135916102d68361022c565b926102e4604051948561019e565b80845260209260248486019260051b82010192831161000e57602401905b828210610319575050505090610316610271565b90565b838091833561032781610253565b815201910190610302565b60208082019080835283518092528060408094019401926000905b83821061035c57505050505090565b8451805173ffffffffffffffffffffffffffffffffffffffff9081168852818501518886015281830151811688840152606080830151908901526080808301519091169088015260a0908101519087015260c0909501949382019360019091019061034d565b503461000e576103d136610280565b908051916103de8361100e565b9260005b61ffff81168281101561089c57908161043a610421610421610407610723968a610f1a565b5173ffffffffffffffffffffffffffffffffffffffff1690565b73ffffffffffffffffffffffffffffffffffffffff1690565b906040918251907f70a08231000000000000000000000000000000000000000000000000000000008252602091886004928483806104978588830191909173ffffffffffffffffffffffffffffffffffffffff6020820193169052565b0381845afa92831561088f575b600093610870575b508215610864578661050a6106409461071d9951907f18160ddd00000000000000000000000000000000000000000000000000000000825288828981885afa918215610857575b600092610834575b5061050590610f79565b610fc0565b908051917f5fd1020c00000000000000000000000000000000000000000000000000000000835287838881875afa928315610827575b600093610808575b50878251947f1820d73900000000000000000000000000000000000000000000000000000000865281868061059c8a8d830191909173ffffffffffffffffffffffffffffffffffffffff6020820193169052565b0381845afa9586156107fb575b6000966107dc575b508351967f88c4c66600000000000000000000000000000000000000000000000000000000885282888b81855afa9788156107cf575b6000986107ae575b5082908551809a81927f60fb36260000000000000000000000000000000000000000000000000000000083528d830191909173ffffffffffffffffffffffffffffffffffffffff6020820193169052565b0381845afa9788156107a1575b600098610772575b508351988980927f72f702f30000000000000000000000000000000000000000000000000000000082525afa968715610765575b600097610728575b50906106e592916107079697986106c56106a96101ec565b73ffffffffffffffffffffffffffffffffffffffff909b168b52565b89015287019073ffffffffffffffffffffffffffffffffffffffff169052565b606085015273ffffffffffffffffffffffffffffffffffffffff166080840152565b60a0820152610716828a610f1a565b5287610f1a565b50610efa565b6103e2565b610707969750906107536106e59493928a3d8c1161075e575b61074b818361019e565b810190610ff9565b979650909192610691565b503d610741565b61076d610f6c565b610689565b610793919850823d841161079a575b61078b818361019e565b810190610f5d565b9638610655565b503d610781565b6107a9610f6c565b61064d565b839198506107c890823d841161075e5761074b818361019e565b97906105ef565b6107d7610f6c565b6105e7565b6107f4919650823d841161079a5761078b818361019e565b94386105b1565b610803610f6c565b6105a9565b610820919350883d8a1161075e5761074b818361019e565b9138610548565b61082f610f6c565b610540565b610505919250610850908a3d8c1161079a5761078b818361019e565b91906104fb565b61085f610f6c565b6104f3565b50505050505050610efa565b610888919350853d871161079a5761078b818361019e565b91386104ac565b610897610f6c565b6104a4565b604051806108aa8882610332565b0390f35b60208082019080835283518092528060408094019401926000905b8382106108d857505050505090565b8451805173ffffffffffffffffffffffffffffffffffffffff9081168852818501518886015281830151168783015260609081015190870152608090950194938201936001909101906108c9565b503461000e5761093536610280565b9080519161094283610e22565b9260005b61ffff811682811015610c5657908161096b610421610421610407610b67968a610f1a565b604080517f70a0823100000000000000000000000000000000000000000000000000000000815273ffffffffffffffffffffffffffffffffffffffff881660048083019190915291939260209291908382602481845afa918215610c49575b600092610c2a575b508115610c1f5785610a2a610ab99361071d9851907f18160ddd00000000000000000000000000000000000000000000000000000000825287828881885afa918215610c12575b600092610bf6575061050590610f79565b858251937fd1af0c7d0000000000000000000000000000000000000000000000000000000085528d82868981855afa958615610be9575b600096610bc8575b5082908551809881927e8cc2620000000000000000000000000000000000000000000000000000000083528b830191909173ffffffffffffffffffffffffffffffffffffffff6020820193169052565b0381845afa958615610bbb575b600096610b9c575b508351968780927f72f702f30000000000000000000000000000000000000000000000000000000082525afa948515610b8f575b600095610b6c575b50610b58939495610b38610b1c61020c565b73ffffffffffffffffffffffffffffffffffffffff9098168852565b86015284019073ffffffffffffffffffffffffffffffffffffffff169052565b6060820152610716828a610f1a565b610946565b610b58949550610b8890873d891161075e5761074b818361019e565b9493610b0a565b610b97610f6c565b610b02565b610bb4919650823d841161079a5761078b818361019e565b9438610ace565b610bc3610f6c565b610ac6565b83919650610be290823d841161075e5761074b818361019e565b9590610a69565b610bf1610f6c565b610a61565b61050591925061085090893d8b1161079a5761078b818361019e565b610c1a610f6c565b610a19565b505050505050610efa565b610c42919250843d861161079a5761078b818361019e565b90386109d2565b610c51610f6c565b6109ca565b604051806108aa88826108ae565b503461000e5760207ffffffffffffffffffffffffffffffffffffffffffffffffffffffffffffffffc36011261000e57600435610ca081610253565b610ca8610da3565b73ffffffffffffffffffffffffffffffffffffffff809116908115610d1f57600091825491817fffffffffffffffffffffffff0000000000000000000000000000000000000000841617845560405192167f8be0079c531659141344cd1fd0a4f28419497f9722a3daafe3b4186f6b6457e08484a3f35b60846040517f08c379a000000000000000000000000000000000000000000000000000000000815260206004820152602660248201527f4f776e61626c653a206e6577206f776e657220697320746865207a65726f206160448201527f64647265737300000000000000000000000000000000000000000000000000006064820152fd5b73ffffffffffffffffffffffffffffffffffffffff600054163303610dc457565b60646040517f08c379a000000000000000000000000000000000000000000000000000000000815260206004820152602060248201527f4f776e61626c653a2063616c6c6572206973206e6f7420746865206f776e65726044820152fd5b90610e2c8261022c565b604090610e3b8251918261019e565b8381527fffffffffffffffffffffffffffffffffffffffffffffffffffffffffffffffe0610e69829561022c565b019160005b838110610e7b5750505050565b60209082516080810181811067ffffffffffffffff821117610ebd575b8452600081528260008183015260008583015260006060830152828601015201610e6e565b610ec561016e565b610e98565b507f4e487b7100000000000000000000000000000000000000000000000000000000600052601160045260246000fd5b60019061ffff809116908114610f0e570190565b610f16610eca565b0190565b8051821015610f2e5760209160051b010190565b7f4e487b7100000000000000000000000000000000000000000000000000000000600052603260045260246000fd5b9081602091031261000e575190565b506040513d6000823e3d90fd5b670de0b6b3a764000090807fffffffffffffffffffffffffffffffffffffffffffffffffffffffffffffffff04821181151516610fb4570290565b610fbc610eca565b0290565b8115610fca570490565b7f4e487b7100000000000000000000000000000000000000000000000000000000600052601260045260246000fd5b9081602091031261000e575161031681610253565b906110188261022c565b6040906110278251918261019e565b8381527fffffffffffffffffffffffffffffffffffffffffffffffffffffffffffffffe0611055829561022c565b019160005b8381106110675750505050565b602090825160c0810181811067ffffffffffffffff8211176110b7575b845260008152826000818301526000858301526000606083015260006080830152600060a083015282860101520161105a565b6110bf61016e565b61108456fea264697066735822122000b7ba1f939e36a8587850cbd49d9999dffaae369792ec63b7c4b68a921eb58864736f6c634300080d0033",
  "devdoc": {
    "kind": "dev",
    "methods": {
      "owner()": {
        "details": "Returns the address of the current owner."
      },
      "renounceOwnership()": {
        "details": "Leaves the contract without owner. It will not be possible to call `onlyOwner` functions anymore. Can only be called by the current owner. NOTE: Renouncing ownership will leave the contract without an owner, thereby removing any functionality that is only available to the owner."
      },
      "transferOwnership(address)": {
        "details": "Transfers ownership of the contract to a new account (`newOwner`). Can only be called by the current owner."
      }
    },
    "version": 1
  },
  "userdoc": {
    "kind": "user",
    "methods": {},
    "version": 1
  },
  "storageLayout": {
    "storage": [
      {
        "astId": 400,
        "contract": "contracts/multicall/QuickswapUserPositionsMulticall.sol:QuickswapUserPositionsMulticall",
        "label": "_owner",
        "offset": 0,
        "slot": "0",
        "type": "t_address"
      }
    ],
    "types": {
      "t_address": {
        "encoding": "inplace",
        "label": "address",
        "numberOfBytes": "20"
      }
    }
  }
}