{
  "address": "0xDDdF7fC64b1ABC55fdEC219D1b20411ce9776479",
  "abi": [
    {
      "inputs": [
        {
          "internalType": "address",
          "name": "_router",
          "type": "address"
        },
        {
          "internalType": "address",
          "name": "_factory",
          "type": "address"
        },
        {
          "internalType": "address",
          "name": "_miniChef",
          "type": "address"
        },
        {
          "internalType": "address",
          "name": "_rewarder",
          "type": "address"
        }
      ],
      "stateMutability": "nonpayable",
      "type": "constructor"
    },
    {
      "anonymous": false,
      "inputs": [
        {
          "indexed": true,
          "internalType": "address",
          "name": "previousOwner",
          "type": "address"
        },
        {
          "indexed": true,
          "internalType": "address",
          "name": "newOwner",
          "type": "address"
        }
      ],
      "name": "OwnershipTransferred",
      "type": "event"
    },
    {
      "inputs": [],
      "name": "factory",
      "outputs": [
        {
          "internalType": "address",
          "name": "",
          "type": "address"
        }
      ],
      "stateMutability": "view",
      "type": "function"
    },
    {
      "inputs": [],
      "name": "miniChef",
      "outputs": [
        {
          "internalType": "contract IMiniChefV2",
          "name": "",
          "type": "address"
        }
      ],
      "stateMutability": "view",
      "type": "function"
    },
    {
      "inputs": [],
      "name": "owner",
      "outputs": [
        {
          "internalType": "address",
          "name": "",
          "type": "address"
        }
      ],
      "stateMutability": "view",
      "type": "function"
    },
    {
      "inputs": [],
      "name": "renounceOwnership",
      "outputs": [],
      "stateMutability": "nonpayable",
      "type": "function"
    },
    {
      "inputs": [],
      "name": "router",
      "outputs": [
        {
          "internalType": "address",
          "name": "",
          "type": "address"
        }
      ],
      "stateMutability": "view",
      "type": "function"
    },
    {
      "inputs": [
        {
          "internalType": "address",
          "name": "_rewarder",
          "type": "address"
        }
      ],
      "name": "setRewarder",
      "outputs": [],
      "stateMutability": "nonpayable",
      "type": "function"
    },
    {
      "inputs": [
        {
          "internalType": "address",
          "name": "from",
          "type": "address"
        },
        {
          "internalType": "address",
          "name": "to",
          "type": "address"
        },
        {
          "internalType": "uint256",
          "name": "fromAmount",
          "type": "uint256"
        },
        {
          "internalType": "uint256",
          "name": "minAmountOut",
          "type": "uint256"
        },
        {
          "internalType": "uint256",
          "name": "percentMin",
          "type": "uint256"
        },
        {
          "internalType": "uint256",
          "name": "pid",
          "type": "uint256"
        },
        {
          "internalType": "address",
          "name": "user",
          "type": "address"
        }
      ],
      "name": "swapAndZapIn",
      "outputs": [],
      "stateMutability": "nonpayable",
      "type": "function"
    },
    {
      "inputs": [
        {
          "internalType": "address",
          "name": "newOwner",
          "type": "address"
        }
      ],
      "name": "transferOwnership",
      "outputs": [],
      "stateMutability": "nonpayable",
      "type": "function"
    },
    {
      "inputs": [
        {
          "internalType": "address",
          "name": "token0",
          "type": "address"
        },
        {
          "internalType": "address",
          "name": "token1",
          "type": "address"
        },
        {
          "internalType": "uint256",
          "name": "token0Amount",
          "type": "uint256"
        },
        {
          "internalType": "uint256",
          "name": "token1Amount",
          "type": "uint256"
        },
        {
          "internalType": "uint256",
          "name": "percentMin",
          "type": "uint256"
        },
        {
          "internalType": "uint256",
          "name": "pid",
          "type": "uint256"
        },
        {
          "internalType": "address",
          "name": "user",
          "type": "address"
        }
      ],
      "name": "zapIn",
      "outputs": [],
      "stateMutability": "nonpayable",
      "type": "function"
    },
    {
      "stateMutability": "payable",
      "type": "receive"
    }
  ],
  "transactionHash": "0x6d981dd60582db0a92f38880c4a91be6c34d61b61494dafdf3a4e071cc964429",
  "args": [
    "0x1b02dA8Cb0d097eB8D57A175b88c7D8b47997506",
    "0xc35DADB65012eC5796536bD9864eD8773aBc74C4",
    "0x0769fd68dFb93167989C6f7254cd0D766Fb2841F",
    "0xdd21a7428e6da8a10f4A23142CE81EC21aCCE449"
  ],
  "numDeployments": 1,
  "solcInputHash": "21657234f86fbee9b879a47e3da3e51c",
  "bytecode": "0x60e034620000cb57601f62001c4238819003918201601f19168301916001600160401b03831184841017620000d057808492608094604052833981010312620000cb5780620000526200008492620000e6565b906200006160208201620000e6565b6200007d60606200007560408501620000e6565b9301620000e6565b92620000fb565b604051611ade908162000164823960805181818161065901526115ec015260a05181818161034f01528181610dc901526112ae015260c0518181816101e40152610e730152f35b600080fd5b634e487b7160e01b600052604160045260246000fd5b51906001600160a01b0382168203620000cb57565b60805260a052600080546001600160a01b031980821633908117845560405191956001600160a01b0395909486949193918516917f8be0079c531659141344cd1fd0a4f28419497f9722a3daafe3b4186f6b6457e09190a31660c0521690600154161760015556fe6080604052600436101561001b575b361561001957600080fd5b005b60003560e01c80633a6462e4146100cf5780634005760a146100c6578063715018a6146100bd5780638da5cb5b146100b4578063c45a0155146100ab578063d2434d45146100a2578063f2fde38b14610099578063f887ea40146100905763fec4af600361000e5761008b61067d565b61000e565b5061008b61060d565b5061008b610519565b5061008b6103d6565b5061008b610303565b5061008b6102b0565b5061008b610208565b5061008b610198565b5061008b6100fb565b73ffffffffffffffffffffffffffffffffffffffff8116036100f657565b600080fd5b50346100f65760207ffffffffffffffffffffffffffffffffffffffffffffffffffffffffffffffffc3601126100f657600435610137816100d8565b73ffffffffffffffffffffffffffffffffffffffff9061015c826000541633146107d1565b167fffffffffffffffffffffffff000000000000000000000000000000000000000060015416176001556000604051f35b60009103126100f657565b50346100f65760007ffffffffffffffffffffffffffffffffffffffffffffffffffffffffffffffffc3601126100f657602060405173ffffffffffffffffffffffffffffffffffffffff7f0000000000000000000000000000000000000000000000000000000000000000168152f35b50346100f6576000807ffffffffffffffffffffffffffffffffffffffffffffffffffffffffffffffffc3601126102ad5780547fffffffffffffffffffffffff000000000000000000000000000000000000000073ffffffffffffffffffffffffffffffffffffffff82169161027f3384146107d1565b16825581604051917f8be0079c531659141344cd1fd0a4f28419497f9722a3daafe3b4186f6b6457e08284a3f35b80fd5b50346100f65760007ffffffffffffffffffffffffffffffffffffffffffffffffffffffffffffffffc3601126100f657602073ffffffffffffffffffffffffffffffffffffffff60005416604051908152f35b50346100f65760007ffffffffffffffffffffffffffffffffffffffffffffffffffffffffffffffffc3601126100f657602060405173ffffffffffffffffffffffffffffffffffffffff7f0000000000000000000000000000000000000000000000000000000000000000168152f35b7ffffffffffffffffffffffffffffffffffffffffffffffffffffffffffffffffc60e09101126100f6576004356103a9816100d8565b906024356103b6816100d8565b9060443590606435906084359060a4359060c4356103d3816100d8565b90565b50346100f6576100196103e836610373565b6040517f23b872dd00000000000000000000000000000000000000000000000000000000808252336004830152306024830152604482018790529197929693959392916104b09160209173ffffffffffffffffffffffffffffffffffffffff918391906104719083816064816000898d165af190811561050c575b6000916104ef575b5061098c565b6040519081523360048201523060248201526044810189905291829060649082906000908a165af19182156104e2575b6000926104b5575b5050610a17565b610ab1565b6104d49250803d106104db575b6104cc81836108f6565b810190610937565b38806104a9565b503d6104c2565b6104ea61094f565b6104a1565b6105069150843d86116104db576104cc81836108f6565b3861046b565b61051461094f565b610463565b50346100f65760207ffffffffffffffffffffffffffffffffffffffffffffffffffffffffffffffffc3601126100f657600435610555816100d8565b73ffffffffffffffffffffffffffffffffffffffff610579816000541633146107d1565b8116156105895761001990610836565b60846040517f08c379a000000000000000000000000000000000000000000000000000000000815260206004820152602660248201527f4f776e61626c653a206e6577206f776e657220697320746865207a65726f206160448201527f64647265737300000000000000000000000000000000000000000000000000006064820152fd5b50346100f65760007ffffffffffffffffffffffffffffffffffffffffffffffffffffffffffffffffc3601126100f657602060405173ffffffffffffffffffffffffffffffffffffffff7f0000000000000000000000000000000000000000000000000000000000000000168152f35b50346100f65761068c36610373565b6040517f23b872dd0000000000000000000000000000000000000000000000000000000081523360048201523060248201526044810186905294969095919492939092909190602081606481600073ffffffffffffffffffffffffffffffffffffffff89165af19081156107c4575b6000916107a6575b50156107225761071c6100199760011c928383866112a0565b92610ab1565b60846040517f08c379a000000000000000000000000000000000000000000000000000000000815260206004820152603160248201527f53757368694f70657261746f723a204661696c656420746f207472616e73666560448201527f7246726f6d2066726f6d20616d6f756e740000000000000000000000000000006064820152fd5b6107be915060203d81116104db576104cc81836108f6565b38610703565b6107cc61094f565b6106fb565b156107d857565b60646040517f08c379a000000000000000000000000000000000000000000000000000000000815260206004820152602060248201527f4f776e61626c653a2063616c6c6572206973206e6f7420746865206f776e65726044820152fd5b6000549073ffffffffffffffffffffffffffffffffffffffff80911691827fffffffffffffffffffffffff0000000000000000000000000000000000000000821617600055167f8be0079c531659141344cd1fd0a4f28419497f9722a3daafe3b4186f6b6457e06000604051a3565b507f4e487b7100000000000000000000000000000000000000000000000000000000600052604160045260246000fd5b67ffffffffffffffff81116108e957604052565b6108f16108a5565b604052565b90601f7fffffffffffffffffffffffffffffffffffffffffffffffffffffffffffffffe0910116810190811067ffffffffffffffff8211176108e957604052565b908160209103126100f6575180151581036100f65790565b506040513d6000823e3d90fd5b507f4e487b7100000000000000000000000000000000000000000000000000000000600052601160045260246000fd5b1561099357565b60846040517f08c379a000000000000000000000000000000000000000000000000000000000815260206004820152602c60248201527f53757368694f70657261746f723a204661696c656420746f207472616e73666560448201527f7246726f6d20746f6b656e3000000000000000000000000000000000000000006064820152fd5b15610a1e57565b60846040517f08c379a000000000000000000000000000000000000000000000000000000000815260206004820152602c60248201527f53757368694f70657261746f723a204661696c656420746f207472616e73666560448201527f7246726f6d20746f6b656e3100000000000000000000000000000000000000006064820152fd5b908160209103126100f6575190565b929095939484610ac5918784868b89610db1565b610b00610ae760015473ffffffffffffffffffffffffffffffffffffffff1690565b73ffffffffffffffffffffffffffffffffffffffff1690565b91823b156100f6576040517faa906c0b00000000000000000000000000000000000000000000000000000000815273ffffffffffffffffffffffffffffffffffffffff86811660048301528581166024830152881660448201526064810191909152608481019190915260a4810194909452610cc0936000918290829060c490829084905af18015610da4575b610d8b575b506040517f70a0823100000000000000000000000000000000000000000000000000000000808252306004830152602096879591949293919273ffffffffffffffffffffffffffffffffffffffff919082168786602481845afa958615610d7e575b8496610d5f575b506040517fa9059cbb0000000000000000000000000000000000000000000000000000000080825273ffffffffffffffffffffffffffffffffffffffff8716600483015260248201979097529088908290604490829088905af18015610d52575b610d35575b5060405195865230600487015216928585602481875afa948515610d28575b8295610cf9575b50604051968795869485938452600484016020909392919373ffffffffffffffffffffffffffffffffffffffff60408201951681520152565b03925af18015610cec575b610cd3575050565b81610ce992903d106104db576104cc81836108f6565b50565b610cf461094f565b610ccb565b610d1a919550863d8811610d21575b610d1281836108f6565b810190610aa2565b9338610c87565b503d610d08565b610d3061094f565b610c80565b610d4b90883d8a116104db576104cc81836108f6565b5038610c61565b610d5a61094f565b610c5c565b610d77919650883d8a11610d2157610d1281836108f6565b9438610bfb565b610d8661094f565b610bf4565b80610d98610d9e926108d5565b8061018d565b38610b92565b610dac61094f565b610b8d565b610dc7610ded95610ae795610ae79585856115de565b7f00000000000000000000000000000000000000000000000000000000000000006118e0565b6040517f70a08231000000000000000000000000000000000000000000000000000000008152306004820152929060208085602481855afa948515610f9c575b600095610f7d575b506040517f095ea7b300000000000000000000000000000000000000000000000000000000815273ffffffffffffffffffffffffffffffffffffffff7f0000000000000000000000000000000000000000000000000000000000000000166004820181905260248201879052928290829060449082906000905af18015610f70575b610f52575b5050803b156100f6576040517f8dbdbe6d0000000000000000000000000000000000000000000000000000000081526004810193909352602483019390935273ffffffffffffffffffffffffffffffffffffffff166044820152906000908290818381606481015b03925af18015610f45575b610f365750565b80610d98610f43926108d5565b565b610f4d61094f565b610f2f565b81610f6892903d106104db576104cc81836108f6565b503880610ebc565b610f7861094f565b610eb7565b81610f959296503d8711610d2157610d1281836108f6565b9338610e35565b610fa461094f565b610e2d565b604051906060820182811067ffffffffffffffff821117610fd7575b60405260028252604082602036910137565b610fdf6108a5565b610fc5565b805115610ff15760200190565b7f4e487b7100000000000000000000000000000000000000000000000000000000600052603260045260246000fd5b805160011015610ff15760400190565b1561103757565b60646040517f08c379a000000000000000000000000000000000000000000000000000000000815260206004820152602060248201527f556e69737761704f70657261746f723a205472616e73666572206661696c65646044820152fd5b51906dffffffffffffffffffffffffffff821682036100f657565b908160609103126100f6576110c481611095565b9160406110d360208401611095565b92015163ffffffff811681036100f65790565b908160209103126100f657516103d3816100d8565b1561110257565b60846040517f08c379a000000000000000000000000000000000000000000000000000000000815260206004820152602960248201527f556e69737761704f70657261746f723a204e6f7420656e6f756768206f75747060448201527f757420616d6f756e7400000000000000000000000000000000000000000000006064820152fd5b604051906000602083019280841067ffffffffffffffff8511176111b2575b8360405281815292369037565b6111ba6108a5565b6111a5565b91908251928382526000905b8482106112165750601f84602094957fffffffffffffffffffffffffffffffffffffffffffffffffffffffffffffffe09311611209575b0116010190565b6000858286010152611202565b906020908180828501015190828601015201906111cb565b73ffffffffffffffffffffffffffffffffffffffff6103d3949360809383526000602084015216604082015281606082015201906111bf565b73ffffffffffffffffffffffffffffffffffffffff6103d3949360809360008452602084015216604082015281606082015201906111bf565b9193929361130b6112d283857f00000000000000000000000000000000000000000000000000000000000000006118e0565b926112eb6112de610fa9565b611306876112eb83610fe4565b9073ffffffffffffffffffffffffffffffffffffffff169052565b611020565b6040517fa9059cbb00000000000000000000000000000000000000000000000000000000815273ffffffffffffffffffffffffffffffffffffffff8381166004830152602482018390526000948116936020928291906113839085816044818c8c5af1908115611579575b899161155c575b50611030565b1693604051917f0902f1ac000000000000000000000000000000000000000000000000000000008352606083600481895afa92831561154f575b8790889461151b575b506dffffffffffffffffffffffffffff8091169316936040517f0dfe168100000000000000000000000000000000000000000000000000000000815281816004818b5afa91821561150e575b89926114e1575b50501603611488579061142f9161143893611820565b948510156110fb565b611440611186565b813b15611484578291610f24916040519485809481937f022c0d9f000000000000000000000000000000000000000000000000000000008352308b60048501611267565b8280fd5b61142f9161149593611820565b61149d611186565b813b15611484578291610f24916040519485809481937f022c0d9f000000000000000000000000000000000000000000000000000000008352308b6004850161122e565b6115009250803d10611507575b6114f881836108f6565b8101906110e6565b3880611419565b503d6114ee565b61151661094f565b611412565b905061153f91935060603d8111611548575b61153781836108f6565b8101906110b0565b509290386113c6565b503d61152d565b61155761094f565b6113bd565b6115739150863d88116104db576104cc81836108f6565b3861137d565b61158161094f565b611376565b807fffffffffffffffffffffffffffffffffffffffffffffffffffffffffffffffff048211811515166115b7570290565b6115bf61095c565b0290565b908160609103126100f6578051916040602083015192015190565b93919260008560609561177f7f000000000000000000000000000000000000000000000000000000000000000095826040517f095ea7b3000000000000000000000000000000000000000000000000000000009081815289818061166c6020968794600484016020909392919373ffffffffffffffffffffffffffffffffffffffff60408201951681520152565b03818b73ffffffffffffffffffffffffffffffffffffffff809c165af18015611813575b6117f6575b5060405190815273ffffffffffffffffffffffffffffffffffffffff891660048201526024810188905281816044818a878b165af180156117e9575b6117cb575b50506116f96116eb6116f26116eb8b87611586565b6064900490565b9988611586565b6040517fe8e3370000000000000000000000000000000000000000000000000000000000815273ffffffffffffffffffffffffffffffffffffffff9b8c1660048201529a90911660248b015260448a01929092526064890194909452608488019590955260a48701949094523060c48701524260e4870152859384928390610104820190565b0393165af180156117be575b6117925750565b6117b29060603d81116117b7575b6117aa81836108f6565b8101906115c3565b505050565b503d6117a0565b6117c661094f565b61178b565b816117e192903d106104db576104cc81836108f6565b5038806116d6565b6117f161094f565b6116d1565b61180c90833d85116104db576104cc81836108f6565b5038611695565b61181b61094f565b611690565b9190916118627fffffffffffffffffffffffffffffffffffffffffffffffffffffffffffffffff916103e5908084048211811515166118d3575b029283611586565b92806103e892048211811515166118c6575b02811981116118b9575b0190811561188a570490565b7f4e487b7100000000000000000000000000000000000000000000000000000000600052601260045260246000fd5b6118c161095c565b61187e565b6118ce61095c565b611874565b6118db61095c565b61185a565b73ffffffffffffffffffffffffffffffffffffffff9081841693828416938585146119bf5761197c9560209510156119b95790925b6119228183161515611a43565b6040517fe6a4390500000000000000000000000000000000000000000000000000000000815273ffffffffffffffffffffffffffffffffffffffff9283166004820152919093166024820152938492839182906044820190565b0392165afa9081156119ac575b600091611994575090565b6103d3915060203d8111611507576114f881836108f6565b6119b461094f565b611989565b92611915565b60846040517f08c379a000000000000000000000000000000000000000000000000000000000815260206004820152602560248201527f556e697377617056324c6962726172793a204944454e544943414c5f4144445260448201527f45535345530000000000000000000000000000000000000000000000000000006064820152fd5b15611a4a57565b60646040517f08c379a000000000000000000000000000000000000000000000000000000000815260206004820152601e60248201527f556e697377617056324c6962726172793a205a45524f5f4144445245535300006044820152fdfea264697066735822122023c66a57f4898c701ebb0e16f23508b3a5451408a2cf5633c2e71e90a653a05564736f6c634300080d0033",
  "devdoc": {
    "kind": "dev",
    "methods": {
      "owner()": {
        "details": "Returns the address of the current owner."
      },
      "renounceOwnership()": {
        "details": "Leaves the contract without owner. It will not be possible to call `onlyOwner` functions anymore. Can only be called by the current owner. NOTE: Renouncing ownership will leave the contract without an owner, thereby removing any functionality that is only available to the owner."
      },
      "transferOwnership(address)": {
        "details": "Transfers ownership of the contract to a new account (`newOwner`). Can only be called by the current owner."
      }
    },
    "version": 1
  },
  "userdoc": {
    "kind": "user",
    "methods": {},
    "version": 1
  },
  "storageLayout": {
    "storage": [
      {
        "astId": 389,
        "contract": "contracts/defi/SushiOperator.sol:SushiOperator",
        "label": "_owner",
        "offset": 0,
        "slot": "0",
        "type": "t_address"
      },
      {
        "astId": 4268,
        "contract": "contracts/defi/SushiOperator.sol:SushiOperator",
        "label": "rewarder",
        "offset": 0,
        "slot": "1",
        "type": "t_contract(IRewarder)5162"
      }
    ],
    "types": {
      "t_address": {
        "encoding": "inplace",
        "label": "address",
        "numberOfBytes": "20"
      },
      "t_contract(IRewarder)5162": {
        "encoding": "inplace",
        "label": "contract IRewarder",
        "numberOfBytes": "20"
      }
    }
  }
}