{
  "address": "0xD52796DAFE825EdD4389E3D86E5984C5667508Ed",
  "abi": [
    {
      "inputs": [
        {
          "internalType": "contract IMiniChefV2",
          "name": "miniChef",
          "type": "address"
        },
        {
          "internalType": "contract IRewarder",
          "name": "rewarder",
          "type": "address"
        },
        {
          "internalType": "address",
          "name": "owner",
          "type": "address"
        }
      ],
      "name": "getPositions",
      "outputs": [
        {
          "components": [
            {
              "internalType": "address",
              "name": "poolAddress",
              "type": "address"
            },
            {
              "internalType": "uint256",
              "name": "share",
              "type": "uint256"
            },
            {
              "internalType": "contract IERC20[]",
              "name": "rewardTokens",
              "type": "address[]"
            },
            {
              "internalType": "uint256[]",
              "name": "rewardAmounts",
              "type": "uint256[]"
            },
            {
              "internalType": "uint256",
              "name": "pendingSushi",
              "type": "uint256"
            }
          ],
          "internalType": "struct SushiUserPositionsMulticall.SushiPosition[]",
          "name": "",
          "type": "tuple[]"
        }
      ],
      "stateMutability": "view",
      "type": "function"
    }
  ],
  "transactionHash": "0x6f9d764240ccc9be0dfa3d5f1d0188bdb4ab6b4bf570605e020048884065ffe5",
  "args": [],
  "numDeployments": 1,
  "solcInputHash": "21657234f86fbee9b879a47e3da3e51c",
  "bytecode": "0x6080806040523461001657610a38908161001c8239f35b600080fdfe60806040818152600436101561001457600080fd5b600090813560e01c632090f4671461002c5750600080fd5b346104b55760607ffffffffffffffffffffffffffffffffffffffffffffffffffffffffffffffffc3601126104b55760043592610068846104b9565b602435610074816104b9565b604435610080816104b9565b73ffffffffffffffffffffffffffffffffffffffff809616957f081e3eda00000000000000000000000000000000000000000000000000000000845260209182856004818b5afa9485156104a8575b8795610489575b506100e0856106fc565b96805b8681106100fb578751806100f78b82610510565b0390f35b87517f93f1a40b0000000000000000000000000000000000000000000000000000000081526004810182905273ffffffffffffffffffffffffffffffffffffffff8416602482015261033f9190868c858a888a8f8088604481895afa97881561047c575b859861044c575b50871561043f5780517f78ed5d1f000000000000000000000000000000000000000000000000000000008152600481018a90529787896024818a5afa988915610432575b86996103f3575b50878461020a8561026394848e60048951809581937f18160ddd000000000000000000000000000000000000000000000000000000008352165afa9182156103e6575b8b926103c3575b5061020590610841565b610888565b988c85518095819482937f195426ec0000000000000000000000000000000000000000000000000000000084526004840190929173ffffffffffffffffffffffffffffffffffffffff6020916040840195845216910152565b03915afa9788156103b6575b8698610377575b5050517fd63b3c490000000000000000000000000000000000000000000000000000000081526004810189905273ffffffffffffffffffffffffffffffffffffffff9092166024830152604482018690529092918391829081606481015b0392165afa91821561036a575b87918893610344575b506103126102f66106b5565b73ffffffffffffffffffffffffffffffffffffffff9096168652565b8a8501528c8401526060830152608082015261032e828c6109bf565b52610339818b6109bf565b506107d9565b6100e3565b90925061036391503d8089833e61035b818361064b565b81019061091f565b91386102ea565b6103726106a8565b6102e1565b6102d4969593985090816103a292959395903d106103af575b61039a818361064b565b810190610699565b969193948e939193610276565b503d610390565b6103be6106a8565b61026f565b6102059192506103df90863d88116103af5761039a818361064b565b91906101fb565b6103ee6106a8565b6101f4565b8899508461020a856102639461041f8d95863d881161042b575b610417818361064b565b810190610829565b9d5094505050506101b1565b503d61040d565b61043a6106a8565b6101aa565b50505050505050506107d9565b8161046d9299503d8a11610475575b610465818361064b565b810190610813565b509638610166565b503d61045b565b6104846106a8565b61015f565b6104a1919550833d85116103af5761039a818361064b565b93386100d6565b6104b06106a8565b6100cf565b5080fd5b73ffffffffffffffffffffffffffffffffffffffff8116036104d757565b600080fd5b90815180825260208080930193019160005b8281106104fc575050505090565b8351855293810193928101926001016104ee565b602080820190808352835180925260409283810182858560051b84010196019460009081935b86851061054857505050505050505090565b90919293949596977fffffffffffffffffffffffffffffffffffffffffffffffffffffffffffffffc08282030185528689519160a080820173ffffffffffffffffffffffffffffffffffffffff808651168452848601518585015287860151928885015282518092528460c0850193019189915b8183106105ff57505050509282916105e360019560608085015190848303908501526104dc565b916080809101519101529a019501950193969594929190610536565b8351811685528d969485019493909301926001909201916105bc565b507f4e487b7100000000000000000000000000000000000000000000000000000000600052604160045260246000fd5b90601f7fffffffffffffffffffffffffffffffffffffffffffffffffffffffffffffffe0910116810190811067ffffffffffffffff82111761068c57604052565b61069461061b565b604052565b908160209103126104d7575190565b506040513d6000823e3d90fd5b6040519060a0820182811067ffffffffffffffff82111761068c57604052565b60209067ffffffffffffffff81116106ef575b60051b0190565b6106f761061b565b6106e8565b90610706826106d5565b6040906107158251918261064b565b8381527fffffffffffffffffffffffffffffffffffffffffffffffffffffffffffffffe061074382956106d5565b0191600091825b848110610758575050505050565b602090835160a0810181811067ffffffffffffffff82111761079c575b8552858152828681830152606080878401528083015286608083015282850101520161074a565b6107a461061b565b610775565b507f4e487b7100000000000000000000000000000000000000000000000000000000600052601160045260246000fd5b6001907fffffffffffffffffffffffffffffffffffffffffffffffffffffffffffffffff8114610807570190565b61080f6107a9565b0190565b91908260409103126104d7576020825192015190565b908160209103126104d7575161083e816104b9565b90565b670de0b6b3a764000090807fffffffffffffffffffffffffffffffffffffffffffffffffffffffffffffffff0482118115151661087c570290565b6108846107a9565b0290565b8115610892570490565b7f4e487b7100000000000000000000000000000000000000000000000000000000600052601260045260246000fd5b81601f820112156104d7578051916108d8836106d5565b926108e6604051948561064b565b808452602092838086019260051b8201019283116104d7578301905b828210610910575050505090565b81518152908301908301610902565b9190916040818403126104d75780519267ffffffffffffffff938481116104d75782019381601f860112156104d7578451610959816106d5565b90610967604051928361064b565b808252602096878084019260051b820101918583116104d75788809201905b8382106109a65750505050948301519081116104d75761083e92016108c1565b82809183516109b4816104b9565b815201910190610986565b80518210156109d35760209160051b010190565b7f4e487b7100000000000000000000000000000000000000000000000000000000600052603260045260246000fdfea2646970667358221220f247c4a0c0e7c85f36fc9f433f532c8f0f6a103fa536a6ea31da33bd0689b26264736f6c634300080d0033",
  "devdoc": {
    "kind": "dev",
    "methods": {},
    "version": 1
  },
  "userdoc": {
    "kind": "user",
    "methods": {},
    "version": 1
  },
  "storageLayout": {
    "storage": [],
    "types": null
  }
}