{
  "address": "0xAFcBd7DA3Ce49c19254A0b54AA3a3b72A2baA496",
  "abi": [
    {
      "inputs": [
        {
          "components": [
            {
              "internalType": "address",
              "name": "from",
              "type": "address"
            },
            {
              "internalType": "address",
              "name": "to",
              "type": "address"
            },
            {
              "internalType": "uint256",
              "name": "amountIn",
              "type": "uint256"
            },
            {
              "internalType": "address",
              "name": "quoter",
              "type": "address"
            },
            {
              "internalType": "bytes",
              "name": "data",
              "type": "bytes"
            }
          ],
          "internalType": "struct TokenPrices.TokenQuery[]",
          "name": "queries",
          "type": "tuple[]"
        }
      ],
      "name": "getQuotes",
      "outputs": [
        {
          "internalType": "uint256[]",
          "name": "",
          "type": "uint256[]"
        }
      ],
      "stateMutability": "view",
      "type": "function"
    }
  ],
  "transactionHash": "0x73fd21de054ed8284d6712c54e3e8e21efea21a6891f6250b0db3b8403f6f3bf",
  "args": [],
  "numDeployments": 2,
  "solcInputHash": "bd6ea3f01740805d75fbf298ab4b2866",
  "bytecode": "0x608080604052346100165761065c908161001c8239f35b600080fdfe604060808152600436101561001357600080fd5b600090813560e01c6320f0d2491461002b5750600080fd5b346101fe576020807ffffffffffffffffffffffffffffffffffffffffffffffffffffffffffffffffc3601126102065767ffffffffffffffff90600435828111610202573660238201121561020257806004013594610089866102a4565b9561009686519788610263565b808752838701916024809260051b850101933685116101fe57828101935b8585106100d7576100d3896100c88c6104cb565b9051918291826102f1565b0390f35b84358881116101fa57820160a07fffffffffffffffffffffffffffffffffffffffffffffffffffffffffffffffdc82360301126101fa5789519061011a8261023a565b6101258682016102cb565b82526044906101358282016102cb565b8a84015260648101358c84015261014e608482016102cb565b606084015260a4810135908b82116101f6570190366043830112156101f25786820135908b82116101e5575b8c51926101ae8c7fffffffffffffffffffffffffffffffffffffffffffffffffffffffffffffffe0601f8601160185610263565b828452368284830101116101e1578b8381979593948297958b9401838601378301015260808201528152019401936100b4565b8780fd5b6101ed61020a565b61017a565b8580fd5b8680fd5b8380fd5b5080fd5b8480fd5b8280fd5b507f4e487b7100000000000000000000000000000000000000000000000000000000600052604160045260246000fd5b60a0810190811067ffffffffffffffff82111761025657604052565b61025e61020a565b604052565b90601f7fffffffffffffffffffffffffffffffffffffffffffffffffffffffffffffffe0910116810190811067ffffffffffffffff82111761025657604052565b60209067ffffffffffffffff81116102be575b60051b0190565b6102c661020a565b6102b7565b359073ffffffffffffffffffffffffffffffffffffffff821682036102ec57565b600080fd5b6020908160408183019282815285518094520193019160005b828110610318575050505090565b83518552938101939281019260010161030a565b90610336826102a4565b6103436040519182610263565b8281527fffffffffffffffffffffffffffffffffffffffffffffffffffffffffffffffe061037182946102a4565b0190602036910137565b7fffffffffffffffffffffffffffffffffffffffffffffffffffffffffffffffff81146103a85760010190565b7f4e487b7100000000000000000000000000000000000000000000000000000000600052601160045260246000fd5b80518210156103eb5760209160051b010190565b7f4e487b7100000000000000000000000000000000000000000000000000000000600052603260045260246000fd5b908160209103126102ec575190565b929094939473ffffffffffffffffffffffffffffffffffffffff809116845260209216828401526040830152608060608301528351908160808401526000945b8286106104b5575050601f817fffffffffffffffffffffffffffffffffffffffffffffffffffffffffffffffe09260a09596116104a8575b0116010190565b60008582860101526104a1565b85810182015184870160a0015294810194610469565b906104d6825161032c565b6000805b845181101561061f57806104f16105e192876103d7565b51610532610519610519606084015173ffffffffffffffffffffffffffffffffffffffff1690565b73ffffffffffffffffffffffffffffffffffffffff1690565b90610551815173ffffffffffffffffffffffffffffffffffffffff1690565b9160209182916105778383015173ffffffffffffffffffffffffffffffffffffffff1690565b6040956105bb6080888601519501519751978895869485947f1cc47f0e00000000000000000000000000000000000000000000000000000000865260048601610429565b03915afa91829186936105f0575b50506105e65750826105db82866103d7565b5261037b565b6104da565b6105db82866103d7565b610610929350803d10610618575b6106088183610263565b81019061041a565b9038806105c9565b503d6105fe565b509092505056fea2646970667358221220736dbfb012dea1cb59ae508672de6c2cb906c17102660e3933f4d7b84860b9b064736f6c634300080d0033",
  "devdoc": {
    "kind": "dev",
    "methods": {},
    "version": 1
  },
  "userdoc": {
    "kind": "user",
    "methods": {},
    "version": 1
  },
  "storageLayout": {
    "storage": [],
    "types": null
  }
}