{
  "address": "0x0D57f319f4539D51e2cE792D99f565828C2AD043",
  "abi": [
    {
      "inputs": [
        {
          "internalType": "address",
          "name": "_router",
          "type": "address"
        },
        {
          "internalType": "address",
          "name": "_factory",
          "type": "address"
        },
        {
          "internalType": "address",
          "name": "_rewarder",
          "type": "address"
        }
      ],
      "stateMutability": "nonpayable",
      "type": "constructor"
    },
    {
      "anonymous": false,
      "inputs": [
        {
          "indexed": true,
          "internalType": "address",
          "name": "previousOwner",
          "type": "address"
        },
        {
          "indexed": true,
          "internalType": "address",
          "name": "newOwner",
          "type": "address"
        }
      ],
      "name": "OwnershipTransferred",
      "type": "event"
    },
    {
      "inputs": [],
      "name": "factory",
      "outputs": [
        {
          "internalType": "address",
          "name": "",
          "type": "address"
        }
      ],
      "stateMutability": "view",
      "type": "function"
    },
    {
      "inputs": [],
      "name": "owner",
      "outputs": [
        {
          "internalType": "address",
          "name": "",
          "type": "address"
        }
      ],
      "stateMutability": "view",
      "type": "function"
    },
    {
      "inputs": [],
      "name": "renounceOwnership",
      "outputs": [],
      "stateMutability": "nonpayable",
      "type": "function"
    },
    {
      "inputs": [],
      "name": "router",
      "outputs": [
        {
          "internalType": "address",
          "name": "",
          "type": "address"
        }
      ],
      "stateMutability": "view",
      "type": "function"
    },
    {
      "inputs": [
        {
          "internalType": "address",
          "name": "_rewarder",
          "type": "address"
        }
      ],
      "name": "setRewarder",
      "outputs": [],
      "stateMutability": "nonpayable",
      "type": "function"
    },
    {
      "inputs": [
        {
          "internalType": "address",
          "name": "from",
          "type": "address"
        },
        {
          "internalType": "address",
          "name": "to",
          "type": "address"
        },
        {
          "internalType": "uint256",
          "name": "fromAmount",
          "type": "uint256"
        },
        {
          "internalType": "uint256",
          "name": "minAmountOut",
          "type": "uint256"
        },
        {
          "internalType": "uint256",
          "name": "percentMin",
          "type": "uint256"
        },
        {
          "internalType": "address",
          "name": "user",
          "type": "address"
        }
      ],
      "name": "swapAndZapIn",
      "outputs": [],
      "stateMutability": "nonpayable",
      "type": "function"
    },
    {
      "inputs": [
        {
          "internalType": "address",
          "name": "newOwner",
          "type": "address"
        }
      ],
      "name": "transferOwnership",
      "outputs": [],
      "stateMutability": "nonpayable",
      "type": "function"
    },
    {
      "inputs": [
        {
          "internalType": "address",
          "name": "token0",
          "type": "address"
        },
        {
          "internalType": "address",
          "name": "token1",
          "type": "address"
        },
        {
          "internalType": "uint256",
          "name": "token0Amount",
          "type": "uint256"
        },
        {
          "internalType": "uint256",
          "name": "token1Amount",
          "type": "uint256"
        },
        {
          "internalType": "uint256",
          "name": "percentMin",
          "type": "uint256"
        },
        {
          "internalType": "address",
          "name": "user",
          "type": "address"
        }
      ],
      "name": "zapIn",
      "outputs": [],
      "stateMutability": "nonpayable",
      "type": "function"
    },
    {
      "stateMutability": "payable",
      "type": "receive"
    }
  ],
  "transactionHash": "0x0f80e69d612dd894ee59a8f01f98a8fbc41402598e483ad6b4b3fa3dcb821ad7",
  "args": [
    "0xa5E0829CaCEd8fFDD4De3c43696c57F7D7A678ff",
    "0x5757371414417b8c6caad45baef941abc7d3ab32",
    "0xDbb5fE606db4240ce75D280c18d74536369543DB"
  ],
  "numDeployments": 1,
  "solcInputHash": "48b735005414ad105911279df2f3e452",
  "bytecode": "0x60c034620000ad57601f62001abb38819003918201601f19168301916001600160401b03831184841017620000b257808492606094604052833981010312620000ad5780620000526200007692620000c8565b906200006f60406200006760208401620000c8565b9201620000c8565b91620000dd565b604051611984908162000137823960805181818161085f0152611492015260a051818181610218015281816106fb01526110af0152f35b600080fd5b634e487b7160e01b600052604160045260246000fd5b51906001600160a01b0382168203620000ad57565b60805260a05260005460018060a01b031991338383161760005560018060a01b0391823391167f8be0079c531659141344cd1fd0a4f28419497f9722a3daafe3b4186f6b6457e06000604051a31690600154161760015556fe6080604052600436101561001b575b361561001957600080fd5b005b6000803560e01c9081633a6462e4146100be5750806358042a03146100b5578063715018a6146100ac5780638da5cb5b146100a35780639c697d941461009a578063c45a015514610091578063f2fde38b146100885763f887ea400361000e57610083610813565b61000e565b5061008361071f565b506100836106af565b5061008361065f565b5061008361060c565b50610083610567565b506100836101d1565b3461014c5760207ffffffffffffffffffffffffffffffffffffffffffffffffffffffffffffffffc36011261014c576004356100f98161014f565b73ffffffffffffffffffffffffffffffffffffffff9061011d828454163314610883565b167fffffffffffffffffffffffff00000000000000000000000000000000000000006001541617600155604051f35b80fd5b73ffffffffffffffffffffffffffffffffffffffff81160361016d57565b600080fd5b7ffffffffffffffffffffffffffffffffffffffffffffffffffffffffffffffffc60c091011261016d576004356101a88161014f565b906024356101b58161014f565b9060443590606435906084359060a4356101ce8161014f565b90565b503461016d576101e036610172565b9173ffffffffffffffffffffffffffffffffffffffff948587169461020781303389610a51565b60011c906000956102de61023c838b7f0000000000000000000000000000000000000000000000000000000000000000611786565b9161027a8461025a8d6102756102506111a4565b9161025a836111df565b9073ffffffffffffffffffffffffffffffffffffffff169052565b61121b565b8960409a8b946102f88c87517fa9059cbb0000000000000000000000000000000000000000000000000000000081528a818060209a8b9388600484016020909392919373ffffffffffffffffffffffffffffffffffffffff60408201951681520152565b0381858b5af191821561054f575b91610522575b5061122b565b16998451937f0902f1ac0000000000000000000000000000000000000000000000000000000085528b606086600481845afa958615610515575b839084976104d9575b509180916004936dffffffffffffffffffffffffffff80911698169851938480927f0dfe16810000000000000000000000000000000000000000000000000000000082525afa9283156104cc575b9261049f575b5050160361043f576103ae916103a591856116c6565b938410156112f6565b6103b6611381565b97863b1561016d5760008061040061041699829c8c519485809481937f022c0d9f000000000000000000000000000000000000000000000000000000008352308d600485016113f3565b03925af18015610432575b610419575b50610d9a565b51f35b8061042661042c926109b7565b8061055c565b38610410565b61043a610d7e565b61040b565b6103a59061044d92856116c6565b610455611381565b97863b1561016d5760008061040061041699829c8c519485809481937f022c0d9f000000000000000000000000000000000000000000000000000000008352308d600485016113ba565b6104be9250803d106104c5575b6104b68183610a10565b8101906112e1565b388061038f565b503d6104ac565b6104d4610d7e565b610389565b8392975060049391506105029060603d811161050e575b6104fa8183610a10565b8101906112ab565b5097909150919261033b565b503d6104f0565b61051d610d7e565b610332565b6105429150873d8911610548575b61053a8183610a10565b810190610b3d565b386102f2565b503d610530565b610557610d7e565b6102ec565b600091031261016d57565b503461016d576000807ffffffffffffffffffffffffffffffffffffffffffffffffffffffffffffffffc36011261014c5780547fffffffffffffffffffffffff000000000000000000000000000000000000000073ffffffffffffffffffffffffffffffffffffffff8216916105de338414610883565b16825581604051917f8be0079c531659141344cd1fd0a4f28419497f9722a3daafe3b4186f6b6457e08284a3f35b503461016d5760007ffffffffffffffffffffffffffffffffffffffffffffffffffffffffffffffffc36011261016d57602073ffffffffffffffffffffffffffffffffffffffff60005416604051908152f35b503461016d5761001961067136610172565b946106aa8373ffffffffffffffffffffffffffffffffffffffff96939695949561069f863033848816610a51565b309033908616610a51565b610d9a565b503461016d5760007ffffffffffffffffffffffffffffffffffffffffffffffffffffffffffffffffc36011261016d57602060405173ffffffffffffffffffffffffffffffffffffffff7f0000000000000000000000000000000000000000000000000000000000000000168152f35b503461016d5760207ffffffffffffffffffffffffffffffffffffffffffffffffffffffffffffffffc36011261016d5760043561075b8161014f565b73ffffffffffffffffffffffffffffffffffffffff61077f81600054163314610883565b81161561078f57610019906108e8565b60846040517f08c379a000000000000000000000000000000000000000000000000000000000815260206004820152602660248201527f4f776e61626c653a206e6577206f776e657220697320746865207a65726f206160448201527f64647265737300000000000000000000000000000000000000000000000000006064820152fd5b503461016d5760007ffffffffffffffffffffffffffffffffffffffffffffffffffffffffffffffffc36011261016d57602060405173ffffffffffffffffffffffffffffffffffffffff7f0000000000000000000000000000000000000000000000000000000000000000168152f35b1561088a57565b60646040517f08c379a000000000000000000000000000000000000000000000000000000000815260206004820152602060248201527f4f776e61626c653a2063616c6c6572206973206e6f7420746865206f776e65726044820152fd5b6000549073ffffffffffffffffffffffffffffffffffffffff80911691827fffffffffffffffffffffffff0000000000000000000000000000000000000000821617600055167f8be0079c531659141344cd1fd0a4f28419497f9722a3daafe3b4186f6b6457e06000604051a3565b507f4e487b7100000000000000000000000000000000000000000000000000000000600052601160045260246000fd5b507f4e487b7100000000000000000000000000000000000000000000000000000000600052604160045260246000fd5b67ffffffffffffffff81116109cb57604052565b6109d3610987565b604052565b60a0810190811067ffffffffffffffff8211176109cb57604052565b6040810190811067ffffffffffffffff8211176109cb57604052565b90601f7fffffffffffffffffffffffffffffffffffffffffffffffffffffffffffffffe0910116810190811067ffffffffffffffff8211176109cb57604052565b600091610b16949383926040519560208701937f23b872dd00000000000000000000000000000000000000000000000000000000855273ffffffffffffffffffffffffffffffffffffffff938480921660248a0152166044880152606487015260648652610abe866109d8565b16908260405195610ace876109f4565b602087527f5361666545524332303a206c6f772d6c6576656c2063616c6c206661696c65646020880152610b04843b1515610be0565b51925af1610b10610c45565b90610d20565b805180610b21575050565b81602080610b3693610b3b9501019101610b3d565b610b55565b565b9081602091031261016d5751801515810361016d5790565b15610b5c57565b60846040517f08c379a000000000000000000000000000000000000000000000000000000000815260206004820152602a60248201527f5361666545524332303a204552433230206f7065726174696f6e20646964206e60448201527f6f742073756363656564000000000000000000000000000000000000000000006064820152fd5b15610be757565b60646040517f08c379a000000000000000000000000000000000000000000000000000000000815260206004820152601d60248201527f416464726573733a2063616c6c20746f206e6f6e2d636f6e74726163740000006044820152fd5b3d15610cac573d9067ffffffffffffffff8211610c9f575b60405191610c9360207fffffffffffffffffffffffffffffffffffffffffffffffffffffffffffffffe0601f8401160184610a10565b82523d6000602084013e565b610ca7610987565b610c5d565b606090565b91908251928382526000905b848210610d085750601f84602094957fffffffffffffffffffffffffffffffffffffffffffffffffffffffffffffffe09311610cfb575b0116010190565b6000858286010152610cf4565b90602090818082850101519082860101520190610cbd565b90919015610d2c575090565b815115610d3c5750805190602001fd5b610d7a906040519182917f08c379a0000000000000000000000000000000000000000000000000000000008352602060048401526024830190610cb1565b0390fd5b506040513d6000823e3d90fd5b9081602091031261016d575190565b91909492610dac848683858a88611092565b610de7610dce60015473ffffffffffffffffffffffffffffffffffffffff1690565b73ffffffffffffffffffffffffffffffffffffffff1690565b91823b1561016d576040517faa906c0b00000000000000000000000000000000000000000000000000000000815273ffffffffffffffffffffffffffffffffffffffff86811660048301528581166024830152881660448201526064810191909152608481019190915260a4810194909452610fa7936000918290829060c490829084905af18015611085575b611072575b506040517f70a0823100000000000000000000000000000000000000000000000000000000808252306004830152602096879591949293919273ffffffffffffffffffffffffffffffffffffffff919082168786602481845afa958615611065575b8496611046575b506040517fa9059cbb0000000000000000000000000000000000000000000000000000000080825273ffffffffffffffffffffffffffffffffffffffff8716600483015260248201979097529088908290604490829088905af18015611039575b61101c575b5060405195865230600487015216928585602481875afa94851561100f575b8295610fe0575b50604051968795869485938452600484016020909392919373ffffffffffffffffffffffffffffffffffffffff60408201951681520152565b03925af18015610fd3575b610fba575050565b81610fd092903d106105485761053a8183610a10565b50565b610fdb610d7e565b610fb2565b611001919550863d8811611008575b610ff98183610a10565b810190610d8b565b9338610f6e565b503d610fef565b611017610d7e565b610f67565b61103290883d8a116105485761053a8183610a10565b5038610f48565b611041610d7e565b610f43565b61105e919650883d8a1161100857610ff98183610a10565b9438610ee2565b61106d610d7e565b610edb565b8061042661107f926109b7565b38610e79565b61108d610d7e565b610e74565b90610dce916110ad610fa7966110d396610dce968585611484565b7f0000000000000000000000000000000000000000000000000000000000000000611786565b6040517f70a082310000000000000000000000000000000000000000000000000000000081523060048201526020938492908383602481855afa928315611197575b600093611178575b5060006040518096819582947fa9059cbb000000000000000000000000000000000000000000000000000000008452600484016020909392919373ffffffffffffffffffffffffffffffffffffffff60408201951681520152565b611190919350843d861161100857610ff98183610a10565b913861111d565b61119f610d7e565b611115565b604051906060820182811067ffffffffffffffff8211176111d2575b60405260028252604082602036910137565b6111da610987565b6111c0565b8051156111ec5760200190565b7f4e487b7100000000000000000000000000000000000000000000000000000000600052603260045260246000fd5b8051600110156111ec5760400190565b1561123257565b60646040517f08c379a000000000000000000000000000000000000000000000000000000000815260206004820152602060248201527f556e69737761704f70657261746f723a205472616e73666572206661696c65646044820152fd5b51906dffffffffffffffffffffffffffff8216820361016d57565b9081606091031261016d576112bf81611290565b9160406112ce60208401611290565b92015163ffffffff8116810361016d5790565b9081602091031261016d57516101ce8161014f565b156112fd57565b60846040517f08c379a000000000000000000000000000000000000000000000000000000000815260206004820152602960248201527f556e69737761704f70657261746f723a204e6f7420656e6f756768206f75747060448201527f757420616d6f756e7400000000000000000000000000000000000000000000006064820152fd5b604051906000602083019280841067ffffffffffffffff8511176113ad575b8360405281815292369037565b6113b5610987565b6113a0565b73ffffffffffffffffffffffffffffffffffffffff6101ce94936080938352600060208401521660408201528160608201520190610cb1565b73ffffffffffffffffffffffffffffffffffffffff6101ce94936080936000845260208401521660408201528160608201520190610cb1565b807fffffffffffffffffffffffffffffffffffffffffffffffffffffffffffffffff0482118115151661145d570290565b611465610957565b0290565b9081606091031261016d578051916040602083015192015190565b9391926000856060956116257f000000000000000000000000000000000000000000000000000000000000000095826040517f095ea7b300000000000000000000000000000000000000000000000000000000908181528981806115126020968794600484016020909392919373ffffffffffffffffffffffffffffffffffffffff60408201951681520152565b03818b73ffffffffffffffffffffffffffffffffffffffff809c165af180156116b9575b61169c575b5060405190815273ffffffffffffffffffffffffffffffffffffffff891660048201526024810188905281816044818a878b165af1801561168f575b611671575b505061159f6115916115986115918b8761142c565b6064900490565b998861142c565b6040517fe8e3370000000000000000000000000000000000000000000000000000000000815273ffffffffffffffffffffffffffffffffffffffff9b8c1660048201529a90911660248b015260448a01929092526064890194909452608488019590955260a48701949094523060c48701524260e4870152859384928390610104820190565b0393165af18015611664575b6116385750565b6116589060603d811161165d575b6116508183610a10565b810190611469565b505050565b503d611646565b61166c610d7e565b611631565b8161168792903d106105485761053a8183610a10565b50388061157c565b611697610d7e565b611577565b6116b290833d85116105485761053a8183610a10565b503861153b565b6116c1610d7e565b611536565b9190916117087fffffffffffffffffffffffffffffffffffffffffffffffffffffffffffffffff916103e590808404821181151516611779575b02928361142c565b92806103e8920482118115151661176c575b028119811161175f575b01908115611730570490565b7f4e487b7100000000000000000000000000000000000000000000000000000000600052601260045260246000fd5b611767610957565b611724565b611774610957565b61171a565b611781610957565b611700565b73ffffffffffffffffffffffffffffffffffffffff9081841693828416938585146118655761182295602095101561185f5790925b6117c881831615156118e9565b6040517fe6a4390500000000000000000000000000000000000000000000000000000000815273ffffffffffffffffffffffffffffffffffffffff9283166004820152919093166024820152938492839182906044820190565b0392165afa908115611852575b60009161183a575090565b6101ce915060203d81116104c5576104b68183610a10565b61185a610d7e565b61182f565b926117bb565b60846040517f08c379a000000000000000000000000000000000000000000000000000000000815260206004820152602560248201527f556e697377617056324c6962726172793a204944454e544943414c5f4144445260448201527f45535345530000000000000000000000000000000000000000000000000000006064820152fd5b156118f057565b60646040517f08c379a000000000000000000000000000000000000000000000000000000000815260206004820152601e60248201527f556e697377617056324c6962726172793a205a45524f5f4144445245535300006044820152fdfea26469706673582212208b8dd0d55b24c5ecda15866ba52032eedb550db19b011173aefd0f2ebd620bd364736f6c634300080d0033",
  "devdoc": {
    "kind": "dev",
    "methods": {
      "owner()": {
        "details": "Returns the address of the current owner."
      },
      "renounceOwnership()": {
        "details": "Leaves the contract without owner. It will not be possible to call `onlyOwner` functions anymore. Can only be called by the current owner. NOTE: Renouncing ownership will leave the contract without an owner, thereby removing any functionality that is only available to the owner."
      },
      "transferOwnership(address)": {
        "details": "Transfers ownership of the contract to a new account (`newOwner`). Can only be called by the current owner."
      }
    },
    "version": 1
  },
  "userdoc": {
    "kind": "user",
    "methods": {},
    "version": 1
  },
  "storageLayout": {
    "storage": [
      {
        "astId": 400,
        "contract": "contracts/defi/UbeswapOperator.sol:UbeswapOperator",
        "label": "_owner",
        "offset": 0,
        "slot": "0",
        "type": "t_address"
      },
      {
        "astId": 4627,
        "contract": "contracts/defi/UbeswapOperator.sol:UbeswapOperator",
        "label": "rewarder",
        "offset": 0,
        "slot": "1",
        "type": "t_contract(IRewarder)5193"
      }
    ],
    "types": {
      "t_address": {
        "encoding": "inplace",
        "label": "address",
        "numberOfBytes": "20"
      },
      "t_contract(IRewarder)5193": {
        "encoding": "inplace",
        "label": "contract IRewarder",
        "numberOfBytes": "20"
      }
    }
  }
}