{
  "address": "0xC38e0298c9E6E1090E02e7C86F9ea9D298208B45",
  "abi": [
    {
      "inputs": [
        {
          "internalType": "contract IPairFactory",
          "name": "factory",
          "type": "address"
        },
        {
          "internalType": "contract IVoter",
          "name": "voter",
          "type": "address"
        },
        {
          "internalType": "uint256",
          "name": "start",
          "type": "uint256"
        },
        {
          "internalType": "uint256",
          "name": "end",
          "type": "uint256"
        }
      ],
      "name": "getAllPools",
      "outputs": [
        {
          "components": [
            {
              "internalType": "address",
              "name": "poolAddress",
              "type": "address"
            },
            {
              "internalType": "address",
              "name": "token0",
              "type": "address"
            },
            {
              "internalType": "address",
              "name": "token1",
              "type": "address"
            },
            {
              "internalType": "uint256",
              "name": "token0Balance",
              "type": "uint256"
            },
            {
              "internalType": "uint256",
              "name": "token1Balance",
              "type": "uint256"
            },
            {
              "internalType": "address",
              "name": "gauge",
              "type": "address"
            },
            {
              "internalType": "bool",
              "name": "isStable",
              "type": "bool"
            }
          ],
          "internalType": "struct VeloPoolsMulticall.VeloPool[]",
          "name": "pools",
          "type": "tuple[]"
        }
      ],
      "stateMutability": "view",
      "type": "function"
    },
    {
      "inputs": [
        {
          "internalType": "contract IPairFactory",
          "name": "factory",
          "type": "address"
        },
        {
          "components": [
            {
              "internalType": "address",
              "name": "token0",
              "type": "address"
            },
            {
              "internalType": "address",
              "name": "token1",
              "type": "address"
            },
            {
              "internalType": "bool",
              "name": "isStable",
              "type": "bool"
            }
          ],
          "internalType": "struct VeloPoolsMulticall.PoolAddresses[]",
          "name": "pools",
          "type": "tuple[]"
        }
      ],
      "name": "getPoolAddresses",
      "outputs": [
        {
          "internalType": "address[]",
          "name": "poolAddresses",
          "type": "address[]"
        }
      ],
      "stateMutability": "view",
      "type": "function"
    },
    {
      "inputs": [
        {
          "internalType": "contract IVoter",
          "name": "voter",
          "type": "address"
        },
        {
          "internalType": "address[]",
          "name": "poolAddresses",
          "type": "address[]"
        }
      ],
      "name": "getPools",
      "outputs": [
        {
          "components": [
            {
              "internalType": "address",
              "name": "poolAddress",
              "type": "address"
            },
            {
              "internalType": "address",
              "name": "token0",
              "type": "address"
            },
            {
              "internalType": "address",
              "name": "token1",
              "type": "address"
            },
            {
              "internalType": "uint256",
              "name": "token0Balance",
              "type": "uint256"
            },
            {
              "internalType": "uint256",
              "name": "token1Balance",
              "type": "uint256"
            },
            {
              "internalType": "address",
              "name": "gauge",
              "type": "address"
            },
            {
              "internalType": "bool",
              "name": "isStable",
              "type": "bool"
            }
          ],
          "internalType": "struct VeloPoolsMulticall.VeloPool[]",
          "name": "pools",
          "type": "tuple[]"
        }
      ],
      "stateMutability": "view",
      "type": "function"
    }
  ],
  "transactionHash": "0xb25d88dddf7fc4f066db2c486654f9df80e44e5f77221eef92d7d633928d8c86",
  "args": [],
  "numDeployments": 1,
  "solcInputHash": "58f73148a7dd5dedf2f6c9116d7c6598",
  "bytecode": "0x60808060405234610016576110b0908161001c8239f35b600080fdfe60806040526004361015610013575b600080fd5b6000803560e01c90816317709c431461005257508063e2be3ce7146100495763eb21c6701461004157600080fd5b61000e6107bd565b5061000e6102c8565b346101245760407ffffffffffffffffffffffffffffffffffffffffffffffffffffffffffffffffc3601126101245760043561008d8161012b565b60243567ffffffffffffffff81116101275736602382011215610127578060040135926100b984610203565b936100c760405195866101a2565b80855260209260248487019260051b820101923684116101245750602401905b82821061010b576101076100fb8787610ac1565b6040519182918261022a565b0390f35b83809183356101198161012b565b8152019101906100e7565b80fd5b8280fd5b73ffffffffffffffffffffffffffffffffffffffff81160361000e57565b507f4e487b7100000000000000000000000000000000000000000000000000000000600052604160045260246000fd5b6060810190811067ffffffffffffffff82111761019557604052565b61019d610149565b604052565b90601f7fffffffffffffffffffffffffffffffffffffffffffffffffffffffffffffffe0910116810190811067ffffffffffffffff82111761019557604052565b6040519060e0820182811067ffffffffffffffff82111761019557604052565b60209067ffffffffffffffff811161021d575b60051b0190565b610225610149565b610216565b60208082019080835283518092528060408094019401926000905b83821061025457505050505090565b8451805173ffffffffffffffffffffffffffffffffffffffff90811688528185015181168886015281830151811688840152606080830151908901526080808301519089015260a0808301519091169088015260c09081015115159087015260e09095019493820193600190910190610245565b503461000e576080807ffffffffffffffffffffffffffffffffffffffffffffffffffffffffffffffffc36011261000e576004908135916103088361012b565b602435906103158261012b565b604435906064359461033761033261032d85896108f4565b61090b565b610945565b9473ffffffffffffffffffffffffffffffffffffffff91821694821691845b8881111561036c57604051806101078a8261022a565b610605906105ff886105e36103bf896104f38a8960409689885180927f1e3dd18b000000000000000000000000000000000000000000000000000000008252818060209a8b958b83019190602083019252565b03915afa908115610755575b600091610738575b501695805161041e887f0dfe1681000000000000000000000000000000000000000000000000000000009283815288818981855afa90811561072b575b600091610714575b50610de2565b91805191878a610469817fd21220a7000000000000000000000000000000000000000000000000000000009687815284818d81855afa908115610707575b6000916106ea5750610de2565b96845193845282848b81855afa9384156106dd575b6000946106be575b50845195865282868b81855afa9586156106b1575b600096610692575b50845180809a81947fb9a09fd50000000000000000000000000000000000000000000000000000000083528d830191909173ffffffffffffffffffffffffffffffffffffffff6020820193169052565b03915afa958615610685575b600096610656575b5087825180987f22be3de1000000000000000000000000000000000000000000000000000000008252818d5afa968715610649575b60009761060a575b50906105976105b493926105da989961057a61055e6101e3565b73ffffffffffffffffffffffffffffffffffffffff909e168e52565b8c019073ffffffffffffffffffffffffffffffffffffffff169052565b89019073ffffffffffffffffffffffffffffffffffffffff169052565b60608701528a86015273ffffffffffffffffffffffffffffffffffffffff1660a0850152565b151560c0830152565b6105ed89846108f4565b906105f8828d610a6a565b528a610a6a565b50610a02565b610356565b6105da97506105b4939291610637610597928b3d8d11610642575b61062f81836101a2565b810190610a55565b985091929350610544565b503d610625565b610651610a48565b61053c565b610677919650883d8a1161067e575b61066f81836101a2565b810190610a30565b9438610507565b503d610665565b61068d610a48565b6104ff565b6106aa919650833d851161067e5761066f81836101a2565b94386104a3565b6106b9610a48565b61049b565b6106d6919450833d851161067e5761066f81836101a2565b9238610486565b6106e5610a48565b61047e565b6107019150853d871161067e5761066f81836101a2565b38610418565b61070f610a48565b61045c565b6107019150893d8b1161067e5761066f81836101a2565b610733610a48565b610410565b61074f9150863d881161067e5761066f81836101a2565b386103d3565b61075d610a48565b6103cb565b8015150361000e57565b6020908160408183019282815285518094520193019160005b828110610793575050505090565b835173ffffffffffffffffffffffffffffffffffffffff1685529381019392810192600101610785565b503461000e576040807ffffffffffffffffffffffffffffffffffffffffffffffffffffffffffffffffc36011261000e57600435906107fb8261012b565b6024359167ffffffffffffffff831161000e573660238401121561000e57826004013561082781610203565b93610834845195866101a2565b8185526020808601602460608095028401019236841161000e57602401905b83821061087357610107876108688a89610ed5565b90519182918261076c565b848236031261000e57828591885161088a81610179565b84356108958161012b565b8152828501356108a48161012b565b83820152898501356108b581610762565b8a820152815201910190610853565b507f4e487b7100000000000000000000000000000000000000000000000000000000600052601160045260246000fd5b8181106108ff570390565b6109076108c4565b0390565b6001907ffffffffffffffffffffffffffffffffffffffffffffffffffffffffffffffffe8111610939570190565b6109416108c4565b0190565b9061094f82610203565b60409061095e825191826101a2565b8381527fffffffffffffffffffffffffffffffffffffffffffffffffffffffffffffffe061098c8295610203565b019160005b83811061099e5750505050565b602090825160e0810181811067ffffffffffffffff8211176109f5575b845260008152826000818301526000858301526000606083015260006080830152600060a0830152600060c0830152828601015201610991565b6109fd610149565b6109bb565b6001907fffffffffffffffffffffffffffffffffffffffffffffffffffffffffffffffff8114610939570190565b9081602091031261000e5751610a458161012b565b90565b506040513d6000823e3d90fd5b9081602091031261000e5751610a4581610762565b8051821015610a7e5760209160051b010190565b7f4e487b7100000000000000000000000000000000000000000000000000000000600052603260045260246000fd5b60019061ffff809116908114610939570190565b91610acc8251610945565b9260005b835161ffff821690811015610ddb5790610d1082610b2d610b14610b14610afa610d16978b610a6a565b5173ffffffffffffffffffffffffffffffffffffffff1690565b73ffffffffffffffffffffffffffffffffffffffff1690565b610cff60408051610c6c897f0dfe16810000000000000000000000000000000000000000000000000000000093848452602094610b828860049688818981855afa90811561072b576000916107145750610de2565b91805191878a610bcc817fd21220a7000000000000000000000000000000000000000000000000000000009687815284818d81855afa908115610707576000916106ea5750610de2565b96845193845282848b81855afa938415610dce575b600094610daf575b50845195865282868b81855afa958615610da2575b600096610d83575b508973ffffffffffffffffffffffffffffffffffffffff8651809b819582947fb9a09fd5000000000000000000000000000000000000000000000000000000008452830191909173ffffffffffffffffffffffffffffffffffffffff6020820193169052565b0392165afa958615610d76575b600096610d57575b5087825180987f22be3de1000000000000000000000000000000000000000000000000000000008252818d5afa968715610d4a575b600097610d1b575b5090610597610cd893926105da989961057a61055e6101e3565b6060870152608086015273ffffffffffffffffffffffffffffffffffffffff1660a0850152565b610d09828a610a6a565b5287610a6a565b50610aad565b610ad0565b6105da9750610cd8939291610d3f610597928b3d8d116106425761062f81836101a2565b985091929350610cbe565b610d52610a48565b610cb6565b610d6f919650883d8a1161067e5761066f81836101a2565b9438610c81565b610d7e610a48565b610c79565b610d9b919650833d851161067e5761066f81836101a2565b9438610c06565b610daa610a48565b610bfe565b610dc7919450833d851161067e5761066f81836101a2565b9238610be9565b610dd6610a48565b610be1565b5050509050565b803b15610e7f576020906024604051809481937f70a0823100000000000000000000000000000000000000000000000000000000835273ffffffffffffffffffffffffffffffffffffffff8092166004840152165afa60009181610e4c575b50610a455750600090565b90916020823d8211610e77575b81610e66602093836101a2565b810103126101245750519038610e41565b3d9150610e59565b5050600090565b90610e9082610203565b610e9d60405191826101a2565b8281527fffffffffffffffffffffffffffffffffffffffffffffffffffffffffffffffe0610ecb8294610203565b0190602036910137565b90610ee08151610e86565b9260005b825161ffff8216908110156110735790611031610f3b83610ff48180610f2b610f10611036998c610a6a565b515173ffffffffffffffffffffffffffffffffffffffff1690565b610f578b60209788958692610a6a565b51015173ffffffffffffffffffffffffffffffffffffffff1690565b73ffffffffffffffffffffffffffffffffffffffff91818316818416101561106d575b610f938d610f8b6040968792610a6a565b510151151590565b93517f6801cc3000000000000000000000000000000000000000000000000000000000815273ffffffffffffffffffffffffffffffffffffffff91821660048201529116602482015291151560448301529092839190829081906064820190565b03918d165afa928315611060575b60009361103b575b50506110169089610a6a565b9073ffffffffffffffffffffffffffffffffffffffff169052565b610aad565b610ee4565b611016929350908161105892903d1061067e5761066f81836101a2565b91903861100a565b611068610a48565b611002565b90610f7a565b505091505056fea2646970667358221220a621ab457fd0536e117550b142c6276d865400ac0fcc33b97370ad7193a4427464736f6c634300080d0033",
  "devdoc": {
    "kind": "dev",
    "methods": {},
    "version": 1
  },
  "userdoc": {
    "kind": "user",
    "methods": {},
    "version": 1
  },
  "storageLayout": {
    "storage": [],
    "types": null
  }
}