{
  "address": "0x1E61F5e50092a39B996488F302cCa1F40820aeB6",
  "abi": [
    {
      "inputs": [
        {
          "internalType": "contract IVoter",
          "name": "voter",
          "type": "address"
        },
        {
          "internalType": "address[]",
          "name": "pools",
          "type": "address[]"
        },
        {
          "internalType": "address",
          "name": "owner",
          "type": "address"
        }
      ],
      "name": "getPositions",
      "outputs": [
        {
          "components": [
            {
              "internalType": "address",
              "name": "pool",
              "type": "address"
            },
            {
              "internalType": "address",
              "name": "gauge",
              "type": "address"
            },
            {
              "components": [
                {
                  "internalType": "address",
                  "name": "token",
                  "type": "address"
                },
                {
                  "internalType": "uint256",
                  "name": "amount",
                  "type": "uint256"
                }
              ],
              "internalType": "struct VeloUserPositions.Reward[]",
              "name": "rewards",
              "type": "tuple[]"
            },
            {
              "internalType": "uint256",
              "name": "userShare",
              "type": "uint256"
            }
          ],
          "internalType": "struct VeloUserPositions.VeloPosition[]",
          "name": "positions",
          "type": "tuple[]"
        }
      ],
      "stateMutability": "view",
      "type": "function"
    }
  ],
  "transactionHash": "0xb2f8ae0e13cedf61e63a8916cf25bf7b41514ce4c51bb8d39ae2e817703bc22c",
  "args": [],
  "numDeployments": 1,
  "solcInputHash": "ab602f11e89606b473cf684180302b0e",
  "bytecode": "0x6080806040523461001657610bad908161001c8239f35b600080fdfe6080604052600436101561001257600080fd5b6000803560e01c634fb3907a146100295750600080fd5b346101055760607ffffffffffffffffffffffffffffffffffffffffffffffffffffffffffffffffc36011261010557600435906100658261010c565b60243567ffffffffffffffff8111610108573660238201121561010857806004013591610091836101ed565b9261009f604051948561015f565b80845260209260248486019260051b820101923684116101055750602401905b8282106100ec576100e86100dc87876100d6610214565b916105f6565b60405191829182610223565b0390f35b83809183356100fa8161010c565b8152019101906100bf565b80fd5b5080fd5b73ffffffffffffffffffffffffffffffffffffffff81160361012a57565b600080fd5b507f4e487b7100000000000000000000000000000000000000000000000000000000600052604160045260246000fd5b90601f7fffffffffffffffffffffffffffffffffffffffffffffffffffffffffffffffe0910116810190811067ffffffffffffffff8211176101a057604052565b6101a861012f565b604052565b604051906040820182811067ffffffffffffffff8211176101a057604052565b604051906080820182811067ffffffffffffffff8211176101a057604052565b60209067ffffffffffffffff8111610207575b60051b0190565b61020f61012f565b610200565b604435906102218261010c565b565b602080820190808352835180925260409283810182858560051b84010196019460009081935b86851061025b57505050505050505090565b90919293949596977fffffffffffffffffffffffffffffffffffffffffffffffffffffffffffffffc082820301855286895160809081840173ffffffffffffffffffffffffffffffffffffffff8083511686528085840151168587015287830151938887015283518092528460a0870194019189915b898284106102ff5750505050509060019383926060809101519101529a019501950193969594929190610249565b8451805183168852880151878901528e9796019593909301926001909201916102d1565b9061032d826101ed565b60409061033c8251918261015f565b8381527fffffffffffffffffffffffffffffffffffffffffffffffffffffffffffffffe061036a82956101ed565b0191600091825b84811061037f575050505050565b60209083516080810181811067ffffffffffffffff8211176103bd575b85528581528286818301528660608088850152830152828501015201610371565b6103c561012f565b61039c565b507f4e487b7100000000000000000000000000000000000000000000000000000000600052601160045260246000fd5b6001907fffffffffffffffffffffffffffffffffffffffffffffffffffffffffffffffff8114610428570190565b6104306103ca565b0190565b80518210156104485760209160051b010190565b7f4e487b7100000000000000000000000000000000000000000000000000000000600052603260045260246000fd5b9081602091031261012a575161048c8161010c565b90565b506040513d6000823e3d90fd5b9081602091031261012a575190565b906104b5826101ed565b60406104c38151928361015f565b8382527fffffffffffffffffffffffffffffffffffffffffffffffffffffffffffffffe06104f183956101ed565b0191600090815b848110610506575050505050565b602090845185810181811067ffffffffffffffff821117610538575b86528481528285818301528285010152016104f8565b61054061012f565b610522565b670de0b6b3a764000090807fffffffffffffffffffffffffffffffffffffffffffffffffffffffffffffffff04821181151516610580570290565b6105886103ca565b0290565b807fffffffffffffffffffffffffffffffffffffffffffffffffffffffffffffffff04821181151516610580570290565b81156105c7570490565b7f4e487b7100000000000000000000000000000000000000000000000000000000600052601260045260246000fd5b9290916106038351610323565b936000935b8051851015610b705761063861061e8683610434565b5173ffffffffffffffffffffffffffffffffffffffff1690565b604080517fb9a09fd500000000000000000000000000000000000000000000000000000000815273ffffffffffffffffffffffffffffffffffffffff838116600480840191909152602099949391929091908a816024818b88165afa908115610b63575b600091610b46575b508381169a8b15610b325783818d8551968780927fe68863960000000000000000000000000000000000000000000000000000000082525afa948515610b25575b600095610b06575b506106f7856104ab565b9460005b8181106109975750506107f298999a9b9c8451908d8483806107607f70a08231000000000000000000000000000000000000000000000000000000009485835288830191909173ffffffffffffffffffffffffffffffffffffffff6020820193169052565b0381855afa92831561098a575b60009361096b575b506000988a846107fb575b505050505050906107cf916107b26107966101cd565b73ffffffffffffffffffffffffffffffffffffffff9098168852565b86019073ffffffffffffffffffffffffffffffffffffffff169052565b83015260608201526107e18289610434565b526107ec8188610434565b506103fa565b93929190610608565b956108c69594926108a2829c95936107cf9a9916918b519081528381806108418d8c830191909173ffffffffffffffffffffffffffffffffffffffff6020820193169052565b0381865afa90811561095e575b8791610941575b508b519084828a817f18160ddd00000000000000000000000000000000000000000000000000000000978882525afa918215610934575b8892610911575b5061089d90610545565b6105bd565b958a518094819382525afa928315610904575b926108d3575b5061089d919261058c565b949091388080808a610780565b61089d92506108f7908a3d8c116108fd575b6108ef818361015f565b81019061049c565b916108bb565b503d6108e5565b61090c61048f565b6108b5565b61089d91925061092d90863d88116108fd576108ef818361015f565b9190610893565b61093c61048f565b61088c565b6109589150843d86116108fd576108ef818361015f565b38610855565b61096661048f565b61084e565b610983919350853d87116108fd576108ef818361015f565b9138610775565b61099261048f565b61076d565b610a99908f8e868951917ff301af420000000000000000000000000000000000000000000000000000000083528183806109d8888c83019190602083019252565b0381875afa928315610af9575b600093610ac8575b508a517f211dc32d00000000000000000000000000000000000000000000000000000000815273ffffffffffffffffffffffffffffffffffffffff8085168a83019081529216602083015292938391829081906040015b03915afa908115610abb575b600091610a9e575b50610a80610a646101ad565b73ffffffffffffffffffffffffffffffffffffffff9093168352565b86820152610a8e828a610434565b526107ec8189610434565b6106fb565b610ab59150873d89116108fd576108ef818361015f565b38610a58565b610ac361048f565b610a50565b610a449350610aec90833d8511610af2575b610ae4818361015f565b810190610477565b926109ed565b503d610ada565b610b0161048f565b6109e5565b610b1e919550823d84116108fd576108ef818361015f565b93386106ed565b610b2d61048f565b6106e5565b5050505050506107f29192939495506103fa565b610b5d91508b3d8d11610af257610ae4818361015f565b386106a4565b610b6b61048f565b61069c565b505050905056fea2646970667358221220f30cec66f3aa263ff6ea482bd760b6700e95d5ced9debf5362d9ee20a9e7cc4664736f6c634300080d0033",
  "devdoc": {
    "kind": "dev",
    "methods": {},
    "version": 1
  },
  "userdoc": {
    "kind": "user",
    "methods": {},
    "version": 1
  },
  "storageLayout": {
    "storage": [],
    "types": null
  }
}