{
  "address": "0xD983FE1235A4C9006Ef65eCeED7c33069aD35Ad0",
  "abi": [
    {
      "anonymous": false,
      "inputs": [
        {
          "indexed": true,
          "internalType": "address",
          "name": "previousOwner",
          "type": "address"
        },
        {
          "indexed": true,
          "internalType": "address",
          "name": "newOwner",
          "type": "address"
        }
      ],
      "name": "OwnershipTransferred",
      "type": "event"
    },
    {
      "inputs": [
        {
          "internalType": "contract IUniswapV2Factory",
          "name": "factory",
          "type": "address"
        },
        {
          "internalType": "uint256",
          "name": "start",
          "type": "uint256"
        },
        {
          "internalType": "uint256",
          "name": "end",
          "type": "uint256"
        }
      ],
      "name": "getAllPools",
      "outputs": [
        {
          "components": [
            {
              "internalType": "address",
              "name": "poolAddress",
              "type": "address"
            },
            {
              "internalType": "address",
              "name": "token0",
              "type": "address"
            },
            {
              "internalType": "address",
              "name": "token1",
              "type": "address"
            },
            {
              "internalType": "uint256",
              "name": "token0Balance",
              "type": "uint256"
            },
            {
              "internalType": "uint256",
              "name": "token1Balance",
              "type": "uint256"
            }
          ],
          "internalType": "struct UniV2Multicall.UniV2Pool[]",
          "name": "pools",
          "type": "tuple[]"
        }
      ],
      "stateMutability": "view",
      "type": "function"
    },
    {
      "inputs": [
        {
          "internalType": "address[]",
          "name": "poolAddresses",
          "type": "address[]"
        }
      ],
      "name": "getPools",
      "outputs": [
        {
          "components": [
            {
              "internalType": "address",
              "name": "poolAddress",
              "type": "address"
            },
            {
              "internalType": "address",
              "name": "token0",
              "type": "address"
            },
            {
              "internalType": "address",
              "name": "token1",
              "type": "address"
            },
            {
              "internalType": "uint256",
              "name": "token0Balance",
              "type": "uint256"
            },
            {
              "internalType": "uint256",
              "name": "token1Balance",
              "type": "uint256"
            }
          ],
          "internalType": "struct UniV2Multicall.UniV2Pool[]",
          "name": "pools",
          "type": "tuple[]"
        }
      ],
      "stateMutability": "view",
      "type": "function"
    },
    {
      "inputs": [],
      "name": "owner",
      "outputs": [
        {
          "internalType": "address",
          "name": "",
          "type": "address"
        }
      ],
      "stateMutability": "view",
      "type": "function"
    },
    {
      "inputs": [],
      "name": "renounceOwnership",
      "outputs": [],
      "stateMutability": "nonpayable",
      "type": "function"
    },
    {
      "inputs": [
        {
          "internalType": "address",
          "name": "newOwner",
          "type": "address"
        }
      ],
      "name": "transferOwnership",
      "outputs": [],
      "stateMutability": "nonpayable",
      "type": "function"
    }
  ],
  "transactionHash": "0x1b58c84557cf0719c6e890705a9b4401c67078b2e04d072816bea9dc2d39461b",
  "args": [],
  "numDeployments": 5,
  "solcInputHash": "e9b4f70ba3908db128d6fddc60506b9e",
  "bytecode": "0x6080806040523461005b5760008054336001600160a01b0319821681178355916001600160a01b03909116907f8be0079c531659141344cd1fd0a4f28419497f9722a3daafe3b4186f6b6457e09084a3610d5390816100618239f35b600080fdfe6040608081526004908136101561001557600080fd5b600091823560e01c92836318416001146100875750505080635e63547a1461007e578063715018a6146100755780638da5cb5b1461006c5763f2fde38b1461005f575b3880600080fd5b6100676106ec565b610058565b50610067610699565b506100676105f4565b50610067610535565b346103c6576060807ffffffffffffffffffffffffffffffffffffffffffffffffffffffffffffffffc3601126103c2578235926100c3846103c9565b60243591604435936100e56100e06100db86886108e6565b6108fd565b610937565b9573ffffffffffffffffffffffffffffffffffffffff908116855b87811115610119578951806101158b826103ec565b0390f35b6102d5906102cf8a8c896101676102ab8a8a85517f1e3dd18b00000000000000000000000000000000000000000000000000000000815289818d81806020998a958c83019190602083019252565b03915afa9081156103b5575b8391610398575b50169480516101c4877f0dfe1681000000000000000000000000000000000000000000000000000000009283815287818a81855afa90811561038b575b8691610374575b50610c79565b9482519661020c897fd21220a700000000000000000000000000000000000000000000000000000000998a815284818581855afa908115610367575b889161034a5750610c79565b978451938452828483818d5afa93841561033d575b869461031c575b50829085519283918252818c5afa94851561030f575b946102da575b509061028e916102716102556104ee565b73ffffffffffffffffffffffffffffffffffffffff909a168a52565b88019073ffffffffffffffffffffffffffffffffffffffff169052565b85019073ffffffffffffffffffffffffffffffffffffffff169052565b8a83015260808201526102c86102c18c866108e6565b8093610a39565b528b610a39565b506109e6565b610100565b8194506103009061028e93923d8711610308575b6102f881836104a0565b810190610a14565b939091610244565b503d6102ee565b610317610a2c565b61023e565b8391945061033690823d8411610308576102f881836104a0565b9390610228565b610345610a2c565b610221565b6103619150853d8711610308576102f881836104a0565b386101be565b61036f610a2c565b610200565b6103619150883d8a11610308576102f881836104a0565b610393610a2c565b6101b7565b6103af9150853d8711610308576102f881836104a0565b3861017a565b6103bd610a2c565b610173565b5080fd5b80fd5b73ffffffffffffffffffffffffffffffffffffffff8116036103e757565b600080fd5b60208082019080835283518092528060408094019401926000905b83821061041657505050505090565b8451805173ffffffffffffffffffffffffffffffffffffffff908116885281850151811688860152818301511687830152606080820151908801526080908101519087015260a09095019493820193600190910190610407565b507f4e487b7100000000000000000000000000000000000000000000000000000000600052604160045260246000fd5b90601f7fffffffffffffffffffffffffffffffffffffffffffffffffffffffffffffffe0910116810190811067ffffffffffffffff8211176104e157604052565b6104e9610470565b604052565b6040519060a0820182811067ffffffffffffffff8211176104e157604052565b60209067ffffffffffffffff8111610528575b60051b0190565b610530610470565b610521565b50346103e7576020807ffffffffffffffffffffffffffffffffffffffffffffffffffffffffffffffffc3601126103e75760043567ffffffffffffffff81116103e757366023820112156103e7578060040135906105928261050e565b916105a060405193846104a0565b80835260248484019160051b830101913683116103e757602401905b8282106105db576101156105cf85610a90565b604051918291826103ec565b84809183356105e9816103c9565b8152019101906105bc565b50346103e7576000807ffffffffffffffffffffffffffffffffffffffffffffffffffffffffffffffffc3601126103c65780547fffffffffffffffffffffffff000000000000000000000000000000000000000073ffffffffffffffffffffffffffffffffffffffff82169161066b3384146107e2565b16825581604051917f8be0079c531659141344cd1fd0a4f28419497f9722a3daafe3b4186f6b6457e08284a3f35b50346103e75760007ffffffffffffffffffffffffffffffffffffffffffffffffffffffffffffffffc3601126103e757602073ffffffffffffffffffffffffffffffffffffffff60005416604051908152f35b50346103e75760207ffffffffffffffffffffffffffffffffffffffffffffffffffffffffffffffffc3601126103e757600435610728816103c9565b73ffffffffffffffffffffffffffffffffffffffff61074c816000541633146107e2565b81161561075e5761075c90610847565b005b60846040517f08c379a000000000000000000000000000000000000000000000000000000000815260206004820152602660248201527f4f776e61626c653a206e6577206f776e657220697320746865207a65726f206160448201527f64647265737300000000000000000000000000000000000000000000000000006064820152fd5b156107e957565b60646040517f08c379a000000000000000000000000000000000000000000000000000000000815260206004820152602060248201527f4f776e61626c653a2063616c6c6572206973206e6f7420746865206f776e65726044820152fd5b6000549073ffffffffffffffffffffffffffffffffffffffff80911691827fffffffffffffffffffffffff0000000000000000000000000000000000000000821617600055167f8be0079c531659141344cd1fd0a4f28419497f9722a3daafe3b4186f6b6457e06000604051a3565b507f4e487b7100000000000000000000000000000000000000000000000000000000600052601160045260246000fd5b8181106108f1570390565b6108f96108b6565b0390565b6001907ffffffffffffffffffffffffffffffffffffffffffffffffffffffffffffffffe811161092b570190565b6109336108b6565b0190565b906109418261050e565b604090610950825191826104a0565b8381527fffffffffffffffffffffffffffffffffffffffffffffffffffffffffffffffe061097e829561050e565b019160005b8381106109905750505050565b602090825160a0810181811067ffffffffffffffff8211176109d9575b845260008152826000818301526000858301526000606083015260006080830152828601015201610983565b6109e1610470565b6109ad565b6001907fffffffffffffffffffffffffffffffffffffffffffffffffffffffffffffffff811461092b570190565b908160209103126103e75751610a29816103c9565b90565b506040513d6000823e3d90fd5b8051821015610a4d5760209160051b010190565b7f4e487b7100000000000000000000000000000000000000000000000000000000600052603260045260246000fd5b60019061ffff80911690811461092b570190565b610a9a8151610937565b9160005b825161ffff821690811015610c735790610bfc82610afb610ae2610ae2610ac8610c02978a610a39565b5173ffffffffffffffffffffffffffffffffffffffff1690565b73ffffffffffffffffffffffffffffffffffffffff1690565b60408051610be17f0dfe16810000000000000000000000000000000000000000000000000000000091828152602093610b4d8660049387818681855afa908115610c66575b6000916103745750610c79565b93815195610b96887fd21220a7000000000000000000000000000000000000000000000000000000009889815283818881855afa908115610c59575b600091610c425750610c79565b968351928352818386818c5afa928315610c35575b600093610c14575b50819084519586918252818b5afa938415610c07575b6000946102da57509061028e916102716102556104ee565b60608301526080820152610bf58289610a39565b5286610a39565b50610a7c565b610a9e565b610c0f610a2c565b610bc9565b82919350610c2e90823d8411610308576102f881836104a0565b9290610bb3565b610c3d610a2c565b610bab565b6103619150843d8611610308576102f881836104a0565b610c61610a2c565b610b89565b610c6e610a2c565b610b40565b50509050565b803b15610d16576020906024604051809481937f70a0823100000000000000000000000000000000000000000000000000000000835273ffffffffffffffffffffffffffffffffffffffff8092166004840152165afa60009181610ce3575b50610a295750600090565b90916020823d8211610d0e575b81610cfd602093836104a0565b810103126103c65750519038610cd8565b3d9150610cf0565b505060009056fea26469706673582212206ceca290351cfae88a462cdf8128ed41511b325b22dd3b61092e74da00ed4da864736f6c634300080d0033",
  "devdoc": {
    "kind": "dev",
    "methods": {
      "owner()": {
        "details": "Returns the address of the current owner."
      },
      "renounceOwnership()": {
        "details": "Leaves the contract without owner. It will not be possible to call `onlyOwner` functions anymore. Can only be called by the current owner. NOTE: Renouncing ownership will leave the contract without an owner, thereby removing any functionality that is only available to the owner."
      },
      "transferOwnership(address)": {
        "details": "Transfers ownership of the contract to a new account (`newOwner`). Can only be called by the current owner."
      }
    },
    "version": 1
  },
  "userdoc": {
    "kind": "user",
    "methods": {},
    "version": 1
  },
  "storageLayout": {
    "storage": [
      {
        "astId": 400,
        "contract": "contracts/multicall/UniV2Multicall.sol:UniV2Multicall",
        "label": "_owner",
        "offset": 0,
        "slot": "0",
        "type": "t_address"
      }
    ],
    "types": {
      "t_address": {
        "encoding": "inplace",
        "label": "address",
        "numberOfBytes": "20"
      }
    }
  }
}