{
  "address": "0xb61c501fE89C49c069cc285db493e8f4dF5796cA",
  "abi": [
    {
      "anonymous": false,
      "inputs": [
        {
          "indexed": true,
          "internalType": "address",
          "name": "previousOwner",
          "type": "address"
        },
        {
          "indexed": true,
          "internalType": "address",
          "name": "newOwner",
          "type": "address"
        }
      ],
      "name": "OwnershipTransferred",
      "type": "event"
    },
    {
      "inputs": [
        {
          "internalType": "contract IUniswapV2Factory",
          "name": "factory",
          "type": "address"
        },
        {
          "internalType": "uint256",
          "name": "start",
          "type": "uint256"
        },
        {
          "internalType": "uint256",
          "name": "end",
          "type": "uint256"
        }
      ],
      "name": "getAllPools",
      "outputs": [
        {
          "components": [
            {
              "internalType": "address",
              "name": "poolAddress",
              "type": "address"
            },
            {
              "internalType": "address",
              "name": "token0",
              "type": "address"
            },
            {
              "internalType": "address",
              "name": "token1",
              "type": "address"
            },
            {
              "internalType": "uint256",
              "name": "token0Balance",
              "type": "uint256"
            },
            {
              "internalType": "uint256",
              "name": "token1Balance",
              "type": "uint256"
            }
          ],
          "internalType": "struct UniV2Multicall.UniV2Pool[]",
          "name": "pools",
          "type": "tuple[]"
        }
      ],
      "stateMutability": "view",
      "type": "function"
    },
    {
      "inputs": [
        {
          "internalType": "contract IUniswapV2Factory",
          "name": "factory",
          "type": "address"
        },
        {
          "components": [
            {
              "internalType": "address",
              "name": "token0",
              "type": "address"
            },
            {
              "internalType": "address",
              "name": "token1",
              "type": "address"
            }
          ],
          "internalType": "struct UniV2Multicall.PoolAddresses[]",
          "name": "pools",
          "type": "tuple[]"
        }
      ],
      "name": "getPoolAddresses",
      "outputs": [
        {
          "internalType": "address[]",
          "name": "poolAddresses",
          "type": "address[]"
        }
      ],
      "stateMutability": "view",
      "type": "function"
    },
    {
      "inputs": [
        {
          "internalType": "address[]",
          "name": "poolAddresses",
          "type": "address[]"
        }
      ],
      "name": "getPools",
      "outputs": [
        {
          "components": [
            {
              "internalType": "address",
              "name": "poolAddress",
              "type": "address"
            },
            {
              "internalType": "address",
              "name": "token0",
              "type": "address"
            },
            {
              "internalType": "address",
              "name": "token1",
              "type": "address"
            },
            {
              "internalType": "uint256",
              "name": "token0Balance",
              "type": "uint256"
            },
            {
              "internalType": "uint256",
              "name": "token1Balance",
              "type": "uint256"
            }
          ],
          "internalType": "struct UniV2Multicall.UniV2Pool[]",
          "name": "pools",
          "type": "tuple[]"
        }
      ],
      "stateMutability": "view",
      "type": "function"
    },
    {
      "inputs": [],
      "name": "owner",
      "outputs": [
        {
          "internalType": "address",
          "name": "",
          "type": "address"
        }
      ],
      "stateMutability": "view",
      "type": "function"
    },
    {
      "inputs": [],
      "name": "renounceOwnership",
      "outputs": [],
      "stateMutability": "nonpayable",
      "type": "function"
    },
    {
      "inputs": [
        {
          "internalType": "address",
          "name": "newOwner",
          "type": "address"
        }
      ],
      "name": "transferOwnership",
      "outputs": [],
      "stateMutability": "nonpayable",
      "type": "function"
    }
  ],
  "transactionHash": "0xe61761203944d6da436be9b9041698256014405b6fe156eeabb9298ddcc39581",
  "args": [],
  "numDeployments": 1,
  "solcInputHash": "05cd30db9ee15a7ba46b3788b2bcc303",
  "bytecode": "0x6080806040523461005b5760008054336001600160a01b0319821681178355916001600160a01b03909116907f8be0079c531659141344cd1fd0a4f28419497f9722a3daafe3b4186f6b6457e09084a361109e90816100618239f35b600080fdfe6040608081526004908136101561001557600080fd5b600091823560e01c928363184160011461009b57505050806355902b7c146100925780635e63547a14610089578063715018a6146100805780638da5cb5b146100775763f2fde38b1461006a575b3880600080fd5b610072610863565b610063565b50610072610810565b5061007261076b565b506100726106ac565b506100726105b6565b346103da576060807ffffffffffffffffffffffffffffffffffffffffffffffffffffffffffffffffc3601126103d6578235926100d7846103dd565b60243591604435936100f96100f46100ef8688610a5d565b610a74565b610aae565b9573ffffffffffffffffffffffffffffffffffffffff908116855b8781111561012d578951806101298b82610400565b0390f35b6102e9906102e38a8c8961017b6102bf8a8a85517f1e3dd18b00000000000000000000000000000000000000000000000000000000815289818d81806020998a958c83019190602083019252565b03915afa9081156103c9575b83916103ac575b50169480516101d8877f0dfe1681000000000000000000000000000000000000000000000000000000009283815287818a81855afa90811561039f575b8691610388575b50610df0565b94825196610220897fd21220a700000000000000000000000000000000000000000000000000000000998a815284818581855afa90811561037b575b889161035e5750610df0565b978451938452828483818d5afa938415610351575b8694610330575b50829085519283918252818c5afa948515610323575b946102ee575b50906102a29161028561026961051e565b73ffffffffffffffffffffffffffffffffffffffff909a168a52565b88019073ffffffffffffffffffffffffffffffffffffffff169052565b85019073ffffffffffffffffffffffffffffffffffffffff169052565b8a83015260808201526102dc6102d58c86610a5d565b8093610bb0565b528b610bb0565b50610b5d565b610114565b819450610314906102a293923d871161031c575b61030c81836104dd565b810190610b8b565b939091610258565b503d610302565b61032b610ba3565b610252565b8391945061034a90823d841161031c5761030c81836104dd565b939061023c565b610359610ba3565b610235565b6103759150853d871161031c5761030c81836104dd565b386101d2565b610383610ba3565b610214565b6103759150883d8a1161031c5761030c81836104dd565b6103a7610ba3565b6101cb565b6103c39150853d871161031c5761030c81836104dd565b3861018e565b6103d1610ba3565b610187565b5080fd5b80fd5b73ffffffffffffffffffffffffffffffffffffffff8116036103fb57565b600080fd5b60208082019080835283518092528060408094019401926000905b83821061042a57505050505090565b8451805173ffffffffffffffffffffffffffffffffffffffff908116885281850151811688860152818301511687830152606080820151908801526080908101519087015260a0909501949382019360019091019061041b565b507f4e487b7100000000000000000000000000000000000000000000000000000000600052604160045260246000fd5b6040810190811067ffffffffffffffff8211176104d057604052565b6104d8610484565b604052565b90601f7fffffffffffffffffffffffffffffffffffffffffffffffffffffffffffffffe0910116810190811067ffffffffffffffff8211176104d057604052565b6040519060a0820182811067ffffffffffffffff8211176104d057604052565b60209067ffffffffffffffff8111610558575b60051b0190565b610560610484565b610551565b6020908160408183019282815285518094520193019160005b82811061058c575050505090565b835173ffffffffffffffffffffffffffffffffffffffff168552938101939281019260010161057e565b50346103fb576040807ffffffffffffffffffffffffffffffffffffffffffffffffffffffffffffffffc3601126103fb576004356105f3816103dd565b6024359067ffffffffffffffff82116103fb57366023830112156103fb578160040135916106208361053e565b9261062d855194856104dd565b80845260209060248286019160061b840101923684116103fb57602401905b83821061066c57610129876106618888610ee3565b905191829182610565565b86823603126103fb578287918251610683816104b4565b843561068e816103dd565b81528285013561069d816103dd565b8382015281520191019061064c565b50346103fb576020807ffffffffffffffffffffffffffffffffffffffffffffffffffffffffffffffffc3601126103fb5760043567ffffffffffffffff81116103fb57366023820112156103fb578060040135906107098261053e565b9161071760405193846104dd565b80835260248484019160051b830101913683116103fb57602401905b8282106107525761012961074685610c07565b60405191829182610400565b8480918335610760816103dd565b815201910190610733565b50346103fb576000807ffffffffffffffffffffffffffffffffffffffffffffffffffffffffffffffffc3601126103da5780547fffffffffffffffffffffffff000000000000000000000000000000000000000073ffffffffffffffffffffffffffffffffffffffff8216916107e2338414610959565b16825581604051917f8be0079c531659141344cd1fd0a4f28419497f9722a3daafe3b4186f6b6457e08284a3f35b50346103fb5760007ffffffffffffffffffffffffffffffffffffffffffffffffffffffffffffffffc3601126103fb57602073ffffffffffffffffffffffffffffffffffffffff60005416604051908152f35b50346103fb5760207ffffffffffffffffffffffffffffffffffffffffffffffffffffffffffffffffc3601126103fb5760043561089f816103dd565b73ffffffffffffffffffffffffffffffffffffffff6108c381600054163314610959565b8116156108d5576108d3906109be565b005b60846040517f08c379a000000000000000000000000000000000000000000000000000000000815260206004820152602660248201527f4f776e61626c653a206e6577206f776e657220697320746865207a65726f206160448201527f64647265737300000000000000000000000000000000000000000000000000006064820152fd5b1561096057565b60646040517f08c379a000000000000000000000000000000000000000000000000000000000815260206004820152602060248201527f4f776e61626c653a2063616c6c6572206973206e6f7420746865206f776e65726044820152fd5b6000549073ffffffffffffffffffffffffffffffffffffffff80911691827fffffffffffffffffffffffff0000000000000000000000000000000000000000821617600055167f8be0079c531659141344cd1fd0a4f28419497f9722a3daafe3b4186f6b6457e06000604051a3565b507f4e487b7100000000000000000000000000000000000000000000000000000000600052601160045260246000fd5b818110610a68570390565b610a70610a2d565b0390565b6001907ffffffffffffffffffffffffffffffffffffffffffffffffffffffffffffffffe8111610aa2570190565b610aaa610a2d565b0190565b90610ab88261053e565b604090610ac7825191826104dd565b8381527fffffffffffffffffffffffffffffffffffffffffffffffffffffffffffffffe0610af5829561053e565b019160005b838110610b075750505050565b602090825160a0810181811067ffffffffffffffff821117610b50575b845260008152826000818301526000858301526000606083015260006080830152828601015201610afa565b610b58610484565b610b24565b6001907fffffffffffffffffffffffffffffffffffffffffffffffffffffffffffffffff8114610aa2570190565b908160209103126103fb5751610ba0816103dd565b90565b506040513d6000823e3d90fd5b8051821015610bc45760209160051b010190565b7f4e487b7100000000000000000000000000000000000000000000000000000000600052603260045260246000fd5b60019061ffff809116908114610aa2570190565b610c118151610aae565b9160005b825161ffff821690811015610dea5790610d7382610c72610c59610c59610c3f610d79978a610bb0565b5173ffffffffffffffffffffffffffffffffffffffff1690565b73ffffffffffffffffffffffffffffffffffffffff1690565b60408051610d587f0dfe16810000000000000000000000000000000000000000000000000000000091828152602093610cc48660049387818681855afa908115610ddd575b6000916103885750610df0565b93815195610d0d887fd21220a7000000000000000000000000000000000000000000000000000000009889815283818881855afa908115610dd0575b600091610db95750610df0565b968351928352818386818c5afa928315610dac575b600093610d8b575b50819084519586918252818b5afa938415610d7e575b6000946102ee5750906102a29161028561026961051e565b60608301526080820152610d6c8289610bb0565b5286610bb0565b50610bf3565b610c15565b610d86610ba3565b610d40565b82919350610da590823d841161031c5761030c81836104dd565b9290610d2a565b610db4610ba3565b610d22565b6103759150843d861161031c5761030c81836104dd565b610dd8610ba3565b610d00565b610de5610ba3565b610cb7565b50509050565b803b15610e8d576020906024604051809481937f70a0823100000000000000000000000000000000000000000000000000000000835273ffffffffffffffffffffffffffffffffffffffff8092166004840152165afa60009181610e5a575b50610ba05750600090565b90916020823d8211610e85575b81610e74602093836104dd565b810103126103da5750519038610e4f565b3d9150610e67565b5050600090565b90610e9e8261053e565b610eab60405191826104dd565b8281527fffffffffffffffffffffffffffffffffffffffffffffffffffffffffffffffe0610ed9829461053e565b0190602036910137565b9091610eef8351610e94565b9260005b815161ffff821690811015611061579061101f82610f32610f176110249587610bb0565b515173ffffffffffffffffffffffffffffffffffffffff1690565b90610fe260208093610f6482610f48868c610bb0565b51015173ffffffffffffffffffffffffffffffffffffffff1690565b9073ffffffffffffffffffffffffffffffffffffffff90818316828216101561105b575b6040517fe6a4390500000000000000000000000000000000000000000000000000000000815273ffffffffffffffffffffffffffffffffffffffff9182166004820152921660248301529092839190829081906044820190565b03918d165afa92831561104e575b600093611029575b50506110049089610bb0565b9073ffffffffffffffffffffffffffffffffffffffff169052565b610bf3565b610ef3565b611004929350908161104692903d1061031c5761030c81836104dd565b919038610ff8565b611056610ba3565b610ff0565b91610f88565b505050905056fea2646970667358221220c05440e34bb6f5fdc876142ab8943ab2afc572ebe9d0dd9a02e451c0114cca5364736f6c634300080d0033",
  "devdoc": {
    "kind": "dev",
    "methods": {
      "owner()": {
        "details": "Returns the address of the current owner."
      },
      "renounceOwnership()": {
        "details": "Leaves the contract without owner. It will not be possible to call `onlyOwner` functions anymore. Can only be called by the current owner. NOTE: Renouncing ownership will leave the contract without an owner, thereby removing any functionality that is only available to the owner."
      },
      "transferOwnership(address)": {
        "details": "Transfers ownership of the contract to a new account (`newOwner`). Can only be called by the current owner."
      }
    },
    "version": 1
  },
  "userdoc": {
    "kind": "user",
    "methods": {},
    "version": 1
  },
  "storageLayout": {
    "storage": [
      {
        "astId": 400,
        "contract": "contracts/multicall/UniV2Multicall.sol:UniV2Multicall",
        "label": "_owner",
        "offset": 0,
        "slot": "0",
        "type": "t_address"
      }
    ],
    "types": {
      "t_address": {
        "encoding": "inplace",
        "label": "address",
        "numberOfBytes": "20"
      }
    }
  }
}