{
  "address": "0x3009ccaaeE8CDcaBf57eDdC7309DFd67AadcFcd6",
  "abi": [
    {
      "anonymous": false,
      "inputs": [
        {
          "indexed": true,
          "internalType": "address",
          "name": "previousOwner",
          "type": "address"
        },
        {
          "indexed": true,
          "internalType": "address",
          "name": "newOwner",
          "type": "address"
        }
      ],
      "name": "OwnershipTransferred",
      "type": "event"
    },
    {
      "inputs": [
        {
          "internalType": "contract ILendingPool",
          "name": "lendingPool",
          "type": "address"
        },
        {
          "internalType": "contract IDataProvider",
          "name": "dataProvider",
          "type": "address"
        },
        {
          "internalType": "address",
          "name": "user",
          "type": "address"
        }
      ],
      "name": "getReservesWithUserData",
      "outputs": [
        {
          "components": [
            {
              "internalType": "address",
              "name": "token",
              "type": "address"
            },
            {
              "internalType": "address",
              "name": "aToken",
              "type": "address"
            },
            {
              "internalType": "uint256",
              "name": "totalDeposited",
              "type": "uint256"
            },
            {
              "internalType": "uint256",
              "name": "liquidityRate",
              "type": "uint256"
            },
            {
              "internalType": "bool",
              "name": "usageAsCollateralEnabled",
              "type": "bool"
            },
            {
              "internalType": "bool",
              "name": "isUsingAsCollateral",
              "type": "bool"
            },
            {
              "internalType": "bool",
              "name": "isBorrowing",
              "type": "bool"
            },
            {
              "internalType": "uint256",
              "name": "stableDebt",
              "type": "uint256"
            },
            {
              "internalType": "address",
              "name": "stableDebtToken",
              "type": "address"
            },
            {
              "internalType": "uint128",
              "name": "stableBorrowRate",
              "type": "uint128"
            },
            {
              "internalType": "uint256",
              "name": "userStableBorrowRate",
              "type": "uint256"
            },
            {
              "internalType": "uint256",
              "name": "variableDebt",
              "type": "uint256"
            },
            {
              "internalType": "address",
              "name": "variableDebtToken",
              "type": "address"
            },
            {
              "internalType": "uint128",
              "name": "variableBorrowRate",
              "type": "uint128"
            }
          ],
          "internalType": "struct AaveV2Multicall.AaveReserve[]",
          "name": "reserves",
          "type": "tuple[]"
        }
      ],
      "stateMutability": "view",
      "type": "function"
    },
    {
      "inputs": [],
      "name": "owner",
      "outputs": [
        {
          "internalType": "address",
          "name": "",
          "type": "address"
        }
      ],
      "stateMutability": "view",
      "type": "function"
    },
    {
      "inputs": [],
      "name": "renounceOwnership",
      "outputs": [],
      "stateMutability": "nonpayable",
      "type": "function"
    },
    {
      "inputs": [
        {
          "internalType": "address",
          "name": "newOwner",
          "type": "address"
        }
      ],
      "name": "transferOwnership",
      "outputs": [],
      "stateMutability": "nonpayable",
      "type": "function"
    }
  ],
  "transactionHash": "0xe51886e04dff9553d80a9dd460cca469a2c7295b18f5675822262a0fb6dcf4da",
  "args": [],
  "numDeployments": 1,
  "solcInputHash": "db514468a819116ee357921c896fbb72",
  "bytecode": "0x6080806040523461005b5760008054336001600160a01b0319821681178355916001600160a01b03909116907f8be0079c531659141344cd1fd0a4f28419497f9722a3daafe3b4186f6b6457e09084a36110e890816100618239f35b600080fdfe6080806040526004908136101561001557600080fd5b600091823560e01c92836348f59e5914610073575050508063715018a61461006a5780638da5cb5b146100615763f2fde38b14610054575b3880600080fd5b61005c61081c565b61004d565b5061005c6107c9565b5061005c610724565b346105a45760607ffffffffffffffffffffffffffffffffffffffffffffffffffffffffffffffffc3601126105a4578135906100ae826105a7565b602435936100bb856105a7565b604435906100c8826105a7565b73ffffffffffffffffffffffffffffffffffffffff809416927fd1946dbc00000000000000000000000000000000000000000000000000000000825280828781875afa918215610597575b8192610573575b506101258251610b74565b95604051957f4417a5830000000000000000000000000000000000000000000000000000000087526020878061017a8886830191909173ffffffffffffffffffffffffffffffffffffffff6020820193169052565b0381895afa968715610566575b8397610535575b50829895989516945b8351811015610523578661021f6101806101ce6101b48589610d08565b5173ffffffffffffffffffffffffffffffffffffffff1690565b8c60405180809581947f35ea6a750000000000000000000000000000000000000000000000000000000083528a830191909173ffffffffffffffffffffffffffffffffffffffff6020820193169052565b03915afa908115610516575b85916104e5575b506102406101b48488610d08565b604080517f28dd2d0100000000000000000000000000000000000000000000000000000000815273ffffffffffffffffffffffffffffffffffffffff928316878201908152928a1660208401529291610120918291859182910103818d5afa9283156104d8575b878892898094898d8396849a61048c575b50906102c391610d08565b5173ffffffffffffffffffffffffffffffffffffffff16978a60e08901516102fe9073ffffffffffffffffffffffffffffffffffffffff1690565b9a610309828261101c565b9161031391610fbd565b916101008a01516103379073ffffffffffffffffffffffffffffffffffffffff1690565b9460a08b0151610356906fffffffffffffffffffffffffffffffff1690565b97878c01516103789073ffffffffffffffffffffffffffffffffffffffff1690565b6080909c01516fffffffffffffffffffffffffffffffff169c610399610a81565b73ffffffffffffffffffffffffffffffffffffffff90911681529d8e9073ffffffffffffffffffffffffffffffffffffffff1660208201526040015260608d0152151560808c0152151560a08b0152151560c08a015260e089015273ffffffffffffffffffffffffffffffffffffffff166101008801526fffffffffffffffffffffffffffffffff9091169086015261014085015261016084015273ffffffffffffffffffffffffffffffffffffffff166101808301526fffffffffffffffffffffffffffffffff166101a0820152610472828a610d08565b5261047d8189610d08565b5061048790610cce565b610197565b935098509450506102c39450816104b99293503d84116104d1575b6104b18183610a40565b810190610e69565b969897929a94505097915095929796939990916102b8565b503d6104a7565b6104e0610b67565b6102a7565b61050991506101803d6101801161050f575b6105018183610a40565b810190610d88565b8b610232565b503d6104f7565b61051e610b67565b61022b565b604051806105318a826105ca565b0390f35b61055891975060203d60201161055f575b6105508183610a40565b810190610c87565b958961018e565b503d610546565b61056e610b67565b610187565b6105909192503d8084833e6105888183610a40565b810190610ae3565b908761011a565b61059f610b67565b610113565b80fd5b73ffffffffffffffffffffffffffffffffffffffff8116036105c557565b600080fd5b60208082019080835283518092528060408094019401926000905b8382106105f457505050505090565b9091929394836101c0600192610717895161062583825173ffffffffffffffffffffffffffffffffffffffff169052565b8085015173ffffffffffffffffffffffffffffffffffffffff168386015280870151838801526060808201519084015260808082015115159084015260a08181015115159084015260c08181015115159084015260e081810151908401526101008082015173ffffffffffffffffffffffffffffffffffffffff1690840152610120818101516fffffffffffffffffffffffffffffffff1690840152610140818101519084015261016080820151908401526101808082015173ffffffffffffffffffffffffffffffffffffffff16908401526101a0908101516fffffffffffffffffffffffffffffffff1690830152565b01960194939201906105e5565b50346105c5576000807ffffffffffffffffffffffffffffffffffffffffffffffffffffffffffffffffc3601126105a45780547fffffffffffffffffffffffff000000000000000000000000000000000000000073ffffffffffffffffffffffffffffffffffffffff82169161079b338414610912565b16825581604051917f8be0079c531659141344cd1fd0a4f28419497f9722a3daafe3b4186f6b6457e08284a3f35b50346105c55760007ffffffffffffffffffffffffffffffffffffffffffffffffffffffffffffffffc3601126105c557602073ffffffffffffffffffffffffffffffffffffffff60005416604051908152f35b50346105c55760207ffffffffffffffffffffffffffffffffffffffffffffffffffffffffffffffffc3601126105c557600435610858816105a7565b73ffffffffffffffffffffffffffffffffffffffff61087c81600054163314610912565b81161561088e5761088c90610977565b005b60846040517f08c379a000000000000000000000000000000000000000000000000000000000815260206004820152602660248201527f4f776e61626c653a206e6577206f776e657220697320746865207a65726f206160448201527f64647265737300000000000000000000000000000000000000000000000000006064820152fd5b1561091957565b60646040517f08c379a000000000000000000000000000000000000000000000000000000000815260206004820152602060248201527f4f776e61626c653a2063616c6c6572206973206e6f7420746865206f776e65726044820152fd5b6000549073ffffffffffffffffffffffffffffffffffffffff80911691827fffffffffffffffffffffffff0000000000000000000000000000000000000000821617600055167f8be0079c531659141344cd1fd0a4f28419497f9722a3daafe3b4186f6b6457e06000604051a3565b507f4e487b7100000000000000000000000000000000000000000000000000000000600052604160045260246000fd5b6101c0810190811067ffffffffffffffff821117610a3357604052565b610a3b6109e6565b604052565b90601f7fffffffffffffffffffffffffffffffffffffffffffffffffffffffffffffffe0910116810190811067ffffffffffffffff821117610a3357604052565b60405190610a8e82610a16565b565b60405190610180820182811067ffffffffffffffff821117610a3357604052565b60209067ffffffffffffffff8111610acb575b60051b0190565b610ad36109e6565b610ac4565b5190610a8e826105a7565b60209081818403126105c55780519067ffffffffffffffff82116105c557019180601f840112156105c5578251610b1981610ab1565b93610b276040519586610a40565b818552838086019260051b8201019283116105c5578301905b828210610b4e575050505090565b8380918351610b5c816105a7565b815201910190610b40565b506040513d6000823e3d90fd5b90610b7e82610ab1565b604090610b8d82519182610a40565b8381527fffffffffffffffffffffffffffffffffffffffffffffffffffffffffffffffe0610bbb8295610ab1565b019160005b838110610bcd5750505050565b6020908251610bdb81610a16565b60008152826000818301526000858301526000606083015260006080830152600060a0830152600060c0830152600060e08301526000610100830152600061012083015260006101408301526000610160830152600061018083015260006101a0830152828601015201610bc0565b91908260209103126105c5576040516020810181811067ffffffffffffffff821117610c7a575b60405291518252565b610c826109e6565b610c71565b906020828203126105c557610c9b91610c4a565b90565b507f4e487b7100000000000000000000000000000000000000000000000000000000600052601160045260246000fd5b6001907fffffffffffffffffffffffffffffffffffffffffffffffffffffffffffffffff8114610cfc570190565b610d04610c9e565b0190565b8051821015610d1c5760209160051b010190565b7f4e487b7100000000000000000000000000000000000000000000000000000000600052603260045260246000fd5b51906fffffffffffffffffffffffffffffffff821682036105c557565b519064ffffffffff821682036105c557565b519060ff821682036105c557565b610180818303126105c557610da5610d9e610a90565b9282610c4a565b8252610db360208201610d4b565b6020830152610dc460408201610d4b565b6040830152610dd560608201610d4b565b6060830152610de660808201610d4b565b6080830152610df760a08201610d4b565b60a0830152610e0860c08201610d68565b60c0830152610e1960e08201610ad8565b60e0830152610100610e2c818301610ad8565b90830152610120610e3e818301610ad8565b90830152610140610e50818301610ad8565b90830152610e62610160809201610d7a565b9082015290565b90816101209103126105c55780519160208201519160408101519160608201519160808101519160a08201519160c081015191610100610eab60e08401610d68565b92015180151581036105c55790565b604051906040820182811067ffffffffffffffff821117610f05575b604052600282527f37370000000000000000000000000000000000000000000000000000000000006020830152565b610f0d6109e6565b610ed6565b15610f1a5750565b604051907f08c379a00000000000000000000000000000000000000000000000000000000082528160208060048301528251928360248401526000915b848310610fa4575050601f836044947fffffffffffffffffffffffffffffffffffffffffffffffffffffffffffffffe09311610f97575b01168101030190fd5b6000858286010152610f8e565b8183018101518684016044015285935091820191610f57565b90600191610fd5610fcc610eba565b60808410610f12565b5190807fffffffffffffffffffffffffffffffffffffffffffffffffffffffffffffffff046002118115151661100f575b821b1c16151590565b611017610c9e565b611006565b906001809261103561102c610eba565b60808510610f12565b5191807fffffffffffffffffffffffffffffffffffffffffffffffffffffffffffffffff04600211811515166110a5575b811b7ffffffffffffffffffffffffffffffffffffffffffffffffffffffffffffffffe8111611098575b011c16151590565b6110a0610c9e565b611090565b6110ad610c9e565b61106656fea26469706673582212200920c887bd17054853e6e935f2f400d167039da9497aa610dbbb71fa178a7e0864736f6c634300080d0033",
  "devdoc": {
    "kind": "dev",
    "methods": {
      "owner()": {
        "details": "Returns the address of the current owner."
      },
      "renounceOwnership()": {
        "details": "Leaves the contract without owner. It will not be possible to call `onlyOwner` functions anymore. Can only be called by the current owner. NOTE: Renouncing ownership will leave the contract without an owner, thereby removing any functionality that is only available to the owner."
      },
      "transferOwnership(address)": {
        "details": "Transfers ownership of the contract to a new account (`newOwner`). Can only be called by the current owner."
      }
    },
    "version": 1
  },
  "userdoc": {
    "kind": "user",
    "methods": {},
    "version": 1
  },
  "storageLayout": {
    "storage": [
      {
        "astId": 400,
        "contract": "contracts/multicall/AaveV2Multicall.sol:AaveV2Multicall",
        "label": "_owner",
        "offset": 0,
        "slot": "0",
        "type": "t_address"
      }
    ],
    "types": {
      "t_address": {
        "encoding": "inplace",
        "label": "address",
        "numberOfBytes": "20"
      }
    }
  }
}