{
  "address": "0xfB6B2c8392580Ea47A6256AdbB0e48A962A67378",
  "abi": [
    {
      "anonymous": false,
      "inputs": [
        {
          "indexed": true,
          "internalType": "address",
          "name": "previousOwner",
          "type": "address"
        },
        {
          "indexed": true,
          "internalType": "address",
          "name": "newOwner",
          "type": "address"
        }
      ],
      "name": "OwnershipTransferred",
      "type": "event"
    },
    {
      "inputs": [
        {
          "internalType": "contract Registry",
          "name": "registry",
          "type": "address"
        }
      ],
      "name": "firstPool",
      "outputs": [
        {
          "internalType": "address",
          "name": "poolAddress",
          "type": "address"
        }
      ],
      "stateMutability": "view",
      "type": "function"
    },
    {
      "inputs": [
        {
          "internalType": "contract PoolInfo",
          "name": "poolInfo",
          "type": "address"
        },
        {
          "internalType": "address",
          "name": "poolAddress",
          "type": "address"
        }
      ],
      "name": "getPoolInfo",
      "outputs": [
        {
          "internalType": "uint256[8]",
          "name": "balances",
          "type": "uint256[8]"
        },
        {
          "internalType": "uint256[8]",
          "name": "underlyingBalances",
          "type": "uint256[8]"
        },
        {
          "internalType": "uint256[8]",
          "name": "decimals",
          "type": "uint256[8]"
        },
        {
          "internalType": "uint256[8]",
          "name": "underlyingDecimals",
          "type": "uint256[8]"
        },
        {
          "internalType": "uint256[8]",
          "name": "rates",
          "type": "uint256[8]"
        },
        {
          "internalType": "address",
          "name": "lpToken",
          "type": "address"
        },
        {
          "internalType": "bool",
          "name": "isMeta",
          "type": "bool"
        },
        {
          "internalType": "string",
          "name": "name",
          "type": "string"
        }
      ],
      "stateMutability": "view",
      "type": "function"
    },
    {
      "inputs": [
        {
          "internalType": "contract Registry",
          "name": "registry",
          "type": "address"
        },
        {
          "internalType": "contract PoolInfo",
          "name": "poolInfo",
          "type": "address"
        },
        {
          "internalType": "uint16",
          "name": "from",
          "type": "uint16"
        },
        {
          "internalType": "uint16",
          "name": "pageSize",
          "type": "uint16"
        }
      ],
      "name": "getPools",
      "outputs": [
        {
          "components": [
            {
              "internalType": "uint256[8]",
              "name": "balances",
              "type": "uint256[8]"
            },
            {
              "internalType": "uint256[8]",
              "name": "underlyingBalances",
              "type": "uint256[8]"
            },
            {
              "internalType": "uint256[8]",
              "name": "decimals",
              "type": "uint256[8]"
            },
            {
              "internalType": "uint256[8]",
              "name": "underlyingDecimals",
              "type": "uint256[8]"
            },
            {
              "internalType": "uint256[8]",
              "name": "rates",
              "type": "uint256[8]"
            },
            {
              "internalType": "address",
              "name": "lpToken",
              "type": "address"
            },
            {
              "internalType": "bool",
              "name": "isMeta",
              "type": "bool"
            },
            {
              "internalType": "string",
              "name": "name",
              "type": "string"
            }
          ],
          "internalType": "struct CurveMulticall.CurvePool[]",
          "name": "pools",
          "type": "tuple[]"
        }
      ],
      "stateMutability": "view",
      "type": "function"
    },
    {
      "inputs": [],
      "name": "owner",
      "outputs": [
        {
          "internalType": "address",
          "name": "",
          "type": "address"
        }
      ],
      "stateMutability": "view",
      "type": "function"
    },
    {
      "inputs": [
        {
          "internalType": "address",
          "name": "to",
          "type": "address"
        },
        {
          "internalType": "address",
          "name": "token",
          "type": "address"
        }
      ],
      "name": "recoverFunds",
      "outputs": [],
      "stateMutability": "nonpayable",
      "type": "function"
    },
    {
      "inputs": [],
      "name": "renounceOwnership",
      "outputs": [],
      "stateMutability": "nonpayable",
      "type": "function"
    },
    {
      "inputs": [
        {
          "internalType": "address",
          "name": "newOwner",
          "type": "address"
        }
      ],
      "name": "transferOwnership",
      "outputs": [],
      "stateMutability": "nonpayable",
      "type": "function"
    }
  ],
  "transactionHash": "0x8af0128feef3b47a520afeeac971a1bfc693b33609a151988c1894deb7d795f3",
  "args": [],
  "numDeployments": 2,
  "solcInputHash": "7da5e23f2c4860b6af066cb950a16566",
  "bytecode": "0x6080806040523461005b5760008054336001600160a01b0319821681178355916001600160a01b03909116907f8be0079c531659141344cd1fd0a4f28419497f9722a3daafe3b4186f6b6457e09084a361110990816100618239f35b600080fdfe60806040526004361015610013575b600080fd5b6000803560e01c90816324ae6a27146100a2575080633ee7bc3314610099578063486e51f414610090578063715018a6146100875780637970d4191461007e5780638da5cb5b146100755763f2fde38b1461006d57600080fd5b61000e610a85565b5061000e610a32565b5061000e6107c6565b5061000e6105e7565b5061000e610478565b5061000e610271565b346102505760407ffffffffffffffffffffffffffffffffffffffffffffffffffffffffffffffffc360112610250576101d56004356100e081610253565b6101bb6024356100ef81610253565b73ffffffffffffffffffffffffffffffffffffffff90610113828754163314610b7b565b6040517f70a0823100000000000000000000000000000000000000000000000000000000815230600482015260209485939192909116908383602481855afa928315610243575b8893610214575b50876040518096819582947fa9059cbb000000000000000000000000000000000000000000000000000000008452600484016020909392919373ffffffffffffffffffffffffffffffffffffffff60408201951681520152565b03925af1918215610207575b84926101da575b505061106e565b604051f35b6101f99250803d10610200575b6101f18183610ca9565b81019061105a565b83806101ce565b503d6101e7565b61020f610cff565b6101c7565b610235919350843d861161023c575b61022d8183610ca9565b81019061104b565b9188610161565b503d610223565b61024b610cff565b61015a565b80fd5b73ffffffffffffffffffffffffffffffffffffffff81160361000e57565b503461000e5760207ffffffffffffffffffffffffffffffffffffffffffffffffffffffffffffffffc36011261000e5760206004356102af81610253565b604051907f3a1d5d8e00000000000000000000000000000000000000000000000000000000825260006004830152828260248173ffffffffffffffffffffffffffffffffffffffff8095165afa918215610345575b600092610316575b5060405191168152f35b610337919250833d811161033e575b61032f8183610ca9565b810190610cea565b903861030c565b503d610325565b61034d610cff565b610304565b6000915b6008831061036357505050565b600190825181526020809101920192019190610356565b918091926000905b82821061039a575011610393575050565b6000910152565b91508060209183015181860152018291610382565b907fffffffffffffffffffffffffffffffffffffffffffffffffffffffffffffffe0601f6020936103eb8151809281875287808801910161037a565b0116010190565b959273ffffffffffffffffffffffffffffffffffffffff9461043e61044992610433610454966104288c6104759f9e9c98610352565b6101008c0190610352565b6102008a0190610352565b610300880190610352565b610400860190610352565b166105008301521515610520820152610560908161054082015201906103af565b90565b503461000e5760407ffffffffffffffffffffffffffffffffffffffffffffffffffffffffffffffffc36011261000e5761056b6004356104b781610253565b6024356104c381610253565b6040516104cf81610c7f565b61010080913690376040516104e381610c7f565b3690376104ee610d1b565b506104f7610d1b565b50610500610d1b565b5060405180927f100f2c000000000000000000000000000000000000000000000000000000000082528173ffffffffffffffffffffffffffffffffffffffff8160009788966004830191909173ffffffffffffffffffffffffffffffffffffffff6020820193169052565b0392165afa80156105da575b82908392848586908792889489966105a0575b506040519850889761059c97896103f2565b0390f35b96505050505050506105c8915061059c923d8091833e6105c08183610ca9565b810190610d83565b9597889796959194929392919061058a565b6105e2610cff565b610577565b503461000e576000807ffffffffffffffffffffffffffffffffffffffffffffffffffffffffffffffffc3601126102505780547fffffffffffffffffffffffff000000000000000000000000000000000000000073ffffffffffffffffffffffffffffffffffffffff82169161065e338414610b7b565b16825581604051917f8be0079c531659141344cd1fd0a4f28419497f9722a3daafe3b4186f6b6457e08284a3f35b6044359061ffff8216820361000e57565b6064359061ffff8216820361000e57565b602080820190808352835180925260409283810182858560051b8401019601946000925b8584106106e3575050505050505090565b9091929394959685806107b5837fffffffffffffffffffffffffffffffffffffffffffffffffffffffffffffffc0866001960301885260e08c51610728838251610352565b61073a85820151610100850190610352565b61074c89820151610200850190610352565b61075f6060820151610300850190610352565b6107726080820151610400850190610352565b60a081015173ffffffffffffffffffffffffffffffffffffffff1661050084015260c08101511515610520840152015190610560908161054082015201906103af565b9901940194019295949391906106d2565b503461000e576080807ffffffffffffffffffffffffffffffffffffffffffffffffffffffffffffffffc36011261000e5760049081359061080682610253565b6024359261081384610253565b61081b61068c565b9061082461069d565b9461ffff94610834868816610eab565b95849173ffffffffffffffffffffffffffffffffffffffff8091169316915b6108676108608a88610fd2565b61ffff1690565b8282161015610a245760408161091d600083517f3a1d5d8e0000000000000000000000000000000000000000000000000000000081528981806108ba6020978894830191909161ffff6020820193169052565b03818c5afa908115610a17575b82916109fa575b508451809381927f100f2c000000000000000000000000000000000000000000000000000000000083528c830191909173ffffffffffffffffffffffffffffffffffffffff6020820193169052565b0381895afa9182156109ed575b60009384908586918793889589978a996109bd575b50610948610d0c565b998a5289015287015260608601528b85015273ffffffffffffffffffffffffffffffffffffffff1660a0840152151560c083015260e082015261098b8783610fe9565b61ffff169061099a828b611008565b526109a59089611008565b506108606109b561086792610fb2565b915050610853565b965097505096925050506109db92503d8091833e6105c08183610ca9565b9698969790969195929492903861093f565b6109f5610cff565b61092a565b610a119150843d861161033e5761032f8183610ca9565b386108ce565b610a1f610cff565b6108c7565b6040518061059c8a826106ae565b503461000e5760007ffffffffffffffffffffffffffffffffffffffffffffffffffffffffffffffffc36011261000e57602073ffffffffffffffffffffffffffffffffffffffff60005416604051908152f35b503461000e5760207ffffffffffffffffffffffffffffffffffffffffffffffffffffffffffffffffc36011261000e57600435610ac181610253565b73ffffffffffffffffffffffffffffffffffffffff610ae581600054163314610b7b565b811615610af757610af590610be0565b005b60846040517f08c379a000000000000000000000000000000000000000000000000000000000815260206004820152602660248201527f4f776e61626c653a206e6577206f776e657220697320746865207a65726f206160448201527f64647265737300000000000000000000000000000000000000000000000000006064820152fd5b15610b8257565b60646040517f08c379a000000000000000000000000000000000000000000000000000000000815260206004820152602060248201527f4f776e61626c653a2063616c6c6572206973206e6f7420746865206f776e65726044820152fd5b6000549073ffffffffffffffffffffffffffffffffffffffff80911691827fffffffffffffffffffffffff0000000000000000000000000000000000000000821617600055167f8be0079c531659141344cd1fd0a4f28419497f9722a3daafe3b4186f6b6457e06000604051a3565b507f4e487b7100000000000000000000000000000000000000000000000000000000600052604160045260246000fd5b610100810190811067ffffffffffffffff821117610c9c57604052565b610ca4610c4f565b604052565b90601f7fffffffffffffffffffffffffffffffffffffffffffffffffffffffffffffffe0910116810190811067ffffffffffffffff821117610c9c57604052565b9081602091031261000e575161047581610253565b506040513d6000823e3d90fd5b60405190610d1982610c7f565b565b60405190610d2882610c7f565b610100368337565b9080601f8301121561000e5760405191610d4983610c7f565b8290610100810192831161000e57905b828210610d665750505090565b8151815260209182019101610d59565b5190811515820361000e57565b91906105608382031261000e57610d9a8184610d30565b92610da9826101008301610d30565b92610db8836102008401610d30565b92610dc7816103008501610d30565b92610dd6826104008301610d30565b92610500820151610de681610253565b92610df46105208401610d76565b9261054081015167ffffffffffffffff9182821161000e57019082601f8301121561000e578151908111610e77575b60405192610e5960207fffffffffffffffffffffffffffffffffffffffffffffffffffffffffffffffe0601f8501160185610ca9565b8184526020828401011161000e57610475916020808501910161037a565b610e7f610c4f565b610e23565b60209067ffffffffffffffff8111610e9e575b60051b0190565b610ea6610c4f565b610e97565b90610eb582610e84565b604090610ec482519182610ca9565b8381527fffffffffffffffffffffffffffffffffffffffffffffffffffffffffffffffe0610ef28295610e84565b0191600091825b848110610f07575050505050565b6020908351610f1581610c7f565b8451610f2081610c7f565b61010090813682378252855190610f3682610c7f565b3682378184015282610f46610d1b565b86830152610f52610d1b565b60609081840152610f61610d1b565b60808401528760a08401528760c084015260e0830152828501015201610ef9565b507f4e487b7100000000000000000000000000000000000000000000000000000000600052601160045260246000fd5b60019061ffff809116908114610fc6570190565b610fce610f82565b0190565b9061ffff8080931691168092038111610fc6570190565b61ffff9182169116818110610ffc570390565b611004610f82565b0390565b805182101561101c5760209160051b010190565b7f4e487b7100000000000000000000000000000000000000000000000000000000600052603260045260246000fd5b9081602091031261000e575190565b9081602091031261000e5761047590610d76565b1561107557565b60646040517f08c379a000000000000000000000000000000000000000000000000000000000815260206004820152601560248201527f546f6b656e207265636f76657279206661696c656400000000000000000000006044820152fdfea2646970667358221220635b9904826a14c40653f145e684eec99505cbd5d72ecf1ebd5c84f300408c9364736f6c634300080d0033",
  "devdoc": {
    "kind": "dev",
    "methods": {
      "owner()": {
        "details": "Returns the address of the current owner."
      },
      "renounceOwnership()": {
        "details": "Leaves the contract without owner. It will not be possible to call `onlyOwner` functions anymore. Can only be called by the current owner. NOTE: Renouncing ownership will leave the contract without an owner, thereby removing any functionality that is only available to the owner."
      },
      "transferOwnership(address)": {
        "details": "Transfers ownership of the contract to a new account (`newOwner`). Can only be called by the current owner."
      }
    },
    "version": 1
  },
  "userdoc": {
    "kind": "user",
    "methods": {},
    "version": 1
  },
  "storageLayout": {
    "storage": [
      {
        "astId": 400,
        "contract": "contracts/multicall/CurveMulticall.sol:CurveMulticall",
        "label": "_owner",
        "offset": 0,
        "slot": "0",
        "type": "t_address"
      }
    ],
    "types": {
      "t_address": {
        "encoding": "inplace",
        "label": "address",
        "numberOfBytes": "20"
      }
    }
  }
}