{
  "address": "0xbb7FFdFAAfcaaa1edE71a269F553349b6620e72A",
  "abi": [
    {
      "inputs": [
        {
          "internalType": "address",
          "name": "user",
          "type": "address"
        },
        {
          "internalType": "address",
          "name": "token0",
          "type": "address"
        },
        {
          "internalType": "address",
          "name": "token1",
          "type": "address"
        },
        {
          "internalType": "uint256",
          "name": "token0Amount",
          "type": "uint256"
        },
        {
          "internalType": "uint256",
          "name": "token1Amount",
          "type": "uint256"
        },
        {
          "internalType": "uint256",
          "name": "percentMin",
          "type": "uint256"
        }
      ],
      "name": "onReward",
      "outputs": [],
      "stateMutability": "nonpayable",
      "type": "function"
    }
  ],
  "transactionHash": "0x5b1a9544b3a68efcd64c9a3a95f405118884eeb0d65ceda01bc6f18abf9931fb",
  "args": [],
  "numDeployments": 1,
  "solcInputHash": "e5f4a56fc0d021f11bf3d7ca12a2d904",
  "bytecode": "0x608080604052346100155760ed908161001b8239f35b600080fdfe6080806040526004361015601257600080fd5b600090813560e01c63aa906c0b1460295750600080fd5b3460885760c07ffffffffffffffffffffffffffffffffffffffffffffffffffffffffffffffffc36011260885773ffffffffffffffffffffffffffffffffffffffff60043581811603608c576024359081160360885760856090565b50f35b5080fd5b8280fd5b6044359073ffffffffffffffffffffffffffffffffffffffff8216820360b257565b600080fdfea26469706673582212205bbd2d162cbeee246a93a32a934118e1303fec3963e8605077be49eaed29bc4364736f6c634300080d0033",
  "devdoc": {
    "kind": "dev",
    "methods": {},
    "version": 1
  },
  "userdoc": {
    "kind": "user",
    "methods": {},
    "version": 1
  },
  "storageLayout": {
    "storage": [],
    "types": null
  }
}