{
  "address": "0x08da61b51AAcEB6DCf147A3a682BA8121158366F",
  "abi": [
    {
      "inputs": [
        {
          "internalType": "address",
          "name": "user",
          "type": "address"
        },
        {
          "internalType": "address",
          "name": "token0",
          "type": "address"
        },
        {
          "internalType": "address",
          "name": "token1",
          "type": "address"
        },
        {
          "internalType": "uint256",
          "name": "token0Amount",
          "type": "uint256"
        },
        {
          "internalType": "uint256",
          "name": "token1Amount",
          "type": "uint256"
        },
        {
          "internalType": "uint256",
          "name": "percentMin",
          "type": "uint256"
        }
      ],
      "name": "onReward",
      "outputs": [],
      "stateMutability": "nonpayable",
      "type": "function"
    }
  ],
  "transactionHash": "0x5466cdec4dc0b5557a28045dcb55cf4143acbb4aabc0f428a641dcd26319fedf",
  "args": [],
  "numDeployments": 2,
  "solcInputHash": "f3e962637861feb26a5d3a1835f50046",
  "bytecode": "0x608060405234801561001057600080fd5b5060f78061001f6000396000f3fe6080604052348015600f57600080fd5b506004361060285760003560e01c8063aa906c0b14602d575b600080fd5b60406038366004606a565b505050505050565b005b803573ffffffffffffffffffffffffffffffffffffffff81168114606557600080fd5b919050565b60008060008060008060c087890312156081578182fd5b6088876042565b95506094602088016042565b945060a0604088016042565b9350606087013592506080870135915060a08701359050929550929550929556fea26469706673582212205c30c0cd7375ee04c5c7f6388c4b8b12d8dd86625d496de02cb8dcb868e29c3364736f6c63430008040033",
  "devdoc": {
    "kind": "dev",
    "methods": {},
    "version": 1
  },
  "userdoc": {
    "kind": "user",
    "methods": {},
    "version": 1
  },
  "storageLayout": {
    "storage": [],
    "types": null
  }
}