{
  "address": "0x117867E95f79430ee4AFb9aeF9Dae133Fa091971",
  "abi": [
    {
      "inputs": [
        {
          "internalType": "uint256",
          "name": "_dailyReward",
          "type": "uint256"
        },
        {
          "internalType": "address",
          "name": "_energy",
          "type": "address"
        }
      ],
      "stateMutability": "nonpayable",
      "type": "constructor"
    },
    {
      "inputs": [],
      "name": "dailyReward",
      "outputs": [
        {
          "internalType": "uint256",
          "name": "",
          "type": "uint256"
        }
      ],
      "stateMutability": "view",
      "type": "function"
    },
    {
      "inputs": [],
      "name": "energy",
      "outputs": [
        {
          "internalType": "contract Energy",
          "name": "",
          "type": "address"
        }
      ],
      "stateMutability": "view",
      "type": "function"
    },
    {
      "inputs": [
        {
          "internalType": "address",
          "name": "",
          "type": "address"
        }
      ],
      "name": "lastDailyReward",
      "outputs": [
        {
          "internalType": "uint256",
          "name": "",
          "type": "uint256"
        }
      ],
      "stateMutability": "view",
      "type": "function"
    },
    {
      "inputs": [],
      "name": "mintDailyReward",
      "outputs": [],
      "stateMutability": "nonpayable",
      "type": "function"
    }
  ],
  "transactionHash": "0x5824bac43ca43349c31203392fef5ac6ba067266b8d85c76d5a0b49a67699667",
  "args": [
    "5000000000000000000",
    "0x305dbFD4e55C35c16aFdC5D8c470DaB195FA54C7"
  ],
  "numDeployments": 1,
  "solcInputHash": "cfb2761daf4e15a02822259913e06fb5",
  "bytecode": "0x608060405234801561001057600080fd5b5060405161035438038061035483398101604081905261002f91610059565b600091909155600180546001600160a01b0319166001600160a01b03909216919091179055610094565b6000806040838503121561006b578182fd5b825160208401519092506001600160a01b0381168114610089578182fd5b809150509250929050565b6102b1806100a36000396000f3fe608060405234801561001057600080fd5b506004361061004c5760003560e01c8063aa84924414610051578063c21f461a1461009b578063c964ad45146100c9578063ef353151146100d2575b600080fd5b6001546100719073ffffffffffffffffffffffffffffffffffffffff1681565b60405173ffffffffffffffffffffffffffffffffffffffff90911681526020015b60405180910390f35b6100bb6100a9366004610203565b60026020526000908152604090205481565b604051908152602001610092565b6100bb60005481565b6100da6100dc565b005b336000908152600260205260409020546100f9906201518061023e565b4211610165576040517f08c379a000000000000000000000000000000000000000000000000000000000815260206004820152601860248201527f526577617264206e6f7420617661696c61626c65207965740000000000000000604482015260640160405180910390fd5b33600081815260026020526040808220429055600154915490517f40c10f190000000000000000000000000000000000000000000000000000000081526004810193909352602483015273ffffffffffffffffffffffffffffffffffffffff16906340c10f1990604401600060405180830381600087803b1580156101e957600080fd5b505af11580156101fd573d6000803e3d6000fd5b50505050565b600060208284031215610214578081fd5b813573ffffffffffffffffffffffffffffffffffffffff81168114610237578182fd5b9392505050565b60008219821115610276577f4e487b710000000000000000000000000000000000000000000000000000000081526011600452602481fd5b50019056fea2646970667358221220dac6373b1398351760307aa3260bb34ab946b4b3fe682110c3c599b5e0627be564736f6c63430008040033",
  "devdoc": {
    "kind": "dev",
    "methods": {},
    "version": 1
  },
  "userdoc": {
    "kind": "user",
    "methods": {},
    "version": 1
  },
  "storageLayout": {
    "storage": [
      {
        "astId": 1822,
        "contract": "contracts/EnergyRewarder.sol:EnergyRewarder",
        "label": "dailyReward",
        "offset": 0,
        "slot": "0",
        "type": "t_uint256"
      },
      {
        "astId": 1825,
        "contract": "contracts/EnergyRewarder.sol:EnergyRewarder",
        "label": "energy",
        "offset": 0,
        "slot": "1",
        "type": "t_contract(Energy)1817"
      },
      {
        "astId": 1829,
        "contract": "contracts/EnergyRewarder.sol:EnergyRewarder",
        "label": "lastDailyReward",
        "offset": 0,
        "slot": "2",
        "type": "t_mapping(t_address,t_uint256)"
      }
    ],
    "types": {
      "t_address": {
        "encoding": "inplace",
        "label": "address",
        "numberOfBytes": "20"
      },
      "t_contract(Energy)1817": {
        "encoding": "inplace",
        "label": "contract Energy",
        "numberOfBytes": "20"
      },
      "t_mapping(t_address,t_uint256)": {
        "encoding": "mapping",
        "key": "t_address",
        "label": "mapping(address => uint256)",
        "numberOfBytes": "32",
        "value": "t_uint256"
      },
      "t_uint256": {
        "encoding": "inplace",
        "label": "uint256",
        "numberOfBytes": "32"
      }
    }
  }
}