{
  "address": "0x2D15e96ee514cE257f7f1869F98BeB00A26E7ff5",
  "abi": [
    {
      "inputs": [
        {
          "internalType": "uint256",
          "name": "_dailyReward",
          "type": "uint256"
        },
        {
          "internalType": "address",
          "name": "_energy",
          "type": "address"
        }
      ],
      "stateMutability": "nonpayable",
      "type": "constructor"
    },
    {
      "anonymous": false,
      "inputs": [
        {
          "indexed": true,
          "internalType": "address",
          "name": "previousOwner",
          "type": "address"
        },
        {
          "indexed": true,
          "internalType": "address",
          "name": "newOwner",
          "type": "address"
        }
      ],
      "name": "OwnershipTransferred",
      "type": "event"
    },
    {
      "inputs": [],
      "name": "dailyReward",
      "outputs": [
        {
          "internalType": "uint256",
          "name": "",
          "type": "uint256"
        }
      ],
      "stateMutability": "view",
      "type": "function"
    },
    {
      "inputs": [],
      "name": "energy",
      "outputs": [
        {
          "internalType": "contract Energy",
          "name": "",
          "type": "address"
        }
      ],
      "stateMutability": "view",
      "type": "function"
    },
    {
      "inputs": [
        {
          "internalType": "address",
          "name": "",
          "type": "address"
        }
      ],
      "name": "lastDailyReward",
      "outputs": [
        {
          "internalType": "uint256",
          "name": "",
          "type": "uint256"
        }
      ],
      "stateMutability": "view",
      "type": "function"
    },
    {
      "inputs": [],
      "name": "mintDailyReward",
      "outputs": [],
      "stateMutability": "nonpayable",
      "type": "function"
    },
    {
      "inputs": [],
      "name": "owner",
      "outputs": [
        {
          "internalType": "address",
          "name": "",
          "type": "address"
        }
      ],
      "stateMutability": "view",
      "type": "function"
    },
    {
      "inputs": [],
      "name": "renounceOwnership",
      "outputs": [],
      "stateMutability": "nonpayable",
      "type": "function"
    },
    {
      "inputs": [
        {
          "internalType": "uint256",
          "name": "_dailyReward",
          "type": "uint256"
        }
      ],
      "name": "setDailyReward",
      "outputs": [],
      "stateMutability": "nonpayable",
      "type": "function"
    },
    {
      "inputs": [
        {
          "internalType": "address",
          "name": "newOwner",
          "type": "address"
        }
      ],
      "name": "transferOwnership",
      "outputs": [],
      "stateMutability": "nonpayable",
      "type": "function"
    }
  ],
  "transactionHash": "0x385ce63374fefa35960c578c9c8ed864489097428e9516381e46ebfa8c9c7ee3",
  "args": [
    "7000000000000000000",
    "0x305dbFD4e55C35c16aFdC5D8c470DaB195FA54C7"
  ],
  "numDeployments": 1,
  "solcInputHash": "2f80246216cb56fc1de7c743e789aba9",
  "bytecode": "0x608060405234801561001057600080fd5b5060405161070738038061070783398101604081905261002f916100b2565b61003833610062565b600191909155600280546001600160a01b0319166001600160a01b039092169190911790556100ed565b600080546001600160a01b038381166001600160a01b0319831681178455604051919092169283917f8be0079c531659141344cd1fd0a4f28419497f9722a3daafe3b4186f6b6457e09190a35050565b600080604083850312156100c4578182fd5b825160208401519092506001600160a01b03811681146100e2578182fd5b809150509250929050565b61060b806100fc6000396000f3fe608060405234801561001057600080fd5b50600436106100885760003560e01c8063c21f461a1161005b578063c21f461a1461010e578063c964ad451461013c578063ef35315114610145578063f2fde38b1461014d57600080fd5b80630aa435331461008d578063715018a6146100a25780638da5cb5b146100aa578063aa849244146100ee575b600080fd5b6100a061009b366004610580565b610160565b005b6100a06101eb565b60005473ffffffffffffffffffffffffffffffffffffffff165b60405173ffffffffffffffffffffffffffffffffffffffff90911681526020015b60405180910390f35b6002546100c49073ffffffffffffffffffffffffffffffffffffffff1681565b61012e61011c366004610545565b60036020526000908152604090205481565b6040519081526020016100e5565b61012e60015481565b6100a0610278565b6100a061015b366004610545565b6103a0565b60005473ffffffffffffffffffffffffffffffffffffffff1633146101e6576040517f08c379a000000000000000000000000000000000000000000000000000000000815260206004820181905260248201527f4f776e61626c653a2063616c6c6572206973206e6f7420746865206f776e657260448201526064015b60405180910390fd5b600155565b60005473ffffffffffffffffffffffffffffffffffffffff16331461026c576040517f08c379a000000000000000000000000000000000000000000000000000000000815260206004820181905260248201527f4f776e61626c653a2063616c6c6572206973206e6f7420746865206f776e657260448201526064016101dd565b61027660006104d0565b565b336000908152600360205260409020546102959062015180610598565b42116102fd576040517f08c379a000000000000000000000000000000000000000000000000000000000815260206004820152601860248201527f526577617264206e6f7420617661696c61626c6520796574000000000000000060448201526064016101dd565b336000818152600360205260409081902042905560025460015491517f40c10f190000000000000000000000000000000000000000000000000000000081526004810193909352602483019190915273ffffffffffffffffffffffffffffffffffffffff16906340c10f1990604401600060405180830381600087803b15801561038657600080fd5b505af115801561039a573d6000803e3d6000fd5b50505050565b60005473ffffffffffffffffffffffffffffffffffffffff163314610421576040517f08c379a000000000000000000000000000000000000000000000000000000000815260206004820181905260248201527f4f776e61626c653a2063616c6c6572206973206e6f7420746865206f776e657260448201526064016101dd565b73ffffffffffffffffffffffffffffffffffffffff81166104c4576040517f08c379a000000000000000000000000000000000000000000000000000000000815260206004820152602660248201527f4f776e61626c653a206e6577206f776e657220697320746865207a65726f206160448201527f646472657373000000000000000000000000000000000000000000000000000060648201526084016101dd565b6104cd816104d0565b50565b6000805473ffffffffffffffffffffffffffffffffffffffff8381167fffffffffffffffffffffffff0000000000000000000000000000000000000000831681178455604051919092169283917f8be0079c531659141344cd1fd0a4f28419497f9722a3daafe3b4186f6b6457e09190a35050565b600060208284031215610556578081fd5b813573ffffffffffffffffffffffffffffffffffffffff81168114610579578182fd5b9392505050565b600060208284031215610591578081fd5b5035919050565b600082198211156105d0577f4e487b710000000000000000000000000000000000000000000000000000000081526011600452602481fd5b50019056fea2646970667358221220d5998c76c7318e44f44845554b776724bcf9771e5f99155301472c754144260f64736f6c63430008040033",
  "devdoc": {
    "kind": "dev",
    "methods": {
      "owner()": {
        "details": "Returns the address of the current owner."
      },
      "renounceOwnership()": {
        "details": "Leaves the contract without owner. It will not be possible to call `onlyOwner` functions anymore. Can only be called by the current owner. NOTE: Renouncing ownership will leave the contract without an owner, thereby removing any functionality that is only available to the owner."
      },
      "transferOwnership(address)": {
        "details": "Transfers ownership of the contract to a new account (`newOwner`). Can only be called by the current owner."
      }
    },
    "version": 1
  },
  "userdoc": {
    "kind": "user",
    "methods": {},
    "version": 1
  },
  "storageLayout": {
    "storage": [
      {
        "astId": 389,
        "contract": "contracts/EnergyRewarder.sol:EnergyRewarder",
        "label": "_owner",
        "offset": 0,
        "slot": "0",
        "type": "t_address"
      },
      {
        "astId": 2346,
        "contract": "contracts/EnergyRewarder.sol:EnergyRewarder",
        "label": "dailyReward",
        "offset": 0,
        "slot": "1",
        "type": "t_uint256"
      },
      {
        "astId": 2349,
        "contract": "contracts/EnergyRewarder.sol:EnergyRewarder",
        "label": "energy",
        "offset": 0,
        "slot": "2",
        "type": "t_contract(Energy)2338"
      },
      {
        "astId": 2353,
        "contract": "contracts/EnergyRewarder.sol:EnergyRewarder",
        "label": "lastDailyReward",
        "offset": 0,
        "slot": "3",
        "type": "t_mapping(t_address,t_uint256)"
      }
    ],
    "types": {
      "t_address": {
        "encoding": "inplace",
        "label": "address",
        "numberOfBytes": "20"
      },
      "t_contract(Energy)2338": {
        "encoding": "inplace",
        "label": "contract Energy",
        "numberOfBytes": "20"
      },
      "t_mapping(t_address,t_uint256)": {
        "encoding": "mapping",
        "key": "t_address",
        "label": "mapping(address => uint256)",
        "numberOfBytes": "32",
        "value": "t_uint256"
      },
      "t_uint256": {
        "encoding": "inplace",
        "label": "uint256",
        "numberOfBytes": "32"
      }
    }
  }
}