{
  "address": "0x9Fb1c7DE9A6FE1eE2fAdb22122931C1b9130111C",
  "abi": [
    {
      "anonymous": false,
      "inputs": [
        {
          "indexed": true,
          "internalType": "address",
          "name": "previousOwner",
          "type": "address"
        },
        {
          "indexed": true,
          "internalType": "address",
          "name": "newOwner",
          "type": "address"
        }
      ],
      "name": "OwnershipTransferred",
      "type": "event"
    },
    {
      "inputs": [
        {
          "internalType": "address",
          "name": "userAddress",
          "type": "address"
        },
        {
          "internalType": "address[]",
          "name": "tokenAddresses",
          "type": "address[]"
        }
      ],
      "name": "getBalances",
      "outputs": [
        {
          "internalType": "uint256[]",
          "name": "",
          "type": "uint256[]"
        }
      ],
      "stateMutability": "view",
      "type": "function"
    },
    {
      "inputs": [],
      "name": "owner",
      "outputs": [
        {
          "internalType": "address",
          "name": "",
          "type": "address"
        }
      ],
      "stateMutability": "view",
      "type": "function"
    },
    {
      "inputs": [],
      "name": "renounceOwnership",
      "outputs": [],
      "stateMutability": "nonpayable",
      "type": "function"
    },
    {
      "inputs": [
        {
          "internalType": "address",
          "name": "newOwner",
          "type": "address"
        }
      ],
      "name": "transferOwnership",
      "outputs": [],
      "stateMutability": "nonpayable",
      "type": "function"
    }
  ],
  "transactionHash": "0x775a9bb4498b8672da824055f8367cf7beba5c0103c78b6ba3dbf0d02cc9b604",
  "args": [],
  "numDeployments": 2,
  "solcInputHash": "ae4fe07755bf6288c31b4d1e88dc1bfd",
  "bytecode": "0x6080806040523461005b5760008054336001600160a01b0319821681178355916001600160a01b03909116907f8be0079c531659141344cd1fd0a4f28419497f9722a3daafe3b4186f6b6457e09084a361072d90816100618239f35b600080fdfe60806040526004361015610013575b600080fd5b6000803560e01c9081636a385ae91461006657508063715018a61461005d5780638da5cb5b146100545763f2fde38b1461004c57600080fd5b61000e610250565b5061000e6101fd565b5061000e610158565b346100fc5760407ffffffffffffffffffffffffffffffffffffffffffffffffffffffffffffffffc3601126100fc576004356100a1816100ff565b60243567ffffffffffffffff928382116100fc57366023830112156100fc5781600401359384116100fc573660248560051b840101116100fc576100f86100ec8560248501866105ae565b6040519182918261011d565b0390f35b80fd5b73ffffffffffffffffffffffffffffffffffffffff81160361000e57565b6020908160408183019282815285518094520193019160005b828110610144575050505090565b835185529381019392810192600101610136565b503461000e576000807ffffffffffffffffffffffffffffffffffffffffffffffffffffffffffffffffc3601126100fc5780547fffffffffffffffffffffffff000000000000000000000000000000000000000073ffffffffffffffffffffffffffffffffffffffff8216916101cf338414610346565b16825581604051917f8be0079c531659141344cd1fd0a4f28419497f9722a3daafe3b4186f6b6457e08284a3f35b503461000e5760007ffffffffffffffffffffffffffffffffffffffffffffffffffffffffffffffffc36011261000e57602073ffffffffffffffffffffffffffffffffffffffff60005416604051908152f35b503461000e5760207ffffffffffffffffffffffffffffffffffffffffffffffffffffffffffffffffc36011261000e5760043561028c816100ff565b73ffffffffffffffffffffffffffffffffffffffff6102b081600054163314610346565b8116156102c2576102c0906103ab565b005b60846040517f08c379a000000000000000000000000000000000000000000000000000000000815260206004820152602660248201527f4f776e61626c653a206e6577206f776e657220697320746865207a65726f206160448201527f64647265737300000000000000000000000000000000000000000000000000006064820152fd5b1561034d57565b60646040517f08c379a000000000000000000000000000000000000000000000000000000000815260206004820152602060248201527f4f776e61626c653a2063616c6c6572206973206e6f7420746865206f776e65726044820152fd5b6000549073ffffffffffffffffffffffffffffffffffffffff80911691827fffffffffffffffffffffffff0000000000000000000000000000000000000000821617600055167f8be0079c531659141344cd1fd0a4f28419497f9722a3daafe3b4186f6b6457e06000604051a3565b507f4e487b7100000000000000000000000000000000000000000000000000000000600052604160045260246000fd5b90601f7fffffffffffffffffffffffffffffffffffffffffffffffffffffffffffffffe0910116810190811067ffffffffffffffff82111761048b57604052565b61049361041a565b604052565b60209067ffffffffffffffff81116104b2575b60051b0190565b6104ba61041a565b6104ab565b7fffffffffffffffffffffffffffffffffffffffffffffffffffffffffffffffff81146104ec5760010190565b7f4e487b7100000000000000000000000000000000000000000000000000000000600052601160045260246000fd5b507f4e487b7100000000000000000000000000000000000000000000000000000000600052603260045260246000fd5b919081101561055b5760051b0190565b6104ba61051b565b3561056d816100ff565b90565b9081602091031261000e575190565b506040513d6000823e3d90fd5b60209181518110156105a1575b60051b010190565b6105a961051b565b610599565b916105b881610498565b926040906105c88251958661044a565b8285527fffffffffffffffffffffffffffffffffffffffffffffffffffffffffffffffe06105f584610498565b01916020923684880137600093845b818110610615575050505050505090565b8061064b61063261063261062d6106b895878d61054b565b610563565b73ffffffffffffffffffffffffffffffffffffffff1690565b84517f70a0823100000000000000000000000000000000000000000000000000000000815273ffffffffffffffffffffffffffffffffffffffff87166004820152908790829060249082905afa9081156106ea575b88916106bd575b506106b2828b61058c565b526104bf565b610604565b6106dd9150873d89116106e3575b6106d5818361044a565b810190610570565b386106a7565b503d6106cb565b6106f261057f565b6106a056fea26469706673582212202252cc610a063a3dcc57d95e39a83c7f710cf98f83d21894b2c5733c4d0f0f4464736f6c634300080d0033",
  "devdoc": {
    "kind": "dev",
    "methods": {
      "owner()": {
        "details": "Returns the address of the current owner."
      },
      "renounceOwnership()": {
        "details": "Leaves the contract without owner. It will not be possible to call `onlyOwner` functions anymore. Can only be called by the current owner. NOTE: Renouncing ownership will leave the contract without an owner, thereby removing any functionality that is only available to the owner."
      },
      "transferOwnership(address)": {
        "details": "Transfers ownership of the contract to a new account (`newOwner`). Can only be called by the current owner."
      }
    },
    "version": 1
  },
  "userdoc": {
    "kind": "user",
    "methods": {},
    "version": 1
  },
  "storageLayout": {
    "storage": [
      {
        "astId": 400,
        "contract": "contracts/multicall/ERC20Balances.sol:ERC20Balances",
        "label": "_owner",
        "offset": 0,
        "slot": "0",
        "type": "t_address"
      }
    ],
    "types": {
      "t_address": {
        "encoding": "inplace",
        "label": "address",
        "numberOfBytes": "20"
      }
    }
  }
}