{
  "address": "0xF647cd04667320E653Ce8dF13010bD111F55fDb8",
  "abi": [
    {
      "inputs": [
        {
          "internalType": "address",
          "name": "_energy",
          "type": "address"
        }
      ],
      "stateMutability": "nonpayable",
      "type": "constructor"
    },
    {
      "anonymous": false,
      "inputs": [
        {
          "indexed": true,
          "internalType": "uint256",
          "name": "index",
          "type": "uint256"
        },
        {
          "indexed": false,
          "internalType": "string",
          "name": "title",
          "type": "string"
        },
        {
          "indexed": true,
          "internalType": "address",
          "name": "creator",
          "type": "address"
        }
      ],
      "name": "FeatureAdded",
      "type": "event"
    },
    {
      "anonymous": false,
      "inputs": [
        {
          "indexed": true,
          "internalType": "uint256",
          "name": "index",
          "type": "uint256"
        },
        {
          "indexed": false,
          "internalType": "bool",
          "name": "active",
          "type": "bool"
        },
        {
          "indexed": false,
          "internalType": "bool",
          "name": "finished",
          "type": "bool"
        }
      ],
      "name": "FeatureStatusUpdated",
      "type": "event"
    },
    {
      "anonymous": false,
      "inputs": [
        {
          "indexed": true,
          "internalType": "address",
          "name": "voter",
          "type": "address"
        },
        {
          "indexed": true,
          "internalType": "uint256",
          "name": "index",
          "type": "uint256"
        },
        {
          "indexed": false,
          "internalType": "uint256",
          "name": "votes",
          "type": "uint256"
        }
      ],
      "name": "FeatureVoted",
      "type": "event"
    },
    {
      "anonymous": false,
      "inputs": [
        {
          "indexed": true,
          "internalType": "address",
          "name": "previousOwner",
          "type": "address"
        },
        {
          "indexed": true,
          "internalType": "address",
          "name": "newOwner",
          "type": "address"
        }
      ],
      "name": "OwnershipTransferred",
      "type": "event"
    },
    {
      "inputs": [
        {
          "internalType": "string",
          "name": "_title",
          "type": "string"
        },
        {
          "internalType": "uint256",
          "name": "_votes",
          "type": "uint256"
        }
      ],
      "name": "addFeature",
      "outputs": [
        {
          "internalType": "uint256",
          "name": "index",
          "type": "uint256"
        }
      ],
      "stateMutability": "nonpayable",
      "type": "function"
    },
    {
      "inputs": [
        {
          "internalType": "uint256",
          "name": "_index",
          "type": "uint256"
        }
      ],
      "name": "featureFinished",
      "outputs": [],
      "stateMutability": "nonpayable",
      "type": "function"
    },
    {
      "inputs": [
        {
          "internalType": "uint256",
          "name": "",
          "type": "uint256"
        }
      ],
      "name": "features",
      "outputs": [
        {
          "internalType": "address",
          "name": "creator",
          "type": "address"
        },
        {
          "internalType": "uint256",
          "name": "votes",
          "type": "uint256"
        },
        {
          "internalType": "string",
          "name": "title",
          "type": "string"
        },
        {
          "internalType": "bool",
          "name": "active",
          "type": "bool"
        },
        {
          "internalType": "bool",
          "name": "finished",
          "type": "bool"
        }
      ],
      "stateMutability": "view",
      "type": "function"
    },
    {
      "inputs": [],
      "name": "getFeatures",
      "outputs": [
        {
          "components": [
            {
              "internalType": "address",
              "name": "creator",
              "type": "address"
            },
            {
              "internalType": "uint256",
              "name": "votes",
              "type": "uint256"
            },
            {
              "internalType": "string",
              "name": "title",
              "type": "string"
            },
            {
              "internalType": "bool",
              "name": "active",
              "type": "bool"
            },
            {
              "internalType": "bool",
              "name": "finished",
              "type": "bool"
            }
          ],
          "internalType": "struct FeatureVoting.Feature[]",
          "name": "",
          "type": "tuple[]"
        }
      ],
      "stateMutability": "view",
      "type": "function"
    },
    {
      "inputs": [],
      "name": "owner",
      "outputs": [
        {
          "internalType": "address",
          "name": "",
          "type": "address"
        }
      ],
      "stateMutability": "view",
      "type": "function"
    },
    {
      "inputs": [],
      "name": "renounceOwnership",
      "outputs": [],
      "stateMutability": "nonpayable",
      "type": "function"
    },
    {
      "inputs": [
        {
          "internalType": "uint256",
          "name": "_index",
          "type": "uint256"
        },
        {
          "internalType": "bool",
          "name": "_active",
          "type": "bool"
        }
      ],
      "name": "setActive",
      "outputs": [],
      "stateMutability": "nonpayable",
      "type": "function"
    },
    {
      "inputs": [],
      "name": "totalFeaturesCount",
      "outputs": [
        {
          "internalType": "uint256",
          "name": "count",
          "type": "uint256"
        }
      ],
      "stateMutability": "view",
      "type": "function"
    },
    {
      "inputs": [
        {
          "internalType": "address",
          "name": "newOwner",
          "type": "address"
        }
      ],
      "name": "transferOwnership",
      "outputs": [],
      "stateMutability": "nonpayable",
      "type": "function"
    },
    {
      "inputs": [
        {
          "internalType": "uint256",
          "name": "_index",
          "type": "uint256"
        },
        {
          "internalType": "uint256",
          "name": "_votes",
          "type": "uint256"
        }
      ],
      "name": "vote",
      "outputs": [],
      "stateMutability": "nonpayable",
      "type": "function"
    }
  ],
  "transactionHash": "0x8da70e76f7de241f0bce910ffcab5cb918c2930246694a9e80bcecaecac8b64d",
  "args": [
    "0x84c4e1f2965235f60073e3029788888252c4557e"
  ],
  "numDeployments": 2,
  "solcInputHash": "e5f4a56fc0d021f11bf3d7ca12a2d904",
  "bytecode": "0x60803461006757601f61139238819003918201601f19168301916001600160401b0383118484101761006c5780849260209460405283398101031261006757516001600160a01b03811681036100675761005890610082565b6040516112bc90816100d68239f35b600080fd5b634e487b7160e01b600052604160045260246000fd5b60005460018060a01b031991338383161760005560018060a01b0391823391167f8be0079c531659141344cd1fd0a4f28419497f9722a3daafe3b4186f6b6457e06000604051a31690600154161760015556fe60806040526004361015610013575b600080fd5b6000803560e01c90816329e38e5b146100de57508063368a7498146100d5578063715018a6146100cc5780637961820e146100c35780637dfcc71a146100ba5780638da5cb5b146100b15780638ede6f9f146100a8578063b384abef1461009f578063e60a955d146100965763f2fde38b1461008e57600080fd5b61000e610ae2565b5061000e6109f7565b5061000e6109ad565b5061000e6108f9565b5061000e61071a565b5061000e610601565b5061000e610489565b5061000e6103e4565b5061000e610264565b346101c75760407ffffffffffffffffffffffffffffffffffffffffffffffffffffffffffffffffc3601126101c75760043567ffffffffffffffff8082116101c357366023830112156101c35781600401359081116101b6575b6040519161016e60207fffffffffffffffffffffffffffffffffffffffffffffffffffffffffffffffe0601f8501160184610223565b81835236602483830101116101b2579260208261019e949360246101ae9701838601378301015260243590610d7c565b6040519081529081906020820190565b0390f35b8380fd5b6101be6101ca565b610138565b8280fd5b80fd5b507f4e487b7100000000000000000000000000000000000000000000000000000000600052604160045260246000fd5b60a0810190811067ffffffffffffffff82111761021657604052565b61021e6101ca565b604052565b90601f7fffffffffffffffffffffffffffffffffffffffffffffffffffffffffffffffe0910116810190811067ffffffffffffffff82111761021657604052565b503461000e5760207ffffffffffffffffffffffffffffffffffffffffffffffffffffffffffffffffc36011261000e576004356102ba73ffffffffffffffffffffffffffffffffffffffff600054163314610bd6565b60ff60036102c78361079d565b50015460081c166103865761030e60036102e08361079d565b50016101007fffffffffffffffffffffffffffffffffffffffffffffffffffffffffffff00ff825416179055565b610346600361031c8361079d565b50017fffffffffffffffffffffffffffffffffffffffffffffffffffffffffffffff008154169055565b7f03ecf44541c1af4c2c08b8d9043cc8d6b6b9345fc57cc66487bbca984367c2fb604051806103818190600160206040840193600081520152565b0390a2005b60646040517f08c379a000000000000000000000000000000000000000000000000000000000815260206004820152602060248201527f46656174757265207265717565737420616c72656164792066696e69736865646044820152fd5b503461000e576000807ffffffffffffffffffffffffffffffffffffffffffffffffffffffffffffffffc3601126101c75780547fffffffffffffffffffffffff000000000000000000000000000000000000000073ffffffffffffffffffffffffffffffffffffffff82169161045b338414610bd6565b16825581604051917f8be0079c531659141344cd1fd0a4f28419497f9722a3daafe3b4186f6b6457e08284a3f35b503461000e5760007ffffffffffffffffffffffffffffffffffffffffffffffffffffffffffffffffc36011261000e576020600254604051908152f35b91908251928382526000905b84821061051d5750601f84602094957fffffffffffffffffffffffffffffffffffffffffffffffffffffffffffffffe09311610510575b0116010190565b6000858286010152610509565b906020908180828501015190828601015201906104d2565b602080820190808352835180925260409283810182858560051b8401019601946000925b85841061056a575050505050505090565b909192939495968580827fffffffffffffffffffffffffffffffffffffffffffffffffffffffffffffffc085600195030187528a519073ffffffffffffffffffffffffffffffffffffffff825116815282820151838201526105d88783015160a0808a8501528301906104c6565b916060808201511515908301526080809101511515910152990194019401929594939190610559565b503461000e5760007ffffffffffffffffffffffffffffffffffffffffffffffffffffffffffffffffc36011261000e57600280549067ffffffffffffffff821161070d575b604091825191602061065d818460051b0185610223565b8284526000828152917f405787fa12a823e0f2b7631cc41b3ba8828b3321ca811111fa75cd3aa3bb5ace908286015b8585106106a0578751806101ae8982610535565b6004846001928a516106b1816101fa565b73ffffffffffffffffffffffffffffffffffffffff875416815284870154838201526106de868801610838565b8c820152600387015460ff908181161515606084015260081c161515608082015281520193019401939161068c565b6107156101ca565b610646565b503461000e5760007ffffffffffffffffffffffffffffffffffffffffffffffffffffffffffffffffc36011261000e57602073ffffffffffffffffffffffffffffffffffffffff60005416604051908152f35b507f4e487b7100000000000000000000000000000000000000000000000000000000600052603260045260246000fd5b6002548110156107d8575b600260005260021b7f405787fa12a823e0f2b7631cc41b3ba8828b3321ca811111fa75cd3aa3bb5ace0190600090565b6107e061076d565b6107a8565b90600182811c9216801561082e575b60208310146107ff57565b7f4e487b7100000000000000000000000000000000000000000000000000000000600052602260045260246000fd5b91607f16916107f4565b906040519182600082549261084c846107e5565b9081845260019485811690816000146108bb5750600114610878575b505061087692500383610223565b565b9093915060005260209081600020936000915b8183106108a357505061087693508201013880610868565b8554888401850152948501948794509183019161088b565b9450505050507fffffffffffffffffffffffffffffffffffffffffffffffffffffffffffffff00915016602083015261087682604081013880610868565b503461000e5760207ffffffffffffffffffffffffffffffffffffffffffffffffffffffffffffffffc36011261000e5760043560025481101561000e5761093f9061079d565b5073ffffffffffffffffffffffffffffffffffffffff81541660018201549160ff610993600361097160028501610838565b930154926040519586958652602086015260a0604086015260a08501906104c6565b918181161515606085015260081c16151560808301520390f35b503461000e5760407ffffffffffffffffffffffffffffffffffffffffffffffffffffffffffffffffc36011261000e576109eb60243560043561112d565b005b8015150361000e57565b503461000e5760407ffffffffffffffffffffffffffffffffffffffffffffffffffffffffffffffffc36011261000e576004357f03ecf44541c1af4c2c08b8d9043cc8d6b6b9345fc57cc66487bbca984367c2fb6040602435610a59816109ed565b610a7c73ffffffffffffffffffffffffffffffffffffffff600054163314610bd6565b610abd816003610a8b8761079d565b50019060ff7fffffffffffffffffffffffffffffffffffffffffffffffffffffffffffffff0083541691151516179055565b60ff6003610aca8661079d565b50015460081c168251911515825215156020820152a2005b503461000e5760207ffffffffffffffffffffffffffffffffffffffffffffffffffffffffffffffffc36011261000e5760043573ffffffffffffffffffffffffffffffffffffffff8082169081830361000e57610b4490600054163314610bd6565b15610b52576109eb90610c3b565b60846040517f08c379a000000000000000000000000000000000000000000000000000000000815260206004820152602660248201527f4f776e61626c653a206e6577206f776e657220697320746865207a65726f206160448201527f64647265737300000000000000000000000000000000000000000000000000006064820152fd5b15610bdd57565b60646040517f08c379a000000000000000000000000000000000000000000000000000000000815260206004820152602060248201527f4f776e61626c653a2063616c6c6572206973206e6f7420746865206f776e65726044820152fd5b6000549073ffffffffffffffffffffffffffffffffffffffff80911691827fffffffffffffffffffffffff0000000000000000000000000000000000000000821617600055167f8be0079c531659141344cd1fd0a4f28419497f9722a3daafe3b4186f6b6457e06000604051a3565b90601f8111610cb857505050565b600091825260208220906020601f850160051c83019410610cf4575b601f0160051c01915b828110610ce957505050565b818155600101610cdd565b9092508290610cd4565b507f4e487b7100000000000000000000000000000000000000000000000000000000600052601160045260246000fd5b7fffffffffffffffffffffffffffffffffffffffffffffffffffffffffffffffff9060018110610d5c570190565b610d64610cfe565b0190565b906020610d799281815201906104c6565b90565b919060405190610d8b826101fa565b60209182810160009182825260408101606082019360808301938185523384526001908187528a8452610dd760025468010000000000000000811015611092575b83810160025561079d565b959095611066575185547fffffffffffffffffffffffff00000000000000000000000000000000000000001673ffffffffffffffffffffffffffffffffffffffff9190911617855551818501556002840192519182519267ffffffffffffffff8411611059575b610e5284610e4c87546107e5565b87610caa565b8991601f8511600114610f96576108769a509484610ebb9481610eec97600396610ef29b96610f259e9d9b93610f6b575b50507fffffffffffffffffffffffffffffffffffffffffffffffffffffffffffffffff91921b92861b1c19161790555b019451151590565b849060ff7fffffffffffffffffffffffffffffffffffffffffffffffffffffffffffffff0083541691151516179055565b51151590565b81547fffffffffffffffffffffffffffffffffffffffffffffffffffffffffffff00ff1690151560081b61ff0016179055565b610f30600254610d2e565b93847ffa5fbe72c0c4a288169c9480706f982ddc961553cee567586552fc49788644d860405180610f62339582610d68565b0390a38361112d565b015191507fffffffffffffffffffffffffffffffffffffffffffffffffffffffffffffffff38610e83565b929495969798997fffffffffffffffffffffffffffffffffffffffffffffffffffffffffffffffe0851690610fd088600052602060002090565b94905b82821061104257505095610f25989585610ebb956003956108769e9d9b95610eec99610ef29c1061100c575b505050811b019055610eb3565b01517fffffffffffffffffffffffffffffffffffffffffffffffffffffffffffffffff60f884891b161c19169055388080610fff565b808886978294978701518155019601940190610fd3565b6110616101ca565b610e3e565b6024847f4e487b7100000000000000000000000000000000000000000000000000000000815280600452fd5b61109a6101ca565b610dcc565b156110a657565b60646040517f08c379a000000000000000000000000000000000000000000000000000000000815260206004820152601560248201527f46656174757265206973206e6f742061637469766500000000000000000000006044820152fd5b9081602091031261000e5751610d79816109ed565b506040513d6000823e3d90fd5b1561000e57565b9061114d611148600361113f8561079d565b50015460ff1690565b61109f565b6111ea61118b61117260015473ffffffffffffffffffffffffffffffffffffffff1690565b73ffffffffffffffffffffffffffffffffffffffff1690565b6040517f23b872dd0000000000000000000000000000000000000000000000000000000081523360048201523060248201526044810184905290602090829060649082906000905af190811561126d575b60009161123f575b50611126565b6112018160016111f98561079d565b50015461127a565b600161120c8461079d565b50015560405190815233907fc2617f46bad219e52991b2a4de30936ed663132ea903afef2ddf4428ff72733090602090a3565b611260915060203d8111611266575b6112588183610223565b810190611104565b386111e4565b503d61124e565b611275611119565b6111dc565b81198111610d5c57019056fea26469706673582212203be3c5792d9312ebe4b293d35a76b171dbbb4be73eb82d51aaec53db62d6420264736f6c634300080d0033",
  "devdoc": {
    "kind": "dev",
    "methods": {
      "owner()": {
        "details": "Returns the address of the current owner."
      },
      "renounceOwnership()": {
        "details": "Leaves the contract without owner. It will not be possible to call `onlyOwner` functions anymore. Can only be called by the current owner. NOTE: Renouncing ownership will leave the contract without an owner, thereby removing any functionality that is only available to the owner."
      },
      "transferOwnership(address)": {
        "details": "Transfers ownership of the contract to a new account (`newOwner`). Can only be called by the current owner."
      }
    },
    "version": 1
  },
  "userdoc": {
    "kind": "user",
    "methods": {},
    "version": 1
  },
  "storageLayout": {
    "storage": [
      {
        "astId": 389,
        "contract": "contracts/FeatureVoting.sol:FeatureVoting",
        "label": "_owner",
        "offset": 0,
        "slot": "0",
        "type": "t_address"
      },
      {
        "astId": 2593,
        "contract": "contracts/FeatureVoting.sol:FeatureVoting",
        "label": "energy",
        "offset": 0,
        "slot": "1",
        "type": "t_contract(IERC20)1202"
      },
      {
        "astId": 2597,
        "contract": "contracts/FeatureVoting.sol:FeatureVoting",
        "label": "features",
        "offset": 0,
        "slot": "2",
        "type": "t_array(t_struct(Feature)2590_storage)dyn_storage"
      }
    ],
    "types": {
      "t_address": {
        "encoding": "inplace",
        "label": "address",
        "numberOfBytes": "20"
      },
      "t_array(t_struct(Feature)2590_storage)dyn_storage": {
        "base": "t_struct(Feature)2590_storage",
        "encoding": "dynamic_array",
        "label": "struct FeatureVoting.Feature[]",
        "numberOfBytes": "32"
      },
      "t_bool": {
        "encoding": "inplace",
        "label": "bool",
        "numberOfBytes": "1"
      },
      "t_contract(IERC20)1202": {
        "encoding": "inplace",
        "label": "contract IERC20",
        "numberOfBytes": "20"
      },
      "t_string_storage": {
        "encoding": "bytes",
        "label": "string",
        "numberOfBytes": "32"
      },
      "t_struct(Feature)2590_storage": {
        "encoding": "inplace",
        "label": "struct FeatureVoting.Feature",
        "members": [
          {
            "astId": 2581,
            "contract": "contracts/FeatureVoting.sol:FeatureVoting",
            "label": "creator",
            "offset": 0,
            "slot": "0",
            "type": "t_address"
          },
          {
            "astId": 2583,
            "contract": "contracts/FeatureVoting.sol:FeatureVoting",
            "label": "votes",
            "offset": 0,
            "slot": "1",
            "type": "t_uint256"
          },
          {
            "astId": 2585,
            "contract": "contracts/FeatureVoting.sol:FeatureVoting",
            "label": "title",
            "offset": 0,
            "slot": "2",
            "type": "t_string_storage"
          },
          {
            "astId": 2587,
            "contract": "contracts/FeatureVoting.sol:FeatureVoting",
            "label": "active",
            "offset": 0,
            "slot": "3",
            "type": "t_bool"
          },
          {
            "astId": 2589,
            "contract": "contracts/FeatureVoting.sol:FeatureVoting",
            "label": "finished",
            "offset": 1,
            "slot": "3",
            "type": "t_bool"
          }
        ],
        "numberOfBytes": "128"
      },
      "t_uint256": {
        "encoding": "inplace",
        "label": "uint256",
        "numberOfBytes": "32"
      }
    }
  }
}