{
  "address": "0xFC74AB20AD6123EC1376419A718d24C55aF3976E",
  "abi": [
    {
      "inputs": [
        {
          "internalType": "address",
          "name": "_energy",
          "type": "address"
        }
      ],
      "stateMutability": "nonpayable",
      "type": "constructor"
    },
    {
      "anonymous": false,
      "inputs": [
        {
          "indexed": true,
          "internalType": "uint256",
          "name": "index",
          "type": "uint256"
        },
        {
          "indexed": false,
          "internalType": "string",
          "name": "title",
          "type": "string"
        },
        {
          "indexed": true,
          "internalType": "address",
          "name": "creator",
          "type": "address"
        }
      ],
      "name": "FeatureAdded",
      "type": "event"
    },
    {
      "anonymous": false,
      "inputs": [
        {
          "indexed": true,
          "internalType": "uint256",
          "name": "index",
          "type": "uint256"
        },
        {
          "indexed": false,
          "internalType": "bool",
          "name": "active",
          "type": "bool"
        },
        {
          "indexed": false,
          "internalType": "bool",
          "name": "finished",
          "type": "bool"
        }
      ],
      "name": "FeatureStatusUpdated",
      "type": "event"
    },
    {
      "anonymous": false,
      "inputs": [
        {
          "indexed": true,
          "internalType": "address",
          "name": "voter",
          "type": "address"
        },
        {
          "indexed": true,
          "internalType": "uint256",
          "name": "index",
          "type": "uint256"
        },
        {
          "indexed": false,
          "internalType": "uint256",
          "name": "votes",
          "type": "uint256"
        }
      ],
      "name": "FeatureVoted",
      "type": "event"
    },
    {
      "anonymous": false,
      "inputs": [
        {
          "indexed": true,
          "internalType": "address",
          "name": "previousOwner",
          "type": "address"
        },
        {
          "indexed": true,
          "internalType": "address",
          "name": "newOwner",
          "type": "address"
        }
      ],
      "name": "OwnershipTransferred",
      "type": "event"
    },
    {
      "inputs": [
        {
          "internalType": "string",
          "name": "_title",
          "type": "string"
        },
        {
          "internalType": "uint256",
          "name": "_votes",
          "type": "uint256"
        }
      ],
      "name": "addFeature",
      "outputs": [
        {
          "internalType": "uint256",
          "name": "index",
          "type": "uint256"
        }
      ],
      "stateMutability": "nonpayable",
      "type": "function"
    },
    {
      "inputs": [
        {
          "internalType": "uint256",
          "name": "_index",
          "type": "uint256"
        }
      ],
      "name": "featureFinished",
      "outputs": [],
      "stateMutability": "nonpayable",
      "type": "function"
    },
    {
      "inputs": [
        {
          "internalType": "uint256",
          "name": "",
          "type": "uint256"
        }
      ],
      "name": "features",
      "outputs": [
        {
          "internalType": "address",
          "name": "creator",
          "type": "address"
        },
        {
          "internalType": "uint256",
          "name": "votes",
          "type": "uint256"
        },
        {
          "internalType": "string",
          "name": "title",
          "type": "string"
        },
        {
          "internalType": "bool",
          "name": "active",
          "type": "bool"
        },
        {
          "internalType": "bool",
          "name": "finished",
          "type": "bool"
        }
      ],
      "stateMutability": "view",
      "type": "function"
    },
    {
      "inputs": [],
      "name": "owner",
      "outputs": [
        {
          "internalType": "address",
          "name": "",
          "type": "address"
        }
      ],
      "stateMutability": "view",
      "type": "function"
    },
    {
      "inputs": [],
      "name": "renounceOwnership",
      "outputs": [],
      "stateMutability": "nonpayable",
      "type": "function"
    },
    {
      "inputs": [
        {
          "internalType": "uint256",
          "name": "_index",
          "type": "uint256"
        },
        {
          "internalType": "bool",
          "name": "_active",
          "type": "bool"
        }
      ],
      "name": "setActive",
      "outputs": [],
      "stateMutability": "nonpayable",
      "type": "function"
    },
    {
      "inputs": [],
      "name": "totalFeaturesCount",
      "outputs": [
        {
          "internalType": "uint256",
          "name": "count",
          "type": "uint256"
        }
      ],
      "stateMutability": "view",
      "type": "function"
    },
    {
      "inputs": [
        {
          "internalType": "address",
          "name": "newOwner",
          "type": "address"
        }
      ],
      "name": "transferOwnership",
      "outputs": [],
      "stateMutability": "nonpayable",
      "type": "function"
    },
    {
      "inputs": [
        {
          "internalType": "uint256",
          "name": "_index",
          "type": "uint256"
        },
        {
          "internalType": "uint256",
          "name": "_votes",
          "type": "uint256"
        }
      ],
      "name": "vote",
      "outputs": [],
      "stateMutability": "nonpayable",
      "type": "function"
    }
  ],
  "transactionHash": "0x51133d3a79d913d5bfd2a3afa268b36e24be120ef3d935eeef2465896a9f99e3",
  "args": [
    "0x305dbFD4e55C35c16aFdC5D8c470DaB195FA54C7"
  ],
  "numDeployments": 1,
  "solcInputHash": "22cc520bfe51e0bf57b68869fa798d24",
  "bytecode": "0x608060405234801561001057600080fd5b506040516111e23803806111e283398101604081905261002f916100ad565b6100383361005d565b600180546001600160a01b0319166001600160a01b03929092169190911790556100db565b600080546001600160a01b038381166001600160a01b0319831681178455604051919092169283917f8be0079c531659141344cd1fd0a4f28419497f9722a3daafe3b4186f6b6457e09190a35050565b6000602082840312156100be578081fd5b81516001600160a01b03811681146100d4578182fd5b9392505050565b6110f8806100ea6000396000f3fe608060405234801561001057600080fd5b50600436106100a35760003560e01c80638da5cb5b11610076578063b384abef1161005b578063b384abef1461013f578063e60a955d14610152578063f2fde38b1461016557600080fd5b80638da5cb5b146100f35780638ede6f9f1461011b57600080fd5b806329e38e5b146100a8578063368a7498146100ce578063715018a6146100e35780637961820e146100eb575b600080fd5b6100bb6100b6366004610dd1565b610178565b6040519081526020015b60405180910390f35b6100e16100dc366004610ea1565b610358565b005b6100e16105c2565b6002546100bb565b60005460405173ffffffffffffffffffffffffffffffffffffffff90911681526020016100c5565b61012e610129366004610ea1565b61064f565b6040516100c5959493929190610f72565b6100e161014d366004610ee8565b610737565b6100e1610160366004610eb9565b6109a9565b6100e1610173366004610d81565b610b30565b6040805160a08101825260006020808301828152608084018390523384526001606085018190529484018781526002805496870181558452845160049096027f405787fa12a823e0f2b7631cc41b3ba8828b3321ca811111fa75cd3aa3bb5ace8101805473ffffffffffffffffffffffffffffffffffffffff9098167fffffffffffffffffffffffff000000000000000000000000000000000000000090981697909717875591517f405787fa12a823e0f2b7631cc41b3ba8828b3321ca811111fa75cd3aa3bb5acf83015551805193958594909361027b937f405787fa12a823e0f2b7631cc41b3ba8828b3321ca811111fa75cd3aa3bb5ad001920190610ce8565b506060820151600390910180546080909301511515610100027fffffffffffffffffffffffffffffffffffffffffffffffffffffffffffff00ff921515929092167fffffffffffffffffffffffffffffffffffffffffffffffffffffffffffff0000909316929092171790556002546102f690600190610feb565b91503373ffffffffffffffffffffffffffffffffffffffff16827ffa5fbe72c0c4a288169c9480706f982ddc961553cee567586552fc49788644d88660405161033f9190610fc0565b60405180910390a36103518284610737565b5092915050565b60005473ffffffffffffffffffffffffffffffffffffffff1633146103de576040517f08c379a000000000000000000000000000000000000000000000000000000000815260206004820181905260248201527f4f776e61626c653a2063616c6c6572206973206e6f7420746865206f776e657260448201526064015b60405180910390fd5b60028181548110610418577f4e487b7100000000000000000000000000000000000000000000000000000000600052603260045260246000fd5b906000526020600020906004020160030160019054906101000a900460ff161561049e576040517f08c379a000000000000000000000000000000000000000000000000000000000815260206004820181905260248201527f46656174757265207265717565737420616c72656164792066696e697368656460448201526064016103d5565b6001600282815481106104da577f4e487b7100000000000000000000000000000000000000000000000000000000600052603260045260246000fd5b906000526020600020906004020160030160016101000a81548160ff02191690831515021790555060006002828154811061053e577f4e487b7100000000000000000000000000000000000000000000000000000000600052603260045260246000fd5b6000918252602080832060049290920290910160030180547fffffffffffffffffffffffffffffffffffffffffffffffffffffffffffffff0016931515939093179092556040805191825260019282019290925282917f03ecf44541c1af4c2c08b8d9043cc8d6b6b9345fc57cc66487bbca984367c2fb910160405180910390a250565b60005473ffffffffffffffffffffffffffffffffffffffff163314610643576040517f08c379a000000000000000000000000000000000000000000000000000000000815260206004820181905260248201527f4f776e61626c653a2063616c6c6572206973206e6f7420746865206f776e657260448201526064016103d5565b61064d6000610c60565b565b6002818154811061065f57600080fd5b600091825260209091206004909102018054600182015460028301805473ffffffffffffffffffffffffffffffffffffffff90931694509092916106a290611002565b80601f01602080910402602001604051908101604052809291908181526020018280546106ce90611002565b801561071b5780601f106106f05761010080835404028352916020019161071b565b820191906000526020600020905b8154815290600101906020018083116106fe57829003601f168201915b5050506003909301549192505060ff8082169161010090041685565b60028281548110610771577f4e487b7100000000000000000000000000000000000000000000000000000000600052603260045260246000fd5b600091825260209091206003600490920201015460ff166107ee576040517f08c379a000000000000000000000000000000000000000000000000000000000815260206004820152601560248201527f46656174757265206973206e6f7420616374697665000000000000000000000060448201526064016103d5565b6001546040517f23b872dd0000000000000000000000000000000000000000000000000000000081523360048201523060248201526044810183905273ffffffffffffffffffffffffffffffffffffffff909116906323b872dd90606401602060405180830381600087803b15801561086657600080fd5b505af115801561087a573d6000803e3d6000fd5b505050506040513d601f19601f8201168201806040525081019061089e9190610db5565b6108a757600080fd5b61090581600284815481106108e5577f4e487b7100000000000000000000000000000000000000000000000000000000600052603260045260246000fd5b906000526020600020906004020160010154610cd590919063ffffffff16565b6002838154811061093f577f4e487b7100000000000000000000000000000000000000000000000000000000600052603260045260246000fd5b906000526020600020906004020160010181905550813373ffffffffffffffffffffffffffffffffffffffff167fc2617f46bad219e52991b2a4de30936ed663132ea903afef2ddf4428ff7273308360405161099d91815260200190565b60405180910390a35050565b60005473ffffffffffffffffffffffffffffffffffffffff163314610a2a576040517f08c379a000000000000000000000000000000000000000000000000000000000815260206004820181905260248201527f4f776e61626c653a2063616c6c6572206973206e6f7420746865206f776e657260448201526064016103d5565b8060028381548110610a65577f4e487b7100000000000000000000000000000000000000000000000000000000600052603260045260246000fd5b906000526020600020906004020160030160006101000a81548160ff021916908315150217905550817f03ecf44541c1af4c2c08b8d9043cc8d6b6b9345fc57cc66487bbca984367c2fb8260028581548110610aea577f4e487b7100000000000000000000000000000000000000000000000000000000600052603260045260246000fd5b906000526020600020906004020160030160019054906101000a900460ff16604051610b2492919091151582521515602082015260400190565b60405180910390a25050565b60005473ffffffffffffffffffffffffffffffffffffffff163314610bb1576040517f08c379a000000000000000000000000000000000000000000000000000000000815260206004820181905260248201527f4f776e61626c653a2063616c6c6572206973206e6f7420746865206f776e657260448201526064016103d5565b73ffffffffffffffffffffffffffffffffffffffff8116610c54576040517f08c379a000000000000000000000000000000000000000000000000000000000815260206004820152602660248201527f4f776e61626c653a206e6577206f776e657220697320746865207a65726f206160448201527f646472657373000000000000000000000000000000000000000000000000000060648201526084016103d5565b610c5d81610c60565b50565b6000805473ffffffffffffffffffffffffffffffffffffffff8381167fffffffffffffffffffffffff0000000000000000000000000000000000000000831681178455604051919092169283917f8be0079c531659141344cd1fd0a4f28419497f9722a3daafe3b4186f6b6457e09190a35050565b6000610ce18284610fd3565b9392505050565b828054610cf490611002565b90600052602060002090601f016020900481019282610d165760008555610d5c565b82601f10610d2f57805160ff1916838001178555610d5c565b82800160010185558215610d5c579182015b82811115610d5c578251825591602001919060010190610d41565b50610d68929150610d6c565b5090565b5b80821115610d685760008155600101610d6d565b600060208284031215610d92578081fd5b813573ffffffffffffffffffffffffffffffffffffffff81168114610ce1578182fd5b600060208284031215610dc6578081fd5b8151610ce1816110b4565b60008060408385031215610de3578081fd5b823567ffffffffffffffff80821115610dfa578283fd5b818501915085601f830112610e0d578283fd5b813581811115610e1f57610e1f611085565b604051601f82017fffffffffffffffffffffffffffffffffffffffffffffffffffffffffffffffe0908116603f01168101908382118183101715610e6557610e65611085565b81604052828152886020848701011115610e7d578586fd5b82602086016020830137918201602090810195909552509694909201359450505050565b600060208284031215610eb2578081fd5b5035919050565b60008060408385031215610ecb578182fd5b823591506020830135610edd816110b4565b809150509250929050565b60008060408385031215610efa578182fd5b50508035926020909101359150565b60008151808452815b81811015610f2e57602081850181015186830182015201610f12565b81811115610f3f5782602083870101525b50601f017fffffffffffffffffffffffffffffffffffffffffffffffffffffffffffffffe0169290920160200192915050565b73ffffffffffffffffffffffffffffffffffffffff8616815284602082015260a060408201526000610fa760a0830186610f09565b9315156060830152509015156080909101529392505050565b602081526000610ce16020830184610f09565b60008219821115610fe657610fe6611056565b500190565b600082821015610ffd57610ffd611056565b500390565b600181811c9082168061101657607f821691505b60208210811415611050577f4e487b7100000000000000000000000000000000000000000000000000000000600052602260045260246000fd5b50919050565b7f4e487b7100000000000000000000000000000000000000000000000000000000600052601160045260246000fd5b7f4e487b7100000000000000000000000000000000000000000000000000000000600052604160045260246000fd5b8015158114610c5d57600080fdfea26469706673582212205291991c11f0b117d4b523b51fc2456a0a07f95d6b96a4cc3df354050a17fb2d64736f6c63430008040033",
  "devdoc": {
    "kind": "dev",
    "methods": {
      "owner()": {
        "details": "Returns the address of the current owner."
      },
      "renounceOwnership()": {
        "details": "Leaves the contract without owner. It will not be possible to call `onlyOwner` functions anymore. Can only be called by the current owner. NOTE: Renouncing ownership will leave the contract without an owner, thereby removing any functionality that is only available to the owner."
      },
      "transferOwnership(address)": {
        "details": "Transfers ownership of the contract to a new account (`newOwner`). Can only be called by the current owner."
      }
    },
    "version": 1
  },
  "userdoc": {
    "kind": "user",
    "methods": {},
    "version": 1
  },
  "storageLayout": {
    "storage": [
      {
        "astId": 389,
        "contract": "contracts/FeatureVoting.sol:FeatureVoting",
        "label": "_owner",
        "offset": 0,
        "slot": "0",
        "type": "t_address"
      },
      {
        "astId": 2441,
        "contract": "contracts/FeatureVoting.sol:FeatureVoting",
        "label": "energy",
        "offset": 0,
        "slot": "1",
        "type": "t_contract(IERC20)1110"
      },
      {
        "astId": 2445,
        "contract": "contracts/FeatureVoting.sol:FeatureVoting",
        "label": "features",
        "offset": 0,
        "slot": "2",
        "type": "t_array(t_struct(Feature)2438_storage)dyn_storage"
      }
    ],
    "types": {
      "t_address": {
        "encoding": "inplace",
        "label": "address",
        "numberOfBytes": "20"
      },
      "t_array(t_struct(Feature)2438_storage)dyn_storage": {
        "base": "t_struct(Feature)2438_storage",
        "encoding": "dynamic_array",
        "label": "struct FeatureVoting.Feature[]",
        "numberOfBytes": "32"
      },
      "t_bool": {
        "encoding": "inplace",
        "label": "bool",
        "numberOfBytes": "1"
      },
      "t_contract(IERC20)1110": {
        "encoding": "inplace",
        "label": "contract IERC20",
        "numberOfBytes": "20"
      },
      "t_string_storage": {
        "encoding": "bytes",
        "label": "string",
        "numberOfBytes": "32"
      },
      "t_struct(Feature)2438_storage": {
        "encoding": "inplace",
        "label": "struct FeatureVoting.Feature",
        "members": [
          {
            "astId": 2429,
            "contract": "contracts/FeatureVoting.sol:FeatureVoting",
            "label": "creator",
            "offset": 0,
            "slot": "0",
            "type": "t_address"
          },
          {
            "astId": 2431,
            "contract": "contracts/FeatureVoting.sol:FeatureVoting",
            "label": "votes",
            "offset": 0,
            "slot": "1",
            "type": "t_uint256"
          },
          {
            "astId": 2433,
            "contract": "contracts/FeatureVoting.sol:FeatureVoting",
            "label": "title",
            "offset": 0,
            "slot": "2",
            "type": "t_string_storage"
          },
          {
            "astId": 2435,
            "contract": "contracts/FeatureVoting.sol:FeatureVoting",
            "label": "active",
            "offset": 0,
            "slot": "3",
            "type": "t_bool"
          },
          {
            "astId": 2437,
            "contract": "contracts/FeatureVoting.sol:FeatureVoting",
            "label": "finished",
            "offset": 1,
            "slot": "3",
            "type": "t_bool"
          }
        ],
        "numberOfBytes": "128"
      },
      "t_uint256": {
        "encoding": "inplace",
        "label": "uint256",
        "numberOfBytes": "32"
      }
    }
  }
}