{
  "address": "0x99e92CB3f7059874575DbbcDb1b74AD54d7ff98D",
  "abi": [
    {
      "inputs": [
        {
          "internalType": "address",
          "name": "_energy",
          "type": "address"
        }
      ],
      "stateMutability": "nonpayable",
      "type": "constructor"
    },
    {
      "anonymous": false,
      "inputs": [
        {
          "indexed": true,
          "internalType": "uint256",
          "name": "index",
          "type": "uint256"
        },
        {
          "indexed": false,
          "internalType": "string",
          "name": "title",
          "type": "string"
        }
      ],
      "name": "FeatureAdded",
      "type": "event"
    },
    {
      "anonymous": false,
      "inputs": [
        {
          "indexed": true,
          "internalType": "address",
          "name": "voter",
          "type": "address"
        },
        {
          "indexed": true,
          "internalType": "uint256",
          "name": "index",
          "type": "uint256"
        },
        {
          "indexed": false,
          "internalType": "uint256",
          "name": "votes",
          "type": "uint256"
        }
      ],
      "name": "FeatureVoted",
      "type": "event"
    },
    {
      "anonymous": false,
      "inputs": [
        {
          "indexed": true,
          "internalType": "address",
          "name": "previousOwner",
          "type": "address"
        },
        {
          "indexed": true,
          "internalType": "address",
          "name": "newOwner",
          "type": "address"
        }
      ],
      "name": "OwnershipTransferred",
      "type": "event"
    },
    {
      "inputs": [
        {
          "internalType": "string",
          "name": "_title",
          "type": "string"
        }
      ],
      "name": "addFeature",
      "outputs": [],
      "stateMutability": "nonpayable",
      "type": "function"
    },
    {
      "inputs": [
        {
          "internalType": "uint256",
          "name": "_index",
          "type": "uint256"
        }
      ],
      "name": "featureFinished",
      "outputs": [],
      "stateMutability": "nonpayable",
      "type": "function"
    },
    {
      "inputs": [
        {
          "internalType": "uint256",
          "name": "",
          "type": "uint256"
        }
      ],
      "name": "features",
      "outputs": [
        {
          "internalType": "uint256",
          "name": "votes",
          "type": "uint256"
        },
        {
          "internalType": "string",
          "name": "title",
          "type": "string"
        },
        {
          "internalType": "bool",
          "name": "active",
          "type": "bool"
        },
        {
          "internalType": "bool",
          "name": "finished",
          "type": "bool"
        }
      ],
      "stateMutability": "view",
      "type": "function"
    },
    {
      "inputs": [],
      "name": "owner",
      "outputs": [
        {
          "internalType": "address",
          "name": "",
          "type": "address"
        }
      ],
      "stateMutability": "view",
      "type": "function"
    },
    {
      "inputs": [],
      "name": "renounceOwnership",
      "outputs": [],
      "stateMutability": "nonpayable",
      "type": "function"
    },
    {
      "inputs": [
        {
          "internalType": "uint256",
          "name": "_index",
          "type": "uint256"
        },
        {
          "internalType": "bool",
          "name": "_active",
          "type": "bool"
        }
      ],
      "name": "setActive",
      "outputs": [],
      "stateMutability": "nonpayable",
      "type": "function"
    },
    {
      "inputs": [
        {
          "internalType": "address",
          "name": "newOwner",
          "type": "address"
        }
      ],
      "name": "transferOwnership",
      "outputs": [],
      "stateMutability": "nonpayable",
      "type": "function"
    },
    {
      "inputs": [
        {
          "internalType": "uint256",
          "name": "_index",
          "type": "uint256"
        },
        {
          "internalType": "uint256",
          "name": "_votes",
          "type": "uint256"
        }
      ],
      "name": "vote",
      "outputs": [],
      "stateMutability": "nonpayable",
      "type": "function"
    }
  ],
  "transactionHash": "0x3952babd34433b56d66eff858a0a2de39d88c706dc6189491afdb6e00eeb7dd5",
  "args": [
    "0x305dbFD4e55C35c16aFdC5D8c470DaB195FA54C7"
  ],
  "numDeployments": 1,
  "solcInputHash": "cfb2761daf4e15a02822259913e06fb5",
  "bytecode": "0x608060405234801561001057600080fd5b5060405161108938038061108983398101604081905261002f916100ad565b6100383361005d565b600180546001600160a01b0319166001600160a01b03929092169190911790556100db565b600080546001600160a01b038381166001600160a01b0319831681178455604051919092169283917f8be0079c531659141344cd1fd0a4f28419497f9722a3daafe3b4186f6b6457e09190a35050565b6000602082840312156100be578081fd5b81516001600160a01b03811681146100d4578182fd5b9392505050565b610f9f806100ea6000396000f3fe608060405234801561001057600080fd5b50600436106100885760003560e01c8063b384abef1161005b578063b384abef146100fa578063e60a955d1461010d578063e99610b714610120578063f2fde38b1461013357600080fd5b8063368a74981461008d578063715018a6146100a25780638da5cb5b146100aa5780638ede6f9f146100d7575b600080fd5b6100a061009b366004610d65565b610146565b005b6100a061036f565b60005460405173ffffffffffffffffffffffffffffffffffffffff90911681526020015b60405180910390f35b6100ea6100e5366004610d65565b6103fc565b6040516100ce9493929190610e49565b6100a0610108366004610dac565b6104c6565b6100a061011b366004610d7d565b610718565b6100a061012e366004610c9d565b610818565b6100a0610141366004610c4d565b6109fc565b60005473ffffffffffffffffffffffffffffffffffffffff1633146101cc576040517f08c379a000000000000000000000000000000000000000000000000000000000815260206004820181905260248201527f4f776e61626c653a2063616c6c6572206973206e6f7420746865206f776e657260448201526064015b60405180910390fd5b60028181548110610206577f4e487b7100000000000000000000000000000000000000000000000000000000600052603260045260246000fd5b906000526020600020906003020160020160019054906101000a900460ff161561028c576040517f08c379a000000000000000000000000000000000000000000000000000000000815260206004820181905260248201527f46656174757265207265717565737420616c72656164792066696e697368656460448201526064016101c3565b6001600282815481106102c8577f4e487b7100000000000000000000000000000000000000000000000000000000600052603260045260246000fd5b906000526020600020906003020160020160016101000a81548160ff02191690831515021790555060006002828154811061032c577f4e487b7100000000000000000000000000000000000000000000000000000000600052603260045260246000fd5b6000918252602090912060039091020160020180547fffffffffffffffffffffffffffffffffffffffffffffffffffffffffffffff001691151591909117905550565b60005473ffffffffffffffffffffffffffffffffffffffff1633146103f0576040517f08c379a000000000000000000000000000000000000000000000000000000000815260206004820181905260248201527f4f776e61626c653a2063616c6c6572206973206e6f7420746865206f776e657260448201526064016101c3565b6103fa6000610b2c565b565b6002818154811061040c57600080fd5b6000918252602090912060039091020180546001820180549193509061043190610ea9565b80601f016020809104026020016040519081016040528092919081815260200182805461045d90610ea9565b80156104aa5780601f1061047f576101008083540402835291602001916104aa565b820191906000526020600020905b81548152906001019060200180831161048d57829003601f168201915b5050506002909301549192505060ff8082169161010090041684565b60028281548110610500577f4e487b7100000000000000000000000000000000000000000000000000000000600052603260045260246000fd5b600091825260209091206002600390920201015460ff1661057d576040517f08c379a000000000000000000000000000000000000000000000000000000000815260206004820152601560248201527f46656174757265206973206e6f7420616374697665000000000000000000000060448201526064016101c3565b6001546040517f23b872dd0000000000000000000000000000000000000000000000000000000081523360048201523060248201526044810183905273ffffffffffffffffffffffffffffffffffffffff909116906323b872dd90606401602060405180830381600087803b1580156105f557600080fd5b505af1158015610609573d6000803e3d6000fd5b505050506040513d601f19601f8201168201806040525081019061062d9190610c81565b61063657600080fd5b61068b8160028481548110610674577f4e487b7100000000000000000000000000000000000000000000000000000000600052603260045260246000fd5b600091825260209091206003909102015490610ba1565b600283815481106106c5577f4e487b7100000000000000000000000000000000000000000000000000000000600052603260045260246000fd5b6000918252602090912060039091020155604051829033907fc2617f46bad219e52991b2a4de30936ed663132ea903afef2ddf4428ff7273309061070c9085815260200190565b60405180910390a35050565b60005473ffffffffffffffffffffffffffffffffffffffff163314610799576040517f08c379a000000000000000000000000000000000000000000000000000000000815260206004820181905260248201527f4f776e61626c653a2063616c6c6572206973206e6f7420746865206f776e657260448201526064016101c3565b80600283815481106107d4577f4e487b7100000000000000000000000000000000000000000000000000000000600052603260045260246000fd5b6000918252602090912060039091020160020180547fffffffffffffffffffffffffffffffffffffffffffffffffffffffffffffff00169115159190911790555050565b60005473ffffffffffffffffffffffffffffffffffffffff163314610899576040517f08c379a000000000000000000000000000000000000000000000000000000000815260206004820181905260248201527f4f776e61626c653a2063616c6c6572206973206e6f7420746865206f776e657260448201526064016101c3565b6108c8604051806080016040528060008152602001606081526020016000151581526020016000151581525090565b6001604082018190526020808301848152600280549384018155600052835160039093027f405787fa12a823e0f2b7631cc41b3ba8828b3321ca811111fa75cd3aa3bb5ace810193845590518051859493610947937f405787fa12a823e0f2b7631cc41b3ba8828b3321ca811111fa75cd3aa3bb5acf01920190610bb4565b506040820151600291820180546060909401511515610100027fffffffffffffffffffffffffffffffffffffffffffffffffffffffffffff00ff921515929092167fffffffffffffffffffffffffffffffffffffffffffffffffffffffffffff00009094169390931717909155546109c190600190610e92565b7f84e052a1fe2421427eb3158ab7df13bf23a612c546e28cab2a0697e33ace0b9d836040516109f09190610e36565b60405180910390a25050565b60005473ffffffffffffffffffffffffffffffffffffffff163314610a7d576040517f08c379a000000000000000000000000000000000000000000000000000000000815260206004820181905260248201527f4f776e61626c653a2063616c6c6572206973206e6f7420746865206f776e657260448201526064016101c3565b73ffffffffffffffffffffffffffffffffffffffff8116610b20576040517f08c379a000000000000000000000000000000000000000000000000000000000815260206004820152602660248201527f4f776e61626c653a206e6577206f776e657220697320746865207a65726f206160448201527f646472657373000000000000000000000000000000000000000000000000000060648201526084016101c3565b610b2981610b2c565b50565b6000805473ffffffffffffffffffffffffffffffffffffffff8381167fffffffffffffffffffffffff0000000000000000000000000000000000000000831681178455604051919092169283917f8be0079c531659141344cd1fd0a4f28419497f9722a3daafe3b4186f6b6457e09190a35050565b6000610bad8284610e7a565b9392505050565b828054610bc090610ea9565b90600052602060002090601f016020900481019282610be25760008555610c28565b82601f10610bfb57805160ff1916838001178555610c28565b82800160010185558215610c28579182015b82811115610c28578251825591602001919060010190610c0d565b50610c34929150610c38565b5090565b5b80821115610c345760008155600101610c39565b600060208284031215610c5e578081fd5b813573ffffffffffffffffffffffffffffffffffffffff81168114610bad578182fd5b600060208284031215610c92578081fd5b8151610bad81610f5b565b600060208284031215610cae578081fd5b813567ffffffffffffffff80821115610cc5578283fd5b818401915084601f830112610cd8578283fd5b813581811115610cea57610cea610f2c565b604051601f82017fffffffffffffffffffffffffffffffffffffffffffffffffffffffffffffffe0908116603f01168101908382118183101715610d3057610d30610f2c565b81604052828152876020848701011115610d48578586fd5b826020860160208301379182016020019490945295945050505050565b600060208284031215610d76578081fd5b5035919050565b60008060408385031215610d8f578081fd5b823591506020830135610da181610f5b565b809150509250929050565b60008060408385031215610dbe578182fd5b50508035926020909101359150565b60008151808452815b81811015610df257602081850181015186830182015201610dd6565b81811115610e035782602083870101525b50601f017fffffffffffffffffffffffffffffffffffffffffffffffffffffffffffffffe0169290920160200192915050565b602081526000610bad6020830184610dcd565b848152608060208201526000610e626080830186610dcd565b93151560408301525090151560609091015292915050565b60008219821115610e8d57610e8d610efd565b500190565b600082821015610ea457610ea4610efd565b500390565b600181811c90821680610ebd57607f821691505b60208210811415610ef7577f4e487b7100000000000000000000000000000000000000000000000000000000600052602260045260246000fd5b50919050565b7f4e487b7100000000000000000000000000000000000000000000000000000000600052601160045260246000fd5b7f4e487b7100000000000000000000000000000000000000000000000000000000600052604160045260246000fd5b8015158114610b2957600080fdfea264697066735822122066a20b490c002c0474fb1dfd863d44006b4eb3b7026d0e0f2c7134ef3eea118664736f6c63430008040033",
  "devdoc": {
    "kind": "dev",
    "methods": {
      "owner()": {
        "details": "Returns the address of the current owner."
      },
      "renounceOwnership()": {
        "details": "Leaves the contract without owner. It will not be possible to call `onlyOwner` functions anymore. Can only be called by the current owner. NOTE: Renouncing ownership will leave the contract without an owner, thereby removing any functionality that is only available to the owner."
      },
      "transferOwnership(address)": {
        "details": "Transfers ownership of the contract to a new account (`newOwner`). Can only be called by the current owner."
      }
    },
    "version": 1
  },
  "userdoc": {
    "kind": "user",
    "methods": {},
    "version": 1
  },
  "storageLayout": {
    "storage": [
      {
        "astId": 389,
        "contract": "contracts/FeatureVoting.sol:FeatureVoting",
        "label": "_owner",
        "offset": 0,
        "slot": "0",
        "type": "t_address"
      },
      {
        "astId": 1903,
        "contract": "contracts/FeatureVoting.sol:FeatureVoting",
        "label": "energy",
        "offset": 0,
        "slot": "1",
        "type": "t_contract(IERC20)1110"
      },
      {
        "astId": 1907,
        "contract": "contracts/FeatureVoting.sol:FeatureVoting",
        "label": "features",
        "offset": 0,
        "slot": "2",
        "type": "t_array(t_struct(Feature)1900_storage)dyn_storage"
      }
    ],
    "types": {
      "t_address": {
        "encoding": "inplace",
        "label": "address",
        "numberOfBytes": "20"
      },
      "t_array(t_struct(Feature)1900_storage)dyn_storage": {
        "base": "t_struct(Feature)1900_storage",
        "encoding": "dynamic_array",
        "label": "struct FeatureVoting.Feature[]",
        "numberOfBytes": "32"
      },
      "t_bool": {
        "encoding": "inplace",
        "label": "bool",
        "numberOfBytes": "1"
      },
      "t_contract(IERC20)1110": {
        "encoding": "inplace",
        "label": "contract IERC20",
        "numberOfBytes": "20"
      },
      "t_string_storage": {
        "encoding": "bytes",
        "label": "string",
        "numberOfBytes": "32"
      },
      "t_struct(Feature)1900_storage": {
        "encoding": "inplace",
        "label": "struct FeatureVoting.Feature",
        "members": [
          {
            "astId": 1893,
            "contract": "contracts/FeatureVoting.sol:FeatureVoting",
            "label": "votes",
            "offset": 0,
            "slot": "0",
            "type": "t_uint256"
          },
          {
            "astId": 1895,
            "contract": "contracts/FeatureVoting.sol:FeatureVoting",
            "label": "title",
            "offset": 0,
            "slot": "1",
            "type": "t_string_storage"
          },
          {
            "astId": 1897,
            "contract": "contracts/FeatureVoting.sol:FeatureVoting",
            "label": "active",
            "offset": 0,
            "slot": "2",
            "type": "t_bool"
          },
          {
            "astId": 1899,
            "contract": "contracts/FeatureVoting.sol:FeatureVoting",
            "label": "finished",
            "offset": 1,
            "slot": "2",
            "type": "t_bool"
          }
        ],
        "numberOfBytes": "96"
      },
      "t_uint256": {
        "encoding": "inplace",
        "label": "uint256",
        "numberOfBytes": "32"
      }
    }
  }
}