{
  "address": "0x501B570e2BbC8b9656b747e273942472f699F6CF",
  "abi": [
    {
      "inputs": [
        {
          "internalType": "contract IWormhole",
          "name": "_wormhole",
          "type": "address"
        },
        {
          "internalType": "address",
          "name": "_treasury",
          "type": "address"
        }
      ],
      "stateMutability": "nonpayable",
      "type": "constructor"
    },
    {
      "anonymous": false,
      "inputs": [
        {
          "indexed": true,
          "internalType": "address",
          "name": "previousOwner",
          "type": "address"
        },
        {
          "indexed": true,
          "internalType": "address",
          "name": "newOwner",
          "type": "address"
        }
      ],
      "name": "OwnershipTransferred",
      "type": "event"
    },
    {
      "anonymous": false,
      "inputs": [
        {
          "indexed": true,
          "internalType": "uint16",
          "name": "chainId",
          "type": "uint16"
        },
        {
          "indexed": false,
          "internalType": "bool",
          "name": "enabled",
          "type": "bool"
        }
      ],
      "name": "SetChainId",
      "type": "event"
    },
    {
      "anonymous": false,
      "inputs": [
        {
          "indexed": true,
          "internalType": "address",
          "name": "token",
          "type": "address"
        },
        {
          "indexed": false,
          "internalType": "uint256",
          "name": "price",
          "type": "uint256"
        }
      ],
      "name": "SetGasTokenPrice",
      "type": "event"
    },
    {
      "anonymous": false,
      "inputs": [
        {
          "indexed": true,
          "internalType": "address",
          "name": "treasury",
          "type": "address"
        }
      ],
      "name": "SetTreasuryAddress",
      "type": "event"
    },
    {
      "inputs": [],
      "name": "owner",
      "outputs": [
        {
          "internalType": "address",
          "name": "",
          "type": "address"
        }
      ],
      "stateMutability": "view",
      "type": "function"
    },
    {
      "inputs": [],
      "name": "renounceOwnership",
      "outputs": [],
      "stateMutability": "nonpayable",
      "type": "function"
    },
    {
      "inputs": [
        {
          "internalType": "bytes32",
          "name": "recipient",
          "type": "bytes32"
        },
        {
          "internalType": "uint16",
          "name": "destinationChain",
          "type": "uint16"
        },
        {
          "internalType": "address",
          "name": "paymentToken",
          "type": "address"
        },
        {
          "internalType": "uint32",
          "name": "nonce",
          "type": "uint32"
        }
      ],
      "name": "sendGas",
      "outputs": [
        {
          "internalType": "uint64",
          "name": "sequence",
          "type": "uint64"
        }
      ],
      "stateMutability": "nonpayable",
      "type": "function"
    },
    {
      "inputs": [
        {
          "internalType": "uint16",
          "name": "chainId",
          "type": "uint16"
        },
        {
          "internalType": "bool",
          "name": "enabled",
          "type": "bool"
        }
      ],
      "name": "setChainIdEnabled",
      "outputs": [],
      "stateMutability": "nonpayable",
      "type": "function"
    },
    {
      "inputs": [
        {
          "internalType": "address",
          "name": "token",
          "type": "address"
        },
        {
          "internalType": "uint256",
          "name": "value",
          "type": "uint256"
        }
      ],
      "name": "setGasTokenPrice",
      "outputs": [],
      "stateMutability": "nonpayable",
      "type": "function"
    },
    {
      "inputs": [
        {
          "internalType": "address",
          "name": "_treasury",
          "type": "address"
        }
      ],
      "name": "setTreasury",
      "outputs": [],
      "stateMutability": "nonpayable",
      "type": "function"
    },
    {
      "inputs": [
        {
          "internalType": "address",
          "name": "newOwner",
          "type": "address"
        }
      ],
      "name": "transferOwnership",
      "outputs": [],
      "stateMutability": "nonpayable",
      "type": "function"
    },
    {
      "stateMutability": "payable",
      "type": "receive"
    }
  ],
  "transactionHash": "0x005a5426af2296df15474d1af69c44387dc581131e716214a8530a7d00e8d491",
  "args": [
    "0xa321448d90d4e5b0A732867c18eA198e75CAC48E",
    "0x60D3e18c57C9b1ec4e09F255aAB959F58FA1A724"
  ],
  "numDeployments": 3,
  "solcInputHash": "673098036d4b69ee8a65828aef73ae19",
  "bytecode": "0x60803461006f57601f610c8238819003918201601f19168301916001600160401b0383118484101761007457808492604094855283398101031261006f5780602061006092519161004f8361008a565b01519061005b8261008a565b61009b565b604051610b7e90816101048239f35b600080fd5b634e487b7160e01b600052604160045260246000fd5b6001600160a01b0381160361006f57565b600080546001600160a01b031980821633908117845560405191956001600160a01b0395909486949193918516917f8be0079c531659141344cd1fd0a4f28419497f9722a3daafe3b4186f6b6457e09190a3168360035416176003551690600454161760045556fe6080604052600436101561001b575b361561001957600080fd5b005b6000803560e01c908162c7514d146100a9575080633126c458146100a0578063715018a6146100975780638da5cb5b1461008e578063f0f4426014610085578063f2fde38b1461007c5763f5d79f1e0361000e57610077610732565b61000e565b50610077610638565b50610077610585565b50610077610532565b5061007761048d565b506100776101a5565b346101465760407ffffffffffffffffffffffffffffffffffffffffffffffffffffffffffffffffc360112610146576100e0610149565b7f93a7e331365c1ab8f122074d7bae0664c16da9bfbcda540f87c22308a651c0dd60206024359273ffffffffffffffffffffffffffffffffffffffff9061012b828754163314610808565b169283855260018252806040862055604051908152a2604051f35b80fd5b6004359073ffffffffffffffffffffffffffffffffffffffff8216820361016c57565b600080fd5b6044359073ffffffffffffffffffffffffffffffffffffffff8216820361016c57565b6024359061ffff8216820361016c57565b503461016c5760807ffffffffffffffffffffffffffffffffffffffffffffffffffffffffffffffffc36011261016c576101dd610194565b6101e5610171565b60643563ffffffff8116810361016c5761020d8361ffff166000526002602052604060002090565b5460ff1661021a906108dc565b6102448273ffffffffffffffffffffffffffffffffffffffff166000526001602052604060002090565b54151561025090610941565b60045473ffffffffffffffffffffffffffffffffffffffff166102938373ffffffffffffffffffffffffffffffffffffffff166000526001602052604060002090565b546040517f23b872dd00000000000000000000000000000000000000000000000000000000815233600482015273ffffffffffffffffffffffffffffffffffffffff928316602482015260448101919091526020938492839183916064918391165a90600091f1928315610415966103236103e4966103459561037194610480575b600091610453575b50610a3b565b60405193849160043587840190929161ffff6020916040840195845216910152565b037fffffffffffffffffffffffffffffffffffffffffffffffffffffffffffffffe081018452836109a6565b6103ac61039360035473ffffffffffffffffffffffffffffffffffffffff1690565b73ffffffffffffffffffffffffffffffffffffffff1690565b9060006040518096819582947fb19a437e00000000000000000000000000000000000000000000000000000000845260048401610ac0565b03925af1918215610446575b600092610419575b505060405167ffffffffffffffff90911681529081906020820190565b0390f35b6104389250803d1061043f575b61043081836109a6565b810190610aa0565b38806103f8565b503d610426565b61044e610a2e565b6103f0565b6104739150873d8911610479575b61046b81836109a6565b810190610a16565b3861031d565b503d610461565b610488610a2e565b610315565b503461016c576000807ffffffffffffffffffffffffffffffffffffffffffffffffffffffffffffffffc3601126101465780547fffffffffffffffffffffffff000000000000000000000000000000000000000073ffffffffffffffffffffffffffffffffffffffff821691610504338414610808565b16825581604051917f8be0079c531659141344cd1fd0a4f28419497f9722a3daafe3b4186f6b6457e08284a3f35b503461016c5760007ffffffffffffffffffffffffffffffffffffffffffffffffffffffffffffffffc36011261016c57602073ffffffffffffffffffffffffffffffffffffffff60005416604051908152f35b503461016c5760207ffffffffffffffffffffffffffffffffffffffffffffffffffffffffffffffffc36011261016c5760006105bf610149565b73ffffffffffffffffffffffffffffffffffffffff906105e3828454163314610808565b16807fffffffffffffffffffffffff00000000000000000000000000000000000000006004541617600455604051907feee016301a2725a577c64816adf35ccf644d07439731069a31748ec3b9102c608383a2f35b503461016c5760207ffffffffffffffffffffffffffffffffffffffffffffffffffffffffffffffffc36011261016c57610670610149565b73ffffffffffffffffffffffffffffffffffffffff61069481600054163314610808565b8116156106a4576100199061086d565b60846040517f08c379a000000000000000000000000000000000000000000000000000000000815260206004820152602660248201527f4f776e61626c653a206e6577206f776e657220697320746865207a65726f206160448201527f64647265737300000000000000000000000000000000000000000000000000006064820152fd5b8015150361016c57565b503461016c5760407ffffffffffffffffffffffffffffffffffffffffffffffffffffffffffffffffc36011261016c5760043561ffff811680910361016c577f5e32c2fe8a7859a4486621f9da07f4492e3788837b81fbf11078f7f5a3de79f760206024356107a081610728565b6107c373ffffffffffffffffffffffffffffffffffffffff600054163314610808565b83600052600282526040600020901515907fffffffffffffffffffffffffffffffffffffffffffffffffffffffffffffff0081541660ff8316179055604051908152a2005b1561080f57565b60646040517f08c379a000000000000000000000000000000000000000000000000000000000815260206004820152602060248201527f4f776e61626c653a2063616c6c6572206973206e6f7420746865206f776e65726044820152fd5b6000549073ffffffffffffffffffffffffffffffffffffffff80911691827fffffffffffffffffffffffff0000000000000000000000000000000000000000821617600055167f8be0079c531659141344cd1fd0a4f28419497f9722a3daafe3b4186f6b6457e06000604051a3565b156108e357565b60646040517f08c379a000000000000000000000000000000000000000000000000000000000815260206004820152601b60248201527f43616e27742073656e6420746f207468617420636861696e20696400000000006044820152fd5b1561094857565b60646040517f08c379a000000000000000000000000000000000000000000000000000000000815260206004820152601160248201527f546f6b656e206e6f7420656e61626c65640000000000000000000000000000006044820152fd5b90601f7fffffffffffffffffffffffffffffffffffffffffffffffffffffffffffffffe0910116810190811067ffffffffffffffff8211176109e757604052565b7f4e487b7100000000000000000000000000000000000000000000000000000000600052604160045260246000fd5b9081602091031261016c5751610a2b81610728565b90565b506040513d6000823e3d90fd5b15610a4257565b60646040517f08c379a000000000000000000000000000000000000000000000000000000000815260206004820152601460248201527f496e73756666696369656e742062616c616e63650000000000000000000000006044820152fd5b9081602091031261016c575167ffffffffffffffff8116810361016c5790565b92919063ffffffff16835260206060818501528151918260608601526000915b838310610b3257505060807fffffffffffffffffffffffffffffffffffffffffffffffffffffffffffffffe0601f8460019560409511610b25575b0116850101930152565b600084828a010152610b1b565b8183018101518684016080015291820191610ae056fea264697066735822122012943c8c3d3f5c86b4c5f0c722eebe1de1bdce82348b5654901ed75516ccf7ff64736f6c634300080d0033",
  "devdoc": {
    "kind": "dev",
    "methods": {
      "owner()": {
        "details": "Returns the address of the current owner."
      },
      "renounceOwnership()": {
        "details": "Leaves the contract without owner. It will not be possible to call `onlyOwner` functions anymore. Can only be called by the current owner. NOTE: Renouncing ownership will leave the contract without an owner, thereby removing any functionality that is only available to the owner."
      },
      "transferOwnership(address)": {
        "details": "Transfers ownership of the contract to a new account (`newOwner`). Can only be called by the current owner."
      }
    },
    "version": 1
  },
  "userdoc": {
    "kind": "user",
    "methods": {},
    "notice": "Responsible of charging users and emitting a message so that gas is sent to them in the destination chain.",
    "version": 1
  },
  "storageLayout": {
    "storage": [
      {
        "astId": 400,
        "contract": "contracts/bridge/GasBridgeCashier.sol:GasBridgeCashier",
        "label": "_owner",
        "offset": 0,
        "slot": "0",
        "type": "t_address"
      },
      {
        "astId": 2919,
        "contract": "contracts/bridge/GasBridgeCashier.sol:GasBridgeCashier",
        "label": "gasTokenPrices",
        "offset": 0,
        "slot": "1",
        "type": "t_mapping(t_address,t_uint256)"
      },
      {
        "astId": 2923,
        "contract": "contracts/bridge/GasBridgeCashier.sol:GasBridgeCashier",
        "label": "chainIds",
        "offset": 0,
        "slot": "2",
        "type": "t_mapping(t_uint16,t_bool)"
      },
      {
        "astId": 2926,
        "contract": "contracts/bridge/GasBridgeCashier.sol:GasBridgeCashier",
        "label": "wormhole",
        "offset": 0,
        "slot": "3",
        "type": "t_contract(IWormhole)6804"
      },
      {
        "astId": 2928,
        "contract": "contracts/bridge/GasBridgeCashier.sol:GasBridgeCashier",
        "label": "treasury",
        "offset": 0,
        "slot": "4",
        "type": "t_address"
      }
    ],
    "types": {
      "t_address": {
        "encoding": "inplace",
        "label": "address",
        "numberOfBytes": "20"
      },
      "t_bool": {
        "encoding": "inplace",
        "label": "bool",
        "numberOfBytes": "1"
      },
      "t_contract(IWormhole)6804": {
        "encoding": "inplace",
        "label": "contract IWormhole",
        "numberOfBytes": "20"
      },
      "t_mapping(t_address,t_uint256)": {
        "encoding": "mapping",
        "key": "t_address",
        "label": "mapping(address => uint256)",
        "numberOfBytes": "32",
        "value": "t_uint256"
      },
      "t_mapping(t_uint16,t_bool)": {
        "encoding": "mapping",
        "key": "t_uint16",
        "label": "mapping(uint16 => bool)",
        "numberOfBytes": "32",
        "value": "t_bool"
      },
      "t_uint16": {
        "encoding": "inplace",
        "label": "uint16",
        "numberOfBytes": "2"
      },
      "t_uint256": {
        "encoding": "inplace",
        "label": "uint256",
        "numberOfBytes": "32"
      }
    }
  }
}