{
  "address": "0xCA5D9762e6eC5B635CC97d00A697eB69a539D1E5",
  "abi": [
    {
      "inputs": [
        {
          "internalType": "contract ISwappaRouterV1",
          "name": "_swappaRouter",
          "type": "address"
        },
        {
          "internalType": "address",
          "name": "_beneficiary",
          "type": "address"
        }
      ],
      "stateMutability": "nonpayable",
      "type": "constructor"
    },
    {
      "anonymous": false,
      "inputs": [
        {
          "indexed": false,
          "internalType": "address",
          "name": "newBeneficiary",
          "type": "address"
        }
      ],
      "name": "BeneficiarySet",
      "type": "event"
    },
    {
      "anonymous": false,
      "inputs": [
        {
          "indexed": true,
          "internalType": "address",
          "name": "previousOwner",
          "type": "address"
        },
        {
          "indexed": true,
          "internalType": "address",
          "name": "newOwner",
          "type": "address"
        }
      ],
      "name": "OwnershipTransferred",
      "type": "event"
    },
    {
      "anonymous": false,
      "inputs": [
        {
          "indexed": true,
          "internalType": "address",
          "name": "userAddress",
          "type": "address"
        },
        {
          "indexed": true,
          "internalType": "address",
          "name": "token",
          "type": "address"
        },
        {
          "indexed": false,
          "internalType": "uint256",
          "name": "inputValue",
          "type": "uint256"
        },
        {
          "indexed": false,
          "internalType": "uint256",
          "name": "outputValue",
          "type": "uint256"
        }
      ],
      "name": "Swap",
      "type": "event"
    },
    {
      "inputs": [],
      "name": "owner",
      "outputs": [
        {
          "internalType": "address",
          "name": "",
          "type": "address"
        }
      ],
      "stateMutability": "view",
      "type": "function"
    },
    {
      "inputs": [],
      "name": "renounceOwnership",
      "outputs": [],
      "stateMutability": "nonpayable",
      "type": "function"
    },
    {
      "inputs": [
        {
          "internalType": "address",
          "name": "_beneficiary",
          "type": "address"
        }
      ],
      "name": "setBeneficiary",
      "outputs": [],
      "stateMutability": "nonpayable",
      "type": "function"
    },
    {
      "inputs": [
        {
          "internalType": "address",
          "name": "token",
          "type": "address"
        },
        {
          "internalType": "address",
          "name": "owner",
          "type": "address"
        },
        {
          "internalType": "uint256",
          "name": "value",
          "type": "uint256"
        },
        {
          "internalType": "uint256",
          "name": "deadline",
          "type": "uint256"
        },
        {
          "internalType": "uint8",
          "name": "v",
          "type": "uint8"
        },
        {
          "internalType": "bytes32",
          "name": "r",
          "type": "bytes32"
        },
        {
          "internalType": "bytes32",
          "name": "s",
          "type": "bytes32"
        },
        {
          "internalType": "address[]",
          "name": "path",
          "type": "address[]"
        },
        {
          "internalType": "address[]",
          "name": "pairs",
          "type": "address[]"
        },
        {
          "internalType": "bytes[]",
          "name": "extras",
          "type": "bytes[]"
        },
        {
          "internalType": "uint256",
          "name": "minOutputAmount",
          "type": "uint256"
        }
      ],
      "name": "swap",
      "outputs": [],
      "stateMutability": "nonpayable",
      "type": "function"
    },
    {
      "inputs": [
        {
          "internalType": "address",
          "name": "newOwner",
          "type": "address"
        }
      ],
      "name": "transferOwnership",
      "outputs": [],
      "stateMutability": "nonpayable",
      "type": "function"
    }
  ],
  "transactionHash": "0xed82cc3736ea9b27d20fc3f3c86c6511cfae054d40decefe8b6c93357fd732d5",
  "args": [
    "0xF35ed7156BABF2541E032B3bB8625210316e2832",
    "0x7a6daee82f0A5141fd9e5443caA5eaa39147415f"
  ],
  "numDeployments": 6,
  "solcInputHash": "a179607d50899dcccac1d37fd4fa3ae4",
  "bytecode": "0x60803461006f57601f61101738819003918201601f19168301916001600160401b0383118484101761007457808492604094855283398101031261006f5780602061006092519161004f8361008a565b01519061005b8261008a565b61009b565b604051610eea908161012d8239f35b600080fd5b634e487b7160e01b600052604160045260246000fd5b6001600160a01b0381160361006f57565b60008054336001600160a01b0319808316821784556040517f04d55a8be181fb8d75b76f2d48aa0b2ee40f47e53d6e61763eeeec46feea8a2496602096919592946001600160a01b03949193859392918416907f8be0079c531659141344cd1fd0a4f28419497f9722a3daafe3b4186f6b6457e09089a31683600254161760025516809160015416176001558152a156fe60806040526004361015610013575b600080fd5b6000803560e01c9081630b7359101461007a575080631c31f71014610071578063715018a6146100685780638da5cb5b1461005f5763f2fde38b1461005757600080fd5b61000e610386565b5061000e610333565b5061000e61028e565b5061000e6101cb565b3461014d576101607ffffffffffffffffffffffffffffffffffffffffffffffffffffffffffffffffc36011261014d576100b261016e565b6100ba61017d565b6100c261018a565b9060e4359267ffffffffffffffff93848111610149576100e690369060040161019a565b90610104358681116101455761010090369060040161019a565b929091610124359788116101415761011f61013c98369060040161019a565b969095610144359860c4359260a4359260643591604435916108c5565b604051f35b8880fd5b8780fd5b8580fd5b80fd5b73ffffffffffffffffffffffffffffffffffffffff81160361000e57565b6004359061017b82610150565b565b6024359061017b82610150565b6084359060ff8216820361000e57565b9181601f8401121561000e5782359167ffffffffffffffff831161000e576020808501948460051b01011161000e57565b503461000e5760207ffffffffffffffffffffffffffffffffffffffffffffffffffffffffffffffffc36011261000e577f04d55a8be181fb8d75b76f2d48aa0b2ee40f47e53d6e61763eeeec46feea8a24602060043561022a81610150565b73ffffffffffffffffffffffffffffffffffffffff9061024f8260005416331461047c565b16807fffffffffffffffffffffffff00000000000000000000000000000000000000006001541617600155604051908152a1005b600091031261000e57565b503461000e576000807ffffffffffffffffffffffffffffffffffffffffffffffffffffffffffffffffc36011261014d5780547fffffffffffffffffffffffff000000000000000000000000000000000000000073ffffffffffffffffffffffffffffffffffffffff82169161030533841461047c565b16825581604051917f8be0079c531659141344cd1fd0a4f28419497f9722a3daafe3b4186f6b6457e08284a3f35b503461000e5760007ffffffffffffffffffffffffffffffffffffffffffffffffffffffffffffffffc36011261000e57602073ffffffffffffffffffffffffffffffffffffffff60005416604051908152f35b503461000e5760207ffffffffffffffffffffffffffffffffffffffffffffffffffffffffffffffffc36011261000e576004356103c281610150565b73ffffffffffffffffffffffffffffffffffffffff6103e68160005416331461047c565b8116156103f8576103f6906104e1565b005b60846040517f08c379a000000000000000000000000000000000000000000000000000000000815260206004820152602660248201527f4f776e61626c653a206e6577206f776e657220697320746865207a65726f206160448201527f64647265737300000000000000000000000000000000000000000000000000006064820152fd5b1561048357565b60646040517f08c379a000000000000000000000000000000000000000000000000000000000815260206004820152602060248201527f4f776e61626c653a2063616c6c6572206973206e6f7420746865206f776e65726044820152fd5b6000549073ffffffffffffffffffffffffffffffffffffffff80911691827fffffffffffffffffffffffff0000000000000000000000000000000000000000821617600055167f8be0079c531659141344cd1fd0a4f28419497f9722a3daafe3b4186f6b6457e06000604051a3565b67ffffffffffffffff811161056457604052565b7f4e487b7100000000000000000000000000000000000000000000000000000000600052604160045260246000fd5b90601f7fffffffffffffffffffffffffffffffffffffffffffffffffffffffffffffffe0910116810190811067ffffffffffffffff82111761056457604052565b506040513d6000823e3d90fd5b9081602091031261000e5751801515810361000e5790565b9081602091031261000e575190565b91908082526020809201929160005b828110610625575050505090565b90919293828060019273ffffffffffffffffffffffffffffffffffffffff883561064e81610150565b16815201950193929101610617565b601f82602094937fffffffffffffffffffffffffffffffffffffffffffffffffffffffffffffffe0938186528686013760008582860101520116010190565b97959293906106bc906106cc939c9b9a989c60e08b5260e08b0191610608565b90602094898303868b0152610608565b91868303604088015281835280830192818360051b8201019480946000925b85841061073057505050505050509161072c9160c09493976060850152608084015260a083019073ffffffffffffffffffffffffffffffffffffffff169052565b0152565b909192939495967fffffffffffffffffffffffffffffffffffffffffffffffffffffffffffffffe082820301835287357fffffffffffffffffffffffffffffffffffffffffffffffffffffffffffffffe18536030181121561000e57840190813567ffffffffffffffff811161000e57803603861361000e576107ba88928392836001960161065d565b9901930194019291959493906106eb565b507f4e487b7100000000000000000000000000000000000000000000000000000000600052601160045260246000fd5b7fffffffffffffffffffffffffffffffffffffffffffffffffffffffffffffffff9060018110610829570190565b6108316107cb565b0190565b91908110156108455760051b0190565b7f4e487b7100000000000000000000000000000000000000000000000000000000600052603260045260246000fd5b3561087e81610150565b90565b807fffffffffffffffffffffffffffffffffffffffffffffffffffffffffffffffff048211811515166108b2570290565b6108ba6107cb565b0290565b1561000e57565b96919b999a9c939297909894959c73ffffffffffffffffffffffffffffffffffffffff5a98169d8e3b1561000e577ffa2dda1cc1b86e41239702756b13effbc1a092b5c57e3ad320fbe4f3b13fe2359c8f9c8f98600073ffffffffffffffffffffffffffffffffffffffff9f8f610d279f8a610b899f9d610a869f610a869f610b849f828f98610a5160209f602094610b649b610af8978f87938e6109e18b9760405195869485947fd505accf0000000000000000000000000000000000000000000000000000000086528a308b600489019360ff929897969360c0969260e087019a73ffffffffffffffffffffffffffffffffffffffff80921688521660208701526040860152606085015216608083015260a08201520152565b0381838a5af18015610ea7575b610e8e575b506040517f23b872dd00000000000000000000000000000000000000000000000000000000815273ffffffffffffffffffffffffffffffffffffffff9091166004820152306024820152604481019190915291829081906064820190565b03818f865af18015610e81575b610e64575b50610a9f610a8660025473ffffffffffffffffffffffffffffffffffffffff1690565b73ffffffffffffffffffffffffffffffffffffffff1690565b8b6040518096819582947f095ea7b3000000000000000000000000000000000000000000000000000000008452600484016020909392919373ffffffffffffffffffffffffffffffffffffffff60408201951681520152565b03925af18015610e57575b610e3a575b50610b2b610a8660025473ffffffffffffffffffffffffffffffffffffffff1690565b986040519c8d9b8c9a8b997f0862d12f000000000000000000000000000000000000000000000000000000008b52309760048c0161069c565b03925af18015610e2d575b610e0e575b50610b7e816107fb565b91610835565b610874565b6040517f70a08231000000000000000000000000000000000000000000000000000000008082523060048301529092909190602084602481855afa938415610e01575b600094610dcf575b50610d0c92610cf392610be96020933a610881565b6103e8870481811015610dc857505b610c94610c7785610c1e60015473ffffffffffffffffffffffffffffffffffffffff1690565b93604051809381927fa9059cbb0000000000000000000000000000000000000000000000000000000097888452600484016020909392919373ffffffffffffffffffffffffffffffffffffffff60408201951681520152565b03816000885af1908115610dbb575b600091610da4575b506108be565b6040519283523060048401528383602481855afa928315610d97575b600093610d68575b50600060405180968195829483528c600484016020909392919373ffffffffffffffffffffffffffffffffffffffff60408201951681520152565b03925af1908115610d5b575b600091610d2c57506108be565b60405193849316958360209093929193604081019481520152565b0390a3565b610d4e915060203d602011610d54575b610d468183610593565b8101906105e1565b38610c8e565b503d610d3c565b610d636105d4565b610cff565b610d89919350843d8611610d90575b610d818183610593565b8101906105f9565b9138610cb8565b503d610d77565b610d9f6105d4565b610cb0565b610d4e9150863d8811610d5457610d468183610593565b610dc36105d4565b610c86565b9050610bf8565b602091945092610cf392610be9610df5610d0c96853d8711610d9057610d818183610593565b96935050925092610bd4565b610e096105d4565b610bcc565b610e269060203d602011610d9057610d818183610593565b5038610b74565b610e356105d4565b610b6f565b610e50908c3d8e11610d5457610d468183610593565b5038610b08565b610e5f6105d4565b610b03565b610e7a90843d8611610d5457610d468183610593565b5038610a63565b610e896105d4565b610a5e565b80610e9b610ea192610550565b80610283565b386109f3565b610eaf6105d4565b6109ee56fea264697066735822122010c234e93eb5dbefd022efb09bb8e35940a6e5aac04bef3073bff909ff73b74e64736f6c634300080d0033",
  "devdoc": {
    "kind": "dev",
    "methods": {
      "owner()": {
        "details": "Returns the address of the current owner."
      },
      "renounceOwnership()": {
        "details": "Leaves the contract without owner. It will not be possible to call `onlyOwner` functions anymore. Can only be called by the current owner. NOTE: Renouncing ownership will leave the contract without an owner, thereby removing any functionality that is only available to the owner."
      },
      "transferOwnership(address)": {
        "details": "Transfers ownership of the contract to a new account (`newOwner`). Can only be called by the current owner."
      }
    },
    "version": 1
  },
  "userdoc": {
    "kind": "user",
    "methods": {},
    "version": 1
  },
  "storageLayout": {
    "storage": [
      {
        "astId": 400,
        "contract": "contracts/swap/GaslessSwap.sol:GaslessSwap",
        "label": "_owner",
        "offset": 0,
        "slot": "0",
        "type": "t_address"
      },
      {
        "astId": 6265,
        "contract": "contracts/swap/GaslessSwap.sol:GaslessSwap",
        "label": "beneficiary",
        "offset": 0,
        "slot": "1",
        "type": "t_address"
      },
      {
        "astId": 6268,
        "contract": "contracts/swap/GaslessSwap.sol:GaslessSwap",
        "label": "swappaRouter",
        "offset": 0,
        "slot": "2",
        "type": "t_contract(ISwappaRouterV1)4620"
      }
    ],
    "types": {
      "t_address": {
        "encoding": "inplace",
        "label": "address",
        "numberOfBytes": "20"
      },
      "t_contract(ISwappaRouterV1)4620": {
        "encoding": "inplace",
        "label": "contract ISwappaRouterV1",
        "numberOfBytes": "20"
      }
    }
  }
}