{
  "address": "0x68bb25cd2d7B65Ca9AD01fFC5AB265775615d712",
  "abi": [
    {
      "inputs": [
        {
          "internalType": "address",
          "name": "_sushiOperator",
          "type": "address"
        },
        {
          "internalType": "address",
          "name": "_ubeswapOperator",
          "type": "address"
        }
      ],
      "stateMutability": "nonpayable",
      "type": "constructor"
    },
    {
      "anonymous": false,
      "inputs": [
        {
          "indexed": true,
          "internalType": "address",
          "name": "previousOwner",
          "type": "address"
        },
        {
          "indexed": true,
          "internalType": "address",
          "name": "newOwner",
          "type": "address"
        }
      ],
      "name": "OwnershipTransferred",
      "type": "event"
    },
    {
      "inputs": [],
      "name": "owner",
      "outputs": [
        {
          "internalType": "address",
          "name": "",
          "type": "address"
        }
      ],
      "stateMutability": "view",
      "type": "function"
    },
    {
      "inputs": [],
      "name": "renounceOwnership",
      "outputs": [],
      "stateMutability": "nonpayable",
      "type": "function"
    },
    {
      "inputs": [
        {
          "internalType": "address",
          "name": "from",
          "type": "address"
        },
        {
          "internalType": "address",
          "name": "to",
          "type": "address"
        },
        {
          "internalType": "uint256",
          "name": "fromAmount",
          "type": "uint256"
        },
        {
          "internalType": "uint256",
          "name": "minAmountOut",
          "type": "uint256"
        },
        {
          "internalType": "uint256",
          "name": "percentMin",
          "type": "uint256"
        },
        {
          "internalType": "uint256",
          "name": "pid",
          "type": "uint256"
        }
      ],
      "name": "swapAndZapInWithSushiwap",
      "outputs": [],
      "stateMutability": "nonpayable",
      "type": "function"
    },
    {
      "inputs": [
        {
          "internalType": "address",
          "name": "from",
          "type": "address"
        },
        {
          "internalType": "address",
          "name": "to",
          "type": "address"
        },
        {
          "internalType": "uint256",
          "name": "fromAmount",
          "type": "uint256"
        },
        {
          "internalType": "uint256",
          "name": "minAmountOut",
          "type": "uint256"
        },
        {
          "internalType": "uint256",
          "name": "percentMin",
          "type": "uint256"
        }
      ],
      "name": "swapAndZapInWithUbeswap",
      "outputs": [],
      "stateMutability": "nonpayable",
      "type": "function"
    },
    {
      "inputs": [
        {
          "internalType": "address",
          "name": "newOwner",
          "type": "address"
        }
      ],
      "name": "transferOwnership",
      "outputs": [],
      "stateMutability": "nonpayable",
      "type": "function"
    },
    {
      "inputs": [
        {
          "internalType": "address",
          "name": "token0",
          "type": "address"
        },
        {
          "internalType": "address",
          "name": "token1",
          "type": "address"
        },
        {
          "internalType": "uint256",
          "name": "token0Amount",
          "type": "uint256"
        },
        {
          "internalType": "uint256",
          "name": "token1Amount",
          "type": "uint256"
        },
        {
          "internalType": "uint256",
          "name": "percentMin",
          "type": "uint256"
        },
        {
          "internalType": "uint256",
          "name": "pid",
          "type": "uint256"
        }
      ],
      "name": "zapInWithSushiswap",
      "outputs": [],
      "stateMutability": "nonpayable",
      "type": "function"
    },
    {
      "inputs": [
        {
          "internalType": "address",
          "name": "token0",
          "type": "address"
        },
        {
          "internalType": "address",
          "name": "token1",
          "type": "address"
        },
        {
          "internalType": "uint256",
          "name": "token0Amount",
          "type": "uint256"
        },
        {
          "internalType": "uint256",
          "name": "token1Amount",
          "type": "uint256"
        },
        {
          "internalType": "uint256",
          "name": "percentMin",
          "type": "uint256"
        }
      ],
      "name": "zapInWithUbeswap",
      "outputs": [],
      "stateMutability": "nonpayable",
      "type": "function"
    }
  ],
  "transactionHash": "0x3006beafdd47eb693b00b73c17b784b82d57e5108050af0d84d8fd7b6c1d5ec6",
  "args": [
    "0x76cAD835648Edee3d460Ba8c48517f6924A6CF4B",
    "0x3C655Fd232B11504C778021c304010f5aAF68958"
  ],
  "numDeployments": 1,
  "solcInputHash": "e5f4a56fc0d021f11bf3d7ca12a2d904",
  "bytecode": "0x60803461006b57601f610fed38819003918201601f19168301916001600160401b0383118484101761007057808492604094855283398101031261006b5780610056602061004f61005c94610086565b9201610086565b9061009a565b604051610eea90816101038239f35b600080fd5b634e487b7160e01b600052604160045260246000fd5b51906001600160a01b038216820361006b57565b600080546001600160a01b031980821633908117845560405191956001600160a01b0395909486949193918516917f8be0079c531659141344cd1fd0a4f28419497f9722a3daafe3b4186f6b6457e09190a3168360015416176001551690600254161760025556fe60806040526004361015610013575b600080fd5b6000803560e01c9081630ca6cb04146100a2575080632c9bd76c14610099578063715018a6146100905780638da5cb5b146100875780638fb485591461007e5780639b0d6264146100755763f2fde38b1461006d57600080fd5b61000e61070b565b5061000e6105d6565b5061000e610501565b5061000e6104ae565b5061000e610409565b5061000e610312565b3461021857806100b13661023e565b9291936101358573ffffffffffffffffffffffffffffffffffffffff989793986100f486828716926100e58230338761098a565b8616926100f48530338761098a565b61012f61011660015473ffffffffffffffffffffffffffffffffffffffff1690565b73ffffffffffffffffffffffffffffffffffffffff1690565b90610aaf565b61015761011660015473ffffffffffffffffffffffffffffffffffffffff1690565b93843b15610214576040517fd2434d4500000000000000000000000000000000000000000000000000000000815273ffffffffffffffffffffffffffffffffffffffff938416600482015291909216602482015260448101929092526064820193909352608481019490945260a48401919091523360c4840152829060e490829084905af18015610207575b6101ee575b50604051f35b806101fb610201926108ff565b806103fe565b816101e8565b61020f61097d565b6101e3565b8680fd5b80fd5b6004359073ffffffffffffffffffffffffffffffffffffffff8216820361000e57565b7ffffffffffffffffffffffffffffffffffffffffffffffffffffffffffffffffc60c091011261000e5773ffffffffffffffffffffffffffffffffffffffff90600435828116810361000e5791602435908116810361000e579060443590606435906084359060a43590565b7ffffffffffffffffffffffffffffffffffffffffffffffffffffffffffffffffc60a091011261000e5773ffffffffffffffffffffffffffffffffffffffff90600435828116810361000e5791602435908116810361000e5790604435906064359060843590565b503461000e57610321366102aa565b93909173ffffffffffffffffffffffffffffffffffffffff6103578282851661034c8230338461098a565b836002541690610aaf565b6002541691823b1561000e576040517f58042a0300000000000000000000000000000000000000000000000000000000815273ffffffffffffffffffffffffffffffffffffffff9182166004820152941660248501526044840152606483019190915260848201929092523360a482015290600090829081838160c481015b03925af180156103f1575b6103e8575b005b6103e6906108ff565b6103f961097d565b6103e1565b600091031261000e57565b503461000e576000807ffffffffffffffffffffffffffffffffffffffffffffffffffffffffffffffffc3601126102185780547fffffffffffffffffffffffff000000000000000000000000000000000000000073ffffffffffffffffffffffffffffffffffffffff8216916104803384146107fb565b16825581604051917f8be0079c531659141344cd1fd0a4f28419497f9722a3daafe3b4186f6b6457e08284a3f35b503461000e5760007ffffffffffffffffffffffffffffffffffffffffffffffffffffffffffffffffc36011261000e57602073ffffffffffffffffffffffffffffffffffffffff60005416604051908152f35b503461000e576105103661023e565b939192909473ffffffffffffffffffffffffffffffffffffffff6105488382841661053d8230338461098a565b836001541690610aaf565b6001541692833b1561000e576040517ffec4af6000000000000000000000000000000000000000000000000000000000815273ffffffffffffffffffffffffffffffffffffffff92831660048201529116602482015260448101919091526064810192909252608482019390935260a48101919091523360c482015290600090829081838160e481016103d6565b503461000e576105e5366102aa565b9390916106468373ffffffffffffffffffffffffffffffffffffffff61062484828716926106158230338761098a565b8916926106248530338761098a565b61012f61011660025473ffffffffffffffffffffffffffffffffffffffff1690565b61066861011660025473ffffffffffffffffffffffffffffffffffffffff1690565b91823b1561000e576040517f9c697d9400000000000000000000000000000000000000000000000000000000815273ffffffffffffffffffffffffffffffffffffffff9182166004820152941660248501526044840152606483019190915260848201929092523360a482015290600090829060c490829084905af180156106fe575b6106f157005b806101fb6103e6926108ff565b61070661097d565b6106eb565b503461000e5760207ffffffffffffffffffffffffffffffffffffffffffffffffffffffffffffffffc36011261000e5761074361021b565b73ffffffffffffffffffffffffffffffffffffffff610767816000541633146107fb565b811615610777576103e690610860565b60846040517f08c379a000000000000000000000000000000000000000000000000000000000815260206004820152602660248201527f4f776e61626c653a206e6577206f776e657220697320746865207a65726f206160448201527f64647265737300000000000000000000000000000000000000000000000000006064820152fd5b1561080257565b60646040517f08c379a000000000000000000000000000000000000000000000000000000000815260206004820152602060248201527f4f776e61626c653a2063616c6c6572206973206e6f7420746865206f776e65726044820152fd5b6000549073ffffffffffffffffffffffffffffffffffffffff80911691827fffffffffffffffffffffffff0000000000000000000000000000000000000000821617600055167f8be0079c531659141344cd1fd0a4f28419497f9722a3daafe3b4186f6b6457e06000604051a3565b507f4e487b7100000000000000000000000000000000000000000000000000000000600052604160045260246000fd5b67ffffffffffffffff811161091357604052565b61091b6108cf565b604052565b6040810190811067ffffffffffffffff82111761091357604052565b90601f7fffffffffffffffffffffffffffffffffffffffffffffffffffffffffffffffe0910116810190811067ffffffffffffffff82111761091357604052565b506040513d6000823e3d90fd5b9092610a0693604051937f23b872dd00000000000000000000000000000000000000000000000000000000602086015273ffffffffffffffffffffffffffffffffffffffff809216602486015216604484015260648301526064825260a0820182811067ffffffffffffffff821117610a08575b604052610c90565b565b610a106108cf565b6109fe565b9081602091031261000e575190565b15610a2b57565b60846040517f08c379a000000000000000000000000000000000000000000000000000000000815260206004820152603660248201527f5361666545524332303a20617070726f76652066726f6d206e6f6e2d7a65726f60448201527f20746f206e6f6e2d7a65726f20616c6c6f77616e6365000000000000000000006064820152fd5b610b24610a06939283158015610b29575b610ac990610a24565b6040517f095ea7b300000000000000000000000000000000000000000000000000000000602082015273ffffffffffffffffffffffffffffffffffffffff91909116602482015260448082019490945292835260648361093c565b610c90565b506040517fdd62ed3e00000000000000000000000000000000000000000000000000000000815230600482015273ffffffffffffffffffffffffffffffffffffffff82166024820152610ac9906020818060448101038173ffffffffffffffffffffffffffffffffffffffff89165afa908115610be0575b600091610bb2575b50159050610ac0565b610bd3915060203d8111610bd9575b610bcb818361093c565b810190610a15565b38610ba9565b503d610bc1565b610be861097d565b610ba1565b9081602091031261000e5751801515810361000e5790565b15610c0c57565b60846040517f08c379a000000000000000000000000000000000000000000000000000000000815260206004820152602a60248201527f5361666545524332303a204552433230206f7065726174696f6e20646964206e60448201527f6f742073756363656564000000000000000000000000000000000000000000006064820152fd5b73ffffffffffffffffffffffffffffffffffffffff169060405190610cb482610920565b6020928383527f5361666545524332303a206c6f772d6c6576656c2063616c6c206661696c656484840152803b15610d2b5760008281928287610d069796519301915af1610d00610d89565b90610df5565b80519081610d1357505050565b82610a0693610d26938301019101610bed565b610c05565b606484604051907f08c379a00000000000000000000000000000000000000000000000000000000082526004820152601d60248201527f416464726573733a2063616c6c20746f206e6f6e2d636f6e74726163740000006044820152fd5b3d15610df0573d9067ffffffffffffffff8211610de3575b60405191610dd760207fffffffffffffffffffffffffffffffffffffffffffffffffffffffffffffffe0601f840116018461093c565b82523d6000602084013e565b610deb6108cf565b610da1565b606090565b90919015610e01575090565b815115610e115750805190602001fd5b604051907f08c379a00000000000000000000000000000000000000000000000000000000082528160208060048301528251928360248401526000915b848310610e9b575050601f836044947fffffffffffffffffffffffffffffffffffffffffffffffffffffffffffffffe09311610e8e575b01168101030190fd5b6000858286010152610e85565b8183018101518684016044015285935091820191610e4e56fea2646970667358221220da5a326476a343cf372610be75b9403950827d62080e816b8d45a61bcef5f9f964736f6c634300080d0033",
  "devdoc": {
    "kind": "dev",
    "methods": {
      "owner()": {
        "details": "Returns the address of the current owner."
      },
      "renounceOwnership()": {
        "details": "Leaves the contract without owner. It will not be possible to call `onlyOwner` functions anymore. Can only be called by the current owner. NOTE: Renouncing ownership will leave the contract without an owner, thereby removing any functionality that is only available to the owner."
      },
      "transferOwnership(address)": {
        "details": "Transfers ownership of the contract to a new account (`newOwner`). Can only be called by the current owner."
      }
    },
    "version": 1
  },
  "userdoc": {
    "kind": "user",
    "methods": {},
    "version": 1
  },
  "storageLayout": {
    "storage": [
      {
        "astId": 389,
        "contract": "contracts/defi/OperatorProxy.sol:OperatorProxy",
        "label": "_owner",
        "offset": 0,
        "slot": "0",
        "type": "t_address"
      },
      {
        "astId": 2866,
        "contract": "contracts/defi/OperatorProxy.sol:OperatorProxy",
        "label": "sushiOperator",
        "offset": 0,
        "slot": "1",
        "type": "t_contract(ISushiOperator)4457"
      },
      {
        "astId": 2869,
        "contract": "contracts/defi/OperatorProxy.sol:OperatorProxy",
        "label": "ubeswapOperator",
        "offset": 0,
        "slot": "2",
        "type": "t_contract(IUbeswapOperator)4490"
      }
    ],
    "types": {
      "t_address": {
        "encoding": "inplace",
        "label": "address",
        "numberOfBytes": "20"
      },
      "t_contract(ISushiOperator)4457": {
        "encoding": "inplace",
        "label": "contract ISushiOperator",
        "numberOfBytes": "20"
      },
      "t_contract(IUbeswapOperator)4490": {
        "encoding": "inplace",
        "label": "contract IUbeswapOperator",
        "numberOfBytes": "20"
      }
    }
  }
}