{
  "address": "0x3744f2c40F2B26055ffff634C366b4eCF9C2b2f1",
  "abi": [
    {
      "inputs": [
        {
          "internalType": "address",
          "name": "_sushiOperator",
          "type": "address"
        },
        {
          "internalType": "address",
          "name": "_ubeswapOperator",
          "type": "address"
        }
      ],
      "stateMutability": "nonpayable",
      "type": "constructor"
    },
    {
      "anonymous": false,
      "inputs": [
        {
          "indexed": true,
          "internalType": "address",
          "name": "previousOwner",
          "type": "address"
        },
        {
          "indexed": true,
          "internalType": "address",
          "name": "newOwner",
          "type": "address"
        }
      ],
      "name": "OwnershipTransferred",
      "type": "event"
    },
    {
      "inputs": [],
      "name": "owner",
      "outputs": [
        {
          "internalType": "address",
          "name": "",
          "type": "address"
        }
      ],
      "stateMutability": "view",
      "type": "function"
    },
    {
      "inputs": [],
      "name": "renounceOwnership",
      "outputs": [],
      "stateMutability": "nonpayable",
      "type": "function"
    },
    {
      "inputs": [
        {
          "internalType": "address",
          "name": "from",
          "type": "address"
        },
        {
          "internalType": "address",
          "name": "to",
          "type": "address"
        },
        {
          "internalType": "uint256",
          "name": "fromAmount",
          "type": "uint256"
        },
        {
          "internalType": "uint256",
          "name": "minAmountOut",
          "type": "uint256"
        },
        {
          "internalType": "uint256",
          "name": "percentMin",
          "type": "uint256"
        },
        {
          "internalType": "uint256",
          "name": "pid",
          "type": "uint256"
        }
      ],
      "name": "swapAndZapInWithSushiwap",
      "outputs": [],
      "stateMutability": "nonpayable",
      "type": "function"
    },
    {
      "inputs": [
        {
          "internalType": "address",
          "name": "from",
          "type": "address"
        },
        {
          "internalType": "address",
          "name": "to",
          "type": "address"
        },
        {
          "internalType": "uint256",
          "name": "fromAmount",
          "type": "uint256"
        },
        {
          "internalType": "uint256",
          "name": "minAmountOut",
          "type": "uint256"
        },
        {
          "internalType": "uint256",
          "name": "percentMin",
          "type": "uint256"
        }
      ],
      "name": "swapAndZapInWithUbeswap",
      "outputs": [],
      "stateMutability": "nonpayable",
      "type": "function"
    },
    {
      "inputs": [
        {
          "internalType": "address",
          "name": "newOwner",
          "type": "address"
        }
      ],
      "name": "transferOwnership",
      "outputs": [],
      "stateMutability": "nonpayable",
      "type": "function"
    },
    {
      "inputs": [
        {
          "internalType": "address",
          "name": "token0",
          "type": "address"
        },
        {
          "internalType": "address",
          "name": "token1",
          "type": "address"
        },
        {
          "internalType": "uint256",
          "name": "token0Amount",
          "type": "uint256"
        },
        {
          "internalType": "uint256",
          "name": "token1Amount",
          "type": "uint256"
        },
        {
          "internalType": "uint256",
          "name": "percentMin",
          "type": "uint256"
        },
        {
          "internalType": "uint256",
          "name": "pid",
          "type": "uint256"
        }
      ],
      "name": "zapInWithSushiswap",
      "outputs": [],
      "stateMutability": "nonpayable",
      "type": "function"
    },
    {
      "inputs": [
        {
          "internalType": "address",
          "name": "token0",
          "type": "address"
        },
        {
          "internalType": "address",
          "name": "token1",
          "type": "address"
        },
        {
          "internalType": "uint256",
          "name": "token0Amount",
          "type": "uint256"
        },
        {
          "internalType": "uint256",
          "name": "token1Amount",
          "type": "uint256"
        },
        {
          "internalType": "uint256",
          "name": "percentMin",
          "type": "uint256"
        }
      ],
      "name": "zapInWithUbeswap",
      "outputs": [],
      "stateMutability": "nonpayable",
      "type": "function"
    }
  ],
  "transactionHash": "0x241615a9d181110b39ed429e213a46bd469eb3897d63d2c3d12d5117d3a6aa48",
  "args": [
    "0x82C8E6012208CDeDEFF769Ae5C063D5932DDd240",
    "0x60D1Fc74Ba80B8439EC565518676dc2E0623cD96"
  ],
  "numDeployments": 1,
  "solcInputHash": "f3e962637861feb26a5d3a1835f50046",
  "bytecode": "0x608060405234801561001057600080fd5b50604051610fd9380380610fd983398101604081905261002f916100d5565b61003833610069565b600180546001600160a01b039384166001600160a01b03199182161790915560028054929093169116179055610107565b600080546001600160a01b038381166001600160a01b0319831681178455604051919092169283917f8be0079c531659141344cd1fd0a4f28419497f9722a3daafe3b4186f6b6457e09190a35050565b80516001600160a01b03811681146100d057600080fd5b919050565b600080604083850312156100e7578182fd5b6100f0836100b9565b91506100fe602084016100b9565b90509250929050565b610ec3806101166000396000f3fe608060405234801561001057600080fd5b506004361061007d5760003560e01c80638da5cb5b1161005b5780638da5cb5b146100b25780638fb48559146100de5780639b0d6264146100f1578063f2fde38b1461010457600080fd5b80630ca6cb04146100825780632c9bd76c14610097578063715018a6146100aa575b600080fd5b610095610090366004610d68565b610117565b005b6100956100a5366004610d1c565b610261565b61009561035a565b6000546040805173ffffffffffffffffffffffffffffffffffffffff9092168252519081900360200190f35b6100956100ec366004610d68565b6103ec565b6100956100ff366004610d1c565b6104b7565b610095610112366004610d02565b6105c4565b61013973ffffffffffffffffffffffffffffffffffffffff87163330876106f4565b61015b73ffffffffffffffffffffffffffffffffffffffff86163330866106f4565b6001546101829073ffffffffffffffffffffffffffffffffffffffff8881169116866107d6565b6001546101a99073ffffffffffffffffffffffffffffffffffffffff8781169116856107d6565b6001546040517fd2434d4500000000000000000000000000000000000000000000000000000000815273ffffffffffffffffffffffffffffffffffffffff8881166004830152878116602483015260448201879052606482018690526084820185905260a482018490523360c48301529091169063d2434d459060e4015b600060405180830381600087803b15801561024157600080fd5b505af1158015610255573d6000803e3d6000fd5b50505050505050505050565b61028373ffffffffffffffffffffffffffffffffffffffff86163330866106f4565b6002546102aa9073ffffffffffffffffffffffffffffffffffffffff8781169116856107d6565b6002546040517f58042a0300000000000000000000000000000000000000000000000000000000815273ffffffffffffffffffffffffffffffffffffffff878116600483015286811660248301526044820186905260648201859052608482018490523360a4830152909116906358042a039060c4015b600060405180830381600087803b15801561033b57600080fd5b505af115801561034f573d6000803e3d6000fd5b505050505050505050565b60005473ffffffffffffffffffffffffffffffffffffffff1633146103e0576040517f08c379a000000000000000000000000000000000000000000000000000000000815260206004820181905260248201527f4f776e61626c653a2063616c6c6572206973206e6f7420746865206f776e657260448201526064015b60405180910390fd5b6103ea600061096c565b565b61040e73ffffffffffffffffffffffffffffffffffffffff87163330876106f4565b6001546104359073ffffffffffffffffffffffffffffffffffffffff8881169116866107d6565b6001546040517ffec4af6000000000000000000000000000000000000000000000000000000000815273ffffffffffffffffffffffffffffffffffffffff8881166004830152878116602483015260448201879052606482018690526084820185905260a482018490523360c48301529091169063fec4af609060e401610227565b6104d973ffffffffffffffffffffffffffffffffffffffff86163330866106f4565b6104fb73ffffffffffffffffffffffffffffffffffffffff85163330856106f4565b6002546105229073ffffffffffffffffffffffffffffffffffffffff8781169116856107d6565b6002546105499073ffffffffffffffffffffffffffffffffffffffff8681169116846107d6565b6002546040517f9c697d9400000000000000000000000000000000000000000000000000000000815273ffffffffffffffffffffffffffffffffffffffff878116600483015286811660248301526044820186905260648201859052608482018490523360a483015290911690639c697d949060c401610321565b60005473ffffffffffffffffffffffffffffffffffffffff163314610645576040517f08c379a000000000000000000000000000000000000000000000000000000000815260206004820181905260248201527f4f776e61626c653a2063616c6c6572206973206e6f7420746865206f776e657260448201526064016103d7565b73ffffffffffffffffffffffffffffffffffffffff81166106e8576040517f08c379a000000000000000000000000000000000000000000000000000000000815260206004820152602660248201527f4f776e61626c653a206e6577206f776e657220697320746865207a65726f206160448201527f646472657373000000000000000000000000000000000000000000000000000060648201526084016103d7565b6106f18161096c565b50565b60405173ffffffffffffffffffffffffffffffffffffffff808516602483015283166044820152606481018290526107d09085907f23b872dd00000000000000000000000000000000000000000000000000000000906084015b604080517fffffffffffffffffffffffffffffffffffffffffffffffffffffffffffffffe08184030181529190526020810180517bffffffffffffffffffffffffffffffffffffffffffffffffffffffff167fffffffff00000000000000000000000000000000000000000000000000000000909316929092179091526109e1565b50505050565b80158061088557506040517fdd62ed3e00000000000000000000000000000000000000000000000000000000815230600482015273ffffffffffffffffffffffffffffffffffffffff838116602483015284169063dd62ed3e9060440160206040518083038186803b15801561084b57600080fd5b505afa15801561085f573d6000803e3d6000fd5b505050506040513d601f19601f820116820180604052508101906108839190610ddc565b155b610911576040517f08c379a000000000000000000000000000000000000000000000000000000000815260206004820152603660248201527f5361666545524332303a20617070726f76652066726f6d206e6f6e2d7a65726f60448201527f20746f206e6f6e2d7a65726f20616c6c6f77616e63650000000000000000000060648201526084016103d7565b60405173ffffffffffffffffffffffffffffffffffffffff83166024820152604481018290526109679084907f095ea7b3000000000000000000000000000000000000000000000000000000009060640161074e565b505050565b6000805473ffffffffffffffffffffffffffffffffffffffff8381167fffffffffffffffffffffffff0000000000000000000000000000000000000000831681178455604051919092169283917f8be0079c531659141344cd1fd0a4f28419497f9722a3daafe3b4186f6b6457e09190a35050565b6000610a43826040518060400160405280602081526020017f5361666545524332303a206c6f772d6c6576656c2063616c6c206661696c65648152508573ffffffffffffffffffffffffffffffffffffffff16610aed9092919063ffffffff16565b8051909150156109675780806020019051810190610a619190610dbc565b610967576040517f08c379a000000000000000000000000000000000000000000000000000000000815260206004820152602a60248201527f5361666545524332303a204552433230206f7065726174696f6e20646964206e60448201527f6f7420737563636565640000000000000000000000000000000000000000000060648201526084016103d7565b6060610afc8484600085610b06565b90505b9392505050565b606082471015610b98576040517f08c379a000000000000000000000000000000000000000000000000000000000815260206004820152602660248201527f416464726573733a20696e73756666696369656e742062616c616e636520666f60448201527f722063616c6c000000000000000000000000000000000000000000000000000060648201526084016103d7565b843b610c00576040517f08c379a000000000000000000000000000000000000000000000000000000000815260206004820152601d60248201527f416464726573733a2063616c6c20746f206e6f6e2d636f6e747261637400000060448201526064016103d7565b6000808673ffffffffffffffffffffffffffffffffffffffff168587604051610c299190610df4565b60006040518083038185875af1925050503d8060008114610c66576040519150601f19603f3d011682016040523d82523d6000602084013e610c6b565b606091505b5091509150610c7b828286610c86565b979650505050505050565b60608315610c95575081610aff565b825115610ca55782518084602001fd5b816040517f08c379a00000000000000000000000000000000000000000000000000000000081526004016103d79190610e10565b803573ffffffffffffffffffffffffffffffffffffffff81168114610cfd57600080fd5b919050565b600060208284031215610d13578081fd5b610aff82610cd9565b600080600080600060a08688031215610d33578081fd5b610d3c86610cd9565b9450610d4a60208701610cd9565b94979496505050506040830135926060810135926080909101359150565b60008060008060008060c08789031215610d80578081fd5b610d8987610cd9565b9550610d9760208801610cd9565b95989597505050506040840135936060810135936080820135935060a0909101359150565b600060208284031215610dcd578081fd5b81518015158114610aff578182fd5b600060208284031215610ded578081fd5b5051919050565b60008251610e06818460208701610e61565b9190910192915050565b6020815260008251806020840152610e2f816040850160208701610e61565b601f017fffffffffffffffffffffffffffffffffffffffffffffffffffffffffffffffe0169190910160400192915050565b60005b83811015610e7c578181015183820152602001610e64565b838111156107d0575050600091015256fea26469706673582212207d8a00699aa5538024c79b2233272b6b9cd5144bf18f1d914cff87d43f7fec3364736f6c63430008040033",
  "devdoc": {
    "kind": "dev",
    "methods": {
      "owner()": {
        "details": "Returns the address of the current owner."
      },
      "renounceOwnership()": {
        "details": "Leaves the contract without owner. It will not be possible to call `onlyOwner` functions anymore. Can only be called by the current owner. NOTE: Renouncing ownership will leave the contract without an owner, thereby removing any functionality that is only available to the owner."
      },
      "transferOwnership(address)": {
        "details": "Transfers ownership of the contract to a new account (`newOwner`). Can only be called by the current owner."
      }
    },
    "version": 1
  },
  "userdoc": {
    "kind": "user",
    "methods": {},
    "version": 1
  },
  "storageLayout": {
    "storage": [
      {
        "astId": 389,
        "contract": "contracts/defi/OperatorProxy.sol:OperatorProxy",
        "label": "_owner",
        "offset": 0,
        "slot": "0",
        "type": "t_address"
      },
      {
        "astId": 2633,
        "contract": "contracts/defi/OperatorProxy.sol:OperatorProxy",
        "label": "sushiOperator",
        "offset": 0,
        "slot": "1",
        "type": "t_contract(ISushiOperator)3740"
      },
      {
        "astId": 2636,
        "contract": "contracts/defi/OperatorProxy.sol:OperatorProxy",
        "label": "ubeswapOperator",
        "offset": 0,
        "slot": "2",
        "type": "t_contract(IUbeswapOperator)3773"
      }
    ],
    "types": {
      "t_address": {
        "encoding": "inplace",
        "label": "address",
        "numberOfBytes": "20"
      },
      "t_contract(ISushiOperator)3740": {
        "encoding": "inplace",
        "label": "contract ISushiOperator",
        "numberOfBytes": "20"
      },
      "t_contract(IUbeswapOperator)3773": {
        "encoding": "inplace",
        "label": "contract IUbeswapOperator",
        "numberOfBytes": "20"
      }
    }
  }
}