{
  "address": "0xa1e1769896Aec0092e118B89dDf031Dde9f46042",
  "abi": [
    {
      "inputs": [
        {
          "internalType": "address",
          "name": "_router",
          "type": "address"
        },
        {
          "internalType": "address",
          "name": "_factory",
          "type": "address"
        },
        {
          "internalType": "address",
          "name": "_farmBot",
          "type": "address"
        },
        {
          "internalType": "address",
          "name": "_rewarder",
          "type": "address"
        }
      ],
      "stateMutability": "nonpayable",
      "type": "constructor"
    },
    {
      "anonymous": false,
      "inputs": [
        {
          "indexed": true,
          "internalType": "address",
          "name": "user",
          "type": "address"
        },
        {
          "indexed": false,
          "internalType": "address",
          "name": "token0",
          "type": "address"
        },
        {
          "indexed": false,
          "internalType": "address",
          "name": "token1",
          "type": "address"
        },
        {
          "indexed": false,
          "internalType": "uint256",
          "name": "token0Amount",
          "type": "uint256"
        },
        {
          "indexed": false,
          "internalType": "uint256",
          "name": "token1Amount",
          "type": "uint256"
        },
        {
          "indexed": true,
          "internalType": "bool",
          "name": "swap",
          "type": "bool"
        }
      ],
      "name": "Deposit",
      "type": "event"
    },
    {
      "anonymous": false,
      "inputs": [
        {
          "indexed": true,
          "internalType": "address",
          "name": "previousOwner",
          "type": "address"
        },
        {
          "indexed": true,
          "internalType": "address",
          "name": "newOwner",
          "type": "address"
        }
      ],
      "name": "OwnershipTransferred",
      "type": "event"
    },
    {
      "inputs": [],
      "name": "factory",
      "outputs": [
        {
          "internalType": "address",
          "name": "",
          "type": "address"
        }
      ],
      "stateMutability": "view",
      "type": "function"
    },
    {
      "inputs": [],
      "name": "farmBot",
      "outputs": [
        {
          "internalType": "contract IRevoFarmBot",
          "name": "",
          "type": "address"
        }
      ],
      "stateMutability": "view",
      "type": "function"
    },
    {
      "inputs": [],
      "name": "owner",
      "outputs": [
        {
          "internalType": "address",
          "name": "",
          "type": "address"
        }
      ],
      "stateMutability": "view",
      "type": "function"
    },
    {
      "inputs": [],
      "name": "renounceOwnership",
      "outputs": [],
      "stateMutability": "nonpayable",
      "type": "function"
    },
    {
      "inputs": [],
      "name": "router",
      "outputs": [
        {
          "internalType": "address",
          "name": "",
          "type": "address"
        }
      ],
      "stateMutability": "view",
      "type": "function"
    },
    {
      "inputs": [
        {
          "internalType": "address",
          "name": "_rewarder",
          "type": "address"
        }
      ],
      "name": "setRewarder",
      "outputs": [],
      "stateMutability": "nonpayable",
      "type": "function"
    },
    {
      "inputs": [
        {
          "internalType": "address",
          "name": "from",
          "type": "address"
        },
        {
          "internalType": "address",
          "name": "to",
          "type": "address"
        },
        {
          "internalType": "uint256",
          "name": "fromAmount",
          "type": "uint256"
        },
        {
          "internalType": "uint256",
          "name": "minAmountOut",
          "type": "uint256"
        },
        {
          "internalType": "uint256",
          "name": "percentMin",
          "type": "uint256"
        }
      ],
      "name": "swapAndZapIn",
      "outputs": [],
      "stateMutability": "nonpayable",
      "type": "function"
    },
    {
      "inputs": [
        {
          "internalType": "address",
          "name": "newOwner",
          "type": "address"
        }
      ],
      "name": "transferOwnership",
      "outputs": [],
      "stateMutability": "nonpayable",
      "type": "function"
    },
    {
      "inputs": [
        {
          "internalType": "address",
          "name": "token0",
          "type": "address"
        },
        {
          "internalType": "address",
          "name": "token1",
          "type": "address"
        },
        {
          "internalType": "uint256",
          "name": "token0Amount",
          "type": "uint256"
        },
        {
          "internalType": "uint256",
          "name": "token1Amount",
          "type": "uint256"
        },
        {
          "internalType": "uint256",
          "name": "percentMin",
          "type": "uint256"
        }
      ],
      "name": "zapIn",
      "outputs": [],
      "stateMutability": "nonpayable",
      "type": "function"
    },
    {
      "stateMutability": "payable",
      "type": "receive"
    }
  ],
  "transactionHash": "0x3032688138e0963095bb9341c5c12176275d46b357134ca21db04cbb3beca3d9",
  "args": [
    "0xE3D8bd6Aed4F159bc8000a9cD47CffDb95F96121",
    "0x62d5b84bE28a183aBB507E125B384122D2C25fAE",
    "0xCB34fbfC3b9a73bc04D2eb43B62532c7918d9E81",
    "0x08da61b51AAcEB6DCf147A3a682BA8121158366F"
  ],
  "numDeployments": 1,
  "solcInputHash": "e5f4a56fc0d021f11bf3d7ca12a2d904",
  "bytecode": "0x60e034620000cb57601f62001e1138819003918201601f19168301916001600160401b03831184841017620000d057808492608094604052833981010312620000cb5780620000526200008492620000e6565b906200006160208201620000e6565b6200007d60606200007560408501620000e6565b9301620000e6565b92620000fb565b604051611cad9081620001648239608051818181610a1701526117bb015260a051818181610140015281816108b30152611262015260c051818181610691015261130d0152f35b600080fd5b634e487b7160e01b600052604160045260246000fd5b51906001600160a01b0382168203620000cb57565b60805260a052600080546001600160a01b031980821633908117845560405191956001600160a01b0395909486949193918516917f8be0079c531659141344cd1fd0a4f28419497f9722a3daafe3b4186f6b6457e09190a31660c0521690600154161760015556fe60406080815260049081361015610020575b5050361561001e57600080fd5b005b600090813560e01c9283632ea89940146100e25750505080633a6462e4146100d95780635c7768b2146100d0578063715018a6146100c757806373d3bcca146100be5780638da5cb5b146100b5578063c45a0155146100ac578063f2fde38b146100a35763f887ea4014610096575b3880610011565b61009e6109cb565b61008f565b5061009e6108d7565b5061009e610867565b5061009e610814565b5061009e61075d565b5061009e6106b5565b5061009e610645565b5061009e6105a8565b3461052f576101f58361019c61017c61020f83868861010036610556565b97849c849a95929893949773ffffffffffffffffffffffffffffffffffffffff988995868616976101338130338c610c09565b60011c9e8f9261016481897f0000000000000000000000000000000000000000000000000000000000000000611aaf565b9a8b986101976101726114ca565b9161017c83611505565b9073ffffffffffffffffffffffffffffffffffffffff169052565b611541565b895180809581947fa9059cbb00000000000000000000000000000000000000000000000000000000835260209c8d9784016020909392919373ffffffffffffffffffffffffffffffffffffffff60408201951681520152565b0391895af1908115610522575b8d916104f5575b50611551565b16938351927f0902f1ac0000000000000000000000000000000000000000000000000000000084528c60608582818a5afa9485156104e8575b8c908d966104b6575b5082906dffffffffffffffffffffffffffff8091169616965180927f0dfe1681000000000000000000000000000000000000000000000000000000008252818a5afa9182156104a9575b8c9261047c575b505016036103c2576102c1916102b891886119ef565b9283101561161f565b6102c96116aa565b92813b156103be5761033787610392956103549460019c7f971ee547d75474a5cde4443be743892dd2f75b78790a8ce73af7dccda9fe4c3a9b8f518096819582947f022c0d9f0000000000000000000000000000000000000000000000000000000084528c3091850161171c565b03925af180156103b1575b610398575b505b33908387878b610f52565b87519384933397859092606092959493608083019673ffffffffffffffffffffffffffffffffffffffff809216845216602083015260408201520152565b0390a351f35b806103a56103ab92610b6f565b8061063a565b8b610347565b6103b9610f36565b610342565b8680fd5b6102b8906103d092886119ef565b6103d86116aa565b92813b156103be5761044687610392956103549460019c7f971ee547d75474a5cde4443be743892dd2f75b78790a8ce73af7dccda9fe4c3a9b8f518096819582947f022c0d9f0000000000000000000000000000000000000000000000000000000084528c309185016116e3565b03925af1801561046f575b61045c575b50610349565b806103a561046992610b6f565b8b610456565b610477610f36565b610451565b61049b9250803d106104a2575b6104938183610bc8565b810190611607565b8f806102a2565b503d610489565b6104b1610f36565b61029b565b8396506104da915060603d81116104e1575b6104d28183610bc8565b8101906115d1565b5095610251565b503d6104c8565b6104f0610f36565b610248565b6105159150863d881161051b575b61050d8183610bc8565b810190610cf5565b38610209565b503d610503565b61052a610f36565b610202565b8280fd5b73ffffffffffffffffffffffffffffffffffffffff81160361055157565b600080fd5b7ffffffffffffffffffffffffffffffffffffffffffffffffffffffffffffffffc60a09101126105515760043561058c81610533565b9060243561059981610533565b90604435906064359060843590565b50346105515760207ffffffffffffffffffffffffffffffffffffffffffffffffffffffffffffffffc360112610551576004356105e481610533565b73ffffffffffffffffffffffffffffffffffffffff9061060982600054163314610a3b565b167fffffffffffffffffffffffff000000000000000000000000000000000000000060015416176001556000604051f35b600091031261055157565b50346105515760007ffffffffffffffffffffffffffffffffffffffffffffffffffffffffffffffffc36011261055157602060405173ffffffffffffffffffffffffffffffffffffffff7f0000000000000000000000000000000000000000000000000000000000000000168152f35b5034610551576000807ffffffffffffffffffffffffffffffffffffffffffffffffffffffffffffffffc36011261075a5780547fffffffffffffffffffffffff000000000000000000000000000000000000000073ffffffffffffffffffffffffffffffffffffffff82169161072c338414610a3b565b16825581604051917f8be0079c531659141344cd1fd0a4f28419497f9722a3daafe3b4186f6b6457e08284a3f35b80fd5b503461055157600061080f7f971ee547d75474a5cde4443be743892dd2f75b78790a8ce73af7dccda9fe4c3a6107d061079536610556565b6103498273ffffffffffffffffffffffffffffffffffffffff99959699979394976107c589308d84339116610c09565b309033908916610c09565b6040519384933397859092606092959493608083019673ffffffffffffffffffffffffffffffffffffffff809216845216602083015260408201520152565b0390a3005b50346105515760007ffffffffffffffffffffffffffffffffffffffffffffffffffffffffffffffffc36011261055157602073ffffffffffffffffffffffffffffffffffffffff60005416604051908152f35b50346105515760007ffffffffffffffffffffffffffffffffffffffffffffffffffffffffffffffffc36011261055157602060405173ffffffffffffffffffffffffffffffffffffffff7f0000000000000000000000000000000000000000000000000000000000000000168152f35b50346105515760207ffffffffffffffffffffffffffffffffffffffffffffffffffffffffffffffffc3601126105515760043561091381610533565b73ffffffffffffffffffffffffffffffffffffffff61093781600054163314610a3b565b8116156109475761001e90610aa0565b60846040517f08c379a000000000000000000000000000000000000000000000000000000000815260206004820152602660248201527f4f776e61626c653a206e6577206f776e657220697320746865207a65726f206160448201527f64647265737300000000000000000000000000000000000000000000000000006064820152fd5b50346105515760007ffffffffffffffffffffffffffffffffffffffffffffffffffffffffffffffffc36011261055157602060405173ffffffffffffffffffffffffffffffffffffffff7f0000000000000000000000000000000000000000000000000000000000000000168152f35b15610a4257565b60646040517f08c379a000000000000000000000000000000000000000000000000000000000815260206004820152602060248201527f4f776e61626c653a2063616c6c6572206973206e6f7420746865206f776e65726044820152fd5b6000549073ffffffffffffffffffffffffffffffffffffffff80911691827fffffffffffffffffffffffff0000000000000000000000000000000000000000821617600055167f8be0079c531659141344cd1fd0a4f28419497f9722a3daafe3b4186f6b6457e06000604051a3565b507f4e487b7100000000000000000000000000000000000000000000000000000000600052601160045260246000fd5b507f4e487b7100000000000000000000000000000000000000000000000000000000600052604160045260246000fd5b67ffffffffffffffff8111610b8357604052565b610b8b610b3f565b604052565b60a0810190811067ffffffffffffffff821117610b8357604052565b6040810190811067ffffffffffffffff821117610b8357604052565b90601f7fffffffffffffffffffffffffffffffffffffffffffffffffffffffffffffffe0910116810190811067ffffffffffffffff821117610b8357604052565b600091610cce949383926040519560208701937f23b872dd00000000000000000000000000000000000000000000000000000000855273ffffffffffffffffffffffffffffffffffffffff938480921660248a0152166044880152606487015260648652610c7686610b90565b16908260405195610c8687610bac565b602087527f5361666545524332303a206c6f772d6c6576656c2063616c6c206661696c65646020880152610cbc843b1515610d98565b51925af1610cc8610dfd565b90610ed8565b805180610cd9575050565b81602080610cee93610cf39501019101610cf5565b610d0d565b565b90816020910312610551575180151581036105515790565b15610d1457565b60846040517f08c379a000000000000000000000000000000000000000000000000000000000815260206004820152602a60248201527f5361666545524332303a204552433230206f7065726174696f6e20646964206e60448201527f6f742073756363656564000000000000000000000000000000000000000000006064820152fd5b15610d9f57565b60646040517f08c379a000000000000000000000000000000000000000000000000000000000815260206004820152601d60248201527f416464726573733a2063616c6c20746f206e6f6e2d636f6e74726163740000006044820152fd5b3d15610e64573d9067ffffffffffffffff8211610e57575b60405191610e4b60207fffffffffffffffffffffffffffffffffffffffffffffffffffffffffffffffe0601f8401160184610bc8565b82523d6000602084013e565b610e5f610b3f565b610e15565b606090565b91908251928382526000905b848210610ec05750601f84602094957fffffffffffffffffffffffffffffffffffffffffffffffffffffffffffffffe09311610eb3575b0116010190565b6000858286010152610eac565b90602090818082850101519082860101520190610e75565b90919015610ee4575090565b815115610ef45750805190602001fd5b610f32906040519182917f08c379a0000000000000000000000000000000000000000000000000000000008352602060048401526024830190610e69565b0390fd5b506040513d6000823e3d90fd5b90816020910312610551575190565b91909492610f64848683858a8861124a565b610f9f610f8660015473ffffffffffffffffffffffffffffffffffffffff1690565b73ffffffffffffffffffffffffffffffffffffffff1690565b91823b15610551576040517faa906c0b00000000000000000000000000000000000000000000000000000000815273ffffffffffffffffffffffffffffffffffffffff86811660048301528581166024830152881660448201526064810191909152608481019190915260a481019490945261115f936000918290829060c490829084905af1801561123d575b61122a575b506040517f70a0823100000000000000000000000000000000000000000000000000000000808252306004830152602096879591949293919273ffffffffffffffffffffffffffffffffffffffff919082168786602481845afa95861561121d575b84966111fe575b506040517fa9059cbb0000000000000000000000000000000000000000000000000000000080825273ffffffffffffffffffffffffffffffffffffffff8716600483015260248201979097529088908290604490829088905af180156111f1575b6111d4575b5060405195865230600487015216928585602481875afa9485156111c7575b8295611198575b50604051968795869485938452600484016020909392919373ffffffffffffffffffffffffffffffffffffffff60408201951681520152565b03925af1801561118b575b611172575050565b8161118892903d1061051b5761050d8183610bc8565b50565b611193610f36565b61116a565b6111b9919550863d88116111c0575b6111b18183610bc8565b810190610f43565b9338611126565b503d6111a7565b6111cf610f36565b61111f565b6111ea90883d8a1161051b5761050d8183610bc8565b5038611100565b6111f9610f36565b6110fb565b611216919650883d8a116111c0576111b18183610bc8565b943861109a565b611225610f36565b611093565b806103a561123792610b6f565b38611031565b611245610f36565b61102c565b61126061128695610f8695610f869585856117ad565b7f0000000000000000000000000000000000000000000000000000000000000000611aaf565b6040517f70a0823100000000000000000000000000000000000000000000000000000000808252306004830152602093928483602481845afa9283156114bd575b60009361149e575b506040517f095ea7b300000000000000000000000000000000000000000000000000000000815273ffffffffffffffffffffffffffffffffffffffff7f0000000000000000000000000000000000000000000000000000000000000000166004820181905260248201859052918690829060449082906000905af18015611491575b611474575b50803b15610551576040517fb6b55f25000000000000000000000000000000000000000000000000000000008152600481019390935261115f93859360008160248183875af18015611467575b611454575b506040519283523060048401528383602481855afa928315611447575b600093611428575b5060006040518096819582947fa9059cbb000000000000000000000000000000000000000000000000000000008452600484016020909392919373ffffffffffffffffffffffffffffffffffffffff60408201951681520152565b611440919350843d86116111c0576111b18183610bc8565b91386113cd565b61144f610f36565b6113c5565b806103a561146192610b6f565b386113a8565b61146f610f36565b6113a3565b61148a90863d881161051b5761050d8183610bc8565b5038611356565b611499610f36565b611351565b6114b6919350853d87116111c0576111b18183610bc8565b91386112cf565b6114c5610f36565b6112c7565b604051906060820182811067ffffffffffffffff8211176114f8575b60405260028252604082602036910137565b611500610b3f565b6114e6565b8051156115125760200190565b7f4e487b7100000000000000000000000000000000000000000000000000000000600052603260045260246000fd5b8051600110156115125760400190565b1561155857565b60646040517f08c379a000000000000000000000000000000000000000000000000000000000815260206004820152602060248201527f556e69737761704f70657261746f723a205472616e73666572206661696c65646044820152fd5b51906dffffffffffffffffffffffffffff8216820361055157565b90816060910312610551576115e5816115b6565b9160406115f4602084016115b6565b92015163ffffffff811681036105515790565b90816020910312610551575161161c81610533565b90565b1561162657565b60846040517f08c379a000000000000000000000000000000000000000000000000000000000815260206004820152602960248201527f556e69737761704f70657261746f723a204e6f7420656e6f756768206f75747060448201527f757420616d6f756e7400000000000000000000000000000000000000000000006064820152fd5b604051906000602083019280841067ffffffffffffffff8511176116d6575b8360405281815292369037565b6116de610b3f565b6116c9565b73ffffffffffffffffffffffffffffffffffffffff61161c94936080938352600060208401521660408201528160608201520190610e69565b73ffffffffffffffffffffffffffffffffffffffff61161c94936080936000845260208401521660408201528160608201520190610e69565b807fffffffffffffffffffffffffffffffffffffffffffffffffffffffffffffffff04821181151516611786570290565b61178e610b0f565b0290565b90816060910312610551578051916040602083015192015190565b93919260008560609561194e7f000000000000000000000000000000000000000000000000000000000000000095826040517f095ea7b3000000000000000000000000000000000000000000000000000000009081815289818061183b6020968794600484016020909392919373ffffffffffffffffffffffffffffffffffffffff60408201951681520152565b03818b73ffffffffffffffffffffffffffffffffffffffff809c165af180156119e2575b6119c5575b5060405190815273ffffffffffffffffffffffffffffffffffffffff891660048201526024810188905281816044818a878b165af180156119b8575b61199a575b50506118c86118ba6118c16118ba8b87611755565b6064900490565b9988611755565b6040517fe8e3370000000000000000000000000000000000000000000000000000000000815273ffffffffffffffffffffffffffffffffffffffff9b8c1660048201529a90911660248b015260448a01929092526064890194909452608488019590955260a48701949094523060c48701524260e4870152859384928390610104820190565b0393165af1801561198d575b6119615750565b6119819060603d8111611986575b6119798183610bc8565b810190611792565b505050565b503d61196f565b611995610f36565b61195a565b816119b092903d1061051b5761050d8183610bc8565b5038806118a5565b6119c0610f36565b6118a0565b6119db90833d851161051b5761050d8183610bc8565b5038611864565b6119ea610f36565b61185f565b919091611a317fffffffffffffffffffffffffffffffffffffffffffffffffffffffffffffffff916103e590808404821181151516611aa2575b029283611755565b92806103e89204821181151516611a95575b0281198111611a88575b01908115611a59570490565b7f4e487b7100000000000000000000000000000000000000000000000000000000600052601260045260246000fd5b611a90610b0f565b611a4d565b611a9d610b0f565b611a43565b611aaa610b0f565b611a29565b73ffffffffffffffffffffffffffffffffffffffff908184169382841693858514611b8e57611b4b956020951015611b885790925b611af18183161515611c12565b6040517fe6a4390500000000000000000000000000000000000000000000000000000000815273ffffffffffffffffffffffffffffffffffffffff9283166004820152919093166024820152938492839182906044820190565b0392165afa908115611b7b575b600091611b63575090565b61161c915060203d81116104a2576104938183610bc8565b611b83610f36565b611b58565b92611ae4565b60846040517f08c379a000000000000000000000000000000000000000000000000000000000815260206004820152602560248201527f556e697377617056324c6962726172793a204944454e544943414c5f4144445260448201527f45535345530000000000000000000000000000000000000000000000000000006064820152fd5b15611c1957565b60646040517f08c379a000000000000000000000000000000000000000000000000000000000815260206004820152601e60248201527f556e697377617056324c6962726172793a205a45524f5f4144445245535300006044820152fdfea2646970667358221220a294e0c98b3e2c7808fd526bb183f3840a4b54dd6ca4a7f4aa4c20979e7a927b64736f6c634300080d0033",
  "devdoc": {
    "kind": "dev",
    "methods": {
      "owner()": {
        "details": "Returns the address of the current owner."
      },
      "renounceOwnership()": {
        "details": "Leaves the contract without owner. It will not be possible to call `onlyOwner` functions anymore. Can only be called by the current owner. NOTE: Renouncing ownership will leave the contract without an owner, thereby removing any functionality that is only available to the owner."
      },
      "transferOwnership(address)": {
        "details": "Transfers ownership of the contract to a new account (`newOwner`). Can only be called by the current owner."
      }
    },
    "version": 1
  },
  "userdoc": {
    "kind": "user",
    "methods": {},
    "version": 1
  },
  "storageLayout": {
    "storage": [
      {
        "astId": 389,
        "contract": "contracts/defi/RevoOperator.sol:RevoOperator",
        "label": "_owner",
        "offset": 0,
        "slot": "0",
        "type": "t_address"
      },
      {
        "astId": 3173,
        "contract": "contracts/defi/RevoOperator.sol:RevoOperator",
        "label": "rewarder",
        "offset": 0,
        "slot": "1",
        "type": "t_contract(IRewarder)4420"
      }
    ],
    "types": {
      "t_address": {
        "encoding": "inplace",
        "label": "address",
        "numberOfBytes": "20"
      },
      "t_contract(IRewarder)4420": {
        "encoding": "inplace",
        "label": "contract IRewarder",
        "numberOfBytes": "20"
      }
    }
  }
}