{
  "address": "0xe9E0EF4E1C4B1e53E3fa3d47928D69cCE8Afc569",
  "abi": [
    {
      "inputs": [
        {
          "internalType": "address",
          "name": "_router",
          "type": "address"
        },
        {
          "internalType": "address",
          "name": "_factory",
          "type": "address"
        },
        {
          "internalType": "address",
          "name": "_farmBot",
          "type": "address"
        },
        {
          "internalType": "address",
          "name": "_rewarder",
          "type": "address"
        }
      ],
      "stateMutability": "nonpayable",
      "type": "constructor"
    },
    {
      "anonymous": false,
      "inputs": [
        {
          "indexed": true,
          "internalType": "address",
          "name": "user",
          "type": "address"
        },
        {
          "indexed": false,
          "internalType": "address",
          "name": "token0",
          "type": "address"
        },
        {
          "indexed": false,
          "internalType": "address",
          "name": "token1",
          "type": "address"
        },
        {
          "indexed": false,
          "internalType": "uint256",
          "name": "token0Amount",
          "type": "uint256"
        },
        {
          "indexed": false,
          "internalType": "uint256",
          "name": "token1Amount",
          "type": "uint256"
        },
        {
          "indexed": true,
          "internalType": "bool",
          "name": "swap",
          "type": "bool"
        }
      ],
      "name": "Deposit",
      "type": "event"
    },
    {
      "anonymous": false,
      "inputs": [
        {
          "indexed": true,
          "internalType": "address",
          "name": "previousOwner",
          "type": "address"
        },
        {
          "indexed": true,
          "internalType": "address",
          "name": "newOwner",
          "type": "address"
        }
      ],
      "name": "OwnershipTransferred",
      "type": "event"
    },
    {
      "inputs": [],
      "name": "factory",
      "outputs": [
        {
          "internalType": "address",
          "name": "",
          "type": "address"
        }
      ],
      "stateMutability": "view",
      "type": "function"
    },
    {
      "inputs": [],
      "name": "farmBot",
      "outputs": [
        {
          "internalType": "contract IRevoFarmBot",
          "name": "",
          "type": "address"
        }
      ],
      "stateMutability": "view",
      "type": "function"
    },
    {
      "inputs": [],
      "name": "owner",
      "outputs": [
        {
          "internalType": "address",
          "name": "",
          "type": "address"
        }
      ],
      "stateMutability": "view",
      "type": "function"
    },
    {
      "inputs": [],
      "name": "renounceOwnership",
      "outputs": [],
      "stateMutability": "nonpayable",
      "type": "function"
    },
    {
      "inputs": [],
      "name": "router",
      "outputs": [
        {
          "internalType": "address",
          "name": "",
          "type": "address"
        }
      ],
      "stateMutability": "view",
      "type": "function"
    },
    {
      "inputs": [
        {
          "internalType": "address",
          "name": "_rewarder",
          "type": "address"
        }
      ],
      "name": "setRewarder",
      "outputs": [],
      "stateMutability": "nonpayable",
      "type": "function"
    },
    {
      "inputs": [
        {
          "internalType": "address",
          "name": "from",
          "type": "address"
        },
        {
          "internalType": "address",
          "name": "to",
          "type": "address"
        },
        {
          "internalType": "uint256",
          "name": "fromAmount",
          "type": "uint256"
        },
        {
          "internalType": "uint256",
          "name": "minAmountOut",
          "type": "uint256"
        },
        {
          "internalType": "uint256",
          "name": "percentMin",
          "type": "uint256"
        }
      ],
      "name": "swapAndZapIn",
      "outputs": [],
      "stateMutability": "nonpayable",
      "type": "function"
    },
    {
      "inputs": [
        {
          "internalType": "address",
          "name": "newOwner",
          "type": "address"
        }
      ],
      "name": "transferOwnership",
      "outputs": [],
      "stateMutability": "nonpayable",
      "type": "function"
    },
    {
      "inputs": [
        {
          "internalType": "address",
          "name": "token0",
          "type": "address"
        },
        {
          "internalType": "address",
          "name": "token1",
          "type": "address"
        },
        {
          "internalType": "uint256",
          "name": "token0Amount",
          "type": "uint256"
        },
        {
          "internalType": "uint256",
          "name": "token1Amount",
          "type": "uint256"
        },
        {
          "internalType": "uint256",
          "name": "percentMin",
          "type": "uint256"
        }
      ],
      "name": "zapIn",
      "outputs": [],
      "stateMutability": "nonpayable",
      "type": "function"
    },
    {
      "stateMutability": "payable",
      "type": "receive"
    }
  ],
  "transactionHash": "0xc3b4a7c76a29bae7bac7bf4ed5ae97d67de114d3ef2a4ad5440610c88fe32407",
  "args": [
    "0xE3D8bd6Aed4F159bc8000a9cD47CffDb95F96121",
    "0x62d5b84bE28a183aBB507E125B384122D2C25fAE",
    "0x2e031Fd9930b6aa96e8aC7ad528459817c96Ed70",
    "0x08da61b51AAcEB6DCf147A3a682BA8121158366F"
  ],
  "numDeployments": 1,
  "solcInputHash": "8e4404801b8a48f0acd1ac3e43b73668",
  "bytecode": "0x60e06040523480156200001157600080fd5b50604051620023e4380380620023e48339810160408190526200003491620000fe565b6001600160601b0319606085811b821660805284901b1660a052620000606200005a3390565b6200009b565b60609190911b6001600160601b03191660c052600180546001600160a01b0319166001600160a01b0390921691909117905550620001949050565b600080546001600160a01b038381166001600160a01b0319831681178455604051919092169283917f8be0079c531659141344cd1fd0a4f28419497f9722a3daafe3b4186f6b6457e09190a35050565b8051620000f8816200017a565b92915050565b600080600080608085870312156200011557600080fd5b6000620001238787620000eb565b94505060206200013687828801620000eb565b93505060406200014987828801620000eb565b92505060606200015c87828801620000eb565b91505092959194509250565b60006001600160a01b038216620000f8565b620001858162000168565b81146200019157600080fd5b50565b60805160601c60a05160601c60c05160601c6121d96200020b6000396000818160fa015281816110f8015281816111b201528181611258015261131e0152600081816101ad015281816105b30152610ff801526000818161020101528181611536015281816115fd015261169101526121d96000f3fe60806040526004361061009a5760003560e01c806373d3bcca11610069578063c45a01551161004e578063c45a01551461019b578063f2fde38b146101cf578063f887ea40146101ef57600080fd5b806373d3bcca146101475780638da5cb5b1461016757600080fd5b80632ea89940146100a65780633a6462e4146100c85780635c7768b2146100e8578063715018a61461013257600080fd5b366100a157005b600080fd5b3480156100b257600080fd5b506100c66100c136600461193f565b610223565b005b3480156100d457600080fd5b506100c66100e3366004611903565b6102be565b3480156100f457600080fd5b5061011c7f000000000000000000000000000000000000000000000000000000000000000081565b6040516101299190611f29565b60405180910390f35b34801561013e57600080fd5b506100c661035f565b34801561015357600080fd5b506100c661016236600461193f565b6103bc565b34801561017357600080fd5b5060005473ffffffffffffffffffffffffffffffffffffffff165b6040516101299190611db9565b3480156101a757600080fd5b5061018e7f000000000000000000000000000000000000000000000000000000000000000081565b3480156101db57600080fd5b506100c66101ea366004611903565b610458565b3480156101fb57600080fd5b5061018e7f000000000000000000000000000000000000000000000000000000000000000081565b61024573ffffffffffffffffffffffffffffffffffffffff8616333086610502565b6000610252600285612053565b90506000610262878784876105ab565b9050610272878784848733610ac4565b60405160019033907f971ee547d75474a5cde4443be743892dd2f75b78790a8ce73af7dccda9fe4c3a906102ad908b908b9088908890611e59565b60405180910390a350505050505050565b60005473ffffffffffffffffffffffffffffffffffffffff163314610318576040517f08c379a000000000000000000000000000000000000000000000000000000000815260040161030f90611fd2565b60405180910390fd5b600180547fffffffffffffffffffffffff00000000000000000000000000000000000000001673ffffffffffffffffffffffffffffffffffffffff92909216919091179055565b60005473ffffffffffffffffffffffffffffffffffffffff1633146103b0576040517f08c379a000000000000000000000000000000000000000000000000000000000815260040161030f90611fd2565b6103ba6000610da4565b565b6103de73ffffffffffffffffffffffffffffffffffffffff8616333086610502565b61040073ffffffffffffffffffffffffffffffffffffffff8516333085610502565b61040e858585858533610ac4565b60405160009033907f971ee547d75474a5cde4443be743892dd2f75b78790a8ce73af7dccda9fe4c3a90610449908990899089908990611e59565b60405180910390a35050505050565b60005473ffffffffffffffffffffffffffffffffffffffff1633146104a9576040517f08c379a000000000000000000000000000000000000000000000000000000000815260040161030f90611fd2565b73ffffffffffffffffffffffffffffffffffffffff81166104f6576040517f08c379a000000000000000000000000000000000000000000000000000000000815260040161030f90611f82565b6104ff81610da4565b50565b6105a5846323b872dd60e01b85858560405160240161052393929190611e31565b604080517fffffffffffffffffffffffffffffffffffffffffffffffffffffffffffffffe08184030181529190526020810180517bffffffffffffffffffffffffffffffffffffffffffffffffffffffff167fffffffff0000000000000000000000000000000000000000000000000000000090931692909217909152610e19565b50505050565b6000806105d97f00000000000000000000000000000000000000000000000000000000000000008787610ed4565b6040805160028082526060820183529293506000929091602083019080368337019050509050868160008151811061063a577f4e487b7100000000000000000000000000000000000000000000000000000000600052603260045260246000fd5b602002602001019073ffffffffffffffffffffffffffffffffffffffff16908173ffffffffffffffffffffffffffffffffffffffff168152505085816001815181106106af577f4e487b7100000000000000000000000000000000000000000000000000000000600052603260045260246000fd5b73ffffffffffffffffffffffffffffffffffffffff92831660209182029290920101526040517fa9059cbb0000000000000000000000000000000000000000000000000000000081529088169063a9059cbb906107129085908990600401611f0e565b602060405180830381600087803b15801561072c57600080fd5b505af1158015610740573d6000803e3d6000fd5b505050506040513d601f19601f8201168201806040525081019061076491906119b4565b61079a576040517f08c379a000000000000000000000000000000000000000000000000000000000815260040161030f90611fc2565b60008290506000808273ffffffffffffffffffffffffffffffffffffffff16630902f1ac6040518163ffffffff1660e01b815260040160606040518083038186803b1580156107e857600080fd5b505afa1580156107fc573d6000803e3d6000fd5b505050506040513d601f19601f8201168201806040525081019061082091906119d2565b506dffffffffffffffffffffffffffff1691506dffffffffffffffffffffffffffff1691508973ffffffffffffffffffffffffffffffffffffffff168373ffffffffffffffffffffffffffffffffffffffff16630dfe16816040518163ffffffff1660e01b815260040160206040518083038186803b1580156108a257600080fd5b505afa1580156108b6573d6000803e3d6000fd5b505050506040513d601f19601f820116820180604052508101906108da9190611921565b73ffffffffffffffffffffffffffffffffffffffff1614156109d957610901888383610f96565b95508686101561093d576040517f08c379a000000000000000000000000000000000000000000000000000000000815260040161030f90611f92565b60408051600080825260208201928390527f022c0d9f0000000000000000000000000000000000000000000000000000000090925273ffffffffffffffffffffffffffffffffffffffff85169163022c0d9f916109a291908a90309060248101611f37565b600060405180830381600087803b1580156109bc57600080fd5b505af11580156109d0573d6000803e3d6000fd5b50505050610ab7565b6109e4888284610f96565b955086861015610a20576040517f08c379a000000000000000000000000000000000000000000000000000000000815260040161030f90611f92565b60408051600080825260208201928390527f022c0d9f0000000000000000000000000000000000000000000000000000000090925273ffffffffffffffffffffffffffffffffffffffff85169163022c0d9f91610a84918a91309060248101612020565b600060405180830381600087803b158015610a9e57600080fd5b505af1158015610ab2573d6000803e3d6000fd5b505050505b5050505050949350505050565b610ad2868686868686610fe4565b6001546040517faa906c0b00000000000000000000000000000000000000000000000000000000815273ffffffffffffffffffffffffffffffffffffffff9091169063aa906c0b90610b329084908a908a908a908a908a90600401611de2565b600060405180830381600087803b158015610b4c57600080fd5b505af1158015610b60573d6000803e3d6000fd5b50506040517f70a0823100000000000000000000000000000000000000000000000000000000815273ffffffffffffffffffffffffffffffffffffffff8916925063a9059cbb9150839083906370a0823190610bc0903090600401611db9565b60206040518083038186803b158015610bd857600080fd5b505afa158015610bec573d6000803e3d6000fd5b505050506040513d601f19601f82011682018060405250810190610c109190611a1f565b6040518363ffffffff1660e01b8152600401610c2d929190611f0e565b602060405180830381600087803b158015610c4757600080fd5b505af1158015610c5b573d6000803e3d6000fd5b505050506040513d601f19601f82011682018060405250810190610c7f91906119b4565b506040517f70a0823100000000000000000000000000000000000000000000000000000000815273ffffffffffffffffffffffffffffffffffffffff86169063a9059cbb90839083906370a0823190610cdc903090600401611db9565b60206040518083038186803b158015610cf457600080fd5b505afa158015610d08573d6000803e3d6000fd5b505050506040513d601f19601f82011682018060405250810190610d2c9190611a1f565b6040518363ffffffff1660e01b8152600401610d49929190611f0e565b602060405180830381600087803b158015610d6357600080fd5b505af1158015610d77573d6000803e3d6000fd5b505050506040513d601f19601f82011682018060405250810190610d9b91906119b4565b50505050505050565b6000805473ffffffffffffffffffffffffffffffffffffffff8381167fffffffffffffffffffffffff0000000000000000000000000000000000000000831681178455604051919092169283917f8be0079c531659141344cd1fd0a4f28419497f9722a3daafe3b4186f6b6457e09190a35050565b6000610e7b826040518060400160405280602081526020017f5361666545524332303a206c6f772d6c6576656c2063616c6c206661696c65648152508573ffffffffffffffffffffffffffffffffffffffff166113b39092919063ffffffff16565b805190915015610ecf5780806020019051810190610e9991906119b4565b610ecf576040517f08c379a000000000000000000000000000000000000000000000000000000000815260040161030f90612002565b505050565b6000806000610ee385856113cc565b6040517fe6a43905000000000000000000000000000000000000000000000000000000008152919350915073ffffffffffffffffffffffffffffffffffffffff87169063e6a4390590610f3c9085908590600401611dc7565b60206040518083038186803b158015610f5457600080fd5b505afa158015610f68573d6000803e3d6000fd5b505050506040513d601f19601f82011682018060405250810190610f8c9190611921565b9695505050505050565b600080610fa5856103e56114cb565b90506000610fb382856114cb565b90506000610fcd83610fc7886103e86114cb565b906114e0565b9050610fd98183612053565b979650505050505050565b610ff186868686866114ec565b600061101e7f00000000000000000000000000000000000000000000000000000000000000008888610ed4565b905060008173ffffffffffffffffffffffffffffffffffffffff166370a08231306040518263ffffffff1660e01b815260040161105b9190611db9565b60206040518083038186803b15801561107357600080fd5b505afa158015611087573d6000803e3d6000fd5b505050506040513d601f19601f820116820180604052508101906110ab9190611a1f565b6040517f095ea7b300000000000000000000000000000000000000000000000000000000815290915073ffffffffffffffffffffffffffffffffffffffff83169063095ea7b390611122907f0000000000000000000000000000000000000000000000000000000000000000908590600401611f0e565b602060405180830381600087803b15801561113c57600080fd5b505af1158015611150573d6000803e3d6000fd5b505050506040513d601f19601f8201168201806040525081019061117491906119b4565b506040517fb6b55f2500000000000000000000000000000000000000000000000000000000815273ffffffffffffffffffffffffffffffffffffffff7f0000000000000000000000000000000000000000000000000000000000000000169063b6b55f25906111e7908490600401612012565b600060405180830381600087803b15801561120157600080fd5b505af1158015611215573d6000803e3d6000fd5b50506040517f70a082310000000000000000000000000000000000000000000000000000000081526000925073ffffffffffffffffffffffffffffffffffffffff7f00000000000000000000000000000000000000000000000000000000000000001691506370a082319061128e903090600401611db9565b60206040518083038186803b1580156112a657600080fd5b505afa1580156112ba573d6000803e3d6000fd5b505050506040513d601f19601f820116820180604052508101906112de9190611a1f565b6040517fa9059cbb00000000000000000000000000000000000000000000000000000000815290915073ffffffffffffffffffffffffffffffffffffffff7f0000000000000000000000000000000000000000000000000000000000000000169063a9059cbb906113559087908590600401611f0e565b602060405180830381600087803b15801561136f57600080fd5b505af1158015611383573d6000803e3d6000fd5b505050506040513d601f19601f820116820180604052508101906113a791906119b4565b50505050505050505050565b60606113c28484600085611767565b90505b9392505050565b6000808273ffffffffffffffffffffffffffffffffffffffff168473ffffffffffffffffffffffffffffffffffffffff161415611435576040517f08c379a000000000000000000000000000000000000000000000000000000000815260040161030f90611fa2565b8273ffffffffffffffffffffffffffffffffffffffff168473ffffffffffffffffffffffffffffffffffffffff161061146f578284611472565b83835b909250905073ffffffffffffffffffffffffffffffffffffffff82166114c4576040517f08c379a000000000000000000000000000000000000000000000000000000000815260040161030f90611ff2565b9250929050565b60006114d78284612067565b90505b92915050565b60006114d7828461203b565b6040517f095ea7b300000000000000000000000000000000000000000000000000000000815273ffffffffffffffffffffffffffffffffffffffff86169063095ea7b390611560907f0000000000000000000000000000000000000000000000000000000000000000908790600401611f0e565b602060405180830381600087803b15801561157a57600080fd5b505af115801561158e573d6000803e3d6000fd5b505050506040513d601f19601f820116820180604052508101906115b291906119b4565b506040517f095ea7b300000000000000000000000000000000000000000000000000000000815273ffffffffffffffffffffffffffffffffffffffff85169063095ea7b390611627907f0000000000000000000000000000000000000000000000000000000000000000908690600401611f0e565b602060405180830381600087803b15801561164157600080fd5b505af1158015611655573d6000803e3d6000fd5b505050506040513d601f19601f8201168201806040525081019061167991906119b4565b5073ffffffffffffffffffffffffffffffffffffffff7f00000000000000000000000000000000000000000000000000000000000000001663e8e337008686868660646116c68884612067565b6116d09190612053565b60646116dc898b612067565b6116e69190612053565b30426040518963ffffffff1660e01b815260040161170b989796959493929190611e97565b606060405180830381600087803b15801561172557600080fd5b505af1158015611739573d6000803e3d6000fd5b505050506040513d601f19601f8201168201806040525081019061175d9190611a3d565b5050505050505050565b6060824710156117a3576040517f08c379a000000000000000000000000000000000000000000000000000000000815260040161030f90611fb2565b843b6117db576040517f08c379a000000000000000000000000000000000000000000000000000000000815260040161030f90611fe2565b6000808673ffffffffffffffffffffffffffffffffffffffff1685876040516118049190611dad565b60006040518083038185875af1925050503d8060008114611841576040519150601f19603f3d011682016040523d82523d6000602084013e611846565b606091505b5091509150611856828286611863565b925050505b949350505050565b606083156118725750816113c5565b8251156118825782518084602001fd5b816040517f08c379a000000000000000000000000000000000000000000000000000000000815260040161030f9190611f71565b80356114da8161215f565b80516114da8161215f565b80516114da81612173565b80516114da8161217b565b80356114da81612191565b80516114da81612191565b80516114da81612197565b60006020828403121561191557600080fd5b600061185b84846118b6565b60006020828403121561193357600080fd5b600061185b84846118c1565b600080600080600060a0868803121561195757600080fd5b600061196388886118b6565b9550506020611974888289016118b6565b9450506040611985888289016118e2565b9350506060611996888289016118e2565b92505060806119a7888289016118e2565b9150509295509295909350565b6000602082840312156119c657600080fd5b600061185b84846118cc565b6000806000606084860312156119e757600080fd5b60006119f386866118d7565b9350506020611a04868287016118d7565b9250506040611a15868287016118f8565b9150509250925092565b600060208284031215611a3157600080fd5b600061185b84846118ed565b600080600060608486031215611a5257600080fd5b6000611a5e86866118ed565b9350506020611a6f868287016118ed565b9250506040611a15868287016118ed565b611a89816120a4565b82525050565b6000611a99825190565b808452602084019350611ab08185602086016120d5565b601f017fffffffffffffffffffffffffffffffffffffffffffffffffffffffffffffffe0169290920192915050565b6000611ae9825190565b611af78185602086016120d5565b9290920192915050565b611a89816120c2565b611a89816120cd565b602681526000602082017f4f776e61626c653a206e6577206f776e657220697320746865207a65726f206181527f6464726573730000000000000000000000000000000000000000000000000000602082015291505b5060400190565b602981526000602082017f556e69737761704f70657261746f723a204e6f7420656e6f756768206f75747081527f757420616d6f756e74000000000000000000000000000000000000000000000060208201529150611b69565b602581526000602082017f556e697377617056324c6962726172793a204944454e544943414c5f4144445281527f455353455300000000000000000000000000000000000000000000000000000060208201529150611b69565b602681526000602082017f416464726573733a20696e73756666696369656e742062616c616e636520666f81527f722063616c6c000000000000000000000000000000000000000000000000000060208201529150611b69565b60208082527f556e69737761704f70657261746f723a205472616e73666572206661696c6564910190815260005b5060200190565b60208082527f4f776e61626c653a2063616c6c6572206973206e6f7420746865206f776e657291019081526000611cac565b601d81526000602082017f416464726573733a2063616c6c20746f206e6f6e2d636f6e747261637400000081529150611cac565b601e81526000602082017f556e697377617056324c6962726172793a205a45524f5f41444452455353000081529150611cac565b602a81526000602082017f5361666545524332303a204552433230206f7065726174696f6e20646964206e81527f6f7420737563636565640000000000000000000000000000000000000000000060208201529150611b69565b80611a89565b60006113c58284611adf565b602081016114da8284611a80565b60408101611dd58285611a80565b6113c56020830184611a80565b60c08101611df08289611a80565b611dfd6020830188611a80565b611e0a6040830187611a80565b611e176060830186611da7565b611e246080830185611da7565b610fd960a0830184611da7565b60608101611e3f8286611a80565b611e4c6020830185611a80565b61185b6040830184611da7565b60808101611e678287611a80565b611e746020830186611a80565b611e816040830185611da7565b611e8e6060830184611da7565b95945050505050565b6101008101611ea6828b611a80565b611eb3602083018a611a80565b611ec06040830189611da7565b611ecd6060830188611da7565b611eda6080830187611da7565b611ee760a0830186611da7565b611ef460c0830185611a80565b611f0160e0830184611da7565b9998505050505050505050565b60408101611f1c8285611a80565b6113c56020830184611da7565b602081016114da8284611b01565b60808101611f458287611b0a565b611f526020830186611da7565b611f5f6040830185611a80565b8181036060830152610f8c8184611a8f565b602080825281016114d78184611a8f565b602080825281016114da81611b13565b602080825281016114da81611b70565b602080825281016114da81611bca565b602080825281016114da81611c24565b602080825281016114da81611c7e565b602080825281016114da81611cb3565b602080825281016114da81611ce5565b602080825281016114da81611d19565b602080825281016114da81611d4d565b602081016114da8284611da7565b6080810161202e8287611da7565b611f526020830186611b0a565b6000821982111561204e5761204e612101565b500190565b60008261206257612062612130565b500490565b6000817fffffffffffffffffffffffffffffffffffffffffffffffffffffffffffffffff048311821515161561209f5761209f612101565b500290565b600073ffffffffffffffffffffffffffffffffffffffff82166114da565b60006114da826120a4565b6000816114da565b60005b838110156120f05781810151838201526020016120d8565b838111156105a55750506000910152565b7f4e487b7100000000000000000000000000000000000000000000000000000000600052601160045260246000fd5b7f4e487b7100000000000000000000000000000000000000000000000000000000600052601260045260246000fd5b612168816120a4565b81146104ff57600080fd5b801515612168565b6dffffffffffffffffffffffffffff8116612168565b80612168565b63ffffffff811661216856fea2646970667358221220af8e3870825c7bff63af0e342361a1c32ca0334f5c3bd57ca4227488f7beeb5164736f6c63430008040033",
  "devdoc": {
    "kind": "dev",
    "methods": {
      "owner()": {
        "details": "Returns the address of the current owner."
      },
      "renounceOwnership()": {
        "details": "Leaves the contract without owner. It will not be possible to call `onlyOwner` functions anymore. Can only be called by the current owner. NOTE: Renouncing ownership will leave the contract without an owner, thereby removing any functionality that is only available to the owner."
      },
      "transferOwnership(address)": {
        "details": "Transfers ownership of the contract to a new account (`newOwner`). Can only be called by the current owner."
      }
    },
    "version": 1
  },
  "userdoc": {
    "kind": "user",
    "methods": {},
    "version": 1
  },
  "storageLayout": {
    "storage": [
      {
        "astId": 389,
        "contract": "contracts/defi/RevoOperator.sol:RevoOperator",
        "label": "_owner",
        "offset": 0,
        "slot": "0",
        "type": "t_address"
      },
      {
        "astId": 3103,
        "contract": "contracts/defi/RevoOperator.sol:RevoOperator",
        "label": "rewarder",
        "offset": 0,
        "slot": "1",
        "type": "t_contract(IRewarder)4350"
      }
    ],
    "types": {
      "t_address": {
        "encoding": "inplace",
        "label": "address",
        "numberOfBytes": "20"
      },
      "t_contract(IRewarder)4350": {
        "encoding": "inplace",
        "label": "contract IRewarder",
        "numberOfBytes": "20"
      }
    }
  }
}