{
  "address": "0x12Ccd67bEF3c84C23daaD227b4e30af08174893D",
  "abi": [
    {
      "anonymous": false,
      "inputs": [
        {
          "indexed": true,
          "internalType": "address",
          "name": "previousOwner",
          "type": "address"
        },
        {
          "indexed": true,
          "internalType": "address",
          "name": "newOwner",
          "type": "address"
        }
      ],
      "name": "OwnershipTransferred",
      "type": "event"
    },
    {
      "inputs": [
        {
          "internalType": "contract IMiniChefV2",
          "name": "miniChef",
          "type": "address"
        },
        {
          "internalType": "contract IRewarder",
          "name": "rewarder",
          "type": "address"
        }
      ],
      "name": "getPools",
      "outputs": [
        {
          "components": [
            {
              "internalType": "address",
              "name": "poolAddress",
              "type": "address"
            },
            {
              "internalType": "uint256",
              "name": "amount0",
              "type": "uint256"
            },
            {
              "internalType": "address",
              "name": "token0",
              "type": "address"
            },
            {
              "internalType": "uint256",
              "name": "amount1",
              "type": "uint256"
            },
            {
              "internalType": "address",
              "name": "token1",
              "type": "address"
            },
            {
              "internalType": "uint256",
              "name": "miniChefPoolShare",
              "type": "uint256"
            },
            {
              "internalType": "uint256",
              "name": "miniChefAllocPoint",
              "type": "uint256"
            },
            {
              "internalType": "uint256",
              "name": "rewarderAllocPoint",
              "type": "uint256"
            }
          ],
          "internalType": "struct SushiMulticall.SushiPool[]",
          "name": "pools",
          "type": "tuple[]"
        }
      ],
      "stateMutability": "view",
      "type": "function"
    },
    {
      "inputs": [],
      "name": "owner",
      "outputs": [
        {
          "internalType": "address",
          "name": "",
          "type": "address"
        }
      ],
      "stateMutability": "view",
      "type": "function"
    },
    {
      "inputs": [],
      "name": "renounceOwnership",
      "outputs": [],
      "stateMutability": "nonpayable",
      "type": "function"
    },
    {
      "inputs": [
        {
          "internalType": "address",
          "name": "newOwner",
          "type": "address"
        }
      ],
      "name": "transferOwnership",
      "outputs": [],
      "stateMutability": "nonpayable",
      "type": "function"
    }
  ],
  "transactionHash": "0x1429ee76040e7022c5eddb564c70564aa18d55f4fbae7b34d6e500bca28bbf8b",
  "args": [],
  "numDeployments": 1,
  "solcInputHash": "21657234f86fbee9b879a47e3da3e51c",
  "bytecode": "0x6080806040523461005b5760008054336001600160a01b0319821681178355916001600160a01b03909116907f8be0079c531659141344cd1fd0a4f28419497f9722a3daafe3b4186f6b6457e09084a3610e0c90816100618239f35b600080fdfe60a060408181526004918236101561001657600080fd5b60009160e0918335831c9485635b1dc86f146100795750505050508063715018a6146100705780638da5cb5b146100675763f2fde38b1461005a575b388080600080fd5b61006261086e565b610052565b5061006261081b565b50610062610773565b346106a757827ffffffffffffffffffffffffffffffffffffffffffffffffffffffffffffffffc3601126106a7578035936100b3856106ab565b602435906100c0826106ab565b7f081e3eda00000000000000000000000000000000000000000000000000000000845273ffffffffffffffffffffffffffffffffffffffff8096166020608052608051858581845afa94851561069a575b8895610677575b5061012285610b25565b93885b61ffff81168781101561066657908289928c84878a8f87908451957f78ed5d1f000000000000000000000000000000000000000000000000000000008752608051878061017f868d830191909161ffff6020820193169052565b0381885afa968715610659575b8197610636575b50818716938651917f0902f1ac0000000000000000000000000000000000000000000000000000000083526060838c81895afa918215610629575b819382936105f1575b5088519b7f0dfe1681000000000000000000000000000000000000000000000000000000008d526080518d82818b5afa9c8d156105e4575b839d6105c1575b508951957fd21220a70000000000000000000000000000000000000000000000000000000087526080518783818c5afa9687156105b4575b8497610581575b5083988b517f70a082310000000000000000000000000000000000000000000000000000000081528b81806102ac6080519388830191909173ffffffffffffffffffffffffffffffffffffffff6020820193169052565b0381855afa908115610574575b8691610555575b50806104b6575b50508a80517f1526fe27000000000000000000000000000000000000000000000000000000009b8c825281808c8782019061030a909161ffff6020820193169052565b03815a93606094fa9081156104a9575b869161048a575b50015167ffffffffffffffff1667ffffffffffffffff16998b5198899384928352820190610357909161ffff6020820193169052565b03921691815a93606094fa9a8b156103976104499f6104439e61042499610401966103a49561047d575b9161044e575b50015167ffffffffffffffff1690565b67ffffffffffffffff1690565b986103cc6103b0610aef565b73ffffffffffffffffffffffffffffffffffffffff909c168c52565b6dffffffffffffffffffffffffffff8095166080518c01528a019073ffffffffffffffffffffffffffffffffffffffff169052565b16606087015273ffffffffffffffffffffffffffffffffffffffff166080860152565b60a084015260c08301528882015261043c828b610d93565b5288610d93565b50610bfb565b610125565b610470915060603d606011610476575b6104688183610a92565b810190610d19565b38610387565b503d61045e565b610485610ae2565b610381565b6104a3915060603d606011610476576104688183610a92565b38610321565b6104b1610ae2565b61031a565b610509929a508c51917f18160ddd000000000000000000000000000000000000000000000000000000008352828581608051935afa918215610548575b8692610511575b5061050490610c84565b610ccb565b9738806102c7565b61050491925061053a906080513d60805111610541575b6105328183610a92565b810190610ad3565b91906104fa565b503d610528565b610550610ae2565b6104f3565b60805161056e92503d8111610541576105328183610a92565b386102c0565b61057c610ae2565b6102b9565b6105a69197506080513d608051116105ad575b61059e8183610a92565b810190610c1b565b9538610255565b503d610594565b6105bc610ae2565b61024e565b6105dd919d506080513d608051116105ad5761059e8183610a92565b9b38610216565b6105ec610ae2565b61020f565b90925061061791935060603d606011610622575b61060f8183610a92565b810190610c4e565b5092909291386101d7565b503d610605565b610631610ae2565b6101ce565b6106529197506080513d608051116105ad5761059e8183610a92565b9538610193565b610661610ae2565b61018c565b88518061067389826106ce565b0390f35b6106939195506080513d60805111610541576105328183610a92565b9388610118565b6106a2610ae2565b610111565b8480fd5b73ffffffffffffffffffffffffffffffffffffffff8116036106c957565b600080fd5b60208082019080835283518092528060408094019401926000905b8382106106f857505050505090565b8451805173ffffffffffffffffffffffffffffffffffffffff9081168852818501518886015281830151811688840152606080830151908901526080808301519091169088015260a0808201519088015260c0808201519088015260e0908101519087015261010090950194938201936001909101906106e9565b50346106c9576000807ffffffffffffffffffffffffffffffffffffffffffffffffffffffffffffffffc3601126108185780547fffffffffffffffffffffffff000000000000000000000000000000000000000073ffffffffffffffffffffffffffffffffffffffff8216916107ea338414610964565b16825581604051917f8be0079c531659141344cd1fd0a4f28419497f9722a3daafe3b4186f6b6457e08284a3f35b80fd5b50346106c95760007ffffffffffffffffffffffffffffffffffffffffffffffffffffffffffffffffc3601126106c957602073ffffffffffffffffffffffffffffffffffffffff60005416604051908152f35b50346106c95760207ffffffffffffffffffffffffffffffffffffffffffffffffffffffffffffffffc3601126106c9576004356108aa816106ab565b73ffffffffffffffffffffffffffffffffffffffff6108ce81600054163314610964565b8116156108e0576108de906109c9565b005b60846040517f08c379a000000000000000000000000000000000000000000000000000000000815260206004820152602660248201527f4f776e61626c653a206e6577206f776e657220697320746865207a65726f206160448201527f64647265737300000000000000000000000000000000000000000000000000006064820152fd5b1561096b57565b60646040517f08c379a000000000000000000000000000000000000000000000000000000000815260206004820152602060248201527f4f776e61626c653a2063616c6c6572206973206e6f7420746865206f776e65726044820152fd5b6000549073ffffffffffffffffffffffffffffffffffffffff80911691827fffffffffffffffffffffffff0000000000000000000000000000000000000000821617600055167f8be0079c531659141344cd1fd0a4f28419497f9722a3daafe3b4186f6b6457e06000604051a3565b507f4e487b7100000000000000000000000000000000000000000000000000000000600052604160045260246000fd5b610100810190811067ffffffffffffffff821117610a8557604052565b610a8d610a38565b604052565b90601f7fffffffffffffffffffffffffffffffffffffffffffffffffffffffffffffffe0910116810190811067ffffffffffffffff821117610a8557604052565b908160209103126106c9575190565b506040513d6000823e3d90fd5b60405190610afc82610a68565b565b60209067ffffffffffffffff8111610b18575b60051b0190565b610b20610a38565b610b11565b90610b2f82610afe565b604090610b3e82519182610a92565b8381527fffffffffffffffffffffffffffffffffffffffffffffffffffffffffffffffe0610b6c8295610afe565b019160005b838110610b7e5750505050565b6020908251610b8c81610a68565b60008152826000818301526000858301526000606083015260006080830152600060a0830152600060c0830152600060e0830152828601015201610b71565b507f4e487b7100000000000000000000000000000000000000000000000000000000600052601160045260246000fd5b60019061ffff809116908114610c0f570190565b610c17610bcb565b0190565b908160209103126106c95751610c30816106ab565b90565b51906dffffffffffffffffffffffffffff821682036106c957565b908160609103126106c957610c6281610c33565b916040610c7160208401610c33565b92015163ffffffff811681036106c95790565b670de0b6b3a764000090807fffffffffffffffffffffffffffffffffffffffffffffffffffffffffffffffff04821181151516610cbf570290565b610cc7610bcb565b0290565b8115610cd5570490565b7f4e487b7100000000000000000000000000000000000000000000000000000000600052601260045260246000fd5b519067ffffffffffffffff821682036106c957565b908160609103126106c957604051906060820182811067ffffffffffffffff821117610d86575b60405280516fffffffffffffffffffffffffffffffff811681036106c957610d7e916040918452610d7360208201610d04565b602085015201610d04565b604082015290565b610d8e610a38565b610d40565b8051821015610da75760209160051b010190565b7f4e487b7100000000000000000000000000000000000000000000000000000000600052603260045260246000fdfea26469706673582212208c5498ca686c417baa1abe0796b3bf0512980bf87ac8196f24363286302c9cf164736f6c634300080d0033",
  "devdoc": {
    "kind": "dev",
    "methods": {
      "owner()": {
        "details": "Returns the address of the current owner."
      },
      "renounceOwnership()": {
        "details": "Leaves the contract without owner. It will not be possible to call `onlyOwner` functions anymore. Can only be called by the current owner. NOTE: Renouncing ownership will leave the contract without an owner, thereby removing any functionality that is only available to the owner."
      },
      "transferOwnership(address)": {
        "details": "Transfers ownership of the contract to a new account (`newOwner`). Can only be called by the current owner."
      }
    },
    "version": 1
  },
  "userdoc": {
    "kind": "user",
    "methods": {},
    "version": 1
  },
  "storageLayout": {
    "storage": [
      {
        "astId": 389,
        "contract": "contracts/multicall/SushiMulticall.sol:SushiMulticall",
        "label": "_owner",
        "offset": 0,
        "slot": "0",
        "type": "t_address"
      }
    ],
    "types": {
      "t_address": {
        "encoding": "inplace",
        "label": "address",
        "numberOfBytes": "20"
      }
    }
  }
}