{
  "address": "0x76cAD835648Edee3d460Ba8c48517f6924A6CF4B",
  "abi": [
    {
      "inputs": [
        {
          "internalType": "address",
          "name": "_router",
          "type": "address"
        },
        {
          "internalType": "address",
          "name": "_factory",
          "type": "address"
        },
        {
          "internalType": "address",
          "name": "_miniChef",
          "type": "address"
        },
        {
          "internalType": "address",
          "name": "_rewarder",
          "type": "address"
        }
      ],
      "stateMutability": "nonpayable",
      "type": "constructor"
    },
    {
      "anonymous": false,
      "inputs": [
        {
          "indexed": true,
          "internalType": "address",
          "name": "previousOwner",
          "type": "address"
        },
        {
          "indexed": true,
          "internalType": "address",
          "name": "newOwner",
          "type": "address"
        }
      ],
      "name": "OwnershipTransferred",
      "type": "event"
    },
    {
      "inputs": [],
      "name": "factory",
      "outputs": [
        {
          "internalType": "address",
          "name": "",
          "type": "address"
        }
      ],
      "stateMutability": "view",
      "type": "function"
    },
    {
      "inputs": [],
      "name": "miniChef",
      "outputs": [
        {
          "internalType": "contract IMiniChefV2",
          "name": "",
          "type": "address"
        }
      ],
      "stateMutability": "view",
      "type": "function"
    },
    {
      "inputs": [],
      "name": "owner",
      "outputs": [
        {
          "internalType": "address",
          "name": "",
          "type": "address"
        }
      ],
      "stateMutability": "view",
      "type": "function"
    },
    {
      "inputs": [],
      "name": "renounceOwnership",
      "outputs": [],
      "stateMutability": "nonpayable",
      "type": "function"
    },
    {
      "inputs": [],
      "name": "router",
      "outputs": [
        {
          "internalType": "address",
          "name": "",
          "type": "address"
        }
      ],
      "stateMutability": "view",
      "type": "function"
    },
    {
      "inputs": [
        {
          "internalType": "address",
          "name": "_rewarder",
          "type": "address"
        }
      ],
      "name": "setRewarder",
      "outputs": [],
      "stateMutability": "nonpayable",
      "type": "function"
    },
    {
      "inputs": [
        {
          "internalType": "address",
          "name": "from",
          "type": "address"
        },
        {
          "internalType": "address",
          "name": "to",
          "type": "address"
        },
        {
          "internalType": "uint256",
          "name": "fromAmount",
          "type": "uint256"
        },
        {
          "internalType": "uint256",
          "name": "minAmountOut",
          "type": "uint256"
        },
        {
          "internalType": "uint256",
          "name": "percentMin",
          "type": "uint256"
        },
        {
          "internalType": "uint256",
          "name": "pid",
          "type": "uint256"
        },
        {
          "internalType": "address",
          "name": "user",
          "type": "address"
        }
      ],
      "name": "swapAndZapIn",
      "outputs": [],
      "stateMutability": "nonpayable",
      "type": "function"
    },
    {
      "inputs": [
        {
          "internalType": "address",
          "name": "newOwner",
          "type": "address"
        }
      ],
      "name": "transferOwnership",
      "outputs": [],
      "stateMutability": "nonpayable",
      "type": "function"
    },
    {
      "inputs": [
        {
          "internalType": "address",
          "name": "token0",
          "type": "address"
        },
        {
          "internalType": "address",
          "name": "token1",
          "type": "address"
        },
        {
          "internalType": "uint256",
          "name": "token0Amount",
          "type": "uint256"
        },
        {
          "internalType": "uint256",
          "name": "token1Amount",
          "type": "uint256"
        },
        {
          "internalType": "uint256",
          "name": "percentMin",
          "type": "uint256"
        },
        {
          "internalType": "uint256",
          "name": "pid",
          "type": "uint256"
        },
        {
          "internalType": "address",
          "name": "user",
          "type": "address"
        }
      ],
      "name": "zapIn",
      "outputs": [],
      "stateMutability": "nonpayable",
      "type": "function"
    },
    {
      "stateMutability": "payable",
      "type": "receive"
    }
  ],
  "transactionHash": "0xd88f43c55017281a5ea7e353f71467775ee0181511d070c35d472506e95ee39a",
  "args": [
    "0x1421bDe4B10e8dd459b3BCb598810B1337D56842",
    "0xc35DADB65012eC5796536bD9864eD8773aBc74C4",
    "0x8084936982D089130e001b470eDf58faCA445008",
    "0x08A588dfaF7C2AA3a96bc16dd7df3704915b1E49"
  ],
  "numDeployments": 1,
  "solcInputHash": "7836b1e3528b656eef34c1654d04df04",
  "bytecode": "0x60e06040523480156200001157600080fd5b5060405162001f5f38038062001f5f833981016040819052620000349162000108565b6001600160601b0319606085811b821660805284901b1660a052620000606200005a3390565b6200009b565b60609190911b6001600160601b03191660c052600180546001600160a01b0319166001600160a01b0390921691909117905550620001649050565b600080546001600160a01b038381166001600160a01b0319831681178455604051919092169283917f8be0079c531659141344cd1fd0a4f28419497f9722a3daafe3b4186f6b6457e09190a35050565b80516001600160a01b03811681146200010357600080fd5b919050565b600080600080608085870312156200011e578384fd5b6200012985620000eb565b93506200013960208601620000eb565b92506200014960408601620000eb565b91506200015960608601620000eb565b905092959194509250565b60805160601c60a05160601c60c05160601c611d92620001cd6000396000818160da0152818161138e015261147101526000818161017701528181610c8501526112880152600081816101eb0152818161162a015281816116f301526117960152611d926000f3fe60806040526004361061009a5760003560e01c8063c45a015511610069578063f2fde38b1161004e578063f2fde38b146101b9578063f887ea40146101d9578063fec4af601461020d57600080fd5b8063c45a015514610165578063d2434d451461019957600080fd5b80633a6462e4146100a65780634005760a146100c8578063715018a6146101255780638da5cb5b1461013a57600080fd5b366100a157005b600080fd5b3480156100b257600080fd5b506100c66100c1366004611a7d565b61022d565b005b3480156100d457600080fd5b506100fc7f000000000000000000000000000000000000000000000000000000000000000081565b60405173ffffffffffffffffffffffffffffffffffffffff909116815260200160405180910390f35b34801561013157600080fd5b506100c66102fa565b34801561014657600080fd5b5060005473ffffffffffffffffffffffffffffffffffffffff166100fc565b34801561017157600080fd5b506100fc7f000000000000000000000000000000000000000000000000000000000000000081565b3480156101a557600080fd5b506100c66101b4366004611ab5565b610387565b3480156101c557600080fd5b506100c66101d4366004611a7d565b61060f565b3480156101e557600080fd5b506100fc7f000000000000000000000000000000000000000000000000000000000000000081565b34801561021957600080fd5b506100c6610228366004611ab5565b61073f565b60005473ffffffffffffffffffffffffffffffffffffffff1633146102b3576040517f08c379a000000000000000000000000000000000000000000000000000000000815260206004820181905260248201527f4f776e61626c653a2063616c6c6572206973206e6f7420746865206f776e657260448201526064015b60405180910390fd5b600180547fffffffffffffffffffffffff00000000000000000000000000000000000000001673ffffffffffffffffffffffffffffffffffffffff92909216919091179055565b60005473ffffffffffffffffffffffffffffffffffffffff16331461037b576040517f08c379a000000000000000000000000000000000000000000000000000000000815260206004820181905260248201527f4f776e61626c653a2063616c6c6572206973206e6f7420746865206f776e657260448201526064016102aa565b61038560006108b0565b565b6040517f23b872dd0000000000000000000000000000000000000000000000000000000081523360048201523060248201526044810186905273ffffffffffffffffffffffffffffffffffffffff8816906323b872dd90606401602060405180830381600087803b1580156103fb57600080fd5b505af115801561040f573d6000803e3d6000fd5b505050506040513d601f19601f820116820180604052508101906104339190611b26565b6104bf576040517f08c379a000000000000000000000000000000000000000000000000000000000815260206004820152602c60248201527f53757368694f70657261746f723a204661696c656420746f207472616e73666560448201527f7246726f6d20746f6b656e30000000000000000000000000000000000000000060648201526084016102aa565b6040517f23b872dd0000000000000000000000000000000000000000000000000000000081523360048201523060248201526044810185905273ffffffffffffffffffffffffffffffffffffffff8716906323b872dd90606401602060405180830381600087803b15801561053357600080fd5b505af1158015610547573d6000803e3d6000fd5b505050506040513d601f19601f8201168201806040525081019061056b9190611b26565b6105f7576040517f08c379a000000000000000000000000000000000000000000000000000000000815260206004820152602c60248201527f53757368694f70657261746f723a204661696c656420746f207472616e73666560448201527f7246726f6d20746f6b656e31000000000000000000000000000000000000000060648201526084016102aa565b61060687878787878787610925565b50505050505050565b60005473ffffffffffffffffffffffffffffffffffffffff163314610690576040517f08c379a000000000000000000000000000000000000000000000000000000000815260206004820181905260248201527f4f776e61626c653a2063616c6c6572206973206e6f7420746865206f776e657260448201526064016102aa565b73ffffffffffffffffffffffffffffffffffffffff8116610733576040517f08c379a000000000000000000000000000000000000000000000000000000000815260206004820152602660248201527f4f776e61626c653a206e6577206f776e657220697320746865207a65726f206160448201527f646472657373000000000000000000000000000000000000000000000000000060648201526084016102aa565b61073c816108b0565b50565b6040517f23b872dd0000000000000000000000000000000000000000000000000000000081523360048201523060248201526044810186905273ffffffffffffffffffffffffffffffffffffffff8816906323b872dd90606401602060405180830381600087803b1580156107b357600080fd5b505af11580156107c7573d6000803e3d6000fd5b505050506040513d601f19601f820116820180604052508101906107eb9190611b26565b610877576040517f08c379a000000000000000000000000000000000000000000000000000000000815260206004820152603160248201527f53757368694f70657261746f723a204661696c656420746f207472616e73666560448201527f7246726f6d2066726f6d20616d6f756e7400000000000000000000000000000060648201526084016102aa565b6000610884600287611c95565b9050600061089489898489610c7d565b90506108a589898484898989610925565b505050505050505050565b6000805473ffffffffffffffffffffffffffffffffffffffff8381167fffffffffffffffffffffffff0000000000000000000000000000000000000000831681178455604051919092169283917f8be0079c531659141344cd1fd0a4f28419497f9722a3daafe3b4186f6b6457e09190a35050565b61093487878787878787611274565b6001546040517faa906c0b00000000000000000000000000000000000000000000000000000000815273ffffffffffffffffffffffffffffffffffffffff838116600483015289811660248301528881166044830152606482018890526084820187905260a482018690529091169063aa906c0b9060c401600060405180830381600087803b1580156109c657600080fd5b505af11580156109da573d6000803e3d6000fd5b50506040517f70a0823100000000000000000000000000000000000000000000000000000000815230600482015273ffffffffffffffffffffffffffffffffffffffff8a16925063a9059cbb9150839083906370a082319060240160206040518083038186803b158015610a4d57600080fd5b505afa158015610a61573d6000803e3d6000fd5b505050506040513d601f19601f82011682018060405250810190610a859190611b94565b6040517fffffffff0000000000000000000000000000000000000000000000000000000060e085901b16815273ffffffffffffffffffffffffffffffffffffffff90921660048301526024820152604401602060405180830381600087803b158015610af057600080fd5b505af1158015610b04573d6000803e3d6000fd5b505050506040513d601f19601f82011682018060405250810190610b289190611b26565b506040517f70a0823100000000000000000000000000000000000000000000000000000000815230600482015273ffffffffffffffffffffffffffffffffffffffff87169063a9059cbb90839083906370a082319060240160206040518083038186803b158015610b9857600080fd5b505afa158015610bac573d6000803e3d6000fd5b505050506040513d601f19601f82011682018060405250810190610bd09190611b94565b6040517fffffffff0000000000000000000000000000000000000000000000000000000060e085901b16815273ffffffffffffffffffffffffffffffffffffffff90921660048301526024820152604401602060405180830381600087803b158015610c3b57600080fd5b505af1158015610c4f573d6000803e3d6000fd5b505050506040513d601f19601f82011682018060405250810190610c739190611b26565b5050505050505050565b600080610cab7f000000000000000000000000000000000000000000000000000000000000000087876114d8565b60408051600280825260608201835292935060009290916020830190803683370190505090508681600081518110610d0c577f4e487b7100000000000000000000000000000000000000000000000000000000600052603260045260246000fd5b602002602001019073ffffffffffffffffffffffffffffffffffffffff16908173ffffffffffffffffffffffffffffffffffffffff16815250508581600181518110610d81577f4e487b7100000000000000000000000000000000000000000000000000000000600052603260045260246000fd5b73ffffffffffffffffffffffffffffffffffffffff92831660209182029290920101526040517fa9059cbb0000000000000000000000000000000000000000000000000000000081528382166004820152602481018790529088169063a9059cbb90604401602060405180830381600087803b158015610e0057600080fd5b505af1158015610e14573d6000803e3d6000fd5b505050506040513d601f19601f82011682018060405250810190610e389190611b26565b610e9e576040517f08c379a000000000000000000000000000000000000000000000000000000000815260206004820181905260248201527f556e69737761704f70657261746f723a205472616e73666572206661696c656460448201526064016102aa565b60008290506000808273ffffffffffffffffffffffffffffffffffffffff16630902f1ac6040518163ffffffff1660e01b815260040160606040518083038186803b158015610eec57600080fd5b505afa158015610f00573d6000803e3d6000fd5b505050506040513d601f19601f82011682018060405250810190610f249190611b46565b506dffffffffffffffffffffffffffff1691506dffffffffffffffffffffffffffff1691508973ffffffffffffffffffffffffffffffffffffffff168373ffffffffffffffffffffffffffffffffffffffff16630dfe16816040518163ffffffff1660e01b815260040160206040518083038186803b158015610fa657600080fd5b505afa158015610fba573d6000803e3d6000fd5b505050506040513d601f19601f82011682018060405250810190610fde9190611a99565b73ffffffffffffffffffffffffffffffffffffffff1614156111335761100588838361159f565b955086861015611097576040517f08c379a000000000000000000000000000000000000000000000000000000000815260206004820152602960248201527f556e69737761704f70657261746f723a204e6f7420656e6f756768206f75747060448201527f757420616d6f756e74000000000000000000000000000000000000000000000060648201526084016102aa565b60408051600080825260208201928390527f022c0d9f0000000000000000000000000000000000000000000000000000000090925273ffffffffffffffffffffffffffffffffffffffff85169163022c0d9f916110fc91908a90309060248101611c42565b600060405180830381600087803b15801561111657600080fd5b505af115801561112a573d6000803e3d6000fd5b50505050611267565b61113e88828461159f565b9550868610156111d0576040517f08c379a000000000000000000000000000000000000000000000000000000000815260206004820152602960248201527f556e69737761704f70657261746f723a204e6f7420656e6f756768206f75747060448201527f757420616d6f756e74000000000000000000000000000000000000000000000060648201526084016102aa565b60408051600080825260208201928390527f022c0d9f0000000000000000000000000000000000000000000000000000000090925273ffffffffffffffffffffffffffffffffffffffff85169163022c0d9f91611234918a91309060248101611c42565b600060405180830381600087803b15801561124e57600080fd5b505af1158015611262573d6000803e3d6000fd5b505050505b5050505050949350505050565b61128187878787876115ed565b60006112ae7f000000000000000000000000000000000000000000000000000000000000000089896114d8565b6040517f70a0823100000000000000000000000000000000000000000000000000000000815230600482015290915060009073ffffffffffffffffffffffffffffffffffffffff8316906370a082319060240160206040518083038186803b15801561131957600080fd5b505afa15801561132d573d6000803e3d6000fd5b505050506040513d601f19601f820116820180604052508101906113519190611b94565b6040517f095ea7b300000000000000000000000000000000000000000000000000000000815273ffffffffffffffffffffffffffffffffffffffff7f000000000000000000000000000000000000000000000000000000000000000081166004830152602482018390529192509083169063095ea7b390604401602060405180830381600087803b1580156113e557600080fd5b505af11580156113f9573d6000803e3d6000fd5b505050506040513d601f19601f8201168201806040525081019061141d9190611b26565b506040517f8dbdbe6d000000000000000000000000000000000000000000000000000000008152600481018590526024810182905273ffffffffffffffffffffffffffffffffffffffff84811660448301527f00000000000000000000000000000000000000000000000000000000000000001690638dbdbe6d90606401600060405180830381600087803b1580156114b557600080fd5b505af11580156114c9573d6000803e3d6000fd5b50505050505050505050505050565b60008060006114e785856118b6565b6040517fe6a4390500000000000000000000000000000000000000000000000000000000815273ffffffffffffffffffffffffffffffffffffffff808416600483015280831660248301529294509092509087169063e6a439059060440160206040518083038186803b15801561155d57600080fd5b505afa158015611571573d6000803e3d6000fd5b505050506040513d601f19601f820116820180604052508101906115959190611a99565b9695505050505050565b6000806115ae856103e5611a3b565b905060006115bc8285611a3b565b905060006115d6836115d0886103e8611a3b565b90611a4e565b90506115e28183611c95565b979650505050505050565b6040517f095ea7b300000000000000000000000000000000000000000000000000000000815273ffffffffffffffffffffffffffffffffffffffff7f0000000000000000000000000000000000000000000000000000000000000000811660048301526024820185905286169063095ea7b390604401602060405180830381600087803b15801561167d57600080fd5b505af1158015611691573d6000803e3d6000fd5b505050506040513d601f19601f820116820180604052508101906116b59190611b26565b506040517f095ea7b300000000000000000000000000000000000000000000000000000000815273ffffffffffffffffffffffffffffffffffffffff7f0000000000000000000000000000000000000000000000000000000000000000811660048301526024820184905285169063095ea7b390604401602060405180830381600087803b15801561174657600080fd5b505af115801561175a573d6000803e3d6000fd5b505050506040513d601f19601f8201168201806040525081019061177e9190611b26565b5073ffffffffffffffffffffffffffffffffffffffff7f00000000000000000000000000000000000000000000000000000000000000001663e8e337008686868660646117cb8884611cce565b6117d59190611c95565b60646117e1898b611cce565b6117eb9190611c95565b6040517fffffffff0000000000000000000000000000000000000000000000000000000060e089901b16815273ffffffffffffffffffffffffffffffffffffffff968716600482015295909416602486015260448501929092526064840152608483015260a48201523060c48201524260e482015261010401606060405180830381600087803b15801561187e57600080fd5b505af1158015611892573d6000803e3d6000fd5b505050506040513d601f19601f82011682018060405250810190610c739190611bac565b6000808273ffffffffffffffffffffffffffffffffffffffff168473ffffffffffffffffffffffffffffffffffffffff161415611975576040517f08c379a000000000000000000000000000000000000000000000000000000000815260206004820152602560248201527f556e697377617056324c6962726172793a204944454e544943414c5f4144445260448201527f455353455300000000000000000000000000000000000000000000000000000060648201526084016102aa565b8273ffffffffffffffffffffffffffffffffffffffff168473ffffffffffffffffffffffffffffffffffffffff16106119af5782846119b2565b83835b909250905073ffffffffffffffffffffffffffffffffffffffff8216611a34576040517f08c379a000000000000000000000000000000000000000000000000000000000815260206004820152601e60248201527f556e697377617056324c6962726172793a205a45524f5f41444452455353000060448201526064016102aa565b9250929050565b6000611a478284611cce565b9392505050565b6000611a478284611c7d565b80516dffffffffffffffffffffffffffff81168114611a7857600080fd5b919050565b600060208284031215611a8e578081fd5b8135611a4781611d3a565b600060208284031215611aaa578081fd5b8151611a4781611d3a565b600080600080600080600060e0888a031215611acf578283fd5b8735611ada81611d3a565b96506020880135611aea81611d3a565b955060408801359450606088013593506080880135925060a0880135915060c0880135611b1681611d3a565b8091505092959891949750929550565b600060208284031215611b37578081fd5b81518015158114611a47578182fd5b600080600060608486031215611b5a578283fd5b611b6384611a5a565b9250611b7160208501611a5a565b9150604084015163ffffffff81168114611b89578182fd5b809150509250925092565b600060208284031215611ba5578081fd5b5051919050565b600080600060608486031215611bc0578283fd5b8351925060208401519150604084015190509250925092565b60008151808452815b81811015611bfe57602081850181015186830182015201611be2565b81811115611c0f5782602083870101525b50601f017fffffffffffffffffffffffffffffffffffffffffffffffffffffffffffffffe0169290920160200192915050565b84815283602082015273ffffffffffffffffffffffffffffffffffffffff831660408201526080606082015260006115956080830184611bd9565b60008219821115611c9057611c90611d0b565b500190565b600082611cc9577f4e487b710000000000000000000000000000000000000000000000000000000081526012600452602481fd5b500490565b6000817fffffffffffffffffffffffffffffffffffffffffffffffffffffffffffffffff0483118215151615611d0657611d06611d0b565b500290565b7f4e487b7100000000000000000000000000000000000000000000000000000000600052601160045260246000fd5b73ffffffffffffffffffffffffffffffffffffffff8116811461073c57600080fdfea2646970667358221220a4f7a4edc64eca4fadefedc3d544f71067d9569896b451db7ab941cd9b871d6364736f6c63430008040033",
  "devdoc": {
    "kind": "dev",
    "methods": {
      "owner()": {
        "details": "Returns the address of the current owner."
      },
      "renounceOwnership()": {
        "details": "Leaves the contract without owner. It will not be possible to call `onlyOwner` functions anymore. Can only be called by the current owner. NOTE: Renouncing ownership will leave the contract without an owner, thereby removing any functionality that is only available to the owner."
      },
      "transferOwnership(address)": {
        "details": "Transfers ownership of the contract to a new account (`newOwner`). Can only be called by the current owner."
      }
    },
    "version": 1
  },
  "userdoc": {
    "kind": "user",
    "methods": {},
    "version": 1
  },
  "storageLayout": {
    "storage": [
      {
        "astId": 389,
        "contract": "contracts/defi/SushiOperator.sol:SushiOperator",
        "label": "_owner",
        "offset": 0,
        "slot": "0",
        "type": "t_address"
      },
      {
        "astId": 2949,
        "contract": "contracts/defi/SushiOperator.sol:SushiOperator",
        "label": "rewarder",
        "offset": 0,
        "slot": "1",
        "type": "t_contract(IRewarder)3832"
      }
    ],
    "types": {
      "t_address": {
        "encoding": "inplace",
        "label": "address",
        "numberOfBytes": "20"
      },
      "t_contract(IRewarder)3832": {
        "encoding": "inplace",
        "label": "contract IRewarder",
        "numberOfBytes": "20"
      }
    }
  }
}