{
  "address": "0x70836D14A3f1a9281489A47Bd63779e7D5fc69bF",
  "abi": [
    {
      "inputs": [
        {
          "internalType": "contract ISwappaRouterV1",
          "name": "_swappaRouter",
          "type": "address"
        },
        {
          "internalType": "address",
          "name": "_beneficiary",
          "type": "address"
        },
        {
          "internalType": "uint256",
          "name": "initialFee",
          "type": "uint256"
        }
      ],
      "stateMutability": "nonpayable",
      "type": "constructor"
    },
    {
      "anonymous": false,
      "inputs": [
        {
          "indexed": false,
          "internalType": "address",
          "name": "newBeneficiary",
          "type": "address"
        }
      ],
      "name": "BeneficiarySet",
      "type": "event"
    },
    {
      "anonymous": false,
      "inputs": [
        {
          "indexed": false,
          "internalType": "uint256",
          "name": "feeNumerator",
          "type": "uint256"
        }
      ],
      "name": "FeeNumeratorSet",
      "type": "event"
    },
    {
      "anonymous": false,
      "inputs": [
        {
          "indexed": true,
          "internalType": "address",
          "name": "previousOwner",
          "type": "address"
        },
        {
          "indexed": true,
          "internalType": "address",
          "name": "newOwner",
          "type": "address"
        }
      ],
      "name": "OwnershipTransferred",
      "type": "event"
    },
    {
      "anonymous": false,
      "inputs": [
        {
          "indexed": true,
          "internalType": "address",
          "name": "userAddress",
          "type": "address"
        },
        {
          "indexed": true,
          "internalType": "address",
          "name": "inputToken",
          "type": "address"
        },
        {
          "indexed": true,
          "internalType": "address",
          "name": "outputToken",
          "type": "address"
        },
        {
          "indexed": false,
          "internalType": "uint256",
          "name": "inputAmount",
          "type": "uint256"
        },
        {
          "indexed": false,
          "internalType": "uint256",
          "name": "outputAmount",
          "type": "uint256"
        },
        {
          "indexed": false,
          "internalType": "uint256",
          "name": "fee",
          "type": "uint256"
        }
      ],
      "name": "Swap",
      "type": "event"
    },
    {
      "inputs": [],
      "name": "FEE_DENOMINATOR",
      "outputs": [
        {
          "internalType": "uint256",
          "name": "",
          "type": "uint256"
        }
      ],
      "stateMutability": "view",
      "type": "function"
    },
    {
      "inputs": [],
      "name": "MAX_FEE_NUMERATOR",
      "outputs": [
        {
          "internalType": "uint256",
          "name": "",
          "type": "uint256"
        }
      ],
      "stateMutability": "view",
      "type": "function"
    },
    {
      "inputs": [],
      "name": "owner",
      "outputs": [
        {
          "internalType": "address",
          "name": "",
          "type": "address"
        }
      ],
      "stateMutability": "view",
      "type": "function"
    },
    {
      "inputs": [],
      "name": "renounceOwnership",
      "outputs": [],
      "stateMutability": "nonpayable",
      "type": "function"
    },
    {
      "inputs": [
        {
          "internalType": "address",
          "name": "_beneficiary",
          "type": "address"
        }
      ],
      "name": "setBeneficiary",
      "outputs": [],
      "stateMutability": "nonpayable",
      "type": "function"
    },
    {
      "inputs": [
        {
          "internalType": "uint256",
          "name": "_feeNumerator",
          "type": "uint256"
        }
      ],
      "name": "setFeeNumerator",
      "outputs": [],
      "stateMutability": "nonpayable",
      "type": "function"
    },
    {
      "inputs": [
        {
          "internalType": "address[]",
          "name": "path",
          "type": "address[]"
        },
        {
          "internalType": "address[]",
          "name": "pairs",
          "type": "address[]"
        },
        {
          "internalType": "bytes[]",
          "name": "extras",
          "type": "bytes[]"
        },
        {
          "internalType": "uint256",
          "name": "inputAmount",
          "type": "uint256"
        },
        {
          "internalType": "uint256",
          "name": "minOutputAmount",
          "type": "uint256"
        },
        {
          "internalType": "uint256",
          "name": "deadline",
          "type": "uint256"
        }
      ],
      "name": "swap",
      "outputs": [],
      "stateMutability": "nonpayable",
      "type": "function"
    },
    {
      "inputs": [
        {
          "internalType": "address",
          "name": "newOwner",
          "type": "address"
        }
      ],
      "name": "transferOwnership",
      "outputs": [],
      "stateMutability": "nonpayable",
      "type": "function"
    }
  ],
  "transactionHash": "0x2b6ecd58ccc2f00c0e7022eb813072fbcfbaed125ce7055783404771179ab206",
  "args": [
    "0xF35ed7156BABF2541E032B3bB8625210316e2832",
    "0xe0c8c2A53EebadcD6a3b2c7564E428BDF276909B",
    1500
  ],
  "numDeployments": 4,
  "solcInputHash": "9f0dea6f50c0ebb5bfb7fb215740da0b",
  "bytecode": "0x60803461007557601f6110a338819003918201601f19168301916001600160401b0383118484101761007a578084926060946040528339810103126100755780516100669161004d82610090565b604060208201519161005e83610090565b0151916100a1565b604051610f4390816101608239f35b600080fd5b634e487b7160e01b600052604160045260246000fd5b6001600160a01b0381160361007557565b60008054336001600160a01b0319808316821784556040517fc1bcceddd77fdc95a8da9bec5802d2e0bb564dd02c0730222d8e12030bd910439760209790967f04d55a8be181fb8d75b76f2d48aa0b2ee40f47e53d6e61763eeeec46feea8a2496899693956001600160a01b0394859392908416907f8be0079c531659141344cd1fd0a4f28419497f9722a3daafe3b4186f6b6457e09089a31683600354161760035516809160025416176002558152a180600155604051908152a156fe60806040526004361015610013575b600080fd5b6000803560e01c9081631c31f710146100b65750806332b76fc9146100ad578063715018a6146100a45780638da5cb5b1461009b578063a45db91114610092578063d73792a914610089578063f2fde38b146100805763fd9b56871461007857600080fd5b61000e61050b565b5061000e610417565b5061000e6103da565b5061000e610354565b5061000e610301565b5061000e61025c565b5061000e6101c1565b3461016f5760207ffffffffffffffffffffffffffffffffffffffffffffffffffffffffffffffffc36011261016f577f04d55a8be181fb8d75b76f2d48aa0b2ee40f47e53d6e61763eeeec46feea8a24602060043561011481610172565b73ffffffffffffffffffffffffffffffffffffffff90610138828654163314610547565b16807fffffffffffffffffffffffff00000000000000000000000000000000000000006002541617600255604051908152a1604051f35b80fd5b73ffffffffffffffffffffffffffffffffffffffff81160361000e57565b9181601f8401121561000e5782359167ffffffffffffffff831161000e576020808501948460051b01011161000e57565b503461000e5760c07ffffffffffffffffffffffffffffffffffffffffffffffffffffffffffffffffc36011261000e5767ffffffffffffffff60043581811161000e57610212903690600401610190565b60243583811161000e5761022a903690600401610190565b60449391933594851161000e5761024861025a953690600401610190565b9160a435956084359560643595610aea565b005b503461000e576000807ffffffffffffffffffffffffffffffffffffffffffffffffffffffffffffffffc36011261016f5780547fffffffffffffffffffffffff000000000000000000000000000000000000000073ffffffffffffffffffffffffffffffffffffffff8216916102d3338414610547565b16825581604051917f8be0079c531659141344cd1fd0a4f28419497f9722a3daafe3b4186f6b6457e08284a3f35b503461000e5760007ffffffffffffffffffffffffffffffffffffffffffffffffffffffffffffffffc36011261000e57602073ffffffffffffffffffffffffffffffffffffffff60005416604051908152f35b503461000e5760207ffffffffffffffffffffffffffffffffffffffffffffffffffffffffffffffffc36011261000e577fc1bcceddd77fdc95a8da9bec5802d2e0bb564dd02c0730222d8e12030bd9104360206004356103cd73ffffffffffffffffffffffffffffffffffffffff600054163314610547565b80600155604051908152a1005b503461000e5760007ffffffffffffffffffffffffffffffffffffffffffffffffffffffffffffffffc36011261000e576020604051620f42408152f35b503461000e5760207ffffffffffffffffffffffffffffffffffffffffffffffffffffffffffffffffc36011261000e5760043561045381610172565b73ffffffffffffffffffffffffffffffffffffffff61047781600054163314610547565b8116156104875761025a906105ac565b60846040517f08c379a000000000000000000000000000000000000000000000000000000000815260206004820152602660248201527f4f776e61626c653a206e6577206f776e657220697320746865207a65726f206160448201527f64647265737300000000000000000000000000000000000000000000000000006064820152fd5b503461000e5760007ffffffffffffffffffffffffffffffffffffffffffffffffffffffffffffffffc36011261000e5760206040516117708152f35b1561054e57565b60646040517f08c379a000000000000000000000000000000000000000000000000000000000815260206004820152602060248201527f4f776e61626c653a2063616c6c6572206973206e6f7420746865206f776e65726044820152fd5b6000549073ffffffffffffffffffffffffffffffffffffffff80911691827fffffffffffffffffffffffff0000000000000000000000000000000000000000821617600055167f8be0079c531659141344cd1fd0a4f28419497f9722a3daafe3b4186f6b6457e06000604051a3565b507f4e487b7100000000000000000000000000000000000000000000000000000000600052601160045260246000fd5b807fffffffffffffffffffffffffffffffffffffffffffffffffffffffffffffffff0482118115151661067c570290565b61068461061b565b0290565b90156106915790565b7f4e487b7100000000000000000000000000000000000000000000000000000000600052603260045260246000fd5b91908110156106915760051b0190565b356106da81610172565b90565b90601f7fffffffffffffffffffffffffffffffffffffffffffffffffffffffffffffffe0910116810190811067ffffffffffffffff82111761071e57604052565b7f4e487b7100000000000000000000000000000000000000000000000000000000600052604160045260246000fd5b9081602091031261000e5751801515810361000e5790565b506040513d6000823e3d90fd5b1561077957565b60646040517f08c379a000000000000000000000000000000000000000000000000000000000815260206004820152601260248201527f466565207061796d656e74206661696c656400000000000000000000000000006044820152fd5b7fffffffffffffffffffffffffffffffffffffffffffffffffffffffffffffffff9060018110610805570190565b61080d61061b565b0190565b81811061081c570390565b61082461061b565b0390565b1561082f57565b60846040517f08c379a000000000000000000000000000000000000000000000000000000000815260206004820152603860248201527f5377617020696e697469616c207472616e73666572206661696c65642e20446960448201527f6420796f7520617070726f7665207468652066756e64733f00000000000000006064820152fd5b9081602091031261000e575190565b91908082526020809201929160005b8281106108df575050505090565b90919293828060019273ffffffffffffffffffffffffffffffffffffffff883561090881610172565b168152019501939291016108d1565b601f82602094937fffffffffffffffffffffffffffffffffffffffffffffffffffffffffffffffe0938186528686013760008582860101520116010190565b979592939061097690610986939c9b9a989c60e08b5260e08b01916108c2565b90602094898303868b01526108c2565b91868303604088015281835280830192818360051b8201019480946000925b8584106109ea5750505050505050916109e69160c09493976060850152608084015260a083019073ffffffffffffffffffffffffffffffffffffffff169052565b0152565b909192939495967fffffffffffffffffffffffffffffffffffffffffffffffffffffffffffffffe082820301835287357fffffffffffffffffffffffffffffffffffffffffffffffffffffffffffffffe18536030181121561000e57840190813567ffffffffffffffff811161000e57803603861361000e57610a74889283928360019601610917565b9901930194019291959493906109a5565b15610a8c57565b60646040517f08c379a000000000000000000000000000000000000000000000000000000000815260206004820152601b60248201527f496e73756666696369656e74206f757470757420616d6f756e742100000000006044820152fd5b9397969190929497600154610aff908861064b565b620f424090049585610b118682610688565b610b1a906106d0565b73ffffffffffffffffffffffffffffffffffffffff16998a948a600254610b549073ffffffffffffffffffffffffffffffffffffffff1690565b6040517f23b872dd00000000000000000000000000000000000000000000000000000000815233600482015273ffffffffffffffffffffffffffffffffffffffff919091166024820152604481018c905287816064815a602094600091f1908c821593610bd8602094610bdd94610cd397610f00575b600091610ee3575b50610772565b610811565b6040517f23b872dd0000000000000000000000000000000000000000000000000000000081523360048201523060248201526044810182905290988991610c3e9084816064816000875af1908115610ed6575b600091610eb9575b50610828565b610c79610c6060035473ffffffffffffffffffffffffffffffffffffffff1690565b73ffffffffffffffffffffffffffffffffffffffff1690565b60006040518096819582947f095ea7b3000000000000000000000000000000000000000000000000000000008452600484016020909392919373ffffffffffffffffffffffffffffffffffffffff60408201951681520152565b03925af18015610eac575b610e7d575b50600354879073ffffffffffffffffffffffffffffffffffffffff1673ffffffffffffffffffffffffffffffffffffffff16966040519e8f9788977f0862d12f00000000000000000000000000000000000000000000000000000000895233958d60048b0199610d529a610956565b03815a602094600091f1968715610e70575b600097610df5575b50610dc77fd6d34547c69c5ee3d2667625c188acf1006abb93e0ee7cf03925c67cf7760413949373ffffffffffffffffffffffffffffffffffffffff93610db8610dcc948b1015610a85565b610dc1816107d7565b916106c0565b6106d0565b1694610df06040519283923396846040919493926060820195825260208201520152565b0390a4565b610dcc9197507fd6d34547c69c5ee3d2667625c188acf1006abb93e0ee7cf03925c67cf7760413949373ffffffffffffffffffffffffffffffffffffffff93610db8610e5b610dc79460203d602011610e69575b610e5381836106dd565b8101906108b3565b9a9450509350939450610d6c565b503d610e49565b610e78610765565b610d64565b610e9e9060203d602011610ea5575b610e9681836106dd565b81019061074d565b5038610ce3565b503d610e8c565b610eb4610765565b610cde565b610ed09150853d8711610ea557610e9681836106dd565b38610c38565b610ede610765565b610c30565b610efa9150863d8811610ea557610e9681836106dd565b38610bd2565b610f08610765565b610bca56fea2646970667358221220df7e9bd17111627f5c916d772ebc2c3ec1ae81b560c253e7efba9f98443bcea264736f6c634300080d0033",
  "devdoc": {
    "kind": "dev",
    "methods": {
      "owner()": {
        "details": "Returns the address of the current owner."
      },
      "renounceOwnership()": {
        "details": "Leaves the contract without owner. It will not be possible to call `onlyOwner` functions anymore. Can only be called by the current owner. NOTE: Renouncing ownership will leave the contract without an owner, thereby removing any functionality that is only available to the owner."
      },
      "transferOwnership(address)": {
        "details": "Transfers ownership of the contract to a new account (`newOwner`). Can only be called by the current owner."
      }
    },
    "version": 1
  },
  "userdoc": {
    "kind": "user",
    "methods": {},
    "version": 1
  },
  "storageLayout": {
    "storage": [
      {
        "astId": 400,
        "contract": "contracts/swap/SwapWithFee.sol:SwapWithFee",
        "label": "_owner",
        "offset": 0,
        "slot": "0",
        "type": "t_address"
      },
      {
        "astId": 6478,
        "contract": "contracts/swap/SwapWithFee.sol:SwapWithFee",
        "label": "feeNumerator",
        "offset": 0,
        "slot": "1",
        "type": "t_uint256"
      },
      {
        "astId": 6480,
        "contract": "contracts/swap/SwapWithFee.sol:SwapWithFee",
        "label": "beneficiary",
        "offset": 0,
        "slot": "2",
        "type": "t_address"
      },
      {
        "astId": 6483,
        "contract": "contracts/swap/SwapWithFee.sol:SwapWithFee",
        "label": "swappaRouter",
        "offset": 0,
        "slot": "3",
        "type": "t_contract(ISwappaRouterV1)4620"
      }
    ],
    "types": {
      "t_address": {
        "encoding": "inplace",
        "label": "address",
        "numberOfBytes": "20"
      },
      "t_contract(ISwappaRouterV1)4620": {
        "encoding": "inplace",
        "label": "contract ISwappaRouterV1",
        "numberOfBytes": "20"
      },
      "t_uint256": {
        "encoding": "inplace",
        "label": "uint256",
        "numberOfBytes": "32"
      }
    }
  }
}