{
  "address": "0xA3Cb96c69438a14bbFc849118849E77bCD3D11CC",
  "abi": [
    {
      "inputs": [
        {
          "internalType": "contract ISwappaRouterV1",
          "name": "_swappaRouter",
          "type": "address"
        },
        {
          "internalType": "address",
          "name": "_beneficiary",
          "type": "address"
        },
        {
          "internalType": "uint256",
          "name": "initialFee",
          "type": "uint256"
        }
      ],
      "stateMutability": "nonpayable",
      "type": "constructor"
    },
    {
      "anonymous": false,
      "inputs": [
        {
          "indexed": false,
          "internalType": "address",
          "name": "newBeneficiary",
          "type": "address"
        }
      ],
      "name": "BeneficiarySet",
      "type": "event"
    },
    {
      "anonymous": false,
      "inputs": [
        {
          "indexed": false,
          "internalType": "uint256",
          "name": "feeNumerator",
          "type": "uint256"
        }
      ],
      "name": "FeeNumeratorSet",
      "type": "event"
    },
    {
      "anonymous": false,
      "inputs": [
        {
          "indexed": true,
          "internalType": "address",
          "name": "previousOwner",
          "type": "address"
        },
        {
          "indexed": true,
          "internalType": "address",
          "name": "newOwner",
          "type": "address"
        }
      ],
      "name": "OwnershipTransferred",
      "type": "event"
    },
    {
      "anonymous": false,
      "inputs": [
        {
          "indexed": true,
          "internalType": "address",
          "name": "userAddress",
          "type": "address"
        },
        {
          "indexed": true,
          "internalType": "address",
          "name": "inputToken",
          "type": "address"
        },
        {
          "indexed": true,
          "internalType": "address",
          "name": "outputToken",
          "type": "address"
        },
        {
          "indexed": false,
          "internalType": "uint256",
          "name": "inputAmount",
          "type": "uint256"
        },
        {
          "indexed": false,
          "internalType": "uint256",
          "name": "outputAmount",
          "type": "uint256"
        },
        {
          "indexed": false,
          "internalType": "uint256",
          "name": "baseFee",
          "type": "uint256"
        },
        {
          "indexed": false,
          "internalType": "uint256",
          "name": "fee",
          "type": "uint256"
        }
      ],
      "name": "Swap",
      "type": "event"
    },
    {
      "inputs": [],
      "name": "FEE_DENOMINATOR",
      "outputs": [
        {
          "internalType": "uint256",
          "name": "",
          "type": "uint256"
        }
      ],
      "stateMutability": "view",
      "type": "function"
    },
    {
      "inputs": [],
      "name": "MAX_FEE_NUMERATOR",
      "outputs": [
        {
          "internalType": "uint256",
          "name": "",
          "type": "uint256"
        }
      ],
      "stateMutability": "view",
      "type": "function"
    },
    {
      "inputs": [],
      "name": "beneficiary",
      "outputs": [
        {
          "internalType": "address",
          "name": "",
          "type": "address"
        }
      ],
      "stateMutability": "view",
      "type": "function"
    },
    {
      "inputs": [
        {
          "internalType": "address",
          "name": "token",
          "type": "address"
        }
      ],
      "name": "emergencyWithdrawal",
      "outputs": [],
      "stateMutability": "nonpayable",
      "type": "function"
    },
    {
      "inputs": [],
      "name": "feeNumerator",
      "outputs": [
        {
          "internalType": "uint256",
          "name": "",
          "type": "uint256"
        }
      ],
      "stateMutability": "view",
      "type": "function"
    },
    {
      "inputs": [],
      "name": "owner",
      "outputs": [
        {
          "internalType": "address",
          "name": "",
          "type": "address"
        }
      ],
      "stateMutability": "view",
      "type": "function"
    },
    {
      "inputs": [],
      "name": "renounceOwnership",
      "outputs": [],
      "stateMutability": "nonpayable",
      "type": "function"
    },
    {
      "inputs": [
        {
          "internalType": "address",
          "name": "_beneficiary",
          "type": "address"
        }
      ],
      "name": "setBeneficiary",
      "outputs": [],
      "stateMutability": "nonpayable",
      "type": "function"
    },
    {
      "inputs": [
        {
          "internalType": "uint256",
          "name": "_feeNumerator",
          "type": "uint256"
        }
      ],
      "name": "setFeeNumerator",
      "outputs": [],
      "stateMutability": "nonpayable",
      "type": "function"
    },
    {
      "inputs": [
        {
          "internalType": "address[]",
          "name": "path",
          "type": "address[]"
        },
        {
          "internalType": "address[]",
          "name": "pairs",
          "type": "address[]"
        },
        {
          "internalType": "bytes[]",
          "name": "extras",
          "type": "bytes[]"
        },
        {
          "internalType": "uint256",
          "name": "inputAmount",
          "type": "uint256"
        },
        {
          "internalType": "uint256",
          "name": "quotedOutputAmount",
          "type": "uint256"
        },
        {
          "internalType": "uint256",
          "name": "minOutputAmount",
          "type": "uint256"
        },
        {
          "internalType": "uint256",
          "name": "deadline",
          "type": "uint256"
        }
      ],
      "name": "swap",
      "outputs": [],
      "stateMutability": "nonpayable",
      "type": "function"
    },
    {
      "inputs": [
        {
          "internalType": "address",
          "name": "newOwner",
          "type": "address"
        }
      ],
      "name": "transferOwnership",
      "outputs": [],
      "stateMutability": "nonpayable",
      "type": "function"
    }
  ],
  "transactionHash": "0x1575759cd80483e1ea7b2e9606a42a1e750c6afee8ac9d64cf1781e5f7616948",
  "args": [
    "0xF35ed7156BABF2541E032B3bB8625210316e2832",
    "0xe0c8c2A53EebadcD6a3b2c7564E428BDF276909B",
    0
  ],
  "numDeployments": 1,
  "solcInputHash": "65457783221035aba01781577fe7e011",
  "bytecode": "0x60803461007557601f61153338819003918201601f19168301916001600160401b0383118484101761007a578084926060946040528339810103126100755780516100669161004d82610090565b604060208201519161005e83610090565b0151916100a1565b6040516113d390816101608239f35b600080fd5b634e487b7160e01b600052604160045260246000fd5b6001600160a01b0381160361007557565b60008054336001600160a01b0319808316821784556040517fc1bcceddd77fdc95a8da9bec5802d2e0bb564dd02c0730222d8e12030bd910439760209790967f04d55a8be181fb8d75b76f2d48aa0b2ee40f47e53d6e61763eeeec46feea8a2496899693956001600160a01b0394859392908416907f8be0079c531659141344cd1fd0a4f28419497f9722a3daafe3b4186f6b6457e09089a31683600354161760035516809160025416176002558152a180600155604051908152a156fe60806040526004361015610013575b600080fd5b60003560e01c80631c31f710146100ef57806338af3eed146100e65780636e353a1d146100dd578063715018a6146100d45780638da5cb5b146100cb578063a45db911146100c2578063d73792a9146100b9578063e86dea4a146100b0578063f2fde38b146100a7578063f84a164d1461009e5763fd9b56871461009657600080fd5b61000e610787565b5061000e6106e9565b5061000e6105c4565b5061000e610587565b5061000e61054a565b5061000e6104c4565b5061000e610471565b5061000e6103c9565b5061000e610221565b5061000e6101ce565b5061000e610116565b73ffffffffffffffffffffffffffffffffffffffff81160361000e57565b503461000e5760207ffffffffffffffffffffffffffffffffffffffffffffffffffffffffffffffffc36011261000e577f04d55a8be181fb8d75b76f2d48aa0b2ee40f47e53d6e61763eeeec46feea8a246020600435610175816100f8565b73ffffffffffffffffffffffffffffffffffffffff9061019a826000541633146107c3565b16807fffffffffffffffffffffffff00000000000000000000000000000000000000006002541617600255604051908152a1005b503461000e5760007ffffffffffffffffffffffffffffffffffffffffffffffffffffffffffffffffc36011261000e57602073ffffffffffffffffffffffffffffffffffffffff60025416604051908152f35b503461000e576020807ffffffffffffffffffffffffffffffffffffffffffffffffffffffffffffffffc36011261000e5761034881600435610262816100f8565b73ffffffffffffffffffffffffffffffffffffffff90610287826000541633146107c3565b166102a760025473ffffffffffffffffffffffffffffffffffffffff1690565b6040517f70a0823100000000000000000000000000000000000000000000000000000000815230600482015291908383602481855afa9283156103bc575b60009361038d575b5060006040518096819582947fa9059cbb000000000000000000000000000000000000000000000000000000008452600484016020909392919373ffffffffffffffffffffffffffffffffffffffff60408201951681520152565b03925af18015610380575b61035a575b005b8161035892903d10610379575b6103718183610897565b810190610923565b503d610367565b610388610916565b610353565b6103ae919350843d86116103b5575b6103a68183610897565b810190610907565b91386102ed565b503d61039c565b6103c4610916565b6102e5565b503461000e576000807ffffffffffffffffffffffffffffffffffffffffffffffffffffffffffffffffc36011261046e5780547fffffffffffffffffffffffff000000000000000000000000000000000000000073ffffffffffffffffffffffffffffffffffffffff8216916104403384146107c3565b16825581604051917f8be0079c531659141344cd1fd0a4f28419497f9722a3daafe3b4186f6b6457e08284a3f35b80fd5b503461000e5760007ffffffffffffffffffffffffffffffffffffffffffffffffffffffffffffffffc36011261000e57602073ffffffffffffffffffffffffffffffffffffffff60005416604051908152f35b503461000e5760207ffffffffffffffffffffffffffffffffffffffffffffffffffffffffffffffffc36011261000e577fc1bcceddd77fdc95a8da9bec5802d2e0bb564dd02c0730222d8e12030bd91043602060043561053d73ffffffffffffffffffffffffffffffffffffffff6000541633146107c3565b80600155604051908152a1005b503461000e5760007ffffffffffffffffffffffffffffffffffffffffffffffffffffffffffffffffc36011261000e576020604051620f42408152f35b503461000e5760007ffffffffffffffffffffffffffffffffffffffffffffffffffffffffffffffffc36011261000e576020600154604051908152f35b503461000e5760207ffffffffffffffffffffffffffffffffffffffffffffffffffffffffffffffffc36011261000e57600435610600816100f8565b73ffffffffffffffffffffffffffffffffffffffff610624816000541633146107c3565b8116156106345761035890610828565b60846040517f08c379a000000000000000000000000000000000000000000000000000000000815260206004820152602660248201527f4f776e61626c653a206e6577206f776e657220697320746865207a65726f206160448201527f64647265737300000000000000000000000000000000000000000000000000006064820152fd5b9181601f8401121561000e5782359167ffffffffffffffff831161000e576020808501948460051b01011161000e57565b503461000e5760e07ffffffffffffffffffffffffffffffffffffffffffffffffffffffffffffffffc36011261000e5767ffffffffffffffff60043581811161000e5761073a9036906004016106b8565b9060243583811161000e576107539036906004016106b8565b92909160443594851161000e576107716103589536906004016106b8565b9060c4359560a435956084359560643595610dcb565b503461000e5760007ffffffffffffffffffffffffffffffffffffffffffffffffffffffffffffffffc36011261000e5760206040516117708152f35b156107ca57565b60646040517f08c379a000000000000000000000000000000000000000000000000000000000815260206004820152602060248201527f4f776e61626c653a2063616c6c6572206973206e6f7420746865206f776e65726044820152fd5b6000549073ffffffffffffffffffffffffffffffffffffffff80911691827fffffffffffffffffffffffff0000000000000000000000000000000000000000821617600055167f8be0079c531659141344cd1fd0a4f28419497f9722a3daafe3b4186f6b6457e06000604051a3565b90601f7fffffffffffffffffffffffffffffffffffffffffffffffffffffffffffffffe0910116810190811067ffffffffffffffff8211176108d857604052565b7f4e487b7100000000000000000000000000000000000000000000000000000000600052604160045260246000fd5b9081602091031261000e575190565b506040513d6000823e3d90fd5b9081602091031261000e5751801515810361000e5790565b507f4e487b7100000000000000000000000000000000000000000000000000000000600052601160045260246000fd5b807fffffffffffffffffffffffffffffffffffffffffffffffffffffffffffffffff0482118115151661099c570290565b6109a461093b565b0290565b90156109b15790565b7f4e487b7100000000000000000000000000000000000000000000000000000000600052603260045260246000fd5b91908110156109b15760051b0190565b356109fa816100f8565b90565b15610a0457565b60646040517f08c379a000000000000000000000000000000000000000000000000000000000815260206004820152601260248201527f466565207061796d656e74206661696c656400000000000000000000000000006044820152fd5b7fffffffffffffffffffffffffffffffffffffffffffffffffffffffffffffffff9060018110610a90570190565b610a9861093b565b0190565b818110610aa7570390565b610aaf61093b565b0390565b15610aba57565b60846040517f08c379a000000000000000000000000000000000000000000000000000000000815260206004820152603860248201527f5377617020696e697469616c207472616e73666572206661696c65642e20446960448201527f6420796f7520617070726f7665207468652066756e64733f00000000000000006064820152fd5b91908082526020809201929160005b828110610b5b575050505090565b90919293828060019273ffffffffffffffffffffffffffffffffffffffff8835610b84816100f8565b16815201950193929101610b4d565b601f82602094937fffffffffffffffffffffffffffffffffffffffffffffffffffffffffffffffe0938186528686013760008582860101520116010190565b9795929390610bf290610c02939c9b9a989c60e08b5260e08b0191610b3e565b90602094898303868b0152610b3e565b91868303604088015281835280830192818360051b8201019480946000925b858410610c66575050505050505091610c629160c09493976060850152608084015260a083019073ffffffffffffffffffffffffffffffffffffffff169052565b0152565b909192939495967fffffffffffffffffffffffffffffffffffffffffffffffffffffffffffffffe082820301835287357fffffffffffffffffffffffffffffffffffffffffffffffffffffffffffffffe18536030181121561000e57840190813567ffffffffffffffff811161000e57803603861361000e57610cf0889283928360019601610b93565b990193019401929195949390610c21565b15610d0857565b60646040517f08c379a000000000000000000000000000000000000000000000000000000000815260206004820152601b60248201527f496e73756666696369656e74206f757470757420616d6f756e742100000000006044820152fd5b15610d6d57565b60646040517f08c379a000000000000000000000000000000000000000000000000000000000815260206004820152601560248201527f4f7574707574207061796d656e74206661696c656400000000000000000000006044820152fd5b9796939286958893600084610fbe6020969e8e610e2d610e1c7f0874b2d545cb271cdbda4e093020c452328b24af12382ed62c4d00f5c26709db9f610e13906001549061096b565b620f4240900490565b809e8682806112d9575b5050610a9c565b9e8f610ebf610e63610e4a610e4a610e458a886109a8565b6109f0565b73ffffffffffffffffffffffffffffffffffffffff1690565b6040517f23b872dd00000000000000000000000000000000000000000000000000000000815233600482015230602482015260448101849052908d90829060649082908d905af19081156112cc575b89916112af575b50610ab3565b610f528b82610ed7610e4a610e4a610e458c8a6109a8565b610ef9610e4a60035473ffffffffffffffffffffffffffffffffffffffff1690565b8b6040518096819582947f095ea7b3000000000000000000000000000000000000000000000000000000008452600484016020909392919373ffffffffffffffffffffffffffffffffffffffff60408201951681520152565b03925af180156112a2575b611285575b50610f85610e4a60035473ffffffffffffffffffffffffffffffffffffffff1690565b986040519d8e9b8c9a8b997f0862d12f000000000000000000000000000000000000000000000000000000008b52309760048c01610bd2565b03925af1918215611278575b600092611253575b50610fdf90821015610d01565b8181118061124b575b156112435750935b61100c610e4a610e4a610e456110058a610a62565b8a866109e0565b6040517fa9059cbb0000000000000000000000000000000000000000000000000000000080825233600483015260248201889052929190611068906020816044816000875af1908115611236575b600091611217575b50610d66565b6040517f70a0823100000000000000000000000000000000000000000000000000000000815230600482015292602084602481855afa93841561120a575b6000946111d9575b5061112392846110e293610e459382611128575b5050506110d2610e458b836109a8565b996110dc81610a62565b916109e0565b9160405193849373ffffffffffffffffffffffffffffffffffffffff8091169916973397859094939260609260808301968352602083015260408201520152565b0390a4565b6111a59261118b92602092600061115460025473ffffffffffffffffffffffffffffffffffffffff1690565b60405192835273ffffffffffffffffffffffffffffffffffffffff1660048301526024820193909352938492839182906044820190565b03925af19081156111cc575b6000916111ad575b506109fd565b8438806110c2565b6111c6915060203d602011610379576103718183610897565b3861119f565b6111d4610916565b611197565b6110e292945092610e45916111ff6111239560203d6020116103b5576103a68183610897565b9593509150926110ae565b611212610916565b6110a6565b611230915060203d602011610379576103718183610897565b38611062565b61123e610916565b61105a565b905093610ff0565b508215610fe8565b610fdf9192506112719060203d6020116103b5576103a68183610897565b9190610fd2565b611280610916565b610fca565b61129b908c3d8e11610379576103718183610897565b5038610f62565b6112aa610916565b610f5d565b6112c691508d3d8f11610379576103718183610897565b38610eb9565b6112d4610916565b610eb2565b8d61135a916112f4610e4a610e4a610e45611372978c6109a8565b6002546040517f23b872dd00000000000000000000000000000000000000000000000000000000815233600482015273ffffffffffffffffffffffffffffffffffffffff90911660248201526044810192909252909283919082908e9082906064820190565b03925af1908115611390575b8a9161137957506109fd565b8682610e26565b6111c691508e3d8111610379576103718183610897565b611398610916565b61136656fea2646970667358221220284bc2d3b17885794787a17278d7c926ac3193ddc35e335280aa9ec545811cb264736f6c634300080d0033",
  "devdoc": {
    "kind": "dev",
    "methods": {
      "owner()": {
        "details": "Returns the address of the current owner."
      },
      "renounceOwnership()": {
        "details": "Leaves the contract without owner. It will not be possible to call `onlyOwner` functions anymore. Can only be called by the current owner. NOTE: Renouncing ownership will leave the contract without an owner, thereby removing any functionality that is only available to the owner."
      },
      "transferOwnership(address)": {
        "details": "Transfers ownership of the contract to a new account (`newOwner`). Can only be called by the current owner."
      }
    },
    "version": 1
  },
  "userdoc": {
    "kind": "user",
    "methods": {},
    "version": 1
  },
  "storageLayout": {
    "storage": [
      {
        "astId": 400,
        "contract": "contracts/swap/SwapSlippageAwareWithFee.sol:SwapSlippageAwareWithFee",
        "label": "_owner",
        "offset": 0,
        "slot": "0",
        "type": "t_address"
      },
      {
        "astId": 6537,
        "contract": "contracts/swap/SwapSlippageAwareWithFee.sol:SwapSlippageAwareWithFee",
        "label": "feeNumerator",
        "offset": 0,
        "slot": "1",
        "type": "t_uint256"
      },
      {
        "astId": 6539,
        "contract": "contracts/swap/SwapSlippageAwareWithFee.sol:SwapSlippageAwareWithFee",
        "label": "beneficiary",
        "offset": 0,
        "slot": "2",
        "type": "t_address"
      },
      {
        "astId": 6542,
        "contract": "contracts/swap/SwapSlippageAwareWithFee.sol:SwapSlippageAwareWithFee",
        "label": "swappaRouter",
        "offset": 0,
        "slot": "3",
        "type": "t_contract(ISwappaRouterV1)4620"
      }
    ],
    "types": {
      "t_address": {
        "encoding": "inplace",
        "label": "address",
        "numberOfBytes": "20"
      },
      "t_contract(ISwappaRouterV1)4620": {
        "encoding": "inplace",
        "label": "contract ISwappaRouterV1",
        "numberOfBytes": "20"
      },
      "t_uint256": {
        "encoding": "inplace",
        "label": "uint256",
        "numberOfBytes": "32"
      }
    }
  }
}