{
  "address": "0x60D1Fc74Ba80B8439EC565518676dc2E0623cD96",
  "abi": [
    {
      "inputs": [
        {
          "internalType": "address",
          "name": "_router",
          "type": "address"
        },
        {
          "internalType": "address",
          "name": "_factory",
          "type": "address"
        },
        {
          "internalType": "address",
          "name": "_rewarder",
          "type": "address"
        }
      ],
      "stateMutability": "nonpayable",
      "type": "constructor"
    },
    {
      "anonymous": false,
      "inputs": [
        {
          "indexed": true,
          "internalType": "address",
          "name": "previousOwner",
          "type": "address"
        },
        {
          "indexed": true,
          "internalType": "address",
          "name": "newOwner",
          "type": "address"
        }
      ],
      "name": "OwnershipTransferred",
      "type": "event"
    },
    {
      "inputs": [],
      "name": "factory",
      "outputs": [
        {
          "internalType": "address",
          "name": "",
          "type": "address"
        }
      ],
      "stateMutability": "view",
      "type": "function"
    },
    {
      "inputs": [],
      "name": "owner",
      "outputs": [
        {
          "internalType": "address",
          "name": "",
          "type": "address"
        }
      ],
      "stateMutability": "view",
      "type": "function"
    },
    {
      "inputs": [],
      "name": "renounceOwnership",
      "outputs": [],
      "stateMutability": "nonpayable",
      "type": "function"
    },
    {
      "inputs": [],
      "name": "router",
      "outputs": [
        {
          "internalType": "address",
          "name": "",
          "type": "address"
        }
      ],
      "stateMutability": "view",
      "type": "function"
    },
    {
      "inputs": [
        {
          "internalType": "address",
          "name": "_rewarder",
          "type": "address"
        }
      ],
      "name": "setRewarder",
      "outputs": [],
      "stateMutability": "nonpayable",
      "type": "function"
    },
    {
      "inputs": [
        {
          "internalType": "address",
          "name": "from",
          "type": "address"
        },
        {
          "internalType": "address",
          "name": "to",
          "type": "address"
        },
        {
          "internalType": "uint256",
          "name": "fromAmount",
          "type": "uint256"
        },
        {
          "internalType": "uint256",
          "name": "minAmountOut",
          "type": "uint256"
        },
        {
          "internalType": "uint256",
          "name": "percentMin",
          "type": "uint256"
        },
        {
          "internalType": "address",
          "name": "user",
          "type": "address"
        }
      ],
      "name": "swapAndZapIn",
      "outputs": [],
      "stateMutability": "nonpayable",
      "type": "function"
    },
    {
      "inputs": [
        {
          "internalType": "address",
          "name": "newOwner",
          "type": "address"
        }
      ],
      "name": "transferOwnership",
      "outputs": [],
      "stateMutability": "nonpayable",
      "type": "function"
    },
    {
      "inputs": [
        {
          "internalType": "address",
          "name": "token0",
          "type": "address"
        },
        {
          "internalType": "address",
          "name": "token1",
          "type": "address"
        },
        {
          "internalType": "uint256",
          "name": "token0Amount",
          "type": "uint256"
        },
        {
          "internalType": "uint256",
          "name": "token1Amount",
          "type": "uint256"
        },
        {
          "internalType": "uint256",
          "name": "percentMin",
          "type": "uint256"
        },
        {
          "internalType": "address",
          "name": "user",
          "type": "address"
        }
      ],
      "name": "zapIn",
      "outputs": [],
      "stateMutability": "nonpayable",
      "type": "function"
    },
    {
      "stateMutability": "payable",
      "type": "receive"
    }
  ],
  "transactionHash": "0xd51a7cd8060b387861b2657a2c34313a6e5eab917a6278458e05345a4c9108f5",
  "args": [
    "0xE3D8bd6Aed4F159bc8000a9cD47CffDb95F96121",
    "0x62d5b84bE28a183aBB507E125B384122D2C25fAE",
    "0x08da61b51AAcEB6DCf147A3a682BA8121158366F"
  ],
  "numDeployments": 1,
  "solcInputHash": "f3e962637861feb26a5d3a1835f50046",
  "bytecode": "0x60c06040523480156200001157600080fd5b5060405162001bcd38038062001bcd8339810160408190526200003491620000f7565b606083901b6001600160601b03191660805262000051336200008a565b60609190911b6001600160601b03191660a052600180546001600160a01b0319166001600160a01b039092169190911790555062000140565b600080546001600160a01b038381166001600160a01b0319831681178455604051919092169283917f8be0079c531659141344cd1fd0a4f28419497f9722a3daafe3b4186f6b6457e09190a35050565b80516001600160a01b0381168114620000f257600080fd5b919050565b6000806000606084860312156200010c578283fd5b6200011784620000da565b92506200012760208501620000da565b91506200013760408501620000da565b90509250925092565b60805160601c60a05160601c611a3762000196600039600081816101640152610d900152600081816101b8015281816106d20152818161079f01528181610f660152818161102f01526110d20152611a376000f3fe60806040526004361061007f5760003560e01c80639c697d941161004e5780639c697d9414610132578063c45a015514610152578063f2fde38b14610186578063f887ea40146101a657600080fd5b80633a6462e41461008b57806358042a03146100ad578063715018a6146100cd5780638da5cb5b146100e257600080fd5b3661008657005b600080fd5b34801561009757600080fd5b506100ab6100a6366004611611565b6101da565b005b3480156100b957600080fd5b506100ab6100c8366004611649565b6102a7565b3480156100d957600080fd5b506100ab610300565b3480156100ee57600080fd5b5060005473ffffffffffffffffffffffffffffffffffffffff165b60405173ffffffffffffffffffffffffffffffffffffffff909116815260200160405180910390f35b34801561013e57600080fd5b506100ab61014d366004611649565b61038d565b34801561015e57600080fd5b506101097f000000000000000000000000000000000000000000000000000000000000000081565b34801561019257600080fd5b506100ab6101a1366004611611565b6103e7565b3480156101b257600080fd5b506101097f000000000000000000000000000000000000000000000000000000000000000081565b60005473ffffffffffffffffffffffffffffffffffffffff163314610260576040517f08c379a000000000000000000000000000000000000000000000000000000000815260206004820181905260248201527f4f776e61626c653a2063616c6c6572206973206e6f7420746865206f776e657260448201526064015b60405180910390fd5b600180547fffffffffffffffffffffffff00000000000000000000000000000000000000001673ffffffffffffffffffffffffffffffffffffffff92909216919091179055565b6102c973ffffffffffffffffffffffffffffffffffffffff8716333087610517565b60006102d66002866118e9565b905060006102e6888884886105b2565b90506102f68888848488886108a0565b5050505050505050565b60005473ffffffffffffffffffffffffffffffffffffffff163314610381576040517f08c379a000000000000000000000000000000000000000000000000000000000815260206004820181905260248201527f4f776e61626c653a2063616c6c6572206973206e6f7420746865206f776e65726044820152606401610257565b61038b6000610bf6565b565b6103af73ffffffffffffffffffffffffffffffffffffffff8716333087610517565b6103d173ffffffffffffffffffffffffffffffffffffffff8616333086610517565b6103df8686868686866108a0565b505050505050565b60005473ffffffffffffffffffffffffffffffffffffffff163314610468576040517f08c379a000000000000000000000000000000000000000000000000000000000815260206004820181905260248201527f4f776e61626c653a2063616c6c6572206973206e6f7420746865206f776e65726044820152606401610257565b73ffffffffffffffffffffffffffffffffffffffff811661050b576040517f08c379a000000000000000000000000000000000000000000000000000000000815260206004820152602660248201527f4f776e61626c653a206e6577206f776e657220697320746865207a65726f206160448201527f64647265737300000000000000000000000000000000000000000000000000006064820152608401610257565b61051481610bf6565b50565b6040805173ffffffffffffffffffffffffffffffffffffffff85811660248301528416604482015260648082018490528251808303909101815260849091019091526020810180517bffffffffffffffffffffffffffffffffffffffffffffffffffffffff167f23b872dd000000000000000000000000000000000000000000000000000000001790526105ac908590610c6b565b50505050565b604080516002808252606082018352600092839291906020830190803683370190505090508581600081518110610612577f4e487b7100000000000000000000000000000000000000000000000000000000600052603260045260246000fd5b602002602001019073ffffffffffffffffffffffffffffffffffffffff16908173ffffffffffffffffffffffffffffffffffffffff16815250508481600181518110610687577f4e487b7100000000000000000000000000000000000000000000000000000000600052603260045260246000fd5b73ffffffffffffffffffffffffffffffffffffffff92831660209182029290920101526040517f095ea7b30000000000000000000000000000000000000000000000000000000081527f000000000000000000000000000000000000000000000000000000000000000082166004820152602481018690529087169063095ea7b390604401602060405180830381600087803b15801561072657600080fd5b505af115801561073a573d6000803e3d6000fd5b505050506040513d601f19601f8201168201806040525081019061075e919061178d565b506040517f38ed173900000000000000000000000000000000000000000000000000000000815260009073ffffffffffffffffffffffffffffffffffffffff7f000000000000000000000000000000000000000000000000000000000000000016906338ed1739906107dc908890889087903090429060040161185f565b600060405180830381600087803b1580156107f657600080fd5b505af115801561080a573d6000803e3d6000fd5b505050506040513d6000823e601f3d9081017fffffffffffffffffffffffffffffffffffffffffffffffffffffffffffffffe016820160405261085091908101906116af565b90508060018151811061088c577f4e487b7100000000000000000000000000000000000000000000000000000000600052603260045260246000fd5b602002602001015192505050949350505050565b6108ae868686868686610d7c565b6001546040517faa906c0b00000000000000000000000000000000000000000000000000000000815273ffffffffffffffffffffffffffffffffffffffff838116600483015288811660248301528781166044830152606482018790526084820186905260a482018590529091169063aa906c0b9060c401600060405180830381600087803b15801561094057600080fd5b505af1158015610954573d6000803e3d6000fd5b50506040517f70a0823100000000000000000000000000000000000000000000000000000000815230600482015273ffffffffffffffffffffffffffffffffffffffff8916925063a9059cbb9150839083906370a082319060240160206040518083038186803b1580156109c757600080fd5b505afa1580156109db573d6000803e3d6000fd5b505050506040513d601f19601f820116820180604052508101906109ff91906117ad565b6040517fffffffff0000000000000000000000000000000000000000000000000000000060e085901b16815273ffffffffffffffffffffffffffffffffffffffff90921660048301526024820152604401602060405180830381600087803b158015610a6a57600080fd5b505af1158015610a7e573d6000803e3d6000fd5b505050506040513d601f19601f82011682018060405250810190610aa2919061178d565b506040517f70a0823100000000000000000000000000000000000000000000000000000000815230600482015273ffffffffffffffffffffffffffffffffffffffff86169063a9059cbb90839083906370a082319060240160206040518083038186803b158015610b1257600080fd5b505afa158015610b26573d6000803e3d6000fd5b505050506040513d601f19601f82011682018060405250810190610b4a91906117ad565b6040517fffffffff0000000000000000000000000000000000000000000000000000000060e085901b16815273ffffffffffffffffffffffffffffffffffffffff90921660048301526024820152604401602060405180830381600087803b158015610bb557600080fd5b505af1158015610bc9573d6000803e3d6000fd5b505050506040513d601f19601f82011682018060405250810190610bed919061178d565b50505050505050565b6000805473ffffffffffffffffffffffffffffffffffffffff8381167fffffffffffffffffffffffff0000000000000000000000000000000000000000831681178455604051919092169283917f8be0079c531659141344cd1fd0a4f28419497f9722a3daafe3b4186f6b6457e09190a35050565b6000610ccd826040518060400160405280602081526020017f5361666545524332303a206c6f772d6c6576656c2063616c6c206661696c65648152508573ffffffffffffffffffffffffffffffffffffffff16610f109092919063ffffffff16565b805190915015610d775780806020019051810190610ceb919061178d565b610d77576040517f08c379a000000000000000000000000000000000000000000000000000000000815260206004820152602a60248201527f5361666545524332303a204552433230206f7065726174696f6e20646964206e60448201527f6f742073756363656564000000000000000000000000000000000000000000006064820152608401610257565b505050565b610d898686868686610f29565b6000610db67f000000000000000000000000000000000000000000000000000000000000000088886111f2565b6040517f70a0823100000000000000000000000000000000000000000000000000000000815230600482015290915060009073ffffffffffffffffffffffffffffffffffffffff8316906370a082319060240160206040518083038186803b158015610e2157600080fd5b505afa158015610e35573d6000803e3d6000fd5b505050506040513d601f19601f82011682018060405250810190610e5991906117ad565b6040517fa9059cbb00000000000000000000000000000000000000000000000000000000815273ffffffffffffffffffffffffffffffffffffffff8581166004830152602482018390529192509083169063a9059cbb90604401602060405180830381600087803b158015610ecd57600080fd5b505af1158015610ee1573d6000803e3d6000fd5b505050506040513d601f19601f82011682018060405250810190610f05919061178d565b505050505050505050565b6060610f1f84846000856112b9565b90505b9392505050565b6040517f095ea7b300000000000000000000000000000000000000000000000000000000815273ffffffffffffffffffffffffffffffffffffffff7f0000000000000000000000000000000000000000000000000000000000000000811660048301526024820185905286169063095ea7b390604401602060405180830381600087803b158015610fb957600080fd5b505af1158015610fcd573d6000803e3d6000fd5b505050506040513d601f19601f82011682018060405250810190610ff1919061178d565b506040517f095ea7b300000000000000000000000000000000000000000000000000000000815273ffffffffffffffffffffffffffffffffffffffff7f0000000000000000000000000000000000000000000000000000000000000000811660048301526024820184905285169063095ea7b390604401602060405180830381600087803b15801561108257600080fd5b505af1158015611096573d6000803e3d6000fd5b505050506040513d601f19601f820116820180604052508101906110ba919061178d565b5073ffffffffffffffffffffffffffffffffffffffff7f00000000000000000000000000000000000000000000000000000000000000001663e8e337008686868660646111078884611922565b61111191906118e9565b606461111d898b611922565b61112791906118e9565b6040517fffffffff0000000000000000000000000000000000000000000000000000000060e089901b16815273ffffffffffffffffffffffffffffffffffffffff968716600482015295909416602486015260448501929092526064840152608483015260a48201523060c48201524260e482015261010401606060405180830381600087803b1580156111ba57600080fd5b505af11580156111ce573d6000803e3d6000fd5b505050506040513d601f19601f820116820180604052508101906102f691906117c5565b60008060006112018585611439565b6040517fe6a4390500000000000000000000000000000000000000000000000000000000815273ffffffffffffffffffffffffffffffffffffffff808416600483015280831660248301529294509092509087169063e6a439059060440160206040518083038186803b15801561127757600080fd5b505afa15801561128b573d6000803e3d6000fd5b505050506040513d601f19601f820116820180604052508101906112af919061162d565b9695505050505050565b60608247101561134b576040517f08c379a000000000000000000000000000000000000000000000000000000000815260206004820152602660248201527f416464726573733a20696e73756666696369656e742062616c616e636520666f60448201527f722063616c6c00000000000000000000000000000000000000000000000000006064820152608401610257565b843b6113b3576040517f08c379a000000000000000000000000000000000000000000000000000000000815260206004820152601d60248201527f416464726573733a2063616c6c20746f206e6f6e2d636f6e74726163740000006044820152606401610257565b6000808673ffffffffffffffffffffffffffffffffffffffff1685876040516113dc91906117f2565b60006040518083038185875af1925050503d8060008114611419576040519150601f19603f3d011682016040523d82523d6000602084013e61141e565b606091505b509150915061142e8282866115be565b979650505050505050565b6000808273ffffffffffffffffffffffffffffffffffffffff168473ffffffffffffffffffffffffffffffffffffffff1614156114f8576040517f08c379a000000000000000000000000000000000000000000000000000000000815260206004820152602560248201527f556e697377617056324c6962726172793a204944454e544943414c5f4144445260448201527f45535345530000000000000000000000000000000000000000000000000000006064820152608401610257565b8273ffffffffffffffffffffffffffffffffffffffff168473ffffffffffffffffffffffffffffffffffffffff1610611532578284611535565b83835b909250905073ffffffffffffffffffffffffffffffffffffffff82166115b7576040517f08c379a000000000000000000000000000000000000000000000000000000000815260206004820152601e60248201527f556e697377617056324c6962726172793a205a45524f5f4144445245535300006044820152606401610257565b9250929050565b606083156115cd575081610f22565b8251156115dd5782518084602001fd5b816040517f08c379a0000000000000000000000000000000000000000000000000000000008152600401610257919061180e565b600060208284031215611622578081fd5b8135610f22816119df565b60006020828403121561163e578081fd5b8151610f22816119df565b60008060008060008060c08789031215611661578182fd5b863561166c816119df565b9550602087013561167c816119df565b945060408701359350606087013592506080870135915060a08701356116a1816119df565b809150509295509295509295565b600060208083850312156116c1578182fd5b825167ffffffffffffffff808211156116d8578384fd5b818501915085601f8301126116eb578384fd5b8151818111156116fd576116fd6119b0565b8060051b6040517fffffffffffffffffffffffffffffffffffffffffffffffffffffffffffffffe0603f83011681018181108582111715611740576117406119b0565b604052828152858101935084860182860187018a101561175e578788fd5b8795505b83861015611780578051855260019590950194938601938601611762565b5098975050505050505050565b60006020828403121561179e578081fd5b81518015158114610f22578182fd5b6000602082840312156117be578081fd5b5051919050565b6000806000606084860312156117d9578283fd5b8351925060208401519150604084015190509250925092565b60008251611804818460208701611984565b9190910192915050565b602081526000825180602084015261182d816040850160208701611984565b601f017fffffffffffffffffffffffffffffffffffffffffffffffffffffffffffffffe0169190910160400192915050565b600060a082018783526020878185015260a0604085015281875180845260c0860191508289019350845b818110156118bb57845173ffffffffffffffffffffffffffffffffffffffff1683529383019391830191600101611889565b505073ffffffffffffffffffffffffffffffffffffffff969096166060850152505050608001529392505050565b60008261191d577f4e487b710000000000000000000000000000000000000000000000000000000081526012600452602481fd5b500490565b6000817fffffffffffffffffffffffffffffffffffffffffffffffffffffffffffffffff048311821515161561197f577f4e487b710000000000000000000000000000000000000000000000000000000081526011600452602481fd5b500290565b60005b8381101561199f578181015183820152602001611987565b838111156105ac5750506000910152565b7f4e487b7100000000000000000000000000000000000000000000000000000000600052604160045260246000fd5b73ffffffffffffffffffffffffffffffffffffffff8116811461051457600080fdfea26469706673582212209d4e3ed8809b8ce999cfd7220b36ab9f2b44b7b126ed4c717e8b59d1c0f863eb64736f6c63430008040033",
  "devdoc": {
    "kind": "dev",
    "methods": {
      "owner()": {
        "details": "Returns the address of the current owner."
      },
      "renounceOwnership()": {
        "details": "Leaves the contract without owner. It will not be possible to call `onlyOwner` functions anymore. Can only be called by the current owner. NOTE: Renouncing ownership will leave the contract without an owner, thereby removing any functionality that is only available to the owner."
      },
      "transferOwnership(address)": {
        "details": "Transfers ownership of the contract to a new account (`newOwner`). Can only be called by the current owner."
      }
    },
    "version": 1
  },
  "userdoc": {
    "kind": "user",
    "methods": {},
    "version": 1
  },
  "storageLayout": {
    "storage": [
      {
        "astId": 389,
        "contract": "contracts/defi/UbeswapOperator.sol:UbeswapOperator",
        "label": "_owner",
        "offset": 0,
        "slot": "0",
        "type": "t_address"
      },
      {
        "astId": 3265,
        "contract": "contracts/defi/UbeswapOperator.sol:UbeswapOperator",
        "label": "rewarder",
        "offset": 0,
        "slot": "1",
        "type": "t_contract(IRewarder)3703"
      }
    ],
    "types": {
      "t_address": {
        "encoding": "inplace",
        "label": "address",
        "numberOfBytes": "20"
      },
      "t_contract(IRewarder)3703": {
        "encoding": "inplace",
        "label": "contract IRewarder",
        "numberOfBytes": "20"
      }
    }
  }
}