{
  "address": "0xbBAb105d4509f534e12086e32E0bD67678Ae6E8B",
  "abi": [
    {
      "inputs": [
        {
          "internalType": "address",
          "name": "positionsManagerAddress",
          "type": "address"
        },
        {
          "internalType": "address",
          "name": "factoryAddress",
          "type": "address"
        }
      ],
      "stateMutability": "nonpayable",
      "type": "constructor"
    },
    {
      "inputs": [],
      "name": "T",
      "type": "error"
    },
    {
      "inputs": [],
      "name": "factory",
      "outputs": [
        {
          "internalType": "contract IUniswapV3Factory",
          "name": "",
          "type": "address"
        }
      ],
      "stateMutability": "view",
      "type": "function"
    },
    {
      "inputs": [
        {
          "internalType": "uint256[]",
          "name": "tokenIds",
          "type": "uint256[]"
        }
      ],
      "name": "getPositions",
      "outputs": [
        {
          "components": [
            {
              "internalType": "address",
              "name": "poolAddress",
              "type": "address"
            },
            {
              "internalType": "uint96",
              "name": "nonce",
              "type": "uint96"
            },
            {
              "internalType": "address",
              "name": "operator",
              "type": "address"
            },
            {
              "internalType": "address",
              "name": "token0",
              "type": "address"
            },
            {
              "internalType": "address",
              "name": "token1",
              "type": "address"
            },
            {
              "internalType": "uint24",
              "name": "fee",
              "type": "uint24"
            },
            {
              "internalType": "int24",
              "name": "tickLower",
              "type": "int24"
            },
            {
              "internalType": "int24",
              "name": "tickUpper",
              "type": "int24"
            },
            {
              "internalType": "uint128",
              "name": "liquidity",
              "type": "uint128"
            },
            {
              "internalType": "uint256",
              "name": "amount0",
              "type": "uint256"
            },
            {
              "internalType": "uint256",
              "name": "amount1",
              "type": "uint256"
            },
            {
              "internalType": "uint256",
              "name": "feeGrowthInside0LastX128",
              "type": "uint256"
            },
            {
              "internalType": "uint256",
              "name": "feeGrowthInside1LastX128",
              "type": "uint256"
            },
            {
              "internalType": "uint128",
              "name": "tokensOwed0",
              "type": "uint128"
            },
            {
              "internalType": "uint128",
              "name": "tokensOwed1",
              "type": "uint128"
            }
          ],
          "internalType": "struct UniV3Positions.UniV3Position[]",
          "name": "",
          "type": "tuple[]"
        }
      ],
      "stateMutability": "view",
      "type": "function"
    },
    {
      "inputs": [],
      "name": "positionsManager",
      "outputs": [
        {
          "internalType": "contract INonfungiblePositionManager",
          "name": "",
          "type": "address"
        }
      ],
      "stateMutability": "view",
      "type": "function"
    }
  ],
  "transactionHash": "0xc1be525ef7d0fd942e950698cbdf92f1238c6f8b8f1a61a542fe7510ebf731e6",
  "args": [
    "0x3d79EdAaBC0EaB6F08ED885C05Fc0B014290D95A",
    "0xafe208a311b21f13ef87e33a90049fc17a7acdec"
  ],
  "numDeployments": 4,
  "solcInputHash": "bc81f2861f94d34fd96878844e81fc7f",
  "bytecode": "0x60803461009357601f61135e38819003918201601f19168301916001600160401b038311848410176100985780849260409485528339810103126100935780610056602061004f610084946100ae565b92016100ae565b600080546001600160a01b039384166001600160a01b03199182161790915560018054929093169116179055565b60405161129b90816100c38239f35b600080fd5b634e487b7160e01b600052604160045260246000fd5b51906001600160a01b03821682036100935756fe60a06040526004361015610013575b600080fd5b6000803560e01c9081634c723c28146100525750806352f0f814146100495763c45a01551461004157600080fd5b61000e6102bb565b5061000e610268565b346100db5760207ffffffffffffffffffffffffffffffffffffffffffffffffffffffffffffffffc3601126100db5760043567ffffffffffffffff918282116100db57366023830112156100db5781600401359283116100db573660248460051b840101116100db576100d76100cb846024850161073d565b604051918291826100de565b0390f35b80fd5b60208082019080835283518092528060408094019401926000905b83821061010857505050505090565b9091929394836101e060019261025b895161013983825173ffffffffffffffffffffffffffffffffffffffff169052565b808501516bffffffffffffffffffffffff16838601528087015173ffffffffffffffffffffffffffffffffffffffff168388015260608181015173ffffffffffffffffffffffffffffffffffffffff169084015260808181015173ffffffffffffffffffffffffffffffffffffffff169084015260a08181015162ffffff169084015260c08181015160020b9084015260e08181015160020b90840152610100818101516fffffffffffffffffffffffffffffffff169084015261012081810151908401526101408082015190840152610160808201519084015261018080820151908401526101a0808201516fffffffffffffffffffffffffffffffff16908401526101c0908101516fffffffffffffffffffffffffffffffff1690830152565b01960194939201906100f9565b503461000e5760007ffffffffffffffffffffffffffffffffffffffffffffffffffffffffffffffffc36011261000e57602073ffffffffffffffffffffffffffffffffffffffff60005416604051908152f35b503461000e5760007ffffffffffffffffffffffffffffffffffffffffffffffffffffffffffffffffc36011261000e57602073ffffffffffffffffffffffffffffffffffffffff60015416604051908152f35b507f4e487b7100000000000000000000000000000000000000000000000000000000600052604160045260246000fd5b6101e0810190811067ffffffffffffffff82111761035b57604052565b61036361030e565b604052565b90601f7fffffffffffffffffffffffffffffffffffffffffffffffffffffffffffffffe0910116810190811067ffffffffffffffff82111761035b57604052565b604051906103b68261033e565b565b60209067ffffffffffffffff81116103d2575b60051b0190565b6103da61030e565b6103cb565b906103e9826103b8565b6040906103f882519182610368565b8381527fffffffffffffffffffffffffffffffffffffffffffffffffffffffffffffffe061042682956103b8565b019160005b8381106104385750505050565b60209082516104468161033e565b60008152826000818301526000858301526000606083015260006080830152600060a0830152600060c0830152600060e08301526000610100830152600061012083015260006101408301526000610160830152600061018083015260006101a083015260006101c083015282860101520161042b565b507f4e487b7100000000000000000000000000000000000000000000000000000000600052601160045260246000fd5b6001907fffffffffffffffffffffffffffffffffffffffffffffffffffffffffffffffff811461051b570190565b6105236104bd565b0190565b507f4e487b7100000000000000000000000000000000000000000000000000000000600052603260045260246000fd5b91908110156105675760051b0190565b6103da610527565b73ffffffffffffffffffffffffffffffffffffffff81160361000e57565b51906103b68261056f565b519062ffffff8216820361000e57565b51908160020b820361000e57565b51906fffffffffffffffffffffffffffffffff8216820361000e57565b91908261018091031261000e5781516bffffffffffffffffffffffff8116810361000e57916106046020820161058d565b916106116040830161058d565b9161061e6060820161058d565b9161062b60808301610598565b9161063860a082016105a8565b9161064560c083016105a8565b9161065260e082016105b6565b91610100820151916101208101519161067b61016061067461014085016105b6565b93016105b6565b90565b506040513d6000823e3d90fd5b9081602091031261000e575161067b8161056f565b519061ffff8216820361000e57565b908160e091031261000e5780516106c58161056f565b916106d2602083016105a8565b916106df604082016106a0565b916106ec606083016106a0565b916106f9608082016106a0565b9160a082015160ff8116810361000e5760c090920151801515810361000e5790565b6020918151811015610730575b60051b010190565b610738610527565b610728565b610746826103df565b9160009061078461076b835473ffffffffffffffffffffffffffffffffffffffff1690565b73ffffffffffffffffffffffffffffffffffffffff1690565b906107a761076b60015473ffffffffffffffffffffffffffffffffffffffff1690565b925b8181106107b857505050505090565b6108026101806107c9838589610557565b35604051809381927f99fbab88000000000000000000000000000000000000000000000000000000008352600483019190602083019252565b0381875afa908115610ba2575b6000808180918982838490859286978799889b899d610b51575b5061083384610eb1565b9761083d86610eb1565b6040517f1698ee8200000000000000000000000000000000000000000000000000000000815273ffffffffffffffffffffffffffffffffffffffff84811660048301528516602482015262ffffff86166044820152986020908a9060649082905afa988915610b44575b600099610af3575b50876109179173ffffffffffffffffffffffffffffffffffffffff98999a9b6040517f3850c7bd0000000000000000000000000000000000000000000000000000000081528d8160048160e09e8f94165afa908115610ae6575b600091610ab3575b50610baf565b9a90996109226103a9565b608081905273ffffffffffffffffffffffffffffffffffffffff90911690526080516020019061095f91906bffffffffffffffffffffffff169052565b60805160400190610985919073ffffffffffffffffffffffffffffffffffffffff169052565b608051606001906109ab919073ffffffffffffffffffffffffffffffffffffffff169052565b6080805173ffffffffffffffffffffffffffffffffffffffff90921691015260805160a001906109df919062ffffff169052565b60805160c001906109f2919060020b9052565b6080510190610a03919060020b9052565b6080516101000190610a2691906fffffffffffffffffffffffffffffffff169052565b60805161012001526080516101400152608051610160015260805161018001526080516101a00190610a6991906fffffffffffffffffffffffffffffffff169052565b6080516101c00190610a8c91906fffffffffffffffffffffffffffffffff169052565b608051610a99828861071b565b52610aa4818761071b565b50610aae906104ed565b6107a9565b610ad391508b3d8d11610adf575b610acb8183610368565b8101906106af565b50505050505038610911565b503d610ac1565b610aee61067e565b610909565b8899509761091791610b3273ffffffffffffffffffffffffffffffffffffffff999a60203d602011610b3d575b610b2a8183610368565b81019061068b565b9a99985091506108af565b503d610b20565b610b4c61067e565b6108a7565b9a505050505050509550505050610b8291506101803d61018011610b9b575b610b7a8183610368565b8101906105d3565b9b909a9199929891979296909593949392909138610829565b503d610b70565b610baa61067e565b61080f565b90939260009290918373ffffffffffffffffffffffffffffffffffffffff80841681891611610c2b575b828116908881168211610bf85750505050610bf5929394610ccd565b91565b909192949550831611600014610c1f575090610c198361067b949383610ccd565b94610e63565b9461067b939250610e63565b969296610bd9565b73ffffffffffffffffffffffffffffffffffffffff9182169116818110610c58570390565b610c606104bd565b0390565b507f4e487b7100000000000000000000000000000000000000000000000000000000600052601260045260246000fd5b8015610cc0575b7fffffffffffffffffffffffffffffffffffffffffffffffffffffffffffffffff0490565b610cc8610c64565b610c9b565b91610d2a9073ffffffffffffffffffffffffffffffffffffffff9283811684861611610d43575b7bffffffffffffffffffffffffffffffff0000000000000000000000008480610d1d8885610c33565b1692169260601b16610dbc565b9116908115610d37570490565b610d3f610c64565b0490565b93610cf4565b1561000e57565b7fffffffffffffffffffffffffffffffffffffffffffffffffffffffffffffffff8282099082810292838084109303928084039314610db3576c01000000000000000000000000918383111561000e570990828211900360a01b910360601c1790565b50505060601c90565b90917fffffffffffffffffffffffffffffffffffffffffffffffffffffffffffffffff8383099280830292838086109503948086039514610e5457908291610e05868411610d49565b0981806000031680920460028082600302188083028203028083028203028083028203028083028203028083028203028092029003029360018380600003040190848311900302920304170290565b50509150610d3f821515610d49565b61067b9291610ea36fffffffffffffffffffffffffffffffff9273ffffffffffffffffffffffffffffffffffffffff9283811684831611610eab57610c33565b169116610d50565b90610c33565b60020b600081121561125f57806000035b620d89e881116112355773ffffffffffffffffffffffffffffffffffffffff91600182161561120c5770ffffffffffffffffffffffffffffffffff6ffffcb933bd6fad37aa2d162d1a5940015b1691600281166111f0575b600481166111d4575b600881166111b8575b6010811661119c575b60208116611180575b60408116611164575b608090818116611149575b610100811661112e575b6102008116611113575b61040081166110f8575b61080081166110dd575b61100081166110c2575b61200081166110a7575b614000811661108c575b6180008116611071575b620100008116611056575b62020000811661103c575b620400008116611022575b6208000016611007575b50600012610ff9575b63ffffffff8116610ff05760ff60005b169060201c011690565b60ff6001610fe6565b61100290610c94565b610fd6565b6b048a170391f7dc42444e8fa26000929302901c9190610fcd565b6d2216e584f5fa1ea926041bedfe98909302811c92610fc3565b926e5d6af8dedb81196699c329225ee60402811c92610fb8565b926f09aa508b5b7a84e1c677de54f3e99bc902811c92610fad565b926f31be135f97d08fd981231505542fcfa602811c92610fa2565b926f70d869a156d2a1b890bb3df62baf32f702811c92610f98565b926fa9f746462d870fdf8a65dc1f90e061e502811c92610f8e565b926fd097f3bdfd2022b8845ad8f792aa582502811c92610f84565b926fe7159475a2c29b7443b29c7fa6e889d902811c92610f7a565b926ff3392b0822b70005940c7a398e4b70f302811c92610f70565b926ff987a7253ac413176f2b074cf7815e5402811c92610f66565b926ffcbe86c7900a88aedcffc83b479aa3a402811c92610f5c565b926ffe5dee046a99a2a811c461f1969c305302811c92610f52565b916fff2ea16466c96a3843ec78b326b528610260801c91610f47565b916fff973b41fa98c081472e6896dfb254c00260801c91610f3e565b916fffcb9843d60f6159c9db58835c9266440260801c91610f35565b916fffe5caca7e10e4e61c3624eaa0941cd00260801c91610f2c565b916ffff2e50f5f656932ef12357cf3c7fdcc0260801c91610f23565b916ffff97272373d413259a46990580e213a0260801c91610f1a565b70ffffffffffffffffffffffffffffffffff700100000000000000000000000000000000610f0f565b60046040517f2bc80f3a000000000000000000000000000000000000000000000000000000008152fd5b80610ec256fea2646970667358221220d8ca08305e6deb85325e86e70ed53029a7c9a021ea16221499dbb9a3f7aac70164736f6c634300080d0033",
  "devdoc": {
    "kind": "dev",
    "methods": {},
    "version": 1
  },
  "userdoc": {
    "kind": "user",
    "methods": {},
    "version": 1
  },
  "storageLayout": {
    "storage": [
      {
        "astId": 8992,
        "contract": "contracts/multicall/UniV3Positions.sol:UniV3Positions",
        "label": "positionsManager",
        "offset": 0,
        "slot": "0",
        "type": "t_contract(INonfungiblePositionManager)7147"
      },
      {
        "astId": 8995,
        "contract": "contracts/multicall/UniV3Positions.sol:UniV3Positions",
        "label": "factory",
        "offset": 0,
        "slot": "1",
        "type": "t_contract(IUniswapV3Factory)7230"
      }
    ],
    "types": {
      "t_contract(INonfungiblePositionManager)7147": {
        "encoding": "inplace",
        "label": "contract INonfungiblePositionManager",
        "numberOfBytes": "20"
      },
      "t_contract(IUniswapV3Factory)7230": {
        "encoding": "inplace",
        "label": "contract IUniswapV3Factory",
        "numberOfBytes": "20"
      }
    }
  }
}