{
  "address": "0x0F3a17a31cF1898536d29FA17bdd3feB65cf923a",
  "abi": [
    {
      "anonymous": false,
      "inputs": [
        {
          "indexed": true,
          "internalType": "address",
          "name": "previousOwner",
          "type": "address"
        },
        {
          "indexed": true,
          "internalType": "address",
          "name": "newOwner",
          "type": "address"
        }
      ],
      "name": "OwnershipTransferred",
      "type": "event"
    },
    {
      "inputs": [
        {
          "internalType": "address[]",
          "name": "poolAddresses",
          "type": "address[]"
        }
      ],
      "name": "getPools",
      "outputs": [
        {
          "components": [
            {
              "internalType": "address",
              "name": "poolAddress",
              "type": "address"
            },
            {
              "internalType": "address",
              "name": "token0",
              "type": "address"
            },
            {
              "internalType": "address",
              "name": "token1",
              "type": "address"
            },
            {
              "internalType": "uint256",
              "name": "token0Balance",
              "type": "uint256"
            },
            {
              "internalType": "uint256",
              "name": "token1Balance",
              "type": "uint256"
            },
            {
              "internalType": "uint256",
              "name": "price",
              "type": "uint256"
            }
          ],
          "internalType": "struct UniV3Multicall.UniV3Pool[]",
          "name": "pools",
          "type": "tuple[]"
        }
      ],
      "stateMutability": "view",
      "type": "function"
    },
    {
      "inputs": [],
      "name": "owner",
      "outputs": [
        {
          "internalType": "address",
          "name": "",
          "type": "address"
        }
      ],
      "stateMutability": "view",
      "type": "function"
    },
    {
      "inputs": [],
      "name": "renounceOwnership",
      "outputs": [],
      "stateMutability": "nonpayable",
      "type": "function"
    },
    {
      "inputs": [
        {
          "internalType": "address",
          "name": "newOwner",
          "type": "address"
        }
      ],
      "name": "transferOwnership",
      "outputs": [],
      "stateMutability": "nonpayable",
      "type": "function"
    }
  ],
  "transactionHash": "0x1dce2ebd66d6dba0f939abe2b1708b7a51850082b0f2f9b15d4cae9ba3181d70",
  "args": [],
  "numDeployments": 2,
  "solcInputHash": "da5bf90d8d9dfd7343806a0819585c09",
  "bytecode": "0x6080806040523461005b5760008054336001600160a01b0319821681178355916001600160a01b03909116907f8be0079c531659141344cd1fd0a4f28419497f9722a3daafe3b4186f6b6457e09084a3610c9990816100618239f35b600080fdfe60806040526004361015610013575b600080fd5b6000803560e01c9081635e63547a1461006657508063715018a61461005d5780638da5cb5b146100545763f2fde38b1461004c57600080fd5b61000e610396565b5061000e610343565b5061000e61029e565b3461012a57602090817ffffffffffffffffffffffffffffffffffffffffffffffffffffffffffffffffc36011261012a576004359067ffffffffffffffff821161012a573660238301121561012a5781600401356100c3816101cb565b926100d1604051948561015d565b81845260248585019260051b8201019236841161012a5750602401905b8282106101115761010d61010185610775565b60405191829182610210565b0390f35b848091833561011f816101f2565b8152019101906100ee565b80fd5b507f4e487b7100000000000000000000000000000000000000000000000000000000600052604160045260246000fd5b90601f7fffffffffffffffffffffffffffffffffffffffffffffffffffffffffffffffe0910116810190811067ffffffffffffffff82111761019e57604052565b6101a661012d565b604052565b6040519060c0820182811067ffffffffffffffff82111761019e57604052565b60209067ffffffffffffffff81116101e5575b60051b0190565b6101ed61012d565b6101de565b73ffffffffffffffffffffffffffffffffffffffff81160361000e57565b60208082019080835283518092528060408094019401926000905b83821061023a57505050505090565b8451805173ffffffffffffffffffffffffffffffffffffffff908116885281850151811688860152818301511687830152606080820151908801526080808201519088015260a0908101519087015260c0909501949382019360019091019061022b565b503461000e576000807ffffffffffffffffffffffffffffffffffffffffffffffffffffffffffffffffc36011261012a5780547fffffffffffffffffffffffff000000000000000000000000000000000000000073ffffffffffffffffffffffffffffffffffffffff82169161031533841461048c565b16825581604051917f8be0079c531659141344cd1fd0a4f28419497f9722a3daafe3b4186f6b6457e08284a3f35b503461000e5760007ffffffffffffffffffffffffffffffffffffffffffffffffffffffffffffffffc36011261000e57602073ffffffffffffffffffffffffffffffffffffffff60005416604051908152f35b503461000e5760207ffffffffffffffffffffffffffffffffffffffffffffffffffffffffffffffffc36011261000e576004356103d2816101f2565b73ffffffffffffffffffffffffffffffffffffffff6103f68160005416331461048c565b81161561040857610406906104f1565b005b60846040517f08c379a000000000000000000000000000000000000000000000000000000000815260206004820152602660248201527f4f776e61626c653a206e6577206f776e657220697320746865207a65726f206160448201527f64647265737300000000000000000000000000000000000000000000000000006064820152fd5b1561049357565b60646040517f08c379a000000000000000000000000000000000000000000000000000000000815260206004820152602060248201527f4f776e61626c653a2063616c6c6572206973206e6f7420746865206f776e65726044820152fd5b6000549073ffffffffffffffffffffffffffffffffffffffff80911691827fffffffffffffffffffffffff0000000000000000000000000000000000000000821617600055167f8be0079c531659141344cd1fd0a4f28419497f9722a3daafe3b4186f6b6457e06000604051a3565b9061056a826101cb565b6040906105798251918261015d565b8381527fffffffffffffffffffffffffffffffffffffffffffffffffffffffffffffffe06105a782956101cb565b019160005b8381106105b95750505050565b602090825160c0810181811067ffffffffffffffff821117610609575b845260008152826000818301526000858301526000606083015260006080830152600060a08301528286010152016105ac565b61061161012d565b6105d6565b61ffff8091169081146106295760010190565b7f4e487b7100000000000000000000000000000000000000000000000000000000600052601160045260246000fd5b805182101561066c5760209160051b010190565b7f4e487b7100000000000000000000000000000000000000000000000000000000600052603260045260246000fd5b9081602091031261000e57516106b0816101f2565b90565b506040513d6000823e3d90fd5b9081602091031261000e575190565b9081602091031261000e57516fffffffffffffffffffffffffffffffff8116810361000e5790565b519061ffff8216820361000e57565b908160e091031261000e57805161071c816101f2565b9160208201518060020b810361000e5791610739604082016106f7565b91610746606083016106f7565b91610753608082016106f7565b9160a082015160ff8116810361000e5760c090920151801515810361000e5790565b61077f8151610560565b9160005b825161ffff821690811015610c5d5790610a55826107e06107c76107c76107ad610a5b978a610658565b5173ffffffffffffffffffffffffffffffffffffffff1690565b73ffffffffffffffffffffffffffffffffffffffff1690565b60408051907f0dfe16810000000000000000000000000000000000000000000000000000000091828152602092600484838281895afa928315610c50575b600093610c2f575b508361091e939451927f70a0823100000000000000000000000000000000000000000000000000000000968785528085806108808c88830191909173ffffffffffffffffffffffffffffffffffffffff6020820193169052565b038173ffffffffffffffffffffffffffffffffffffffff809b165afa948515610c22575b600095610c03575b50808984517fd21220a7000000000000000000000000000000000000000000000000000000009a8b825283828981865afa918215610bf6575b600092610bd7575b508a8751809b8195829483528b830191909173ffffffffffffffffffffffffffffffffffffffff6020820193169052565b0392165afa958615610bca575b600096610b9b575b508251967f1a686502000000000000000000000000000000000000000000000000000000008852818886818d5afa978815610b8e575b600098610b5f575b506fffffffffffffffffffffffffffffffff60009816610ad0575b50610a35949596978351928352818386818d5afa928315610ac3575b600093610aa2575b50819084519586918252818c5afa938415610a95575b600094610a60575b5090610a18916109fb6109df6101ab565b73ffffffffffffffffffffffffffffffffffffffff909b168b52565b89019073ffffffffffffffffffffffffffffffffffffffff169052565b86019073ffffffffffffffffffffffffffffffffffffffff169052565b6060840152608083015260a0820152610a4e8289610658565b5286610658565b50610616565b610783565b819450610a8690610a1893923d8711610a8e575b610a7e818361015d565b81019061069b565b9390916109ce565b503d610a74565b610a9d6106b3565b6109c6565b82919350610abc90823d8411610a8e57610a7e818361015d565b92906109b0565b610acb6106b3565b6109a8565b610a3595969784517f3850c7bd000000000000000000000000000000000000000000000000000000008152808c818960e09384935afa928315610b52575b92610b1f575b50501696959461098c565b610b3e9250803d10610b4b575b610b36818361015d565b810190610706565b5050505050503880610b14565b503d610b2c565b610b5a6106b3565b610b0e565b610b80919850823d8411610b87575b610b78818361015d565b8101906106cf565b9638610971565b503d610b6e565b610b966106b3565b610969565b81610bbc9297503d8811610bc3575b610bb4818361015d565b8101906106c0565b9438610933565b503d610baa565b610bd26106b3565b61092b565b610bef919250843d8611610a8e57610a7e818361015d565b90386108ed565b610bfe6106b3565b6108e5565b81610c1b9296503d8711610bc357610bb4818361015d565b93386108ac565b610c2a6106b3565b6108a4565b61091e9350610c4a90863d8811610a8e57610a7e818361015d565b92610826565b610c586106b3565b61081e565b5050905056fea26469706673582212208bc17e6d341b1d28bb11f787bae443fd5b3ab3e219cd8194801700dad57716c764736f6c634300080d0033",
  "devdoc": {
    "kind": "dev",
    "methods": {
      "owner()": {
        "details": "Returns the address of the current owner."
      },
      "renounceOwnership()": {
        "details": "Leaves the contract without owner. It will not be possible to call `onlyOwner` functions anymore. Can only be called by the current owner. NOTE: Renouncing ownership will leave the contract without an owner, thereby removing any functionality that is only available to the owner."
      },
      "transferOwnership(address)": {
        "details": "Transfers ownership of the contract to a new account (`newOwner`). Can only be called by the current owner."
      }
    },
    "version": 1
  },
  "userdoc": {
    "kind": "user",
    "methods": {},
    "version": 1
  },
  "storageLayout": {
    "storage": [
      {
        "astId": 400,
        "contract": "contracts/multicall/UniV3Multicall.sol:UniV3Multicall",
        "label": "_owner",
        "offset": 0,
        "slot": "0",
        "type": "t_address"
      }
    ],
    "types": {
      "t_address": {
        "encoding": "inplace",
        "label": "address",
        "numberOfBytes": "20"
      }
    }
  }
}