{
  "address": "0xC38e0298c9E6E1090E02e7C86F9ea9D298208B45",
  "abi": [
    {
      "inputs": [
        {
          "internalType": "contract IMiniChefV2",
          "name": "miniChef",
          "type": "address"
        },
        {
          "internalType": "address",
          "name": "rewarder",
          "type": "address"
        }
      ],
      "name": "getPools",
      "outputs": [
        {
          "components": [
            {
              "internalType": "address",
              "name": "poolAddress",
              "type": "address"
            },
            {
              "internalType": "uint256",
              "name": "amount0",
              "type": "uint256"
            },
            {
              "internalType": "address",
              "name": "token0",
              "type": "address"
            },
            {
              "internalType": "uint256",
              "name": "amount1",
              "type": "uint256"
            },
            {
              "internalType": "address",
              "name": "token1",
              "type": "address"
            },
            {
              "internalType": "uint256",
              "name": "miniChefPoolShare",
              "type": "uint256"
            },
            {
              "internalType": "uint256",
              "name": "miniChefAllocPoint",
              "type": "uint256"
            },
            {
              "internalType": "uint256",
              "name": "rewarderAllocPoint",
              "type": "uint256"
            }
          ],
          "internalType": "struct SushiMulticall.SushiPool[]",
          "name": "pools",
          "type": "tuple[]"
        }
      ],
      "stateMutability": "view",
      "type": "function"
    }
  ],
  "transactionHash": "0x6672d6f169cbe0847c9326fa095dd7888d70e98c956779fe0f50fbac0d2a9ad8",
  "args": [],
  "numDeployments": 5,
  "solcInputHash": "03d7455da17b8d2b4328242bd07e9302",
  "bytecode": "0x6080806040523461001657610b31908161001c8239f35b600080fdfe608060408181526004918236101561001657600080fd5b60009260e08435811c635b1dc86f14610030575050600080fd5b346104fc57837ffffffffffffffffffffffffffffffffffffffffffffffffffffffffffffffffc3601126104fc57813561006981610500565b6024359561007687610500565b7f081e3eda00000000000000000000000000000000000000000000000000000000855260209173ffffffffffffffffffffffffffffffffffffffff90811683878781845afa9687156104ef575b83976104d0575b506100d7879993996106b5565b97828a9416928315945b61ffff81168a8110156104bf57848c828f8a8a8f898f948c8051997f78ed5d1f000000000000000000000000000000000000000000000000000000008b528c888c8061013a848a830191909161ffff6020820193169052565b0381855afa9b8c156104b2575b849c610471575b509288928c9795926101bf97956101648a610966565b9a9298919b9097879d1682868c895194859283927f70a08231000000000000000000000000000000000000000000000000000000008452830191909173ffffffffffffffffffffffffffffffffffffffff6020820193169052565b0381845afa918215610464575b8892610445575b50816103a7575b5050508351977f1526fe2700000000000000000000000000000000000000000000000000000000808a5261025c61024f878c606081819f9a818061022c8d869f8d0191909161ffff6020820193169052565b03915afa90811561039a575b8b91610383575b50015167ffffffffffffffff1690565b67ffffffffffffffff1690565b9d1561030257505050505050975b61027261067f565b73ffffffffffffffffffffffffffffffffffffffff909c168c528b015273ffffffffffffffffffffffffffffffffffffffff168d8a015288015273ffffffffffffffffffffffffffffffffffffffff16608087015260a086015260c085015267ffffffffffffffff168c8401526102e8916108d2565b526102f3908c6108d2565b506102fd9061078b565b6100e1565b855190815261ffff90931690830190815261034395939183918290819060200103915afa918215610376575b916103495750015167ffffffffffffffff1690565b9761026a565b6103699150863d881161036f575b6103618183610622565b810190610858565b3861023f565b503d610357565b61037e610672565b61032e565b6103699150893d8b1161036f576103618183610622565b6103a2610672565b610238565b6103fa939d50828b918851928380927f18160ddd0000000000000000000000000000000000000000000000000000000082525afa928315610438575b8893610403575b50506103f5906107c3565b61080a565b998c38806101da565b6103f5929350908161042992903d10610431575b6104218183610622565b810190610663565b91908f6103ea565b503d610417565b610440610672565b6103e3565b61045d919250833d8511610431576104218183610622565b90386101d3565b61046c610672565b6101cc565b6101bf9694919795929c509261049d8a94853d87116104ab575b6104958183610622565b8101906107ab565b9c929597919496509261014e565b503d61048b565b6104ba610672565b610147565b8351806104cc8e82610523565b0390f35b6104e8919750843d8611610431576104218183610622565b95386100ca565b6104f7610672565b6100c3565b8480fd5b73ffffffffffffffffffffffffffffffffffffffff81160361051e57565b600080fd5b60208082019080835283518092528060408094019401926000905b83821061054d57505050505090565b8451805173ffffffffffffffffffffffffffffffffffffffff9081168852818501518886015281830151811688840152606080830151908901526080808301519091169088015260a0808201519088015260c0808201519088015260e09081015190870152610100909501949382019360019091019061053e565b507f4e487b7100000000000000000000000000000000000000000000000000000000600052604160045260246000fd5b610100810190811067ffffffffffffffff82111761061557604052565b61061d6105c8565b604052565b90601f7fffffffffffffffffffffffffffffffffffffffffffffffffffffffffffffffe0910116810190811067ffffffffffffffff82111761061557604052565b9081602091031261051e575190565b506040513d6000823e3d90fd5b6040519061068c826105f8565b565b60209067ffffffffffffffff81116106a8575b60051b0190565b6106b06105c8565b6106a1565b906106bf8261068e565b6040906106ce82519182610622565b8381527fffffffffffffffffffffffffffffffffffffffffffffffffffffffffffffffe06106fc829561068e565b019160005b83811061070e5750505050565b602090825161071c816105f8565b60008152826000818301526000858301526000606083015260006080830152600060a0830152600060c0830152600060e0830152828601015201610701565b507f4e487b7100000000000000000000000000000000000000000000000000000000600052601160045260246000fd5b60019061ffff80911690811461079f570190565b6107a761075b565b0190565b9081602091031261051e57516107c081610500565b90565b670de0b6b3a764000090807fffffffffffffffffffffffffffffffffffffffffffffffffffffffffffffffff048211811515166107fe570290565b61080661075b565b0290565b8115610814570490565b7f4e487b7100000000000000000000000000000000000000000000000000000000600052601260045260246000fd5b519067ffffffffffffffff8216820361051e57565b9081606091031261051e57604051906060820182811067ffffffffffffffff8211176108c5575b60405280516fffffffffffffffffffffffffffffffff8116810361051e576108bd9160409184526108b260208201610843565b602085015201610843565b604082015290565b6108cd6105c8565b61087f565b80518210156108e65760209160051b010190565b7f4e487b7100000000000000000000000000000000000000000000000000000000600052603260045260246000fd5b51906dffffffffffffffffffffffffffff8216820361051e57565b9081606091031261051e5761094481610915565b91604061095360208401610915565b92015163ffffffff8116810361051e5790565b73ffffffffffffffffffffffffffffffffffffffff166040517f0902f1ac000000000000000000000000000000000000000000000000000000008152606081600481855afa806000928392610ac7575b506109cc57505050600090600090600090600090565b909192604051937f0dfe1681000000000000000000000000000000000000000000000000000000008552602094858082600481865afa918215610aba575b600092610a9a575b5060049192604051928380927fd21220a70000000000000000000000000000000000000000000000000000000082525afa958615610a8d575b600096610a6e575b505093926dffffffffffffffffffffffffffff809116921690565b610a85929650803d106104ab576104958183610622565b933880610a53565b610a95610672565b610a4b565b60049250610ab490823d84116104ab576104958183610622565b91610a12565b610ac2610672565b610a0a565b909250610aeb915060603d8111610af4575b610ae38183610622565b810190610930565b509091386109b6565b503d610ad956fea264697066735822122090782339bc4edf0f3948d71b73e4684fc63e7d1a08efff8adcd47cae2015c3a964736f6c634300080d0033",
  "devdoc": {
    "kind": "dev",
    "methods": {},
    "version": 1
  },
  "userdoc": {
    "kind": "user",
    "methods": {},
    "version": 1
  },
  "storageLayout": {
    "storage": [],
    "types": null
  }
}