{
  "address": "0x8F8664b53Cd6d54298a9EEd0D07Cc0dfb953A2b4",
  "abi": [
    {
      "inputs": [
        {
          "internalType": "contract IMiniChefV2",
          "name": "miniChef",
          "type": "address"
        },
        {
          "internalType": "address",
          "name": "rewarder",
          "type": "address"
        },
        {
          "internalType": "address",
          "name": "owner",
          "type": "address"
        }
      ],
      "name": "getPositions",
      "outputs": [
        {
          "components": [
            {
              "internalType": "address",
              "name": "poolAddress",
              "type": "address"
            },
            {
              "internalType": "uint256",
              "name": "share",
              "type": "uint256"
            },
            {
              "internalType": "contract IERC20[]",
              "name": "rewardTokens",
              "type": "address[]"
            },
            {
              "internalType": "uint256[]",
              "name": "rewardAmounts",
              "type": "uint256[]"
            },
            {
              "internalType": "uint256",
              "name": "pendingSushi",
              "type": "uint256"
            }
          ],
          "internalType": "struct SushiUserPositionsMulticall.SushiPosition[]",
          "name": "",
          "type": "tuple[]"
        }
      ],
      "stateMutability": "view",
      "type": "function"
    }
  ],
  "transactionHash": "0xf795501d0c2e2f069f4a1e43ca1029a46012e03dec61ce3971f6218d6277f7f3",
  "args": [],
  "numDeployments": 2,
  "solcInputHash": "b72c8abb1a503a7b882dabdad6fa2f4c",
  "bytecode": "0x6080806040523461001657610ae9908161001c8239f35b600080fdfe60806040908082526004918236101561001757600080fd5b6000803560e01c632090f4671461002e5750600080fd5b3461052e576060807ffffffffffffffffffffffffffffffffffffffffffffffffffffffffffffffffc36011261052a5784359461006a86610531565b6024359161007783610531565b6044359061008482610531565b73ffffffffffffffffffffffffffffffffffffffff809816947f081e3eda000000000000000000000000000000000000000000000000000000008852602092838986818a5afa98891561051d575b82996104fe575b506100e5899699610774565b988a16801515835b888110610105578a51806101018e82610588565b0390f35b8b8d9189898e8e8a8a8a8a85519a7f93f1a40b000000000000000000000000000000000000000000000000000000008c52868c808c878d83019161016b9290929173ffffffffffffffffffffffffffffffffffffffff6020916040840195845216910152565b0381895afa9b8c156104f1575b859c6104c1575b508b156104ac57899a9b886101c59b8b8a519d8e9283927f78ed5d1f00000000000000000000000000000000000000000000000000000000845283019190602083019252565b03818a5afa9a8b1561049f575b869b61044d575b509387938c8b98946103869f9b846103809f9c849f97839b8f859061029f9f9b6102469551809581937f18160ddd000000000000000000000000000000000000000000000000000000008352165afa918215610440575b8a9261041d575b50610241906108b9565b610900565b97848d8b519d8e94859384937f195426ec000000000000000000000000000000000000000000000000000000008552840190929173ffffffffffffffffffffffffffffffffffffffff6020916040840195845216910152565b03915afa988915610410575b85996103df575b5097989697899790156103c15790849392916103218851998a95869485947fd63b3c49000000000000000000000000000000000000000000000000000000008652850173ffffffffffffffffffffffffffffffffffffffff604092959493606083019683521660208201520152565b03915afa9384156103b4575b81809561038b575b505092935b61036161034561072d565b73ffffffffffffffffffffffffffffffffffffffff9098168852565b8601528401528c830152608082015261037a8383610a70565b52610a70565b50610851565b6100ed565b9091506103ab9294503d8091833e6103a381836106c3565b8101906109d0565b92908f80610335565b6103bc610720565b61032d565b505050505091506103d0610939565b916103d9610939565b9361033a565b8861040192999a503d8b11610409575b6103f981836106c3565b810190610711565b9796386102b2565b503d6103ef565b610418610720565b6102ab565b61024191925061043990863d8811610409576103f981836106c3565b9190610237565b610448610720565b610230565b899b50938c8b989487939f9b80988c849f9b979d99833d8511610498575b61047581836106c3565b8101610480916108a1565b9f505050509498505093979195999a989c90946101d9565b503d61046b565b6104a7610720565b6101d2565b50505050505050505090506103869150610851565b6104e2919c50873d89116104ea575b6104da81836106c3565b81019061088b565b509a3861017f565b503d6104d0565b6104f9610720565b610178565b610516919950843d8611610409576103f981836106c3565b97386100d9565b610525610720565b6100d2565b5080fd5b80fd5b73ffffffffffffffffffffffffffffffffffffffff81160361054f57565b600080fd5b90815180825260208080930193019160005b828110610574575050505090565b835185529381019392810192600101610566565b602080820190808352835180925260409283810182858560051b84010196019460009081935b8685106105c057505050505050505090565b90919293949596977fffffffffffffffffffffffffffffffffffffffffffffffffffffffffffffffc08282030185528689519160a080820173ffffffffffffffffffffffffffffffffffffffff808651168452848601518585015287860151928885015282518092528460c0850193019189915b818310610677575050505092829161065b6001956060808501519084830390850152610554565b916080809101519101529a0195019501939695949291906105ae565b8351811685528d96948501949390930192600190920191610634565b507f4e487b7100000000000000000000000000000000000000000000000000000000600052604160045260246000fd5b90601f7fffffffffffffffffffffffffffffffffffffffffffffffffffffffffffffffe0910116810190811067ffffffffffffffff82111761070457604052565b61070c610693565b604052565b9081602091031261054f575190565b506040513d6000823e3d90fd5b6040519060a0820182811067ffffffffffffffff82111761070457604052565b60209067ffffffffffffffff8111610767575b60051b0190565b61076f610693565b610760565b9061077e8261074d565b60409061078d825191826106c3565b8381527fffffffffffffffffffffffffffffffffffffffffffffffffffffffffffffffe06107bb829561074d565b0191600091825b8481106107d0575050505050565b602090835160a0810181811067ffffffffffffffff821117610814575b855285815282868183015260608087840152808301528660808301528285010152016107c2565b61081c610693565b6107ed565b507f4e487b7100000000000000000000000000000000000000000000000000000000600052601160045260246000fd5b6001907fffffffffffffffffffffffffffffffffffffffffffffffffffffffffffffffff811461087f570190565b610887610821565b0190565b919082604091031261054f576020825192015190565b9081602091031261054f57516108b681610531565b90565b670de0b6b3a764000090807fffffffffffffffffffffffffffffffffffffffffffffffffffffffffffffffff048211811515166108f4570290565b6108fc610821565b0290565b811561090a570490565b7f4e487b7100000000000000000000000000000000000000000000000000000000600052601260045260246000fd5b604051906000602083019280841067ffffffffffffffff851117610965575b8360405281815292369037565b61096d610693565b610958565b81601f8201121561054f578051916109898361074d565b9261099760405194856106c3565b808452602092838086019260051b82010192831161054f578301905b8282106109c1575050505090565b815181529083019083016109b3565b91909160408184031261054f5780519267ffffffffffffffff9384811161054f5782019381601f8601121561054f578451610a0a8161074d565b90610a1860405192836106c3565b808252602096878084019260051b8201019185831161054f5788809201905b838210610a5757505050509483015190811161054f576108b69201610972565b8280918351610a6581610531565b815201910190610a37565b8051821015610a845760209160051b010190565b7f4e487b7100000000000000000000000000000000000000000000000000000000600052603260045260246000fdfea264697066735822122048fe36e6626ed807e898c5e0e492561e62258d40ea412e7514d38a21fed82d0b64736f6c634300080d0033",
  "devdoc": {
    "kind": "dev",
    "methods": {},
    "version": 1
  },
  "userdoc": {
    "kind": "user",
    "methods": {},
    "version": 1
  },
  "storageLayout": {
    "storage": [],
    "types": null
  }
}